:020000040800F2
:10000000C87E0020490100087F8300086D78000841
:100010007D830008F54B000863B80008000000006D
:10002000000000000000000000000000599E0008D1
:10003000F74B000800000000FF8B0008699F0008D4
:100040006301000863010008630100086301000800
:1000500063010008630100086301000863010008F0
:1000600063010008630100086301000863010008E0
:1000700063010008630100086301000863010008D0
:1000800063010008630100086301000863010008C0
:10009000EDB7000863010008630100086301000870
:1000A00063010008630100086301000863010008A0
:1000B0006301000863010008630100086301000890
:1000C0006301000863010008630100086301000880
:1000D0006301000863010008630100086301000870
:1000E0006301000863010008630100086301000860
:1000F0006301000863010008630100086301000850
:10010000630100086301000863010008630100083F
:10011000630100086301000863010008630100082F
:10012000630100086301000863010008630100081F
:10013000DFF810D000F086FB0048004741DA0008E5
:10014000AFF30080C87E002006488047064800477D
:10015000FEE7FEE7FEE7FEE7FEE7FEE7FEE7FEE777
:10016000FEE7FEE7E59F0008310100082DE9F05F9A
:100170000546002092469B46884606468146402416
:100180001BE0284641464746224600F020F85346E9
:100190005A46C01A914110D311461846224600F023
:1001A0001BF92D1A67EB01084F462246012000215A
:1001B00000F012F917EB00094E41201EA4F10104D2
:1001C000DFDC484631462A464346BDE8F09F202AF8
:1001D00004DB203A21FA02F00021704721FA02F3F1
:1001E000D040C2F120029140084319467047D2B274
:1001F00001E000F8012B491EFBD270470022F6E710
:1002000010B513460A4604461946FFF7F0FF20468C
:1002100010BD10B5044604E00B7800F8013B03B1B3
:10022000491C521EF8D2204610BD421C10F8011B7A
:100230000029FBD1801A704710B5002200E0521C43
:10024000835C8C5CA34201D1002BF8D1D8B2E1B21F
:10025000401A10BD0022CBB20178994200D102466B
:10026000401C0029F8D11046704770B506460BF0C7
:1002700083FB046805460A220021304600F0BBF8E3
:100280002C6070BD80EA010210B502F0004340000E
:1002900022D04A001FD0010E01EB1261C0F35600BC
:1002A000C2F3560240F4000042F40002A0FB022018
:1002B00000047F39140400D0401C50EA124001D4DD
:1002C0004000491EC2B20C0604EBD010401C40088E
:1002D000802A02D003E0002010BD20F00100002998
:1002E00000DA0020184310BD30B480EA010202F0A9
:1002F000004530F0004221F0004013D090B1C30D12
:10030000D40DC2F31601C0F31600E41A41F4000143
:1003100040F400027D34914201D3641C00E04900A6
:10032000002C02DA30BC002070474FF4000000239C
:10033000914201D3891A034340084FEA4101F7D1A2
:1003400051B1914202D14FF0004105E002D24FF08D
:10035000010101E06FF0010103EBC450284430BCFF
:1003600000F081B8420005D0C0F3C752524291421A
:1003700001DC0020704700EBC1507047962300223B
:10038000114600F079B800F0004230F000400AD089
:10039000C10D01F56071C0F3160042EA0151C208B7
:1003A00040071143704700200146704730B50B46A7
:1003B000014600202022012409E021FA02F59D4295
:1003C00005D303FA02F5491B04FA02F52844151E69
:1003D000A2F10102F1DC30BD202A04DB203A00FA50
:1003E00002F1002070479140C2F1200320FA03F38C
:1003F0001943904070472DE9F04791460F468046DB
:100400000446002614F8015B2DB100F03FFA0068A5
:10041000405DC007F6D12B2D02D02D2D18D0641EC3
:100420004A463946204600F035FA27B13968A142DC
:1004300001D1C7F8008071054FF002040BD540428E
:10044000002803DD0BF098FA0460A007BDE8F087F0
:1004500046F48066E4E70028F8DA0BF08DFA0460D1
:100460006FF00040F2E70029A8BF7047401C490028
:1004700008BF20F00100704710B4B0FA80FC00FA09
:100480000CF050EA010404BF10BC704749B1CCF134
:10049000200421FA04F411FA0CF118BF01212143C0
:1004A0000843A3EB0C01CB1D4FEA00614FEA10207B
:1004B00042BF002010BC704700EBC350104400291D
:1004C000A4BF10BC7047401C490008BF20F00100C9
:1004D00010BC70472DE9FE4F804681EA0300C00F33
:1004E0000C46009021F0004123F00045B8EB0200DB
:1004F000A94105D24046214690461C460B4602467D
:1005000023F00040104347D0270DC7F30A00C3F380
:100510000A510290401A019040286BDAC3F313008D
:1005200040F4801B0098924620B10023D2EB030ACE
:1005300063EB0B0B01985946C0F140025046FFF7A0
:100540004BFF06460D4650465946019A00F08CF97D
:1005500010EB08006141002487EA115284EAE77336
:100560001A4340D0009A62B3019A012A4FEA075217
:1005700015DC001B61EB02014FF0004202EA07525A
:10058000CDE90042001C41F5801132462B4600F0B7
:10059000DFF903B0BDE8F08F40462146F9E7001BC4
:1005A00061EB0201001C41F5801300185B4120182B
:1005B000A2F5001747EB030140EAD570B6196D416B
:1005C00011E06D084FEA360645EAC0754FEA07525A
:1005D000001B61EB0201001C41F5801149084FEA44
:1005E00030000019514132462B4603B0BDE8F04FB0
:1005F00000F09FB90098012240000023D0EB0202D6
:1006000063EBE073009821464FEAE074B8EB00001A
:1006100061EB0401E9E783F000435BE781F000410F
:1006200058E72DE9FE4F81EA030404F0004421F06D
:10063000004100944FF0000B23F0004350EA010406
:100640005ED052EA03045BD0C3F30A54C1F30A55E7
:100650002C44A4F2F3340194A0FB0254C1F313011F
:1006600041F48011C3F3130343F4801301FB0244EC
:1006700000FB034E840A970A44EA815447EA8357F1
:10068000A4FB076802958D0A05FB07854FEA932CAA
:1006900004FB0C542705029D4FEA065847EA16371B
:1006A000B5EB08056EEB070C870E920E47EA811733
:1006B00042EA8312A7FB0201B6EB0B0164EB0004D4
:1006C0002B0D43EA0C335E1844EB1C50DA465146BE
:1006D000E7FB0201C5F313044FEA0B3343EA14535B
:1006E0004FEA0432019C43EA0603A4F10C0402948D
:1006F000009CCDE900B400F02BF903B0BDE8F08F09
:1007000000200146F9E72DE9F04D81EA030404F0E9
:10071000004B21F0004514464FF0000A23F0004141
:1007200050EA050220D054EA01021DD0C5F30A5751
:100730000246C5F31303C1F31300C1F30A5640F494
:10074000801543F48013A7EB0608101BD64608F269
:10075000FD3873EB050002D308F1010801E092189F
:100760005B41B8F1000F03DA00200146BDE8F08DCF
:1007700000204FF48011064684460EE0171B73EBF1
:10078000050705D3121B63EB050306434CEA010C76
:1007900049084FEA300092185B4150EA0107EDD159
:1007A00052EA030012D082EA040083EA05010843FA
:1007B00005D0101BAB4106D20122002306E0002227
:1007C0004FF0004302E06FF0010253101AEB0600F5
:1007D0004CEB085110EB0A0041EB0B01BDE8F04D6A
:1007E00000F0A7B8C1F30A52C1F3130140F2FF337E
:1007F00041F480119A4202DA00200146704740F22B
:1008000033439A42A2F2334202DC5242FFF7DFBC8A
:10081000FFF7E2BD30B5041E71F1000404DB4FF0B8
:100820000044404264EB0101141E73F1000405DB37
:100830001C464FF00043524263EB0403994208BF49
:10084000904230BD064C074D06E0E06840F00103E1
:1008500094E8070098471034AC42F6D3FFF76CFCDD
:100860008C090108AC090108202A06DBCB17203AC5
:1008700041FA02F043EAE07306E041FA02F3D040A5
:10088000C2F1200291400843194670470048704762
:10089000600601082DE9F05F8246007800271546C2
:1008A0008B460AF10104B946302801D09DB113E00E
:1008B00014F8010B0127782803D0582801D045B13E
:1008C0000AE00DB1102D07D10027102514F8010BF7
:1008D00002E0082500E00A250026B0460EE005FBF0
:1008E000080005FB06F1012701EB10461FFA80F80E
:1008F000B6F5803F00D3B94614F8010B294600F045
:1009000075F80028EBDABBF1000F05D00FB1641EBB
:1009100000E05446CBF80040B9F1000F06D00BF0D0
:100920002BF802210160C81EBDE8F09F48EA06408E
:10093000FAE710B5141E73F1000408DA401C41F107
:10094000000192185B411A4301D120F0010010BD53
:100950002DE9F04D92469B4611B1B1FA81F202E0C9
:10096000B0FA80F220329046FFF736FD04460F467B
:1009700040EA0A0041EA0B0153465A46084313D0A5
:10098000114653EA010019D0C8F140025046FFF762
:100990001EFC05460E46504659464246FFF71CFDD2
:1009A000084305D0012004E020463946BDE8F08D1B
:1009B0000020054346EAE0762C4337430A98630556
:1009C000E40AA0EB08000022FD0A44EA47540A307A
:1009D00002D500200146E9E7010510196941DDE96A
:1009E000084500196941BDE8F04DA2E73A2800D258
:1009F000303820F02002412A01D3A2F1370088428A
:100A000001D34FF0FF30704770B58C1810F8015BC0
:100A100015F0070301D110F8013B2A1106D110F897
:100A2000012B03E010F8016B01F8016B5B1EF9D19B
:100A30002B0705D40023521E0DD401F8013BFAE721
:100A400010F8013BCB1A921C03E013F8015B01F88C
:100A5000015B521EF9D5A142D8D3002070BD000021
:100A60002DE9FC5F904641B1C2070AD0014658A06B
:100A70000AF022FF0220BDE8FC9F5FA00AF01CFFE5
:100A8000F8E74A1C56084FEA500911F0010700EB3D
:100A9000010202D00123934300E000230024A34677
:100AA000A2460193B8F1000F06D00B46014659A0AB
:100AB000521E00960AF000FF00255DE009EB0500DC
:100AC000410001F1C041002F0B883BD0711E8D42C7
:100AD00038D1019939B1FF21B1EB132F4BD0641CF0
:100AE000012C1AD01EE0D94311F0FF0F43D0641C33
:100AF000012C04D14FF0C04101EB400B9A46B8F1F4
:100B0000000F38D00A2C36D8D9B200914FF0C0412E
:100B100001EB400221464EA011E04FF0C04101EB35
:100B2000400B9A46B8F1000F25D00A2C23D8190A99
:100B300000914FF0C04101EB4002214653A00AF062
:100B4000BBFE18E0A3F57F41FF3914D0641C012CD3
:100B500004D14FF0C04101EB400B9A46B8F1000FB1
:100B600009D00A2C07D84FF0C04101EB40022146C2
:100B700055A00AF0A1FE6D1CB5429FD3B8F1000F3D
:100B800021D0002C1BD021465CA00AF095FE5246D5
:100B9000594662A00AF090FE0A2C03D9214669A0AA
:100BA0000AF08AFE71A00AF087FE75A00AF084FEA2
:100BB00080A00AF081FE8CA00AF07EFE04E096A0E0
:100BC0000AF07AFE02E00CB1012054E7002052E75F
:100BD000BCECB2E9CAA7B0DCA3BAC6F0CABCB5D8AF
:100BE000D6B7307825303858B2BBCAC7C5BCB6D4E2
:100BF000C6EB0D0A00000000BCECB2E9CAA7B0DCED
:100C0000A3BABCECB2E9B3A4B6C8B2BBC4DCCEAAEA
:100C1000300D0A00D5FDD4DABCECB2E9D0BEC6ACCA
:100C2000C7F8D3F23A2030782530386C58207E202F
:100C300030782530386C582028B9B2256C75D7D655
:100C4000BDDA2C20256C75B0EBD7D6290D0A000033
:100C50002020B4EDCEF32023256C753A20B5D8D6EC
:100C6000B730782530386C5820CAFDBEDD30782585
:100C70003034582028B5CDD7D6BDDA30782530327B
:100C800058B7C730784646290D0A00002020B4ED39
:100C9000CEF32023256C753A20B5D8D6B730782509
:100CA00030386C5820CAFDBEDD30782530345820ED
:100CB00028B8DFD7D6BDDA307825303258B7C730FC
:100CC000784646290D0A00002020B4EDCEF32023FB
:100CD000256C753A20B5D8D6B730782530386C58A1
:100CE00020CAFDBEDD3078253034582028D3A6CE6A
:100CF000AA307846464646290D0A00000D0A3F3FB5
:100D00002020BCECB2E9B7A2CFD620256C7520B864
:100D1000F6B7C7BFD5B0D7B5D8D6B7002028CAD741
:100D2000B8F6B4EDCEF3A3BAB5D8D6B7307825303F
:100D3000386C5820CAFDBEDD307825303458290D76
:100D40000A00000020202028D6BBCFD4CABEC1CBC9
:100D5000C7B03130B8F6B4EDCEF3A3ACB9B2256C60
:100D600075B8F6B4EDCEF3290D0A00000D0ABFC91F
:100D7000C4DCB5C4D4ADD2F2A3BA0D0A00000000A1
:100D80002020312E20D0BEC6ACC9D0CEB4B2C1B363
:100D9000FD202D20BDA8D2E9CFC8D6B4D0D0D5FB38
:100DA000C6ACB2C1B3FDA3A8D1A1CFEE32A3A90DA9
:100DB0000A0000002020322E20D0BEC6ACD2D1D3F3
:100DC000D0D3D0D0A7CAFDBEDD202D20D6B1BDD353
:100DD000D0B4C8EBBFC9C4DCB5BCD6C2CAFDBEDD49
:100DE000CBF0BBB50D0A00002020332E20D3B2BCBF
:100DF000FEC1ACBDD3CECACCE2202D20BCECB2E902
:100E000046534D43C1ACBDD3BACDD0BEC6ACB9A9D3
:100E1000B5E70D0A000000003F20BCECB2E9CDA808
:100E2000B9FDA3BAD6B8B6A8C7F8D3F2C8ABB2BF5B
:100E3000CEAA3078464646460D0A0000F8B504466C
:100E4000012211020020FFF70BFE00287BD0002CAE
:100E500079D062A00AF030FD69A00AF02DFD07F0FC
:100E60008FFA75A2012100200CF09EFF012175A2CE
:100E700008460CF099FF76A2012102200CF094FFA5
:100E800076A2012103200CF08FFF78A2012104201B
:100E90000CF08AFF79A2012105200CF085FF7AA2CF
:100EA000012106200CF080FF7BA2012107200CF01D
:100EB0007BFF07F06BFB04F0A1FA04464FF4FA75D0
:100EC000002742F2107629E006F09CFD58B175A08B
:100ED0000AF0F2FC07F054FA7BA2012100200CF08A
:100EE00063FF7DA269E006F039FD58B17CA00AF0ED
:100EF000E3FC07F045FA83A2012100200CF054FF27
:100F000084A242E08DF800700023012269468448E3
:100F100006F004FCE0B1142004F05EF804F06EFA70
:100F2000001BB042D0D37FA00AF0C6FC07F028FA1D
:100F300084A2012100200CF037FF012183A2084682
:100F40000CF032FF00E02CE0012183A202201EE021
:100F50009DF8000020385E2806D84FF0FF330122AC
:100F600069466F4806F032FC9DF80000592819D0F8
:100F7000792817D07BA00AF09FFC07F001FA61A244
:100F8000012100200CF010FF80A2012108460CF086
:100F90000BFF81A2012107200CF006FF07F0F6FAF3
:100FA0000220F8BD80A00AF087FC07F0E9F946A20C
:100FB000012100200CF0F8FE84A2012108460CF06B
:100FC000F3FE84A2012102200CF0EEFE07F0DEFA0F
:100FD000284604F001F80020F8BD00000D0ABEAF5D
:100FE000B8E6A3BAD0BEC6ACC6F0CABCC7F8D3F246
:100FF000B2BBCAC7BFD5B0D7B5C4A3A10D0A000004
:10100000CAC7B7F1C7BFD6C6BCCCD0F8D0B4C8EBFE
:10101000A3BF28B0B4205920BCFC20BBF2204F4B0A
:10102000BCFC20BCCCD0F8A3ACC6E4CBFBBCFCC859
:10103000A1CFFB293A2000005741524E494E47218B
:1010400000000000537461727420617265610000D9
:101050004E4F5420626C616E6B210000466F7263CC
:101060006520636F6E74696E75653F0050726573BD
:10107000732059206F72204F4B000000746F206363
:101080006F6E74696E7565005072657373206F744E
:101090006865727300000000746F2063616E6365A1
:1010A0006C0000000D0AD3C3BBA7B0B44F4BBCFC0F
:1010B000C8B7C8CFA3ACC7BFD6C6BCCCD0F8D0B4D5
:1010C000C8EB2E2E2E0D0A00436F6E6669726D6599
:1010D00064206279000000004F4B206B65790000AE
:1010E0000D0AD3C3BBA7B0B4C8A1CFFBBCFCA3AC53
:1010F000D0B4C8EBB2D9D7F7D2D1C8A1CFFB0D0A73
:101100000000000043616E63656C6C656420627969
:101110000000000043414E43454C206B65790000C0
:10112000282300200D0AB5C8B4FDB3ACCAB1A3ACE6
:10113000D0B4C8EBB2D9D7F7D2D1C8A1CFFB0D0A32
:101140000000000054696D656F7574004F70657222
:101150006174696F6E00000043616E63656C6C655D
:10116000640000000D0AD3C3BBA7CAE4C8EBC6E401
:10117000CBFBD7D6B7FBA3ACD0B4C8EBB2D9D7F76B
:10118000D2D1C8A1CFFB0D0A000000006F746865C2
:1011900072206B6579000000507265737320616E78
:1011A00079206B65790000000D0AD3C3BBA7CAE4A0
:1011B000C8EB59C8B7C8CFA3ACC7BFD6C6BCCCD044
:1011C000F8D0B4C8EB2E2E2E0D0A00002759272088
:1011D0006B657900436F6E74696E75652E2E2E00F7
:1011E00070B515000C46064615D0002C13D04FF0F4
:1011F000C041F0200880012003F0EEFE002308E04B
:10120000F018400000F1C040008825F813005B1C76
:101210009BB2A342F4D370BD2DE9F04F97B008F014
:1012200075FE0020159013901490119002461290B4
:1012300013A9F14805F081FB30B1F0A00AF03CFBA6
:10124000052017B0BDE8F08F002214A9EA4805F088
:101250004DFB13A914A80CF07FFE01460A90EEA0E6
:101260000AF02AFB0027169701F0A4F820B11428F1
:101270001AD84FF496711FE0F1A00AF01DFB07F099
:101280007FF8F3A2012100200CF08EFD0121F4A2D1
:1012900008460CF089FDF7A2012107200CF084FD1F
:1012A00007F074F96320CCE7A0F11501072909D8EC
:1012B000491C4FF496725143894601F075F8860E29
:1012C00018D018E0EFA00AF0F7FA07F059F8E0A2FA
:1012D000012100200CF068FD0121F1A208460CF06C
:1012E00063FDE4A2012107200CF05EFD07F04EF93A
:1012F0006220A6E701264FEA500A010D5346324606
:10130000ECA00AF0D9FA0020054604460890F448FB
:101310004FF0007B816941F02001816180690DA956
:1013200000F02000009000200E9040200D90012041
:101330000F9002201090EB4803F052FFC8E04FF0EE
:10134000C041F0200880642003F046FE611CE6A046
:101350000AF0B2FAA00608F0A5FDE74A4FF0AA0885
:10136000A2F800800BF01EF9E449552008800BF02C
:1013700019F9802010800BF015F9A2F800800BF00D
:1013800011F9552008800BF00DF910201080142061
:1013900003F022FE4021D34804F01EF88046D8A076
:1013A0000AF08AFAB8F1000F1CD0DBA00AF084FA28
:1013B00006F0E6FFA6A2012100200CF0F5FC0121B9
:1013C000DDA208460CF0F0FC631CDFA20121022024
:1013D0000CF0EAFCA7A2012107200CF0E5FC07F0C5
:1013E000D5F852E3DBA00AF067FA002016904F45CB
:1013F00020D93946DFA00AF05FFA06F0C1FF94A2B7
:10140000012100200CF0D0FC01213B46DFA2084660
:101410000CF0CAFC97A2012107200CF0C5FC07F0D4
:10142000B5F84FF0C041F02008800A2003F0D4FD49
:10143000012006E74021AB4803F0CEFF804601289B
:1014400022D000223946D4A00AF036FA06F098FFDE
:101450003B46D7A2012100200CF0A6FCB8F1010FF9
:1014600014D000230121D5A208460CF09DFC631C7A
:10147000D5A20121022000960CF096FC07F086F818
:10148000B8F1010F04D036E00122DBE70123E9E7E0
:101490004FF0C0400078C0F340110791C0F38011B5
:1014A000C0F3C01801200C9100900A464146CAA022
:1014B000079B0AF001FAB8F1000F1CD00C98C0B1DC
:1014C0000798B0B1169803280FD30120A41C1690DA
:1014D000B442FFF434AF002211A9474805F02DFAB9
:1014E000A8B1C8A00AF0E8F939E0401CC0B21690D3
:1014F00001E0079848B14FF47A7003F06DFD0121C7
:10150000C74803F06EFF7F1C71E7042099E60022B4
:1015100012A9394805F0EAF911A912A80CF01CFD2E
:1015200004460146BFA00AF0C7F99DF844009DF8A3
:1015300046209DF845108DE807009DF84B109DF85A
:101540004A309DF84920C1A001F5FA610AF0B4F9CA
:101550000A98201A01461590CAA00AF0ADF929464A
:10156000CFA0089A0AF0A8F9DBA00AF0A5F94FF07D
:10157000C049F020A9F800000A2003F02DFD5146D3
:10158000E0A00AF099F9002437E200BF04FB0BF059
:1015900000EB0B0380460246611CE4A05B1E0AF0D0
:1015A0008BF9A00608F07EFC002722E2780000F10B
:1015B000C0400388A3F57F40FF380FD00898401C37
:1015C0000890089908EB0700C90307D10899009112
:1015D00009EB40013A46E5480AF06EF96D1CA80394
:1015E00009D101218E4803F0FCFE601CCDE9000604
:1015F00052462946BCE1F9E1E4210020BBF1C8A133
:10160000B2C1B3FDBFAACABCCAB1BCE4CAA7B0DCB0
:10161000A3A10D0A00000000B2C1B3FDBFAACABC5D
:10162000CAB1BCE4A3A8556E6978CAB1BCE4B4C120
:10163000A3A9A3BA256C7520C3EB0D0A0000000016
:10164000BBF1C8A1C8DDC1BFCAA7B0DC0D0A00004C
:101650004572617365204661696C65642100000014
:101660004765742043464920436170204661696C98
:1016700000000000507265737320616E79206B6505
:1016800079000000D7EEB4F3D6A7B3D63235364D85
:101690004279746528533730474C3032290D0A009F
:1016A0004D617820737570706F72743A3235364DB3
:1016B00000000000D0BEC6ACC8DDC1BF3A20257511
:1016C000204D422C20D7DCBFE9CAFD3A2025752CDD
:1016D00020D7DCB0EBD7D6CAFD3A2025750D0A001D
:1016E00000100240001401400D0AB5DA20257520D3
:1016F000BFE90D0A00000000AA0A0060540500605E
:10170000D5FDD4DABCECB2E9CAC7B7F1BDF8C8EB75
:10171000B2C1B3FD0D0A000052592F42592320696E
:101720007320312C20B2C1B3FDD7B4CCACBDF8C806
:10173000EBCAA7B0DC0D0A0052592F425923206E84
:101740006F74203100000000426C6F636B3A2025FB
:101750007500000052592F42592320697320302C04
:1017600020B3C9B9A6BDF8C8EBB2C1B3FDD7B4CC9C
:10177000AC0D0A00B2C1B3FDB3ACCAB121202843FD
:101780006F756E743A202575290D0A0054696D65D0
:101790004F75743A25750000BCC6CAB13A2564730A
:1017A0002C2052592F4259233A25640D0A0000007B
:1017B00045726173696E673A2564730052592F420E
:1017C00059233A2564000000426C6F636B3A202570
:1017D000752F257500000000B2C1B3FDD7B4CCACA5
:1017E0003A2051373D25642C2051363D25642C206C
:1017F00051353D25642C2052592F4259233D2564F3
:101800000D0A0000BBF1C8A1B2C1B3FDBDE1CAF829
:10181000CAB1BCE4CAA7B0DCA3A10D0A0000000055
:10182000000C0140B2C1B3FDBDE1CAF8CAB1BCE4CD
:10183000A3A8556E6978CAB1BCE4B4C1A3A9A3BA80
:10184000256C7520C3EB0D0A00000000B2C1B3FD8A
:10185000BDE1CAF8CAB1BCE4A3A8B1BEB5D8A3A97A
:10186000A3BA253034642D253032642D25303264FE
:1018700020253032643A253032643A253032640D06
:101880000A000000414D3239D0BEC6ACB2C1B3FD32
:10189000BAC4CAB1A3BA257520C3EB0D0A00000073
:1018A000C8ABD0BEC6ACD1E9D6A4CDEAB3C9A3BA01
:1018B000B9B2D0A3D1E9256C75B8F6B0EBD7D62074
:1018C0007C20B7C7307846464646B5D8D6B7CAFD5D
:1018D000A3BA256C750D0A00B2C1B3FDD1E9D6A437
:1018E000CDA8B9FDA3A1C8ABD0BEC6ACCBF9D3D0AF
:1018F000B5D8D6B7BEF9CEAA3078464646460D0AC8
:1019000000000000BFAACABCC8ABD0BEC6ACB2C102
:10191000B3FDD1E9D6A4A3ACD7DCD0A3D1E9B0EB19
:10192000D7D6CAFDA3BA256C750D0A000D0A3D3D38
:101930003D3D3D20D1E9D6A4B5DA20256C7520BF08
:10194000E92028B0EBD7D6B5D8D6B7B7B6CEA73AE8
:101950002030782530386C58202D203078253038CC
:101960006C5829203D3D3D3D3D0D0A004C070108C6
:1019700047A0089B09F0A0FF06F002FD52A201213A
:1019800000200CF011FA4FF47A72A5FB021C002023
:10199000034600FB02C005FB030C08465246002329
:1019A0006146FEF7E3FB0A220023FEF7DFFB034656
:1019B0000092012147A208460CF0F6F9631CAFF231
:1019C000F8120121022000960CF0EEF92B46AFF23E
:1019D0003C22012103200CF0E7F95346AFF24C22E0
:1019E000012104200CF0E0F906F0D0FD7F1C5F45DA
:1019F00002D25545FFF4DAAD641CB442FFF4C6AD23
:101A000008F084FAF020A9F80000012003F0E4FABD
:101A10001698D8B106F0B4FC31A2012100200CF0D8
:101A2000C3F9012132A20846159B0CF0BDF9AFF2B3
:101A3000BC32012107200CF0B7F906F0A7FD15987C
:101A40003C2801D90AF002FC00202CE406F098FCA6
:101A50002AA2012100200CF0A7F901212BA208469F
:101A60000CF0A2F92EA201210220089B0CF09CF997
:101A7000AFF20042012107200CF096F906F086FD36
:101A800015983C2801D90AF0E1FB02200BE4000084
:101A9000D1E9D6A4BDF8B6C8A3BA25752F257520FF
:101AA000B0EBD7D6207C20B5B1C7B0B4EDCEF3CA29
:101AB000FDA3BA2575207C20B5B1C7B0BFE93A2097
:101AC00025752F25750D0A00426C616E6B204368E9
:101AD00065636B0025752E25752025250000000007
:101AE000457261736520537563636573730000000D
:101AF00054696D653A257573000000004572617385
:101B000065204661696C6564000000004E6F7420BA
:101B100030784646464620436F756E743A000000A2
:101B2000256C750010B53EA009F0C6FE48A009F06E
:101B3000C3FE51A009F0C0FE57A009F0BDFE06F09B
:101B40001FFC60A2012100200CF02EF9012160A2EF
:101B500008460CF029F961A2012102200CF024F9B9
:101B600062A2012103200CF01FF963A201210420CD
:101B70000CF01AF963A2012105200CF015F964A2FA
:101B8000012106200CF010F965A2012107200CF0BC
:101B90000BF906F0FBFC65A009F08EFE47F2305011
:101BA00009F060FE59280CD079280AD0052808D001
:101BB00000281AD06AA009F07FFE06F0E1FB6CA2B3
:101BC00019E06EA009F078FE06F0DAFB73A201219D
:101BD00000200CF0E9F8012173A208460CF0E4F8AB
:101BE00006F0D4FCFFF718FB15E072A009F064FEC4
:101BF00006F0C6FB76A2012100200CF0D5F80121E9
:101C000075A208460CF0D0F876A2012107200CF04E
:101C1000CBF806F0BBFCBDE81040002009F022BE66
:101C20000D0A3D3D3D3D3D3D3D3D3D3D3D3D3D3D47
:101C30003D3D3D3D3D3D3D3D3D3D3D3D3D3D3D3DD4
:101C40003D3D3D3D3D3D3D3D3D3D0D0A000000001B
:101C500020202020BEAFB8E6A3BABCB4BDABD6B43A
:101C6000D0D0D5FBD0BEC6ACB2C1B3FDB2D9D7F788
:101C7000A3A10D0A0000000020202020B2C1B3FD66
:101C8000BAF3CBF9D3D0CAFDBEDDBDABB6AACAA7A5
:101C9000A3A10D0A000000003D3D3D3D3D3D3D3D01
:101CA0003D3D3D3D3D3D3D3D3D3D3D3D3D3D3D3D64
:101CB0003D3D3D3D3D3D3D3D3D3D3D3D3D3D3D3D54
:101CC0000D0A00005741524E494E472100000000C6
:101CD000436869702045726173650000416C6C2037
:101CE000646174612077696C6C0000006265206C2F
:101CF0006F737421000000005072657373204F4BA6
:101D000000000000746F20636F6E74696E7565006B
:101D10005072657373206F74686572730000000001
:101D2000746F2063616E63656C000000C7EBCAE4EA
:101D3000C8EB205920C8B7C8CFB2C1B3FDA3ACBB14
:101D4000F2B0B4C8B7C8CFBCFCBCCCD0F8A3ACC60A
:101D5000E4CBFBBCFCC8A1CFFBA3BA0D0A0000007A
:101D60000D0AB2D9D7F7D2D1C8A1CFFB0D0A000016
:101D70004F7065726174696F6E0000000D0AD3C305
:101D8000BBA7D2D1C8B7C8CFA3ACBFAACABCB2C187
:101D9000B3FDD0BEC6AC2E2E2E0D0A004572617367
:101DA000696E672E2E2E0000506C6561736520777A
:101DB000616974000D0AB5C8B4FDB3ACCAB1A3AC77
:101DC000B2D9D7F7D2D1C8A1CFFB0D0A00000000CD
:101DD00054696D656F75740043616E63656C6C6505
:101DE00064000000507265737320616E79206B652A
:101DF000790000002DE9F04186B0002002900390A8
:101E000002AA06210490FFF7EBF900F0FFFA8046E2
:101E1000014638A009F050FD00F0CCFA064600F06B
:101E2000C3FA0446314638A009F046FD2CB1A20A97
:101E300021463DA009F040FD02E043A009F03CFD31
:101E400046A009F039FD00250DF1080748A037F834
:101E5000151009F031FD6D1C062DF7DB3EA009F0D1
:101E60002BFD06F08DFA434643A2012100200BF022
:101E70009BFF0121334644A208460BF095FF234601
:101E800044A2012102200BF08FFFA30A44A20121EA
:101E900003200BF089FF45A2012104200BF084FFF1
:101EA000BDF80C10BDF80A00CDE90001BDF80830FE
:101EB00041A2012105200BF077FFBDF81210BDF8FB
:101EC0001000CDE90001BDF80E303BA20121062033
:101ED0000BF06AFF3DA2012107200BF065FF06F021
:101EE00055FB3EA009F0E8FC002009F0BBFC06B061
:101EF000BDE8F081414D32392049443A20307825FF
:101F00003038580D0A000000414D3239204346490F
:101F1000C8DDC1BFD4ADCABCD6B53A2030782530B3
:101F200034580D0A00000000414D3239C8DDC1BFF0
:101F30003A20257520427974657320282575204B39
:101F400042797465290D0A00BBF1C8A1414D3239AF
:101F5000C8DDC1BFB4EDCEF30D0A000030783030DB
:101F60007E3078304220446174613A2000000000E5
:101F70003078253034582000414D32392049443AD8
:101F800020307825303858004346493A20307825AB
:101F900030345800257520427974657300000000C4
:101FA0002575204B4279746573000000307830301D
:101FB0002D307830423A00003078253034582025D2
:101FC00030345820253034580000000050726573BA
:101FD0007320616E79206B65790000000D0AB2D91B
:101FE000D7F7CDEAB3C9A3AC000000002DE9F0415A
:101FF0000546ADF58D6D5AA75AA64FF402515B48C0
:10200000FEF7FCF85A4C0020002D207011D02870EB
:1020100058A009F051FC0122394688A80AF096FE22
:10202000010008D05DA009F047FC63A009F044FC62
:1020300025E06DA0FAE774A009F03EFC3146684641
:102040000AF088FF01001FD074A009F035FC30466B
:102050000AF0CAFD010001D07CA009E083A009F0CC
:102060002BFC314668460AF075FF01000CD088A0B1
:1020700009F022FC0122394600200AF067FE002008
:102080000DF58D6DBDE8F0818AA009F015FC0DF20B
:102090005946207820284FD20DF58A6168460BF00A
:1020A00069F8002848D19DF85904002844D09DF8CB
:1020B0005804C006EDD42E213046FEF7CBF85FEA77
:1020C0000008E6D08AA1FEF7B7F828B18AA14046F9
:1020D000FEF7B2F80028DCD13046FEF7A6F8C1B210
:1020E00000200DF58A620AE013185B7A7F2B04D971
:1020F000314683A009F0E0FBCBE7401CC0B2884228
:10210000F2D32078DFF8648000EB801108EB8100C7
:10211000FF223146FEF77DF82078DDF8502400EBF1
:10212000801108EB81017CA0C1F8002109F0C4FBFB
:102130002078401C2070ACE768460AF000FC0122C1
:10214000394600200AF002FE2178297021B179A0D9
:1021500009F0B2FB054893E786A009F0ADFBF9E76B
:10216000303A0000303A2F414D32390064010020EE
:10217000000000205344494FCDE2C9E8B3F5CABC82
:10218000BBAFB3C9B9A6A3ACBFAACABCB9D2D4D895
:102190005446BFA82E2E2E0D0A0000005446BFA89C
:1021A000B9D2D4D8CAA7B0DC2120B4EDCEF3C2EBAB
:1021B0003A2025640D0A0000B4EDCEF3D4ADD2F27E
:1021C000A3BA313D5344494FC5E4D6C3B4EDCEF371
:1021D000207C20343D5446BFA8CBF0BBB52FCEB4F5
:1021E000B2E5BAC30D0A0000B2CECAFDB4EDCEF31B
:1021F000A3BA66696C655F636F756E74D6B8D5EB0C
:10220000CEAABFD50D0A00005446BFA8B9D2D4D873
:10221000B3C9B9A6A3A10D0A00000000B4F2BFAA79
:10222000414D3239C4BFC2BCCAA7B0DC2120B4EDD5
:10223000CEF3C2EB3A202564A3ACB3A2CAD4B4B4A3
:10224000BDA8C4BFC2BC2E2E2E0D0A00B4B4BDA8BA
:10225000414D3239C4BFC2BCCAA7B0DC2120B4EDA5
:10226000CEF3C2EB3A2025640D0A0000414D32390D
:10227000C4BFC2BCB4B4BDA8B3C9B9A6A3ACD6D8B8
:10228000D0C2B4F2BFAAC4BFC2BC2E2E2E0D0A000B
:10229000D6D8D0C2B4F2BFAA414D3239C4BFC2BCF5
:1022A000CAA7B0DC2120B4EDCEF3C2EB3A202564FE
:1022B0000D0A00003D3D3D3D3D20414D3239C4BF3A
:1022C000C2BCCFC2B5C42E62696ECEC4BCFEC1D042
:1022D000B1EDA3A8C5C5B3FDD6D0CEC4CEC4BCFE57
:1022E000C3FBA3A9203D3D3D3D3D0D0A000000007C
:1022F0002E62696E000000002E42494E0000000070
:10230000C5C5B3FDD6D0CEC4CEC4BCFEC3FB3A20F7
:1023100025730D0A00000000CEC4BCFE3A202573D0
:10232000207C20B4F3D0A13A20256C7520D7D6BDEF
:10233000DA0D0A003D3D3D3D3D20B9B2D5D2B5BDD7
:1023400020256420B8F6D3D0D0A7B5C42E62696E1C
:10235000CEC4BCFEA3A8D2D1C5C5B3FDD6D0CEC4D1
:10236000CEC4BCFEC3FBA3A9203D3D3D3D3D0D0AAF
:1023700000000000414D3239C4BFC2BCCFC2CEB450
:10238000D5D2B5BDD3D0D0A7B5C42E62696ECEC4A8
:10239000BCFEA3A8CEDED6D0CEC4CEC4BCFEC3FB4A
:1023A000A3A90D0A00000000002802D0012101FAB3
:1023B00000F0704770B54FF0C045F0262E80012028
:1023C00002F00AFE9820A5F8AA000AF0EBF8B5F88A
:1023D0004E400AF0E7F82E80012002F0FDFDFF2CB0
:1023E00009D0A4F57060FF3805D0A4F57F40FF3810
:1023F00001D0204670BD02A009F05EFA002070BD39
:10240000D2ECB3A3C8DDC1BF0000000070B54FF02F
:10241000C044F0262680012002F0DEFD0E49AA20ED
:1024200008800AF0BFF80D4A552010800AF0BAF86B
:10243000902008800AF0B6F8094D2088E88060886E
:102440002881A08868812680012002F0C5FD2889A6
:10245000E98840EA014070BDAA0A006054050060A6
:10246000000000202DE9F04FADF6F41DF2A00FF2B0
:10247000CC39CDF8D4094FF482710DF25C60FDF7D0
:10248000BDFE0024CDF8A449CDF8A849CDF8E04917
:102490000127A046A246CDF8DC49CDF8CC49EAA0F8
:1024A000CDF8D04909F008FAFFF784FFE0B11C2805
:1024B00032D9F0A009F000FA05F062FFF4A2012180
:1024C00000200BF071FC0121F5A208460BF06CFC1A
:1024D000F8A2012107200BF067FC06F057F86220F4
:1024E0000DF6F41DBDE8F08FF6A009F0E5F905F052
:1024F00047FFE7A2012100200BF056FC0121F7A2C3
:1025000008460BF051FCEBA2012107200BF04CFC1C
:1025100006F03CF86320E3E7FFF746FF0646020DAE
:102520000146F3A009F0C8F9F9A009F0C5F90122A4
:102530000DF5EC60DDF8D4190AF008FC010017D0A5
:10254000F7A009F0B9F905F01BFFD1A20121002085
:102550000BF02AFC0121F9A208460BF025FCD5A2BC
:10256000012107200BF020FC06F010F80220B7E74D
:10257000494604A80AF0EEFC002836D0F3A009F082
:102580009BF948460AF030FB010022D0F7A009F081
:1025900093F905F0F5FEBEA2012100200BF004FC2A
:1025A0000121FAA208460BF0FFFBFDA20121022047
:1025B0000BF0FAFBBFA2012107200BF0F5FB05F0A1
:1025C000E5FF01220020DDF8D4190AF0BFFB03204B
:1025D00086E7F5A009F070F9F8A009F06DF9494611
:1025E00004A80AF0B7FC28B155E004A80AF0A7F93E
:1025F000F9A0EFE700250DF6B91700BF0DF51B6137
:1026000004A80AF0B7FDE0BB9DF8B909C8B39DF86E
:10261000B809C006F2D43846FDF707FEC0B20C2850
:10262000ECD12E213846FDF715FE5FEA000BE5D010
:10263000EEA1FDF701FE28B1EEA15846FDF7FCFD25
:102640000028DBD100200DF51B610A18527A303AC0
:102650000A2AD3D2401C0828F7DBCDF8E489CDF84C
:10266000E889082239460DF6E410CDF8EC89FDF72B
:10267000D0FD0DF6E410FDF7F8FDA842BED90546E1
:10268000BCE7FFE704A80AF05AF96F1C3A4629464E
:10269000DAA009F011F93B464A46E3A10DF25C606D
:1026A00009F01AF90DF25C61E3A009F005F90622C0
:1026B0000DF25C610DF586600AF076FB05002BD00B
:1026C0000146E2A009F0F8F805F05AFE70A20121D7
:1026D00000200BF069FB0121E3A208460BF064FB2C
:1026E0000DF25C63E5A2012102200BF05DFB2B469D
:1026F000E3A2012103200BF057FB6EA2012107206A
:102700000BF052FB05F042FF01220020DDF8D41946
:102710000AF01CFB0420E3E600220DF6DC11DA4887
:1027200004F00BF9F8B900220DF51E61D64804F04B
:10273000DDF80DF6DC11081D0BF00EFCCDF8A80934
:102740009DF8DC099DF8DE299DF8DD198DE807006C
:102750009DF8E3199DF8E2399DF8E129CBA001F538
:10276000FA6109F0A9F8D5A009F0A6F8B70E01D0D2
:10277000002529E2012700254FEA85684FF0000B6C
:10278000691CD8A009F098F8404607F08BFB17E2C7
:1027900004F500704FF40079B04201D9A6EB0409AA
:1027A0004FEA59034FEA5B0800208CAA0FE000BFF4
:1027B00008EB0001490001F1C04109884FEA112CE2
:1027C00002F810C002EB400C401C8CF8011098423B
:1027D000EED30DF6A4134A468CA90DF586600AF0D7
:1027E0004EFD5FEA000803D1DDF8A419494522D067
:1027F0004146C4A009F060F805F0C2FD24A2012101
:1028000000200BF0D1FA0121C5A208460BF0CCFA4A
:102810000DF25C6399A2012102200BF0C5FA434638
:1028200097A2012103200BF0BFFA22A20121072069
:102830000BF0BAFA7CE189E1303A0000303A2F41DE
:102840004D323952000000000D0A3D3D3D3D3D2016
:10285000BFAACABCB6C1C8A1414D3239D0BEC6ACB0
:10286000C4DAC8DDB5BD5446BFA8203D3D3D3D3D61
:102870000D0A0000D7EEB4F3D6BBD6A7B3D65337B4
:1028800030474C3032203235364D0D0A0000000002
:1028900052656164204661696C6564210000000036
:1028A0004D617820737570706F72743A3235364DA1
:1028B00000000000507265737320616E79206B65B3
:1028C00079000000BBF1C8A1414D3239C8DDC1BF5C
:1028D000CAA7B0DCA3A10D0A000000004765742060
:1028E00043464920436170204661696C0000000046
:1028F000414D3239C8DDC1BF3A20256C752042797F
:102900007465732028256C75204D42290D0A00003E
:10291000B9D2D4D85446BFA82E2E2E0D0A000000DE
:102920005446BFA8B9D2D4D8CAA7B0DC2120B4ED90
:10293000CEF3C2EB3A2025640D0A00005446204E27
:102940004F5420466F756E6400000000414D3239CF
:1029500052C4BFC2BCB2BBB4E6D4DAA3ACB3A2CA01
:10296000D4B4B4BDA82E2E2E0D0A0000B4B4BDA858
:10297000414D323952C4BFC2BCCAA7B0DC2120B419
:10298000EDCEF3C2EB3A2025640D0A004372656177
:10299000746520414D3239522044697200000000B4
:1029A0004661696C65642100414D323952C4BFC231
:1029B000BCB4B4BDA8B3C9B9A60D0A00C9A8C3E880
:1029C000414D323952C4BFC2BCD6D0B5C4CEC4BC4E
:1029D000FE2E2E2E0D0A0000414D323952C4BFC2C8
:1029E000BCD2D1B4E6D4DA0D0A0000002E62696EC2
:1029F000000000002E42494E00000000D7EEB4F364
:102A0000CEC4BCFEB1E0BAC53A202530386C752C76
:102A100020CFC2D2BBB8F6B1E0BAC53A20253038D3
:102A20006C750D0A0000000025732F2530386C7579
:102A30002E62696E00000000D7BCB1B8B4B4BDA866
:102A4000CEC4BCFE3A2025730D0A0000B4B4BDA864
:102A5000CEC4BCFECAA7B0DC2120B4EDCEF3C2EBDD
:102A60003A2025640D0A00004372656174652046B2
:102A7000696C65204661696C65640000257300001F
:102A8000436F64653A256400E4210020B6C1C8A103
:102A9000BFAACABCCAB1BCE4A3BA253034642D2590
:102AA0003032642D2530326420253032643A2530AE
:102AB00032643A253032640D0A000000BFAACABC55
:102AC000B6C1C8A1D0BEC6ACC4DAC8DDA3A8B7D60B
:102AD00036344D42BFE9B4A6C0EDA3A92E2E2E0D6B
:102AE0000A0000000D0A3D3D3D3D3D20B4A6C0ED6D
:102AF000B5DA20256C7520BFE920203D3D3D3D3DE8
:102B00000D0A0000CEC4BCFED0B4C8EBCAA7B0DC2E
:102B10002120B4EDCEF3C2EB3A2025640D0A00006B
:102B200046696C65207772697465206661696C001E
:102B300005F02CFD0DF5866009F0ECFE0122002069
:102B4000DDF8D4190AF002F90520C9E44C44CB445D
:102B5000E00301D0B44230D13046FDF70FFC80468F
:102B60002046FDF70BFC4146FDF7BEFB5149FDF742
:102B700089FBFDF708FC6A1CCDE9022789468046DF
:102B8000324621464CA0CDE9008908F095FE05F0BB
:102B9000F7FB56A201210020CDE900890BF004F9D2
:102BA00001216B1C55A2084600970BF0FDF805F0BB
:102BB000EDFC0121554802F014FCBBF1806F02D2FC
:102BC000B442FFF4E5AD6D1CBD42FFF4D5AD00226B
:102BD0000DF6CC114E4803F0B0FE28BB00220DF5D7
:102BE0001D614B4803F082FE0DF6CC11081D0BF061
:102BF000B3F9DDF8A8199DF8CE29A0EB010A9DF8DC
:102C0000CC099DF8CD198DE807009DF8D3199DF8E2
:102C1000D2399DF8D1293FA001F5FA6108F04CFEA8
:102C2000514648A008F048FE0DF5866009F072FE96
:102C300001220020DDF8D4190AF088F807F066F9BF
:102C40004FF0C041F0200880012002F0C5F90DF2DC
:102C50005C6140A008F030FE214649A008F02CFE3F
:102C600005F08EFB4BA2012100200BF09DF8012105
:102C700053464CA208460BF097F80DF25C63AFF296
:102C80000422012102200BF08FF8A30A47A20121A0
:102C900003200BF089F8AFF2E432012107200BF09A
:102CA00083F805F073FCBAF13C0F01D909F0CEFAB4
:102CB000002015E40000C842B6C1C8A1BDF8B6C8DE
:102CC000A3BA256C752F256C7520D7D6BDDA2028C0
:102CD000252E3166252529207C20B5B1C7B0BFE956
:102CE0003A2025752F25750D0A0000005265616494
:102CF0003A20252E3166252500000000426C6F63C6
:102D00006B3A2025752F257500000000000C01404E
:102D1000E4210020B6C1C8A1BDE1CAF8CAB1BCE433
:102D2000A3BA253034642D253032642D2530326429
:102D300020253032643A253032643A253032640D31
:102D40000A000000D7DCBAC4CAB1A3BA257520C3F3
:102D5000EB0D0A000D0A3D3D3D3D3D20B6C1C8A129
:102D6000CDEAB3C9A3A1CEC4BCFED2D1B1A3B4E60F
:102D7000CEAAA3BA2573203D3D3D3D3D0D0A00007E
:102D8000CEC4BCFEB4F3D0A1A3BA257520D7D6BD5E
:102D9000DA0D0A00526561642053756363657373CD
:102DA00021000000257520530000000025754B42CE
:102DB00079746573000000002DE9F04FCDB000205C
:102DC0008DF8000182464FF480716846FDF716FACF
:102DD0004FF00008E8A008F06FFD40A8FFF706F9E3
:102DE0005FEA000934D09DF8000180B3C01DC0081F
:102DF000CDF804014FEACA60040E04F10800C6B21F
:102E00009DF80001864200D90646301BC7B24990A2
:102E1000B84501D34FF0000805F0B2FA0025BD42D5
:102E200029D2601900F0FF0B142144A8FDF7E6F940
:102E30000BEB8B1109EB8101102244A8FDF7E9F996
:102E400044ABD9A2012128460AF0AEFF18E0FFE703
:102E5000D6A008F031FD05F093FAE1A2012100208F
:102E60000AF0A2FF0121E2A208460AF09DFF01211B
:102E7000E3A20220BAE0E5A2012128460AF094FF6D
:102E80006D1CEDB2082DCAD3B84518D204EB08006A
:102E9000C5B2142144A8FDF7B1F905EB851009EB83
:102EA0008001102244A8FDF7B4F944ABDCA2012153
:102EB00040460AF079FF0121404605F053FB05F03A
:102EC00065FBD8A008F0F8FC9DF80011E1A008F01F
:102ED000F3FCECA008F0F0FC25460DE0281B05EB08
:102EE0008512401C09EB8202C1B2F1A0D2F8003178
:102EF00008F0E2FC6D1CEDB2B542EFD3EBA008F098
:102F0000DBFC419801280BD902460AF10101EEA031
:102F100008F0D2FCF1A008F0CFFCF4A008F0CCFC43
:102F2000F6A008F0C9FC3946F94808F0C5FC0020B5
:102F30008DF80C016EE000BFB8F1000F02D0A8F1CF
:102F4000010014E0BAF1000F3FF454AFAAF1010000
:102F500000F0FF0A4FEACA60010E01F10800C2B298
:102F60009DF80001824200D90246501A401EC0B2AC
:102F70001AE000BF04F00EFD58B14998C0B2401EDF
:102F8000804516DA08F10100F1E700BF0AF10100FF
:102F900007E004F01BFD48B1BAF1000FD4D0AAF14C
:102FA000010000F0FF0A0020804623E704F046FD00
:102FB00020B14198401E8245F7DAE7E704F022FD90
:102FC00078B104EB08009DF80011C0B28842ECD241
:102FD00000EB801109EB8101FF226846FDF719F92A
:102FE00045E004F0BBFC58B1CAA061E00AF0DCFE89
:102FF000CCA2012107200AF0D7FE05F0C7FA4CE267
:103000000023012243A9CB4804F088FB38B11420E7
:1030100001F0E2FF04F02EFD0028ABD08CE79DF814
:103020000C0120385E2806D84FF0FF33012243A957
:10303000C04804F0CBFB9DF80C01A0F13101072939
:103040002CD83038C0B2B842AFD82044401E9DF8CA
:103050000011C0B28842A8D200EB801109EB8101B7
:10306000FF226846FDF7D5F890A008F025FC6946D8
:10307000B1A008F021FC05F083F9B5A201210020E0
:103080000AF092FE6C462046FDF7CFF8C0B2102839
:1030900031D801212346B1A2084649E0392812D08F
:1030A000302819D0622802D042287FF47EAFACA02D
:1030B00008F002FC05F064F9AEA2012100200AF03C
:1030C00073FEAFA2CFE14198401E824502DA0AF1B9
:1030D000010006E0ADA00BE0BAF1000F07D0AAF1A5
:1030E000010000F0FF0A4FF0000870A000E0ADA062
:1030F00008F0E2FB7EE6142143A8FDF77FF81421D7
:1031000048A8FDF77BF81022214643A8FDF781F877
:10311000102204F1100148A8FDF77BF8012143AB10
:103120008EA208460AF040FE48AB8CA20121022084
:103130000AF03AFEA1A2012104200AF035FEA2A263
:10314000012105200AF030FEA2A2012106200AF08A
:103150002BFEA4A2012107200AF026FE05F016FA94
:10316000A3A008F0A9FB00208DF8080102F046F9A1
:10317000044642F210755FE10D0A3D3D3D3D3D20A4
:10318000D5FDD4DAC9A8C3E8414D3239C4BFC2BCA9
:10319000CFC2B5C42E62696ECEC4BCFE203D3D3D9B
:1031A0003D3D0D0A0000000020257300414D3239DD
:1031B000C4BFC2BCCFC2C3BBD3D0D5D2B5BD2E62B3
:1031C000696ECEC4BCFEA3ACC7EBCFC8B7C5C8EB15
:1031D000CEC4BCFED4D9B2D9D7F70D0A0000000086
:1031E0004E6F2042494E2066696C657300000000F6
:1031F000666F756E6420696E20414D3239000000A3
:103200006469726563746F72790000002020202069
:10321000202020202020202020202020000000002E
:103220003E2573000D0A3D3D3D3D3D3D3D3D3D3D4F
:103230003D3D3D3D3D3D3D3D3D3D3D3D3D3D3D3DBE
:103240003D3D3D3D3D3D3D3D3D3D3D3D3D3D0D0A11
:10325000000000003D3D3D3D3D20C7EBD1A1D4F134
:10326000D2AAD0B4C8EBB5C442494ECEC4BCFE20ED
:1032700028B9B22564B8F629203D3D3D3D3D0D0AF3
:10328000000000003D3D3D3D3D3D3D3D3D3D3D3D62
:103290003D3D3D3D3D3D3D3D3D3D3D3D3D3D3D3D5E
:1032A0003D3D3D3D3D3D3D3D3D3D3D3D0D0A00002B
:1032B0002564202D2025732028256C7520D7D6BDA8
:1032C000DA290D0A00000000B5B1C7B0B5DA202533
:1032D000642F256420D2B30D0A00000039202D2070
:1032E000CFC2D2BBD2B30D0A0000000030202D2087
:1032F000C9CFD2BBD2B30D0A0000000062202D203E
:10330000B7B5BBD8D6F7B2CBB5A50D0A0000000003
:1033100048090108D2D1B7B5BBD8D6F7B2CBB5A50D
:103320000D0A0000507265737320616E79206B6521
:1033300079000000282300200D0AC4FAD1A1D4F19D
:10334000C1CBCEC4BCFEA3BA25730D0A0000000099
:1033500053656C65637465643A0000002573000072
:103360000D0AD2D1B7B5BBD8D6F7B2CBB5A50D0AE9
:103370000000000052657475726E20746F000000CA
:103380004D61696E204D656E750000000D0AD2D149
:10339000BEADCAC7D7EEBAF3D2BBD2B3C1CBA3A1DD
:1033A0000D0A00000D0AD2D1BEADCAC7B5DAD2BB34
:1033B000D2B3C1CBA3A10D0A000000005072657307
:1033C00073204F4B20746F00737461727420777296
:1033D0006974650050726573732043616E63656C38
:1033E00000000000746F2061626F727400000000C2
:1033F00055415254C9CFB0B479BCFCBFAACABCD0A5
:10340000B4C8EBA3ACB0B4C8CED2E2BCFCC8A1CF68
:10341000FB2E2E2E0D0A000004F0F4FA30BB04F04F
:103420009DFAA8B90023012242A91F4804F076F9A9
:1034300040B1322001F0D0FD01F0E0FF001BA842B6
:10344000EAD305E09DF8080159280FD079280DD05E
:1034500016A008F031FA04F093FF18A20121002011
:103460000AF0A2FC18A201210846BFE5694619A08E
:1034700008F022FA04F084FF1FA2012100200AF0C4
:1034800093FC6B46AFF22C12012108460AF08CFC2B
:1034900005F07CF8684600F035F8002008F0E2F905
:1034A0004DB0BDE8F08F000028230020B2D9D7F737
:1034B000D2D1C8A1CFFB0D0A000000004F70657289
:1034C0006174696F6E00000043616E63656C6C65CA
:1034D000640000000D0A3D3D3D3D3D20BFAACABC31
:1034E000D0B4C8EBCEC4BCFE3A202573203D3D3D90
:1034F0003D3D0D0A0000000057726974696E672E29
:103500002E2E00002DE9F14FADF5205DFEA042F218
:10351000B0456D44A7904FF482712846FCF76EFECB
:103520000024A994AA94A246A346A894A49427464A
:10353000A594FEF73FFF5FEA00091AD0B9F11C0F0E
:103540002AD904F01DFFF1A2012100200AF02CFC71
:10355000F3A2012107200AF027FC05F017F8F4A0D8
:1035600008F0AAF962200DF6040D0DF5005DBDE826
:10357000F08FF4A008F0A0F904F002FFF5A20121F9
:1035800000200AF011FCE6A2012107200AF00CFC41
:1035900004F0FCFF6320E6E7FEF706FF8046860E98
:1035A00000D101264FEA185201463346EEA0089298
:1035B00008F082F90120FDF741FC022832D00DF518
:1035C0000050D0F80008002833D00DF50050D0F896
:1035D0000008FCF72AFE00282BD00DF50050EDA1C5
:1035E000D0F80028284608F077F942F2B4500122BA
:1035F0006844A79909F0AAFB00282CD00146E8A04E
:1036000008F05AF904F0BCFEEFA2012100200AF0F4
:10361000CBFBC3A2012107200AF0C6FB04F0B6FFD2
:103620000220A0E701220020A79909F08FFB0A20C1
:1036300099E7E9A008F040F904F0A2FEB3A2012145
:1036400000200AF0B1FBB6A2012107200AF0ACFB72
:1036500004F09CFFB0E00122294609A809F0A4FB70
:1036600005002BD002460DF50050D0F80018E1A05F
:1036700008F022F904F084FEE8A2012100200AF0FB
:1036800093FB0DF500500121D0F80038C3A2084685
:103690000AF08AFB2B46E5A2012102200AF084FBF6
:1036A0009FA2012107200AF07FFB04F06FFF012297
:1036B0000020A79909F04AFB032054E70DF50050BC
:1036C0008C9DD0F800182A46DBA008F0F5F840469B
:1036D000454533D902462946E0A008F0EDF804F04C
:1036E0004FFEECA2012100200AF05EFB0121EDA2B9
:1036F00008460AF059FB4FEA9823EDA20121022067
:103700000AF052FBECA2012103200AF04DFBAB0AA8
:10371000E7A2012104200AF047FB81A20121072032
:103720000AF042FB04F032FF09A809F0F3F8012285
:103730000020A79909F00AFB042014E71DB3E1A0BB
:1037400008F0BAF84FF0C041F0200880642001F082
:1037500043FC0022A9A9E34803F0EFF800282DD08C
:10376000E1A008F0A9F804F00BFEE6A20121002078
:103770000AF01AFB6AA2012107200AF015FB04F0E7
:1037800005FF0520EFE6E3A008F096F804F0F8FD49
:10379000E6A2012100200AF007FB61A20121072017
:1037A0000AF002FB04F0F2FE09A809F0B3F80122C6
:1037B0000020A79909F0CAFA0120D4E60DF52A786D
:1037C00000224146C74803F091F8A9A940460AF0F3
:1037D000C3FB01469B90D9A008F06EF89DF8A402A7
:1037E0009DF8A6229DF8A5128DE807009DF8AB1262
:1037F0009DF8AA329DF8A922DAA001F5FA6108F035
:103800005BF8E6A008F058F842F2B0204FF40071DF
:103810006844FCF7F3FC00209E90B9F11C0F01D026
:10382000A390FDE30120A390E64808F045F8F7E3F4
:10383000B8066FF07C4143184FF00009024698909B
:10384000791CCDF86492E0A008F036F8989806F05C
:1038500029FBE6E3A398002854D098994FEA590829
:1038600001EB09009A90C9F30800002802904AD0A1
:10387000A5EB0A0001900146E2A0029A08F01CF8AC
:10388000DDE9010108440090C007009801D0401C08
:10389000009042080146E7A008F00EF84FF40071CE
:1038A000ABA8FCF7ABFCFF22ABA80099FCF79FFC90
:1038B000AAEB09010DF12409484609F053F800204C
:1038C000039003ABABA94846009A09F08DFB0100B9
:1038D00003D1039A0098824201D0E3A063E2EA494F
:1038E000AA20088008F05EFEE8495520088008F00C
:1038F00059FE4FEA480000F1C0402521069004908F
:103900000180C5E11FE31CE2303A00004D617820E0
:10391000537570706F72743A3235364D0000000086
:10392000507265737320616E79206B6579000000B9
:10393000D7EEB4F3D6BBD6A7B3D6533730474C3007
:10394000320D0A00BBF1C8A1C8DDC1BFCAA7B0DCF7
:103950000D0A00004765742073697A652066616905
:103960006C65642E00000000414D3239C8DDC1BFD6
:103970003A20256C752042797465732028256C7572
:10398000204D42292C20D7DCBFE9CAFD3A202575FD
:103990000D0A0000303A2F414D32392F25730000B7
:1039A000D0B4C8EBCAA7B0DCA3BA5446BFA8B9D2FA
:1039B000D4D8CAA7B0DCA3ACB4EDCEF3C2EBA3BAA3
:1039C00025640D0A000000005446204E4F5420701C
:1039D000726573656E740000D0B4C8EBCAA7B0DC22
:1039E000A3BACEC4BCFEC3FBB2CECAFDCEAABFD51D
:1039F0000D0A0000D0B4C8EBCAA7B0DCA3BAB4F279
:103A0000BFAACEC4BCFE2573CAA7B0DCA3ACB4ED7C
:103A1000CEF3C2EBA3BA25640D0A00004661696CBF
:103A200020746F206F70656E00000000636F646526
:103A30003A20256400000000B4F2BFAACEC4BCFE48
:103A4000B3C9B9A6A3BA2573207C20B4F3D0A1A32F
:103A5000BA257520D7D6BDDA0D0A0000D0B4C8EB60
:103A6000CAA7B0DCA3BACEC4BCFEB4F3D0A128254B
:103A700075D7D6BDDA29B3ACB9FDD0BEC6ACD7EE8A
:103A8000B4F3C8DDC1BF282575D7D6BDDA290D0A24
:103A90000000000046696C65206F766572207369CE
:103AA0007A650000436869702073697A653A00009E
:103AB0002564204B4200000046696C652073697ADA
:103AC000653A0000D0BEC6ACB3F5CABCBBAFA3A874
:103AD000BDF6B8B4CEBBD2BBB4CEA3A92E2E2E0D4C
:103AE0000A000000E4210020BBF1C8A1D0B4C8EB5B
:103AF000BFAACABCCAB1BCE4CAA7B0DCA3A10D0A64
:103B00000000000047657420525443204661696CF0
:103B100065640000D0B4C8EBCAA7B0DCA3BACEC4B9
:103B2000BCFECEAABFD50D0A0000000046696C6538
:103B30002053697A6520304279746500D0B4C8EBAF
:103B4000BFAACABCCAB1BCE4A3A8556E6978CAB101
:103B5000BCE4B4C1A3A9A3BA256C7520C3EB0D0ABC
:103B600000000000D0B4C8EBBFAACABCCAB1BCE414
:103B7000A3A8B1BEB5D8A3A9A3BA253034642D2516
:103B80003032642D2530326420253032643A2530BD
:103B900032643A253032640D0A000000BFAACABC64
:103BA000D0B4C8EBCEC4BCFEB5BDD0BEC6ACA3A8D5
:103BB000B7D636344D42BFE9B4A6C0EDA3A92E2E28
:103BC0002E0D0A00F00701080D0A3D3D3D3D3D2048
:103BD000B4A6C0EDB5DA20256C7520BFE92028B564
:103BE000D8D6B7B7B6CEA73A2030782530386C583B
:103BF000202D2030782530386C5829203D3D3D3D22
:103C00003D0D0A00CEC4BCFECEB2B2BFA3BACAA359
:103C1000D3E0256C75D7D6BDDAA3ACB5B1C7B0BFBC
:103C2000E9C4DAC6ABD2C6256C75D7D6BDDA0D0AA3
:103C300000000000B1BEB4CE4275666665722050C9
:103C4000726F6772616D6D696E67D7DCB4F3D0A176
:103C5000A3BA256C75D7D6BDDA2028256C75B8F6C1
:103C6000B0EBD7D6290D0A00B6C1C8A1BFE9CAFD7D
:103C7000BEDDCAA7B0DCA3ACB4EDCEF3C2EBA3BAF1
:103C800025640D0A00000000AA0A006054050060C7
:103C900008F088FC00984FF0FF3101EB50001FFA4C
:103CA00080F94A4609F101031146FEA007F004FE1F
:103CB0000498A0F8009008F075FC00210DF52B7910
:103CC0000EE000BF09EB010021F00103008803EBC7
:103CD000480202F1C04240BA108008F063FC891C1F
:103CE00000988142EED306982921018008F05AFC01
:103CF000DFF8D883DFF8D89307E000BF08F052FC64
:103D0000A8F101005FEA000808D04021484601F010
:103D100063FB0028F2D0002C7DD104E0EDA09A993D
:103D200007F0CAFD59E1019900988A44999908441D
:103D30009990DDE90001421A0146F0A007F0BCFDB0
:103D4000AEE24FF40071C9F18062A5EB0A008A422D
:103D500000D21146884200D201460020B1F5007F12
:103D6000CDE9010106D2C1F5007002460190F2A032
:103D700007F0A2FD42F2B020FF224FF40071684428
:103D8000FCF735FA029888B1024642F2B0219EABA8
:103D9000694409A809F028F9010003D19E9A029804
:103DA000824203D0EEA007F087FD1AE1F448AA2171
:103DB000018008F0F7FBF3485521018008F0F2FB81
:103DC0004FEA480000F1C0402521039002460180DF
:103DD00008F0E8FBFF21118008F0E4FB5FF0000130
:103DE00042F2B0206844084421F00103008803EB4C
:103DF000480202F1C04240BA108008F0D3FB891C8F
:103E0000B1F5007FECD303982921018008F0CAFBAB
:103E1000DFF8B88207E0E5E008F0C4FBA8F1010094
:103E20005FEA00087AD04021A94801F0D5FA0028BD
:103E3000F2D0029999988A4408449990019889444B
:103E400020B1019999988944084499905FEA8A3091
:103E500001D0AA4576D10020AB90CDF8B00402463F
:103E60000DF5966801904146C74802F066FDE0B343
:103E700001F0C4FA4FF47A71B0FBF1F09B99BAF1FA
:103E8000000FA0EB010814D0B8F1000F11D02846A4
:103E9000FCF774FA01905046FCF770FA0199FCF7B0
:103EA00023FA01904046FCF769FA0199FCF71CFAE5
:103EB00001900198FCF767FA9D919A900290009109
:103EC0002846FCF75BFA03905046FCF757FA039933
:103ED000FCF70AFAAD49FCF7D5F9FCF754FACDE93D
:103EE0009F010A46009B029900E021E0CDE90613FC
:103EF0007B1C8DE84D012A465146A54807F0DCFCA5
:103F000004F03EFADDE99F01CDE90001A1A2012103
:103F1000002009F049FF434687E1FFE76DA09A9929
:103F200007F0CAFCF0204FF0C0410524088080E76C
:103F30000022ABA9944802F0D9FC4146ABA80AF094
:103F40000BF89BE7ACE000209E90AB909EAB02226A
:103F5000ABA909A809F048F810B1014691A022E7E1
:103F60009E9800287ED0BDF8AC024FEA590190FA25
:103F700090F84FF0C04000EB4100CDE900108049BF
:103F8000AA20088008F00EFB7E4A5520108008F019
:103F900009FBA020088008F005FB0099490001F109
:103FA000C041A1F8008008F0FDFA4FF47A7806E0ED
:103FB00008F0F8FAA8F101005FEA000808D04021F3
:103FC000434801F009FA0028F2D0002C0AD10AE097
:103FD000DDE900217EA007F06FFC4FF0C041F0202A
:103FE0000880052465E19E9899998244814408449B
:103FF00099905FEACA3001D0AA4551D10020CDF88E
:10400000AC0480460246AC900DF2AC415E4802F032
:1040100094FC002845D001F0F1F94FF47A7101E0E9
:1040200044E12DE1B0FBF1F09B99401A9F90BAF169
:10403000000F13D09F9888B12846FCF79FF980465F
:104040005046FCF79BF94146FCF74EF980469F9895
:10405000FCF794F94146FCF747F980464046FCF7E7
:1040600092F900E00FE19D919A900290009128460C
:10407000FCF784F980465046FCF780F94146FCF78E
:1040800033F94249FCF7FEF8FCF77DF90A46A191A5
:10409000804600990298CDE90601791C9F98ADE011
:1040A000EBE0F2E0576F726420436F756E743A2054
:1040B0002575202830782530345829A3ACB9B2258D
:1040C00075B8F6B0EBD7D60D0A00000080969800C0
:1040D000001401404275666665722050726F677207
:1040E000616D6D696E67B3ACCAB1A3BAB5D8D6B706
:1040F00030782530386C580D0A000000CEC4BCFE64
:10410000CEB2B2BFB4A6C0EDCDEAB3C9A3BACAB5A8
:10411000BCCAB1E0B3CC256C75D7D6BDDAA3A8BABA
:10412000AC256C75D7D6BDDACCEEB3E4CAFDBEDDE6
:10413000A3A90D0A00000000CAA3D3E0256C75D71F
:10414000D6BDDAB2BBD7E3353132A3ACCCEEB3E4A3
:10415000256C75D7D6BDDA3078464646460D0A003E
:10416000B6C1C8A1CEC4BCFECAFDBEDDCAA7B0DCC4
:10417000A3ACB4EDCEF3C2EBA3BA25640D0A0000E4
:10418000AA0A006054050060E42100200000C84233
:104190009008010857726974696E673A20252E31BC
:1041A00066252500D0B4C8EBCAA7B0DCA3BAB6C157
:1041B000C8A1CEC4BCFECAFDBEDDCAA7B0DCA3AC9C
:1041C000B4EDCEF3C2EBA3BA25640D0A00000000E3
:1041D000D0B4C8EBB3ACCAB1A3BAB5D8D6B73078AF
:1041E000253038582028BFE9C4DAB0EBD7D6C6ABA3
:1041F000D2C6307825303658290D0A00CDE902168E
:104200001146CDE9008104902A465146FE4807F048
:1042100053FB04F0B5F8AFF28402A1990020CDE978
:104220000081012109F0C0FD9F9B0121F7A20846F2
:1042300009F0BAFD9D999A98CDE90001F6A20121F5
:10424000022009F0B1FD7B1CF6A20121032000969B
:1042500009F0AAFD4FEA9A23F6A20121042009F0F1
:10426000A3FDAB0AF6A20121052009F09DFD04F093
:104270008DF90121F54801F0B4F8B9F1806F02D24F
:10428000AA45FFF4E7AAA4B90AE00022ACA9F048C5
:1042900002F02CFB0DF2AC41ACA809F05DFEC3E6C8
:1042A000791CECA0999A07F007FB7F1CB742FFF43A
:1042B000BFAA05F02BFE4FF0C040F0210180012085
:1042C00000F08AFE002C7CD1ECA007F0F5FA00216A
:1042D00009A808F047FB002099904FF40051ACA8C2
:1042E000FBF78CFF00209A9001F088F8A1903246ED
:1042F000EFA0089907F0E0FA002011E14FEA88608A
:1043000098904FF08060721E4FF000099D9090458C
:1043100006D1C8F1000105EB8161814200D29D9177
:1043200098999D980A460B1808F10101EC485B1E0C
:1043300007F0C2FA989805F0B5FDE2E02F1A4FF4A5
:104340000050874200D90746A1EB0900B84200D2CD
:1043500007469AAB3A46ACA909A808F045FE10B941
:104360009A98B84207D0DDE999133A46DD4807F03C
:10437000A3FA0624D8E000272EE0ACA97B1CCA5D76
:10438000834202D2C819407800E0002040EA0223AC
:1043900009EB070E4FEA5E00400000F1C0400088C4
:1043A000984218D00BF101018B460A2907D90A4619
:1043B0004FF47A71B2FBF1FC01FB1CB159B9989A28
:1043C00000E019E1CDE9000B02EB09013944724626
:1043D000C54807F071FABF1C9A988742CDD39999C6
:1043E00081440144999101F009F8074699988003A6
:1043F00002D09998A8427DD12846FBF7BFFF0290D2
:104400009998FBF7BBFF03900299FBF76DFFB74943
:10441000FBF738FF0290A198391A4FF47A70B1FB7C
:10442000F0F10020AB9151B10846FBF7A7FF014620
:104430000398FBF759FF6FF00901FBF793FFFBF7B8
:10444000A2FF074601910298FBF79DFFCDE99F016E
:104450000246AB980890019B0DF1080C08F1010091
:1044600001958CE84108CDE90673999800900B46B8
:104470009F4807F021FA03F083FFDDE99F01CDE9B2
:1044800000019CA20121002009F08EFC012108F10D
:10449000010364A20846009609F086FC642109FB2A
:1044A00001F09D9998A2B0FBF1F30121022009F0DF
:1044B0007BFCBBF1000009D0034696A2012103203A
:1044C00009F072FC0022022160480EE094A2012152
:1044D000032009F069FC5D4F0121384600F07CFFA4
:1044E00000285ED000220121384600F082FF8FA212
:1044F000012100E005E00420AB9B09F055FC04F02D
:1045000045F89D99894503D29998A842FFF416AFC2
:104510004A4608F1010188A007F0CEF908F1010030
:104520008046B042FFF4EAAE00F068FFA199411A5C
:104530004FF47A70B1FBF0F68BA007F0BDF933466B
:104540005A4691A0999907F0B7F9BBF100002AD01B
:10455000014606249AA007F0AFF903F011FFA2A2CA
:104560000121002009F020FC01215B4669A20846D8
:1045700009F01AFC33466DA20121022009F014FC57
:10458000AFF664420121072009F00EFC03F0FEFFA4
:104590002E4D00220221284600F02BFF0122114659
:1045A00027E001229FE794A007F086F903F0E8FED8
:1045B0009BA20121002009F0F7FB012133465BA2F9
:1045C000084609F0F1FBAB0A99A20121022009F08B
:1045D000EBFBAFF6B4420121072009F0E5FB03F045
:1045E000D5FF1A4D00220121284600F002FF0122CA
:1045F0000221284600F0FDFE09A808F08BF90122EF
:104600000020A7991AE10000900801085573653A47
:1046100020257553000000004573743A20252E3183
:1046200066530000426C6F636B3A2025752F257529
:104630000000000057726974653A2025754B000030
:10464000546F74616C3A2025754B0000000C0140DA
:10465000E4210020B5DA20256C7520BFE9D0B4C86C
:10466000EBCDEAB3C9A3ACB9B2D0B4C8EB20256C8A
:104670007520D7D6BDDA0D0A00000000BFAACABC5B
:10468000C8ABC1BFD6F0576F7264D1E9D6A4A3A856
:10469000CEC4BCFE5653D0BEC6ACA3ACB7D63634DF
:1046A0004D42BFE9B4A6C0EDA3A92E2E2E0D0A00DF
:1046B000D0BEC6ACC8DDC1BF3A20256C754D422CBA
:1046C0002046534D43BFE9B4F3D0A13A2036344DD0
:1046D000422C20D7DCBFE9CAFD3A2025750D0A001F
:1046E000B006010848080108F40601080000C842A5
:1046F000E40801085665726966696E673A20252EDE
:104700003166252500000000426C6F636B3A20255E
:10471000752525004572726F72733A20256C7500FD
:104720004E6F204572726F727300000054696D65A0
:104730003A20257573000000B5DA20256C7520BF7E
:10474000E9202836344D422920D1E9D6A4CDEAB358
:10475000C9A3ACB1BEBFE9D1E9D6A420256C7520B0
:10476000D7D6BDDA0D0A00000D0A3D3D3D3D3D2086
:10477000C8ABC1BFD1E9D6A4CDEAB3C9203D3D3D08
:104780003D3D0D0A00000000D7DCD1E9D6A4D7D604
:10479000BDDACAFDA3BA256C75207C20B2BBD2BBA2
:1047A000D6C2576F7264CAFDA3BA256C75207C20EF
:1047B000D7DCD3C3CAB1A3BA257520C3EB0D0A0059
:1047C000D1E9D6A4CAA7B0DCA3A1B7A2CFD6202531
:1047D0006C7520B8F6576F7264CAFDBEDDB2BBD2ED
:1047E000BBD6C20D0A000000566572696679204684
:1047F00061696C6564210000C8ABC1BFD6F0576F1A
:104800007264D0A3D1E9CDA8B9FDA3A1CBF9D3D0CF
:10481000CAFDBEDDCDEAC8ABD2BBD6C20D0A0000D0
:1048200056657269667920537563636573732100F9
:1048300053697A653A2025754B42000008F086FAE4
:1048400005F064FB4FF0C040F0210180012000F032
:10485000C3FB74B3062C7DD00DF50050D0F80018C2
:1048600056A007F029F803F08BFD5AA20121002081
:1048700009F09AFA0DF500500121D0F8003859A23C
:10488000084609F091FA234659A201215FF002007F
:1048900009F08AFAAFF678720121072009F084FA4C
:1048A00003F074FE20460DF6040D0DF5005DBDE825
:1048B000F08FFFE7A4AD00222946514802F03DF8F1
:1048C00018B150A006F0F8FF28E0A5AC0022214660
:1048D0004B4802F00BF82946204609F03DFB044600
:1048E00001464FA006F0E8FF9DF890029DF8922245
:1048F0009DF891128DE807009DF897129DF8963269
:104900009DF8952250A001F5FA6106F0D5FF9B981D
:10491000201A0146A8905AA006F0CEFF0DF50050CF
:104920005246D0F800185DA006F0C6FF03F028FD3F
:1049300064A20121002009F037FAAFF230320121E0
:104940000846A89B09F030FA4FEA9A23AFF22012EA
:10495000012100E010E0022009F026FA5D4A012161
:10496000072009F021FA03F011FEA8983C2801D98C
:1049700007F06CFC002096E70DF500505A46D0F881
:10498000001855A006F098FF03F0FAFC5FA2012181
:10499000002009F009FA0DF500500121D0F8003887
:1049A00010A2084609F000FA5CA20121022009F0D9
:1049B000FBF901215B465CA2032069E7CEC4BCFE83
:1049C0002573D0B4C8EBD0BEC6ACCAA7B0DCA3A1D7
:1049D0000D0A00005772697465204661696C656450
:1049E0000000000046696C653A2025730000000055
:1049F0004572726F72436F64653A2025750000003E
:104A0000E4210020BBF1C8A1D0B4C8EBBDE1CAF8D5
:104A1000CAB1BCE4CAA7B0DCA3A10D0A0000000023
:104A2000D0B4C8EBBDE1CAF8CAB1BCE4A3A8556EC6
:104A30006978CAB1BCE4B4C1A3A9A3BA256C752036
:104A4000C3EB0D0A00000000D0B4C8EBBDE1CAF80A
:104A5000CAB1BCE4A3A8B1BEB5D8A3A9A3BA2530F6
:104A600034642D253032642D2530326420253032D7
:104A7000643A253032643A253032640D0A00000071
:104A8000414D3239D0BEC6ACD0B4C8EBBAC4CAB1FD
:104A9000A3BA257520C3EB0D0A000000CEC4BCFEEE
:104AA0002573D0B4C8EBD0BEC6ACB3C9B9A6A3A118
:104AB000D7DCD0B4C8EBD7D6BDDAA3BA25750D0ABA
:104AC0000000000057726974652053756363657355
:104AD0007300000020390008CEC4BCFE2573D0B49A
:104AE000C8EBD0BEC6ACCAA7B0DCA3A1D1E9D6A49E
:104AF000B7A2CFD620257520B8F6576F7264CAFDCD
:104B0000BEDDB2BBD2BBD6C20D0A000056657269CB
:104B10006679204661696C65640000004572726FB9
:104B200072436F756E743A002575000010B501244C
:104B30002102034800F050FC00B10024204610BDC3
:104B4000000801400146014802F0FCB94C22002057
:104B500010B5044802F008FA042801D0012010BD65
:104B6000002010BD4C22002010B500F015F80128DF
:104B700001D0012010BD074802F00FFA040006D151
:104B80004FF40061034802F071F800B1012420469F
:104B900010BD00004C22002008B501208DF8000057
:104BA000FFF7C4FF10B900208DF800009DF8000049
:104BB00008BD000038B50024009313460A4601469C
:104BC000034802F0A1FA00B10124204638BD0000DC
:104BD0004C22002038B50024009313460A460146B3
:104BE000034802F081FB00B10124204638BD0000DB
:104BF0004C220020FEE7704772B6FEE7002200F06C
:104C000001B8000030B50E4B054601205C7A012C3E
:104C100015D8587A00241C54587A03EB800045605C
:104C20005D7A03F108002A54587A421C5A723030D7
:104C300008703A2048702F208870CC70002030BD5A
:104C4000BC3E002010B5D1E9004344EA03230C899F
:104C5000097B240444EA01610B43102A03D0C16A92
:104C6000C362002010BDC168C360FAE710B5D1E986
:104C7000004344EA03230C89097B240444EA0161CC
:104C80000B43102A03D0816A8362002010BD816823
:104C90008360FAE770B5D1E901231A43D1E90336FD
:104CA00033431A434B690D6889690B4C42EA43222E
:104CB00042EA4131102D07D0026A2240114341F0EF
:104CC00008010162002070BD02682240114341F0DA
:104CD00008010160F6E700008101F0FF30B5B3F58F
:104CE000804F05D06FF0704140F82210002030BD99
:104CF0008C690B688D6823434C688989240144EAD8
:104D00000524234343EA014150F82230014C23405B
:104D10001943E9E70000F0CF10B50A6850F82230D7
:104D200023F0010340F822308C68082C23D00023A4
:104D30004A682243CC681C430B6922431A434B69DF
:104D40000E4C1A43CB691A430B6A1A434B6A1A4337
:104D50008B6A1A43CB6A1A430B6B1A438B69134352
:104D60004A6B09681A4350F82130A343134340F8B3
:104D70002130002010BD4023DAE700007FFF0F0044
:104D800030B5D1E9003443EA04138C688D892402DC
:104D900044EA054423430C8A074D00EB820005EBEF
:104DA000045423430C7D6D0105EB0464896923439E
:104DB0000B434360002030BD0000F0FF50F821207D
:104DC00022F4805240F821200020704708B50020CE
:104DD0008DF8000002F04EFE20B126A006F06CFD1A
:104DE000012008BD02F0D6FD20B126A006F064FD2A
:104DF000022008BD02F0EAFD20B126A006F05CFD0D
:104E0000032008BD02F01AFE20B126A006F054FDD2
:104E1000042008BD02F0F6FD20B126A006F04CFDEE
:104E2000052008BD02F09AFD20B127A006F044FD40
:104E3000062008BD002301226946284802F06EFCC6
:104E400008B1002008BD9DF8000020385E280DD86C
:104E50004FF0FF3301226946204802F0B7FC9DF86D
:104E600000000D2802D11EA006F026FD9DF80000CE
:104E700008BD0000BCECB2E2B5BDA3BAC9CFBCFC12
:104E80000D0A0000BCECB2E2B5BDA3BACFC2BCFCB7
:104E90000D0A0000BCECB2E2B5BDA3BAD7F3BCFC6E
:104EA0000D0A0000BCECB2E2B5BDA3BAD3D2BCFC83
:104EB0000D0A0000BCECB2E2B5BDA3BAC8B7C8CFBA
:104EC000BCFC0D0A00000000BCECB2E2B5BDA3BA08
:104ED000C8A1CFFBBCFC0D0A000000002823002065
:104EE0000A00000038B5354C00208DF80000A0788D
:104EF00020B9607803F0F0FB0120A07002F0BAFD49
:104F000080B1607803280DD9012103F02BFB607874
:104F10000121401EC0B2607003F024FB617828A01C
:104F200006F0CAFC02F036FD80B1607807280DD289
:104F3000012103F017FB60780121401CC0B26070B2
:104F400003F010FB61781EA006F0B6FC02F05AFDDB
:104F500090B16078C01E05282DD2DFE800F003056F
:104F600007090B00012038BD022038BD032038BDE1
:104F7000042038BD052038BD0023012269461548AC
:104F800002F0CCFBB8B99DF80000A0F13101042972
:104F900011D82E38C5B26078854207D0012103F0C0
:104FA000E1FA28466570012103F0DCFA9DF8000063
:104FB0003038C0B238BD002038BD000000000020ED
:104FC0000D0AB5B1C7B0D1A1D4F1A3BAD0D0202574
:104FD000640D0A002823002070B5044600F00EFA84
:104FE0000546601C02D004480078044400F006FA2C
:104FF000401BA042FAD370BD9800002070B586B067
:105000000026224800960196029603960168002920
:1050100039D1012101601E48416941F4807141612B
:105020004069022400F4807004904FF6FC70CDE9D2
:105030000004032569460395164800F0D1F84FF2A5
:105040003F00CDE9000469460395134800F0C8F815
:1050500042F23F20CDE90004694603950F4800F075
:10506000BFF84FF6B370CDE900040D4C69460395C7
:10507000204600F0B5F84020CDE9000669462046FC
:10508000029600F0ADF806B070BD000018000020D8
:105090000010024000180140001C014000200140A7
:1050A000001401402DE9F0430023454F0F2581E016
:1050B00001229A400A407BD023F00304E619D6F877
:1050C00008809C074FEA147C05FA0CF909EA0804E9
:1050D000DFF8F080404502D14FF0000824E0DFF80F
:1050E000E880404502D14FF001081DE0DFF8DC8088
:1050F000404502D14FF0020816E0DFF8D480404569
:1051000002D14FF003080FE0DFF8C880404502D11C
:105110004FF0040808E0DFF8C080404502D14FF0AE
:10512000050801E04FF0060808FA0CF8A04522D166
:105130002A4CD4F800C02CEA020CC4F800C0241D8C
:10514000D4F800C02CEA020CC4F800C0234C0C3484
:10515000D4F800C02CEA020CC4F800C0241FD4F814
:1051600000C02CEA020CC4F800C0D6F808C02CEA33
:10517000090CC6F808C0FF2A01D8064601E000F174
:1051800004064FEA830401D9A4F12004D6F800C034
:1051900005FA04F82CEA080C4FF0040808FA04F8A1
:1051A0004CEA080CC6F800C0C46824EA0204C460D3
:1051B00003F1010331FA03F27FF47AAFBDE8F08323
:1051C0000000014000080140000C014000100140B7
:1051D0000014014000180140001C0140000401407F
:1051E0002DE9F84FDFF8C8910024A9F1040B2346FC
:1051F0000F2709F1040AABF1040ED1E00125A54007
:1052000006EA0502AA4276D1DFF8A8C14E68A6EBED
:105210000C0866452BD00DDC032E34D005DC36B3EC
:10522000012E19D0022E2FD11BE0112E16D0122ED6
:105230002AD119E0B8F5881F19D006DCB8F5803FEF
:1052400015D0B8F5801F1FD111E0B8F5001F0ED0A2
:10525000B8F5041F18D10AE0CB6815E0CB681B1D18
:1052600012E0CB6808330FE0CB680C330CE08B689E
:105270002BB1012B4FF0080303D0456104E0042358
:1052800002E0056100E00023FF2A01D8064601E0A4
:1052900000F104064FEA840501D9A5F12005D6F8EE
:1052A000008007FA05FC28EA0C0803FA05F548EA2D
:1052B0000508C6F800804D68ED0070D53E4DAE691A
:1052C00046F00106AE61AD6924F0030605F0010564
:1052D00000953A4D06EB050CDCF80850A607360F92
:1052E00007FA06F825EA0805DFF8D480404503D11F
:1052F0004FF0000825E052E0DFF8C880404502D1B9
:105300004FF001081DE0DFF8C080404502D14FF0AA
:10531000020816E0DFF8B480404502D14FF00308E0
:105320000FE0DFF8AC80404502D14FF0040808E000
:10533000DFF8A080404502D14FF0050801E04FF0B2
:10534000060808FA06F848EA0508CCF808804D680F
:10535000D9F80060ED024D4601D5164300E09643B2
:105360002E604D68DAF80060AD02554601D516434F
:1053700000E096432E604D68DBF80060AD035D46AB
:1053800001D5164300E096432E604D68DEF80060BC
:10539000ED03754601D5164300E096432E60641C6C
:1053A0000A681646E2407FF429AFBDE8F88F000096
:1053B00008040140000011100010024000000140EC
:1053C00000080140000C01400010014000140140A1
:1053D00000180140001C01408068084000D00120F6
:1053E0007047C26821EA02030A4043EA02410161B0
:1053F00070470AB1016170470904FBE70148806802
:1054000070470000980000200148007870470000B5
:105410009800002070B5040025D094F83D000025C8
:1054200020B984F83C50204600F0B8F8242084F8D5
:105430003D002068016821F00101016020680168D9
:1054400041F4004101602068016821F400410160DD
:1054500001F076F84D4A6168914201D84C4900E06C
:105460004C49884201D2012070BD4B492368B0FBF2
:10547000F1F15E6826F03F060E435E60636893427A
:1054800006D94FF4967359434FF47A73B1FBF3F195
:105490002368491C1E6A26F03F0631431962616881
:1054A000914210D84900401EB0FBF1F2521CC2F3E9
:1054B0000B02042A01D2042022E0B0FBF1F0401CD0
:1054C000C0F30B001CE0A268F2B301EBC10303EBD5
:1054D0000116431EB3FBF6F35B1C43F480431B052C
:1054E00049D092B301EBC10202EB0111401EB0FBA7
:1054F000F1F0401CC0F30B0040F4804040F4004049
:105500002168CA694CF6FF739A431043C861D4E915
:10551000071001432068026822F0C00211430160B5
:10552000D4E9030101432068826848F2FF339A43BB
:1055300011438160D4E9050108432168CA6822F05B
:10554000FF021043C86001E00EE016E02068016829
:1055500041F0010101602564202084F83D002563AD
:1055600084F83E50002070BD01EB4106431EB3FBA2
:10557000F6F35B1CB3E70120C2E701EB4101401EDB
:10558000B0FBF1F0401CC0F30B00B7E7A0860100B0
:1055900080841E0000093D0040420F0010B586B017
:1055A0000021009101910291039100680F49884206
:1055B0001AD10F4CA06940F00800A061A0696946AB
:1055C00000F008000490C0200090122001900320F9
:1055D00003900848FFF704FEE06940F40010E06122
:1055E000E06900F40010049006B010BD00540040C3
:1055F00000100240000C014002488168027811440A
:105600008160704798000020074810B5016841F09C
:1056100010010160032000F055F90F2000F006F89A
:1056200000F024F8002010BD0020024070B50D4DA0
:1056300004464FF47A712878B1FBF0F00A49096802
:10564000B1FBF0F001F0BAFF48B9102C07D20022EC
:105650002146501E00F016F900206C6070BD01203C
:1056600070BD000098000020A80000200C4808B57C
:10567000816941F001018161816901F001010091BD
:10568000C16941F08051C161C06900F08050009053
:105690000448416821F0E06141F00071416008BDBB
:1056A000001002400000014070B515460E4604008F
:1056B00003D094F8210010B107E0012070BD002054
:1056C00084F82000204600F020F8211D2068FFF714
:1056D000E1FAD4E900023146FFF7C8FAD4E9000242
:1056E0002946FFF7AFFA60681028206808D0016AE1
:1056F00041F004010162012084F82100002070BD06
:10570000016841F004010160F5E7FFF777BC000094
:105710002DE9F0411746884604004FF0000504D0FB
:1057200094F84100002618B107E00120BDE8F0819F
:1057300084F84060204600F059F804F10801206820
:10574000FFF7EAFA4146A2682068FFF719FBD4E99F
:1057500001023946236BFFF7C1FAA168206850F8AF
:10576000212042F0010240F821201F4A61690120F6
:1057700011B3106084F84100A168F9B1022920D06A
:10578000042921D04FF0D840A36A03B311689823AD
:1057900021B3012922D000F155010B80BFF34F8FB7
:1057A000116801291DD0133000886064204600F084
:1057B0001FF805462846B9E71660DBE74FF0C04002
:1057C000E2E74FF0C840DFE74FF0D040DCE7206869
:1057D000FFF7F4FA042084F84100EBE700F1AA0196
:1057E000DBE72630E0E70000A4000020FFF706BC5E
:1057F00010B590F841200023022A24D0042A01D0B9
:10580000012A01D0012010BD90F8401001291AD0C2
:10581000012180F84010022180F841108168A1B177
:10582000022915D0042916D04FF0D841446C022C1F
:1058300014D0012C14D0012380F84120002180F8DD
:105840004010184610BD022010BD4FF0C041EDE7DA
:105850004FF0C841EAE74FF0D041E7E7F02400E01D
:10586000FF240C80BFF34F8FE6E7002809DB00F030
:105870001F02012191404009800000F1E020C0F8A2
:1058800000117047F0B40E4B1B680C46C3F30223A3
:10589000C3F10705042D00D90425191D072901D2DC
:1058A000002300E0DB1E012606FA05F1491E214017
:1058B00099409E40761E16403143F0BC06F03AB83F
:1058C0000CED00E0064900F0070208684FF6FF0300
:1058D000184040EA0220034A104308607047000065
:1058E0000CED00E00000FA0510B50C0607D501F03C
:1058F000070101EB810100EBC100103005E001EB75
:10590000810100EBC10000F5A87099B232B101220B
:1059100002730181190C4181002010BD0022027325
:10592000C180F9E7704701EB810200EBC202D0F8B9
:10593000D402526A04F02DBE01EB810200EBC202D8
:10594000D0F8D402D2F8642104F086BE70B50446C3
:105950000B0601F0070000EB800104EBC1014FF0E2
:1059600001024FF0000502D54A74103103E081F8BE
:10597000515101F5A871087094F89002012808D0DF
:1059800084F89022206805F0C1FB84F89052002032
:1059900070BD022070BD70B5044601F00F00227981
:1059A000904201D9012070BD0B0601F0070000EB09
:1059B000800104EBC1014FF001024FF0000502D558
:1059C0004A74103103E081F8515101F5A8718D70CE
:1059D000087094F89002012808D084F8902220687A
:1059E00005F031FC84F89052002070BD022070BD9B
:1059F0002DE9F05F04685FEA424C0B788D69B4F8DA
:105A000050C04FF000064BF68F7948F2800A48F6F6
:105A10008F7B48F2C00E4FF480672AD54FF0020802
:105A200008EBC308C44407EB4C07E45BC4F3090468
:105A3000A54203D32D1B8D6101D00BE08E6106685A
:105A400036F8235005EA090585F4005545EA0A05AC
:105A500026F82350520609D50D78036833F825201F
:105A600002EA0B0242EA0E0223F8252084B30A89D7
:105A700029E04FF0060808EBC308C44407EB4C07C5
:105A8000E45BC4F30904A54203D32D1B8D6101D04F
:105A90000BE08E61066836F8235005EA090585F4A7
:105AA000005545EA0A0526F82350520609D40B781A
:105AB000056835F8232002EA0B0242EA0E0225F8B7
:105AC00023202CB14A8949690068234605F098FED5
:105AD0002046BDE8F09F2DE9F05F054600680C46C2
