:020000040800F2
:10000000487A002049010008C74F0008414700080E
:10001000C54F0008D51C00089F7F000800000000A5
:10002000000000000000000000000000C96500089A
:10003000D71C0008000000006F530008CB650008C3
:100040006301000863010008630100086301000800
:1000500063010008630100086301000863010008F0
:1000600063010008630100086301000863010008E0
:1000700063010008630100086301000863010008D0
:1000800063010008630100086301000863010008C0
:10009000297F00086301000863010008630100086C
:1000A00063010008630100086301000863010008A0
:1000B0006301000863010008630100086301000890
:1000C0006301000863010008630100086301000880
:1000D0006301000863010008630100086301000870
:1000E0006301000863010008630100086301000860
:1000F0006301000863010008630100086301000850
:10010000630100086301000863010008630100083F
:10011000630100086301000863010008630100082F
:10012000630100086301000863010008630100081F
:10013000DFF810D000F026FB004800475D9D000866
:10014000AFF30080487A0020064880470648004701
:10015000FEE7FEE7FEE7FEE7FEE7FEE7FEE7FEE777
:10016000FEE7FEE74766000831010008202A04DBAD
:10017000203A21FA02F00021704721FA02F3D04020
:10018000C2F120029140084319467047D2B201E003
:1001900000F8012B491EFBD270470022F6E710B58C
:1001A00013460A4604461946FFF7F0FF204610BDE5
:1001B00010B5044604E00B7800F8013B03B1491C7C
:1001C000521EF8D2204610BD421C10F8011B002917
:1001D000FBD1801A704710B5002200E0521C835CEE
:1001E0008C5CA34201D1002BF8D1D8B2E1B2401A05
:1001F00010BD0022CBB20178994200D10246401CCA
:100200000029F8D11046704780EA010210B502F0CB
:100210000043400022D04A001FD0010E01EB1261C2
:10022000C0F35600C2F3560240F4000042F400024C
:10023000A0FB022000047F39140400D0401C50EAC7
:10024000124001D44000491EC2B20C0604EBD0108B
:10025000401C4008802A02D003E0002010BD20F09E
:100260000100002900DA0020184310BD30B480EAF4
:10027000010202F0004530F0004221F0004013D0AE
:1002800090B1C30DD40DC2F31601C0F31600E41AE9
:1002900041F4000140F400027D34914201D3641C1A
:1002A00000E04900002C02DA30BC002070474FF417
:1002B00000000023914201D3891A034340084FEA0A
:1002C0004101F7D151B1914202D14FF0004105E017
:1002D00002D24FF0010101E06FF0010103EBC450C5
:1002E000284430BC00F05FB896230022114600F08D
:1002F00063B800F0004230F000400AD0C10D01F5B3
:100300006071C0F3160042EA0151C2084007114370
:10031000704700200146704730B50B46014600206B
:100320002022012409E021FA02F59D4205D303FAB7
:1003300002F5491B04FA02F52844151EA2F1010238
:10034000F1DC30BD2DE9F05F0546002092469B466A
:1003500088460646814640241BE0284641464746DB
:100360002246FFF703FF53465A46C01A914110D365
:1003700011461846224600F017FA2D1A67EB0108BD
:100380004F4622460120002100F00EFA17EB00092B
:100390004E41201EA4F10104DFDC484631462A46C6
:1003A0004346BDE8F09F0029A8BF7047401C4900A4
:1003B00008BF20F00100704710B4B0FA80FC00FACA
:1003C0000CF050EA010404BF10BC704749B1CCF1F5
:1003D000200421FA04F411FA0CF118BF0121214381
:1003E0000843A3EB0C01CB1D4FEA00614FEA10203C
:1003F00042BF002010BC704700EBC35010440029DE
:10040000A4BF10BC7047401C490008BF20F0010089
:1004100010BC70472DE9FE4F804681EA0300C00FF3
:100420000C46009021F0004123F00045B8EB02009B
:10043000A94105D24046214690461C460B4602463D
:1004400023F00040104347D0270DC7F30A00C3F341
:100450000A510290401A019040286BDAC3F313004E
:1004600040F4801B0098924620B10023D2EB030A8F
:1004700063EB0B0B01985946C0F14002504600F067
:1004800093F906460D4650465946019A00F09BF9ED
:1004900010EB08006141002487EA115284EAE773F7
:1004A0001A4340D0009A62B3019A012A4FEA0752D8
:1004B00015DC001B61EB02014FF0004202EA07521B
:1004C000CDE90042001C41F5801132462B4600F078
:1004D0009BF903B0BDE8F08F40462146F9E7001BC9
:1004E00061EB0201001C41F5801300185B412018EC
:1004F000A2F5001747EB030140EAD570B6196D412C
:1005000011E06D084FEA360645EAC0754FEA07521A
:10051000001B61EB0201001C41F5801149084FEA04
:1005200030000019514132462B4603B0BDE8F04F70
:1005300000F05BB90098012240000023D0EB0202DA
:1005400063EBE073009821464FEAE074B8EB0000DB
:1005500061EB0401E9E783F000435BE781F00041D0
:1005600058E72DE9FE4F81EA030404F0004421F02E
:10057000004100944FF0000B23F0004350EA0104C7
:100580005ED052EA03045BD0C3F30A54C1F30A55A8
:100590002C44A4F2F3340194A0FB0254C1F31301E0
:1005A00041F48011C3F3130343F4801301FB0244AD
:1005B00000FB034E840A970A44EA815447EA8357B2
:1005C000A4FB076802958D0A05FB07854FEA932C6B
:1005D00004FB0C542705029D4FEA065847EA1637DC
:1005E000B5EB08056EEB070C870E920E47EA8117F4
:1005F00042EA8312A7FB0201B6EB0B0164EB000495
:100600002B0D43EA0C335E1844EB1C50DA4651467E
:10061000E7FB0201C5F313044FEA0B3343EA14531B
:100620004FEA0432019C43EA0603A4F10C0402944D
:10063000009CCDE900B400F0E7F803B0BDE8F08F0E
:1006400000200146F9E72DE9F04D81EA030404F0AA
:10065000004B21F0004514464FF0000A23F0004102
:1006600050EA050220D054EA01021DD0C5F30A5712
:100670000246C5F31303C1F31300C1F30A5640F455
:10068000801543F48013A7EB0608101BD64608F22A
:10069000FD3873EB050002D308F1010801E0921860
:1006A0005B41B8F1000F03DA00200146BDE8F08D90
:1006B00000204FF48011064684460EE0171B73EBB2
:1006C000050705D3121B63EB050306434CEA010C37
:1006D00049084FEA300092185B4150EA0107EDD11A
:1006E00052EA030012D082EA040083EA05010843BB
:1006F00005D0101BAB4106D20122002306E00022E8
:100700004FF0004302E06FF0010253101AEB0600B5
:100710004CEB085110EB0A0041EB0B01BDE8F04D2A
:1007200000F063B8C1F30A52C1F3130140F2FF3382
:1007300041F480119A4202DA00200146704740F2EB
:1007400033439A42A2F2334202DC5242FFF70EBD1B
:1007500000F02AB830B5041E71F1000404DB4FF03C
:100760000044404264EB0101141E73F1000405DBF8
:100770001C464FF00043524263EB0403994208BF0A
:10078000904230BD064C074D06E0E06840F00103A2
:1007900094E8070098471034AC42F6D3FFF7CCFC3E
:1007A00004AB000824AB0008202A04DB203A00FA3E
:1007B00002F1002070479140C2F1200320FA03F3B8
:1007C000194390407047202A06DBCB17203A41FAA4
:1007D00002F043EAE07306E041FA02F3D040C2F1CE
:1007E0002002914008431946704710B5141E73F15A
:1007F000000408DA401C41F1000192185B411A43E1
:1008000001D120F0010010BD2DE9F04D92469B462C
:1008100011B1B1FA81F202E0B0FA80F220329046D2
:10082000FFF7C2FF04460F4640EA0A0041EA0B0107
:1008300053465A46084313D0114653EA010019D0D3
:10084000C8F140025046FFF791FC05460E4650465F
:1008500059464246FFF7A8FF084305D0012004E0AF
:1008600020463946BDE8F08D0020054346EAE07693
:100870002C4337430A986305E40AA0EB08000022E2
:10088000FD0A44EA47540A3002D500200146E9E750
:10089000010510196941DDE9084500196941BDE804
:1008A000F04DA2E770B58C1810F8015B15F0070346
:1008B00001D110F8013B2A1106D110F8012B03E0F9
:1008C00010F8016B01F8016B5B1EF9D12B0705D401
:1008D0000023521E0DD401F8013BFAE710F8013B4A
:1008E000CB1A921C03E013F8015B01F8015B521E66
:1008F000F9D5A142D8D3002070BD00002DE9F04FFA
:1009000091B000240E940F940C9422460EA9A04896
:100910000D9402F07CFF30B19EA007F041FB052052
:1009200011B0BDE8F08F00220FA9994802F048FFEE
:100930000EA90FA809F098FC014603909CA007F0AF
:100940002FFB9DF838009DF83A209DF839108DE86E
:1009500007009DF83F109DF83E309DF83D209EA079
:1009600001F5FA6107F01CFB4FF6FF7600253746CC
:1009700000F0ADFA002849D0142800D83C27A4483C
:10098000816941F020018161806908A900F020009F
:10099000009040204FF0010A81E811040220DFF8A6
:1009A00074B20B90584601F085FBB0464FF0C0463C
:1009B0000120A6F8008001F079FA9749AA220A805E
:1009C00008F01AF9DFF854925524A9F8004008F00D
:1009D00013F98020088008F00FF90A8008F00CF95C
:1009E000A9F8004008F008F9102008800A2001F05A
:1009F0005DFA4021584601F059FC044688A007F0F2
:100A0000CFFA44B18CA007F0CBFAB9E091A007F07F
:100A1000C7FA632084E795A007F0C2FADFF86CB24A
:100A20004FF47A79BD420AD9294699A007F0B8FA5D
:100A3000A6F80080012001F039FA012070E740217A
:100A4000744801F033FC0446012807D000222946EF
:100A500097A007F0A5FA012C02D023E00122F6E7C7
:100A60003078CDF800A0C0F340110291C0F380119E
:100A7000C0F3C01405910A46214693A0029B07F0DB
:100A80008FFA7CB1059858B1029848B100220CA9A0
:100A90003F4802F0BCFE80B196A007F081FA32E038
:100AA000029840B1484601F001FA0121584601F090
:100AB00002FC6D1CB6E7042032E700220DA9344881
:100AC00002F07EFE0CA90DA809F0CEFB04460146FB
:100AD0008FA007F065FA9DF830009DF832209DF850
:100AE00031108DE807009DF837109DF836309DF8DD
:100AF000352091A001F5FA6107F052FA0398211A06
:100B00009BA007F04DFAA6F800800A2001F0CEF96C
:100B100000254FF400112C460F469EA007F040FA26
:100B2000B246A64E600000F1C040028842450BD09C
:100B30006D1CB5FBF9F109FB115028B90AEB440112
:100B40002B469FA007F02CFAB4FBF6F006FB1040F2
:100B500048B90121584601F0AEFB2B463A462146E2
:100B6000A4A007F01DFA641CBC42DBD32A46214630
:100B7000ABA007F015FA2DB12946B7A007F010FA7F
:100B80000220CDE6BFA007F00BFA0020C8E6000067
:100B9000E4210020BBF1C8A1B2C1B3FDBFAACABC09
:100BA000CAB1BCE4CAA7B0DCA3A10D0A00000000D2
:100BB000B2C1B3FDBFAACABCCAB1BCE4A3A8556EFA
:100BC0006978CAB1BCE4B4C1A3A9A3BA256C7520E5
:100BD000C3EB0D0A00000000B2C1B3FDBFAACABC3E
:100BE000CAB1BCE4A3A8B1BEB5D8A3A9A3BA2530A5
:100BF00034642D253032642D253032642025303286
:100C0000643A253032643A253032640D0A0000001F
:100C10000010024000140140AA0A00605405006060
:100C2000436865636B20697320456E746572204567
:100C3000726173650D0A000052592F4259232069D1
:100C40007320312C20456E746572204661696C6595
:100C5000640D0A0047657420436869702053697AFF
:100C600065206661696C65640D0A000052592F4267
:100C7000592320697320302C20456E7465722053EF
:100C80007563636573730D0A00000000000C01407A
:100C900045726173652054696D656F7574212028F4
:100CA000436F756E743A20256C75290D0A0000009B
:100CB00054696D653A2564732C2052592F4259238B
:100CC0003A25640D0A0000005374617475733A206C
:100CD00051373D25642C2051363D25642C2051355B
:100CE0003D25642C2052592F4259233D25640D0A7D
:100CF00000000000BBF1C8A1B2C1B3FDBDE1CAF85C
:100D0000CAB1BCE4CAA7B0DCA3A10D0A0000000070
:100D1000B2C1B3FDBDE1CAF8CAB1BCE4A3A8556E27
:100D20006978CAB1BCE4B4C1A3A9A3BA256C752083
:100D3000C3EB0D0A00000000B2C1B3FDBDE1CAF86B
:100D4000CAB1BCE4A3A8B1BEB5D8A3A9A3BA253043
:100D500034642D253032642D253032642025303224
:100D6000643A253032643A253032640D0A000000BE
:100D7000414D32394C5633323020D0BEC6ACB2C1B0
:100D8000B3FDBAC4CAB1A3BA256C7520C3EB0D0A72
:100D900000000000BFAACABCC8ABD0BEC6ACB2C17E
:100DA000B3FDD1E9D6A4A3ACD7DCD0A3D1E9B0EB95
:100DB000D7D6CAFDA3BA256C750D0A00A08601001E
:100DC000D1E9D6A4D2ECB3A3A3BAB5D8D6B73078BC
:100DD0002530385820CAFDBEDD3078253034582003
:100DE0007C20C0DBBCC6B4EDCEF3CAFDA3BA256C33
:100DF000750D0A00D1E9D6A4BDF8B6C8A3BA256C12
:100E0000752F256C7520B0EBD7D6207C20B5B1C7E7
:100E1000B0B4EDCEF3CAFDA3BA256C750D0A00007F
:100E2000C8ABD0BEC6ACD1E9D6A4CDEAB3C9A3BA8B
:100E3000B9B2D0A3D1E9256C75B8F6B0EBD7D620FE
:100E40007C20B7C7307846464646B5D8D6B7CAFDE7
:100E5000A3BA256C750D0A00B2C1B3FDD1E9D6A4C1
:100E6000CAA7B0DCA3A1B9B2BCECB2E2B5BD256C97
:100E700075B8F6B5D8D6B7CEB4B2C1B3FDB8C9BE51
:100E8000BB0D0A00B2C1B3FDD1E9D6A4CDA8B9FD0E
:100E9000A3A1C8ABD0BEC6ACCBF9D3D0B5D8D6B71A
:100EA000BEF9CEAA3078464646460D0A000000003C
:100EB000002802D0012101FA00F0704708B56A4607
:100EC0000121002000F01BF8BDF8000008BD70B53E
:100ED0004FF0C0444FF6FF762680012000F0E6FF79
:100EE0009820A4F8AA0007F087FEB4F84E5007F047
:100EF00083FE2680012000F0D9FF284670BD70B522
:100F000015000C46064616D0002C14D04FF0C041F8
:100F10004FF6FF700880012000F0C8FF002308E0B2
:100F2000F018400000F1C040008825F813005B1C59
:100F30009BB2A342F4D370BD70B54FF0C0444FF6DE
:100F4000FF762680012000F0B1FF0F49AA2008801B
:100F500007F052FE0D4A5520108007F04DFE9020FC
:100F6000088007F049FE0A4D2088A8806088E88044
:100F7000A08828812680012000F098FFE888A988B1
:100F800040EA014070BD0000AA0A006054050060FC
:100F9000000000202DE9F14FADF5175DF1A042F200
:100FA00074256D4499904FF482712846FFF7F5F847
:100FB0004FF000080DF50050CDF86882CDF86C8236
:100FC000CDF85C82CDF86082D0F8C005C2464FF4FF
:100FD0008006C14600B30DF50050D0F8C005FFF7FC
:100FE000F3F8C8B10DF50050DFA1D0F8C0252846B0
:100FF00006F0E6FF012205F58270999908F01EF9C6
:1010000001000DD0DBA006F0CBFF02200DF2C45D85
:101010000DF5005DBDE8F08FE0A006F0C1FF5AE0DD
:1010200006AF01222946384608F036F902000DD0F5
:101030000DF50050D0F8C015DFA006F0B1FF012279
:101040000020999908F0FAF80320DFE70DF5005029
:10105000899DD0F8C0152A46E1A006F0A1FF3246CE
:1010600095420DD92946E7A006F09AFF384607F0C9
:101070007BFF01220020999908F0E0F80420C5E7E1
:10108000002D1DD0EDA006F08BFF4FF0C04B4FF6AA
:10109000FF70ABF80000012000F008FF00209C90DA
:1010A0009490EEA006F07CFF9AAE00223146F548FF
:1010B00002F0ADFB88B1F4A006F072FF0520A5E7B1
:1010C000F8A006F06DFF384607F04EFF0122002021
:1010D000999908F0B3F8012098E79BAC00222146CB
:1010E000E84802F06DFB3146204609F0BDF80146A4
:1010F0009390F2A006F054FF9DF868029DF86A22D2
:101100009DF869128DE807009DF86F129DF86E3208
:101110009DF86D22F3A001F5FA6106F041FFA6E00B
:10112000002094909C9094AB02229CA906A808F001
:10113000D3F9010003D0F9A006F032FF45E09498FE
:10114000002844D0BDF870024FEA5A0641BA0BEBB2
:101150004600FD4A0190AA20108007F04DFDFB4B90
:101160005520188007F048FDA020108007F044FDAE
:10117000700000F1C040018007F03EFD4FF47A7727
:101180003C4603E007F038FD641E15D04021F048CE
:1011900001F08CF80028F5D094998A441FFA8AF05F
:1011A000002801D0AA4562D10020EA4E959004465D
:1011B0009D90B06960B117E03246E7A0019906F052
:1011C000EFFE4FF6FF70ABF800004FF0050853E05C
:1011D000002295A9AB4802F01AFB002857D001F075
:1011E00077F8B0FBF7F0B061002295A9A54802F0AE
:1011F0000EFBE8B301F06CF8B0FBF7F0B169471AE9
:10120000BAF1000F12D08FB12846FFF76DF80446EF
:101210005046FFF769F82146FFF728F8044638469C
:10122000FFF762F82146FFF721F804462046FFF752
:1012300060F804460E462846FFF756F801905046DF
:10124000FFF752F80199FFF711F8CD49FEF7DCFFDF
:10125000FFF74FF88DE88300CDE904462A46514652
:10126000C84806F09DFE0121C74801F024F800E0BF
:1012700017E0AA45FFF454AF97AE002231468148EB
:1012800002F0C5FAC0B1C1A006F08AFE3BE0002220
:101290009DA97C4802F094FA95A99DA808F0E4FF66
:1012A000A1E79DAF00223946764802F089FA95A958
:1012B000384608F0D9FFA1E798AC002221467148D2
:1012C00002F07EFA3146204608F0CEFF0446014681
:1012D000B5A006F065FE9DF85C029DF85E229DF8C3
:1012E0005D128DE807009DF863129DF862329DF84B
:1012F0006122B7A001F5FA6106F052FE9398211A17
:10130000C1A006F04DFEB8F1000F29D1C7A006F02C
:1013100047FE00273E464FF400519DA8FEF73DFFD3
:1013200000200146029006A807F046FECCE1AC1B67
:101330004FF40050844200D9044602AB22469DA9D6
:1013400006A808F0C9F810B90298A04209D02246B0
:101350003146C048029B06F023FE4FF00608B6E176
:10136000C3E179E1303A0000303A2F414D32392F54
:1013700025730000D0B4C8EBCAA7B0DCA3BA5446AA
:10138000BFA8B9D2D4D8CAA7B0DCA3ACB4EDCEF311
:10139000C2EBA3BA25640D0A00000000D0B4C8EB6C
:1013A000CAA7B0DCA3BACEC4BCFEC3FBB2CECAFD92
:1013B000CEAABFD50D0A0000D0B4C8EBCAA7B0DCD6
:1013C000A3BAB4F2BFAACEC4BCFE2573CAA7B0DCD0
:1013D000A3ACB4EDCEF3C2EBA3BA25640D0A0000B2
:1013E000B4F2BFAACEC4BCFEB3C9B9A6A3BA2573D2
:1013F000207C20B4F3D0A1A3BA256C7520D7D6BD2C
:10140000DA0D0A00D0B4C8EBCAA7B0DCA3BACEC4C8
:10141000BCFEB4F3D0A128256C75D7D6BDDA29B3AC
:10142000ACB9FDD0BEC6ACD7EEB4F3C8DDC1BF28A1
:10143000256C75D7D6BDDA290D0A0000D0BEC6AC22
:10144000B3F5CABCBBAFA3A8BDF6B8B4CEBBD2BB84
:10145000B4CEA3A92E2E2E0D0A000000BFAACABC2E
:10146000D0B4C8EBCEC4BCFEB5BDD0BEC6ACA3A83C
:10147000CACAC5E4B4F3B6CBC4A3CABDA3A92E2E71
:101480002E0D0A00E4210020BBF1C8A1D0B4C8EBA6
:10149000BFAACABCCAB1BCE4CAA7B0DCA3A10D0AEA
:1014A00000000000D0B4C8EBCAA7B0DCA3BACEC419
:1014B000BCFECEAABFD50D0A00000000D0B4C8EB18
:1014C000BFAACABCCAB1BCE4A3A8556E6978CAB1A8
:1014D000BCE4B4C1A3A9A3BA256C7520C3EB0D0A63
:1014E00000000000D0B4C8EBBFAACABCCAB1BCE4BB
:1014F000A3A8B1BEB5D8A3A9A3BA253034642D25BD
:101500003032642D2530326420253032643A253063
:1015100032643A253032640D0A000000D0B4C8EBC2
:10152000CAA7B0DCA3BAB6C1C8A1CEC4BCFECAFD6E
:10153000BEDDCAA7B0DCA3ACB4EDCEF3C2EBA3BA58
:1015400025640D0A00000000AA0A0060540500602E
:101550000014014000000020D0B4C8EBB3ACCAB105
:10156000A3BAB5D8D6B73078253038582028B0EB94
:10157000D7D6C6ABD2C6307825303658290D0A00EA
:101580000000C842B8AA0008000C0140BBF1C8A185
:10159000D0B4C8EBBDE1CAF8CAB1BCE4CAA7B0DC9C
:1015A000A3A10D0A00000000D0B4C8EBBDE1CAF849
:1015B000CAB1BCE4A3A8556E6978CAB1BCE4B4C191
:1015C000A3A9A3BA256C7520C3EB0D0A0000000087
:1015D000D0B4C8EBBDE1CAF8CAB1BCE4A3A8B1BE9F
:1015E000B5D8A3A9A3BA253034642D253032642D93
:1015F0002530326420253032643A253032643A2571
:101600003032640D0A000000414D32394C563332FD
:101610003020D0BEC6ACD0B4C8EBBAC4CAB1A3BAED
:10162000256C7520C3EB0D0A00000000BFAACABCE0
:10163000C8ABC1BFD6F0576F7264D1E9D6A4A3A8D6
:10164000CEC4BCFE5653D0BEC6ACA3A92E2E2E0DC2
:101650000A00000070AA0008002432E09DA8631C64
:10166000015D934202D22044407800E0002040EA2D
:1016700001227008400000F1C0400388934210D05E
:1016800009F101004FF47A71B0FBF1FC814601FBD6
:101690001C9030B906F1C0412C48CDF8009006F0FE
:1016A0007FFC2B487F1CB7FBF0F100FB117030B9B9
:1016B000681C42084B46394626A006F071FCA41C63
:1016C000B61C029A9442C9D3AE42FFF430AE4A46E9
:1016D00039462BA006F064FCB9F1000F02D04FF0A0
:1016E000060802E034A006F05BFC4FF6FF70ABF892
:1016F0000000012000F0DAFB06A807F035FC01220B
:101700000020999907F09AFDB8F1000F0BD0B8F1BD
:10171000060F12D00DF50050D0F8C0152CA006F021
:101720003FFC404672E40DF500505246D0F8C0151B
:101730002DA006F035FC002068E40DF500504A4667
:10174000D0F8C01532A006F02BFCEAE72CAA00085E
:10175000A0860100D1E9D6A4BDF8B6C8A3BA256C0D
:10176000752F256C7520576F726473207C20B5B17E
:10177000C7B0B4EDCEF3CAFDA3BA256C750D0A004F
:10178000C8ABC1BFD1E9D6A4CDEAB3C9207C20D76C
:10179000DCD1E9D6A4576F7264CAFDA3BA256C7573
:1017A000207C20B2BBD2BBD6C2576F7264CAFDA3E5
:1017B000BA256C750D0A0000C8ABC1BFD6F0576FD3
:1017C0007264D0A3D1E9CDA8B9FDA3A10D0A000090
:1017D000CEC4BCFE2573D0B4C8EBD0BEC6ACCAA77D
:1017E000B0DCA3A10D0A0000CEC4BCFE2573D0B4AA
:1017F000C8EBD0BEC6ACB3C9B9A6A3A1D7DCD0B4E0
:10180000C8EBD7D6BDDAA3BA256C750D0A00000067
:10181000CEC4BCFE2573D0B4C8EBD0BEC6ACCAA73C
:10182000B0DCA3A1D1E9D6A4B7A2CFD620256C7590
:1018300020B8F6576F7264CAFDBEDDB2BBD2BBD60C
:10184000C20D0A003EB50020009001906A460521B5
:101850000290FFF754FB15A006F0A2FB00246D4692
:101860001AA035F8141006F09BFB641C052CF7DB5E
:1018700018A006F095FBFFF75FFB014616A006F0E7
:101880008FFBFFF724FB0246FFF712FB04461146CD
:1018900019A006F085FB2CB1220D214621A006F0EF
:1018A0007FFB3EBD2BA006F07BFB3EBD414D323998
:1018B0004C56333230203078303030307E30783013
:1018C00030303920446174613A200000307825308E
:1018D000345820000D0A0000414D32394C56333245
:1018E0003020494420283332626974293A20307804
:1018F000253038580D0A0000414D32394C563332EC
:1019000030204346492043617061636974792052F5
:1019100061772056616C75653A20307825303458EF
:101920000D0A0000414D32394C56333230204163AC
:101930007475616C2043617061636974793A202524
:101940006C752042797465732028256C75204D4292
:10195000290D0A00414D32394C563332302043466E
:10196000492043617061636974793A20556E6B6EEA
:101970006F776E0D0A0000002DE9F0410546ADF5C8
:101980008D6D46A746A64FF402514748FEF705FC69
:10199000464C0020002D207011D0287044A006F085
:1019A000FFFA0122394688A807F048FC010008D058
:1019B00049A006F0F5FA4FA006F0F2FA12E059A09D
:1019C000FAE760A006F0ECFA3146684607F03AFD07
:1019D00001000CD060A006F0E3FA01223946002095
:1019E00007F02CFC00200DF58D6DBDE8F08162A0A4
:1019F00006F0D6FA0DF259462078202839D20DF596
:101A00008A61684607F02EFE90BB9DF8590478B3B2
:101A10009DF85804C006EFD42E213046FEF7E9FBAE
:101A20005FEA0008E8D05EA1FEF7D5FB28B15EA111
:101A30004046FEF7D0FB0028DED12078DFF8688032
:101A400000EB801108EB8100FF223146FEF7B0FB6E
:101A50002078DDF8502400EB801108EB810154A0C0
:101A6000C1F8002106F09CFA2078401C2070C3E7E2
:101A7000FFE7684607F08DFA01223946002007F09B
:101A8000DDFB2178297021B150A006F089FA0648C3
:101A9000A9E757A006F084FAF9E70000303A000001
:101AA000303A2F414D3239006401002000000020FF
:101AB0005344494FCDE2C9E8B3F5CABCBBAFB3C983
:101AC000B9A6A3ACBFAACABCB9D2D4D85446BFA841
:101AD0002E2E2E0D0A0000005446BFA8B9D2D4D82D
:101AE000CAA7B0DC2120B4EDCEF3C2EB3A202564C6
:101AF0000D0A0000B4EDCEF3D4ADD2F2A3BA313D5D
:101B00005344494FC5E4D6C3B4EDCEF3207C203412
:101B10003D5446BFA8CBF0BBB52FCEB4B2E5BAC397
:101B20000D0A0000B2CECAFDB4EDCEF3A3BA6669C9
:101B30006C655F636F756E74D6B8D5EBCEAABFD5F2
:101B40000D0A00005446BFA8B9D2D4D8B3C9B9A66B
:101B5000A3A10D0A00000000B4F2BFAA414D323922
:101B6000C4BFC2BCCAA7B0DC2120B4EDCEF3C2EB27
:101B70003A2025640D0A00003D3D3D3D3D20414D8C
:101B80003239C4BFC2BCCFC2B5C42E62696ECEC4E6
:101B9000BCFEC1D0B1ED203D3D3D3D3D0D0A0000F4
:101BA0002E62696E000000002E42494E00000000C7
:101BB000CEC4BCFE3A202573207C20B4F3D0A13AD9
:101BC00020256C7520D7D6BDDA0D0A003D3D3D3D80
:101BD0003D20B9B2D5D2B5BD20256420B8F62E621D
:101BE000696ECEC4BCFE203D3D3D3D3D0D0A00006A
:101BF000414D3239C4BFC2BCCFC2CEB4D5D2B5BDBF
:101C00002E62696ECEC4BCFE0D0A000010B5012420
:101C10002102034800F04AFB00B10024204610BD19
:101C2000000801400146014802F0F6B84C220020AD
:101C300010B5044802F002F9042801D0012010BDBB
:101C4000002010BD4C22002010B500F015F801282E
:101C500001D0012010BD074802F009F9040006D1A7
:101C60004FF40061034801F06BFF00B101242046EE
:101C700010BD00004C22002008B501208DF80000A6
:101C8000FFF7C4FF10B900208DF800009DF8000098
:101C900008BD000038B50024009313460A460146EB
:101CA000034802F09BF900B10124204638BD000032
:101CB0004C22002038B50024009313460A46014602
:101CC000034802F07BFA00B10124204638BD000031
:101CD0004C220020FEE7704772B6FEE7002200F0BB
:101CE00001B8000030B50E4B054601205C7A012C8E
:101CF00015D8587A00241C54587A03EB80004560AC
:101D00005D7A03F108002A54587A421C5A72303026
:101D100008703A2048702F208870CC70002030BDA9
:101D20003C3A002010B5D1E9004344EA03230C8972
:101D3000097B240444EA01610B43102A03D0C16AE1
:101D4000C362002010BDC168C360FAE710B5D1E9D5
:101D5000004344EA03230C89097B240444EA01611B
:101D60000B43102A03D0816A8362002010BD816872
:101D70008360FAE770B5D1E901231A43D1E903364C
:101D800033431A434B690D6889690B4C42EA43227D
:101D900042EA4131102D07D0026A2240114341F03E
:101DA00008010162002070BD02682240114341F029
:101DB00008010160F6E700008101F0FF30B5B3F5DE
:101DC000804F05D06FF0704140F82210002030BDE8
:101DD0008C690B688D6823434C688989240144EA27
:101DE0000524234343EA014150F82230014C2340AB
:101DF0001943E9E70000F0CF10B50A6850F8223027
:101E000023F0010340F822308C68082C23D00023F3
:101E10004A682243CC681C430B6922431A434B692E
:101E20000E4C1A43CB691A430B6A1A434B6A1A4386
:101E30008B6A1A43CB6A1A430B6B1A438B691343A1
:101E40004A6B09681A4350F82130A343134340F802
:101E50002130002010BD4023DAE700007FFF0F0093
:101E600030B5D1E9003443EA04138C688D8924022B
:101E700044EA054423430C8A074D00EB820005EB3E
:101E8000045423430C7D6D0105EB046489692343ED
:101E90000B434360002030BD0000F0FF50F82120CC
:101EA00022F4805240F821200020704770B504468B
:101EB00000F00EFA0546601C02D004480078044485
:101EC00000F006FA401BA042FAD370BD9C0000202F
:101ED00070B586B0002622480096019602960396B9
:101EE0000168002939D1012101601E48416941F48E
:101EF000807141614069022400F4807004904FF6C3
:101F0000FC70CDE90004032569460395164800F0EE
:101F1000D1F84FF23F00CDE900046946039513481C
:101F200000F0C8F846F23F20CDE900046946039569
:101F30000F4800F0BFF84FF6B370CDE900040D4C28
:101F400069460395204600F0B5F84020CDE900062B
:101F500069462046029600F0ADF806B070BD00005C
:101F60001C0000200010024000180140001C01402D
:101F700000200140001401402DE9F0430023454FAB
:101F80000F2581E001229A400A407BD023F0030410
:101F9000E619D6F808809C074FEA147C05FA0CF97C
:101FA00009EA0804DFF8F080404502D14FF000084C
:101FB00024E0DFF8E880404502D14FF001081DE041
:101FC000DFF8DC80404502D14FF0020816E0DFF870
:101FD000D480404502D14FF003080FE0DFF8C880FD
:101FE000404502D14FF0040808E0DFF8C0804045CA
:101FF00002D14FF0050801E04FF0060808FA0CF88E
:10200000A04522D12A4CD4F800C02CEA020CC4F816
:1020100000C0241DD4F800C02CEA020CC4F800C093
:10202000234C0C34D4F800C02CEA020CC4F800C0D5
:10203000241FD4F800C02CEA020CC4F800C0D6F863
:1020400008C02CEA090CC6F808C0FF2A01D80646C9
:1020500001E000F104064FEA830401D9A4F1200451
:10206000D6F800C005FA04F82CEA080C4FF0040872
:1020700008FA04F84CEA080CC6F800C0C46824EA60
:102080000204C46003F1010331FA03F27FF47AAF72
:10209000BDE8F0830000014000080140000C014051
:1020A000001001400014014000180140001C0140D4
:1020B000000401402DE9F84FDFF8C8910024A9F190
:1020C000040B23460F2709F1040AABF1040ED1E0FB
:1020D0000125A54006EA0502AA4276D1DFF8A8C18B
:1020E0004E68A6EB0C0866452BD00DDC032E34D0D1
:1020F00005DC36B3012E19D0022E2FD11BE0112E94
:1021000016D0122E2AD119E0B8F5881F19D006DC96
:10211000B8F5803F15D0B8F5801F1FD111E0B8F594
:10212000001F0ED0B8F5041F18D10AE0CB6815E0E7
:10213000CB681B1D12E0CB6808330FE0CB680C3373
:102140000CE08B682BB1012B4FF0080303D04561E5
:1021500004E0042302E0056100E00023FF2A01D827
:10216000064601E000F104064FEA840501D9A5F115
:102170002005D6F8008007FA05FC28EA0C0803FAC7
:1021800005F548EA0508C6F800804D68ED0070D5F1
:102190003E4DAE6946F00106AE61AD6924F003061E
:1021A00005F0010500953A4D06EB050CDCF80850EA
:1021B000A607360F07FA06F825EA0805DFF8D480E7
:1021C000404503D14FF0000825E052E0DFF8C88019
:1021D000404502D14FF001081DE0DFF8C0804045C6
:1021E00002D14FF0020816E0DFF8B480404502D17A
:1021F0004FF003080FE0DFF8AC80404502D14FF00C
:10220000040808E0DFF8A080404502D14FF005083F
:1022100001E04FF0060808FA06F848EA0508CCF88D
:1022200008804D68D9F80060ED024D4601D516438F
:1022300000E096432E604D68DAF80060AD02554626
:1022400001D5164300E096432E604D68DBF8006030
:10225000AD035D4601D5164300E096432E604D6800
:10226000DEF80060ED03754601D5164300E09643A5
:102270002E60641C0A681646E2407FF429AFBDE870
:10228000F88F000008040140000011100010024007
:102290000000014000080140000C01400010014016
:1022A0000014014000180140001C014080680840F3
:1022B00000D001207047C26821EA02030A4043EAC5
:1022C0000241016170470AB1016170470904FBE7EF
:1022D00001488068704700009C0000200148007899
:1022E000704700009C00002070B5040025D094F8D1
:1022F0003D00002520B984F83C50204600F0B8F895
:10230000242084F83D002068016821F0010101606B
:102310002068016841F4004101602068016821F4EF
:102320000041016001F076F84D4A6168914201D8A0
:102330004C4900E04C49884201D2012070BD4B4914
:102340002368B0FBF1F15E6826F03F060E435E6045
:102350006368934206D94FF4967359434FF47A73E6
:10236000B1FBF3F12368491C1E6A26F03F06314396
:1023700019626168914210D84900401EB0FBF1F229
:10238000521CC2F30B02042A01D2042022E0B0FB4B
:10239000F1F0401CC0F30B001CE0A268F2B301EBAB
:1023A000C10303EB0116431EB3FBF6F35B1C43F4BE
:1023B00080431B0549D092B301EBC10202EB01112E
:1023C000401EB0FBF1F0401CC0F30B0040F4804015
:1023D00040F400402168CA694CF6FF739A431043E9
:1023E000C861D4E9071001432068026822F0C002E6
:1023F00011430160D4E9030101432068826848F277
:10240000FF339A4311438160D4E9050108432168F1
:10241000CA6822F0FF021043C86001E00EE016E037
:102420002068016841F0010101602564202084F8E2
:102430003D00256384F83E50002070BD01EB41064D
:10244000431EB3FBF6F35B1CB3E70120C2E701EBCD
:102450004101401EB0FBF1F0401CC0F30B00B7E798
:10246000A086010080841E0000093D0040420F004C
:1024700010B586B00021009101910291039100688E
:102480000F4988421AD10F4CA06940F00800A061A2
:10249000A069694600F008000490C0200090122056
:1024A0000190032003900848FFF704FEE06940F420
:1024B0000010E061E06900F40010049006B010BD67
:1024C0000054004000100240000C014002488168A6
:1024D00002781144816070479C000020074810B5C5
:1024E000016841F010010160032000F055F90F2050
:1024F00000F006F800F024F8002010BD0020024093
:1025000070B50D4D04464FF47A712878B1FBF0F0A8
:102510000A490968B1FBF0F001F0BAFF48B9102C84
:1025200007D200222146501E00F016F900206C60F0
:1025300070BD012070BD00009C000020AC00002098
:102540000C4808B5816941F001018161816901F0A0
:1025500001010091C16941F08051C161C06900F081
:10256000805000900448416821F0E06141F0007122
:10257000416008BD001002400000014070B51546E2
:102580000E46040003D094F8210010B107E00120AA
:1025900070BD002084F82000204600F020F8211DA6
:1025A0002068FFF7E7FBD4E900023146FFF7CEFBD6
:1025B000D4E900022946FFF7B5FB606810282068BF
:1025C00008D0016A41F004010162012084F8210071
:1025D000002070BD016841F004010160F5E7FFF7DC
:1025E00077BC00002DE9F0411746884604004FF003
:1025F000000504D094F84100002618B107E001203E
:10260000BDE8F08184F84060204600F059F804F1FC
:1026100008012068FFF7F0FB4146A2682068FFF739
:102620001FFCD4E901023946236BFFF7C7FBA16801
:10263000206850F8212042F0010240F821201F4A72
:102640006169012011B3106084F84100A168F9B1FB
:10265000022920D0042921D04FF0D840A36A03B327
:102660001168982321B3012922D000F155010B8074
:10267000BFF34F8F116801291DD0133000886064AB
:10268000204600F01FF805462846B9E71660DBE74C
:102690004FF0C040E2E74FF0C840DFE74FF0D040D6
:1026A000DCE72068FFF7FAFB042084F84100EBE741
:1026B00000F1AA01DBE72630E0E70000A8000020D7
:1026C000FFF706BC10B590F841200023022A24D061
:1026D000042A01D0012A01D0012010BD90F8401039
:1026E00001291AD0012180F84010022180F8411000
:1026F0008168A1B1022915D0042916D04FF0D84124
:10270000446C022C14D0012C14D0012380F84120F9
:10271000002180F84010184610BD022010BD4FF077
:10272000C041EDE74FF0C841EAE74FF0D041E7E79D
:10273000F02400E0FF240C80BFF34F8FE6E7002871
:1027400009DB00F01F02012191404009800000F1E7
:10275000E020C0F800117047F0B40E4B1B680C4627
:10276000C3F30223C3F10705042D00D90425191D65
:10277000072901D2002300E0DB1E012606FA05F13D
:10278000491E214099409E40761E16403143F0BCC0
:1027900005F02ABC0CED00E0064900F007020868CD
:1027A0004FF6FF03184040EA0220034A1043086036
:1027B000704700000CED00E00000FA0510B50C06B3
:1027C00007D501F0070101EB810100EBC1001030DA
:1027D00005E001EB810100EBC10000F5A87099B2A2
:1027E00032B1012202730181190C4181002010BD18
:1027F00000220273C180F9E7704701EB810200EB10
:10280000C202D0F8D402526A04F061BA01EB81022C
:1028100000EBC202D0F8D402D2F8642104F0BABAB4
:1028200070B504460B0601F0070000EB800104EBD5
:10283000C1014FF001024FF0000502D54A7410317A
:1028400003E081F8515101F5A871087094F89002E5
:10285000012808D084F89022206804F0F5FF84F85D
:102860009052002070BD022070BD70B5044601F08A
:102870000F002279904201D9012070BD0B0601F0B2
:10288000070000EB800104EBC1014FF001024FF0A3
:10289000000502D54A74103103E081F8515101F569
:1028A000A8718D70087094F89002012808D084F8FF
:1028B0009022206805F065F884F89052002070BDE1
:1028C000022070BD2DE9F05F04685FEA424C0B788E
:1028D0008D69B4F850C04FF000064BF68F7948F27E
:1028E000800A48F68F7B48F2C00E4FF480672AD5E5
:1028F0004FF0020808EBC308C44407EB4C07E45B45
:10290000C4F30904A54203D32D1B8D6101D00BE054
:102910008E61066836F8235005EA090585F40055EE
:1029200045EA0A0526F82350520609D50D780368B2
:1029300033F8252002EA0B0242EA0E0223F8252092
:1029400084B30A8929E04FF0060808EBC308C444A1
:1029500007EB4C07E45BC4F30904A54203D32D1B2A
:102960008D6101D00BE08E61066836F8235005EAD0
:10297000090585F4005545EA0A0526F82350520654
:1029800009D40B78056835F8232002EA0B0242EAE5
:102990000E0225F823202CB14A8949690068234694
:1029A00005F0CCFA2046BDE8F09F2DE9F05F054622
:1029B00000680C465FEA426C16468B692278B0F8D4
:1029C00050C048F68F774CF280094FF4004B4FF619
:1029D000FF7E4FF4806A4FF0000172D54FF002087D
:1029E00008EBC208E0440AEB480C30F80C00C0F3D6
:1029F0000900834211D91B1AA3610FD0730407D5B4
:102A00002E6836F822303B4043EA090326F822308C
:102A100094F82420012A47D052E1A161607810B1D6
:102A2000012813D01AE02868B0F85030184400EBA1
:102A30000210B0F80424C2F30902A0F80424B0F88C
:102A4000042442F40042A0F8042407E02868B0F807
:102A50005030184400EB0210A0F804146278286883
:102A600012B1012A11D018E0B0F8501008442178B2
:102A700000EB0110B0F80C14C1F30901A0F80C141C
:102A8000B0F80C1441F4004105E0B0F850201044B7
:102A9000227800EB0210A0F80C1421782846FFF7EA
:102AA000ACFE700472D40BE1626902446261E269B7
:102AB0000244E2612369226A9A4203D31846111A3A
:102AC00004E03EE084F824100AB1104621626178E7
:102AD00011B1012929D031E02968B1F85020114401
:102AE000227801EB0211B1F80424C2F30902A1F823
:102AF000042401F204413E2807D94209C30600D14B
:102B0000521E0B884BEA822207E048B14208C307F5
:102B100000D0521C0B880EEA822213430B800DE07A
:102B20000A8842F400420A8008E02968B1F850207F
:102B30001144227801EB0211A1F8040483B2228926
:102B4000BAE04FF0060808EBC208E0440AEB480C74
:102B500030F80C00C0F30900834211D31B1AA361A3
:102B60000FD0730407D42E6836F822303B4043EA76
:102B7000090326F8223094F82420012A51D09FE03E
:102B8000A161607818B1012814D01BE03FE02868EB
:102B9000B0F85030184400EB0210B0F80424C2F32F
:102BA0000902A0F80424B0F8042442F40042A0F87A
:102BB000042407E02868B0F85030184400EB0210F5
:102BC000A0F804146278286812B1012A11D018E024
:102BD000B0F850100844217800EB0110B0F80C1444
:102BE000C1F30901A0F80C14B0F80C1441F4004131
:102BF00005E0B0F850201044227800EB0210A0F855
:102C00000C1421782846FFF7F8FD700458D4227878
:102C1000296831F82200384040EA090021F82200F2
:102C20004EE0626902446261E2690244E261236942
:102C3000226A9A4203D31846111A216204E00AB1AB
:102C40001046216284F824106278296812B1012AA2
:102C500028D02FE0B1F850201144227801EB021166
:102C6000B1F80C24C2F30902A1F80C2401F20C41C2
:102C70003E2807D94209C30600D1521E0B884BEAF1
:102C8000822207E048B14208C30700D0521C0B88DB
:102C90000EEA822213430B800CE00A8842F40042C1
:102CA0000A8007E0B1F850201144227801EB0211AC
:102CB000A1F80C04628983B26169286805F05CF9A7
:102CC0002278296831F8220048F6BF73184080F056
:102CD000300048F28003184321F822000020BDE8AC
:102CE000F09F10B5044690F8900201280AD0012008
:102CF00084F89002080607D501F00701206805F066
:102D000011F904E0022010BD206805F009F9002047
:102D100084F8900210BD01F0070101EB810100EB86
:102D2000C100D0F86C0170472DE9F04104460F0650
:102D300001F0070000EB800104EBC1014FF0010638
:102D40004FF0000502D54E74103103E081F8515167
:102D500001F5A871022B08700A61CB7000D10D71CA
:102D600094F89002012809D084F89062206804F059
:102D70001BFC284684F89052BDE8F0810220FBE756
:102D800010B501F0070404EB840100EBC101C1E9B7
:102D900059230022C1F86C2181F8512181F850415A
:102DA000006801F5A87104F041FE002010BD70B567
:102DB00004460D4601F007002179884201D901201F
:102DC00070BD29064FF000064FF0010206D500EB5A
:102DD000800104EBC1014A74103107E005EB850165
:102DE00004EBC10181F8516101F5A8718A70087086
:102DF00094F89002012807D084F89022206804F00B
:102E0000FCFD680702D006E0022070BD04F52671C3
:102E1000206804F0B4FD84F89062002070BD10B505
:102E200001F0070404EB840100EBC101C1E90923AF
:102E3000012281F834200B630023CB624A7401F82D
:102E4000104F006804F0F2FD002010BD1FB50446CD
:102E5000006805F06FF8010403D5204602F0B4F8CD
:102E60001FBD41050DD5206830F8441F21F4806155
:102E70000180204600F000F90021204600F017F9FB
:102E80001FBD410405D5206830F8441F21F480415E
:102E900074E0810405D5206830F8441F21F4005106
:102EA0006CE0C10414D5206830F8401F21F0040103
:102EB0000180206830F8401F21F008010180204681
:102EC00000F0EDF8206830F8441F21F4805155E0FF
:102ED000010540D5D4F800200020694632F82030A2
:102EE00021F81030401CC0B20828F7D332F8400F48
:102EF00040F001001080206830F8402F22F00102DD
:102F000002802068B0F844205205FBD530F8442FE9
:102F100022F4806202800020236831F8102023F818
:102F20002020401CC0B20828F6D3206830F8401F8B
:102F300041F008010180206830F8441F21F400614D
:102F40000180206830F8401F41F0040101802046D4
:102F500000F0E0F81FBD810509D5206830F8441F56
:102F600021F400710180204600F09DF81FBDC005CE
:102F7000FCD5206830F8441F21F4807101801FBD0A
:102F80002DE9F041040004D094F89102002518B115
:102F900007E00120BDE8F08184F89052204600F05F
:102FA0004DF8032084F891026571206804F0E0FC7C
:102FB00094E80F0004F046FC022698BB002120682C
:102FC00004F0D2FF70BB002001270BE000EB800172
:102FD00004EBC1014F740874CD740D624D62401C46
:102FE000C0B28D6221798142F0D8002012E000BF8A
:102FF00000EB800104EBC10181F8515181F85001CF
:1030000081F85351C1F86051C1F86451401CC0B2FD
:10301000C1F8685121798142EAD894E80F0004F0A0
:103020009EFC10B184F89162B3E7657384F89172E5
:10303000206804F092FC0020ACE7000008B50068AE
:103040000B49884212D10B48C16941F40001C161AA
:10305000C069002200F40000009011461420FFF720
:103060007BFBBDE808401420FFF769BB08BD0000EA
:10307000005C00400010024070B5044680790125D4
:10308000022801D0FEF728FE2946D4F8D40203F026
:1030900069FFD4F8D402BDE8704003F025BFD0F832
:1030A000D40203F049BFD0F8D40203F04FBF10B5EB
:1030B000044690F8900201280AD0012084F890027A
:1030C0006173206804F052FF002084F8900210BD64
:1030D000022010BDD0F8D42200F52671104603F06E
:1030E0004DBF10B5044690F89002012810D0012081
:1030F00084F89002206804F00AFF01212046FFF7BF
:103100007BFB206804F027FC002084F8900210BDAF
:10311000022010BD10B50446D0F8D40203F06DFFB4
:10312000A07A002804D00348016841F0060101603C
:1031300010BD000010ED00E0014901200862704759
:1031400000000E4210B501460020284C04292FD063
:103150000BDC012930D0022929D100F06BF961681C
:10316000C1F38131491C49001FE0082920D01029F2
:103170001DD161682268D20119D51D48C1F383426F
:10318000C903805C0AD56168194AC1F34041921EA7
:10319000515C184AB2FBF1F1484301E0164948433B
:1031A0006168490203D440000321B0FBF1F010BD77
:1031B000BDE8104000F04EB9226AC2F30121012996
:1031C00003D1920701D5C80310BD022905D1626A57
:1031D000920702D549F6404010BD0329FCD1216871
:1031E0008903F9D54FF2244010BD000000100240C1
:1031F000E6A8000800127A0000093D002DE9F84316
:1032000005460078354CC00754D0E0690026C00060
:1032100008D4E06940F08050E061E069012600F0E8
:10322000805000902E480168C90512D4016880467C
:1032300041F480710160FFF74BF8074605E000BFDD
:10324000FFF746F8C01B642823D8D8F80000C00553
:10325000F6D5206A10F4407021D0A98801F440719D
:1032600081421CD0206A1F49012220F440700A606C
:1032700000220A602062C00711D0FFF729F8074634
:1032800041F2883808E000BFFFF722F8C11B414532
:1032900002D90320BDE8F883206A8007F4D5206AAC
:1032A000696820F44070084320621EB1E06920F094
:1032B0008050E0612878800705D56068A96820F40F
:1032C0004040084360602878C00605D56068696999
:1032D00020F48000084360600020DBE7001002401B
:1032E00000700040400442422DE9F0470F460500BF
:1032F00061D0434E306800F00700B84209D2306810
:1033000020F0070038433060306800F00700B84212
:1033100051D128683B4C810712D5400703D560681E
:1033200040F4E06060602878000703D5606840F4EE
:10333000605060606068A96820F0F0000843606039
:103340002878C00728D06868012810D02168022892
:1033500010D0890700292EDA616821F003010143AA
:103360006160FEF7B5FF804641F288390DE02168C3
:103370008903EFE78901EDE7FEF7AAFFA0EB08015B
:10338000494502D90320BDE8F0876068696800F00C
:103390000C00B0EB810FEFD1306800F00700B842AD
:1033A0000BD9306820F0070038433060306800F0F7
:1033B0000700B84201D00120E5E72878400705D58D
:1033C0006068E96820F4E0600843606028780007DE
:1033D00006D56068296920F4605040EAC100606049
:1033E00000F038F86168084AC1F30311515CC84025
:1033F0000649086006480068FFF782F80020C2E727
:103400000020024000100240F6A80008AC00002096
:10341000A00000200448054900684968044AC1F337
:103420000221515CC8407047AC00002000100240EF
:1034300006A900080448054900684968044AC1F320
:10344000C221515CC8407047AC000020001002400F
:1034500006A900080E4A51680E4801F00C03042B1F
:1034600011D0082B0FD10C48C1F38343C903C05CB2
:103470000AD55168084AC1F34041921E515C054A81
:103480005043B0FBF1F070470449484370470000D7
:103490000010024000127A00D4A8000800093D0084
:1034A0002DE9F84F040070D02078C04DC00749D0F6
:1034B0006868C0F38100012807D06868C0F3810004
:1034C000022809D16868C00306D52868800339D569
:1034D00060680028E7D035E06068B0F5803F0BD029
:1034E00010B1B0F5A02F11D0286820F480302860EA
:1034F000286820F4802002E0286840F480302860AA
:10350000606890B1FEF7E4FE06460AE0286840F4E1
:1035100080202860F0E700BFFEF7DAFE801B6428F9
:1035200073D828688003F7D50CE0FEF7D1FE064675
:1035300005E000BFFEF7CCFE801B6428F0D82868A9
:103540008003F7D420789A4E80074FF001094FF09E
:10355000000839D5686810F00C0F07D06868C0F310
:103560008100022809D16868C00306D42868800752
:1035700014D52069012808D110E02069B0B1C6F83F
:103580000090FEF7A5FE074605E00AE1FEF7A0FE63
:10359000C01B0228C4D828688007F7D5286861694D
:1035A00020F0F80040EAC10028600DE0C6F8008075
:1035B000FEF78EFE074604E0FEF78AFEC01B0228D7
:1035C00023D828688007F7D4207800072CD57948BD
:1035D000A169D9B1C0F80090FEF77AFE074604E071
:1035E000FEF776FEC01B02280FD8686A8007F7D561
:1035F00071484FF4FA510068B0FBF1F0009000BF41
:103600000098411E0091FAD20EE080E0C0F80080E0
:10361000FEF75EFE074604E0FEF75AFEC01B0228D6
:1036200075D8686A8007F7D42078400760D5E869C4
:103630000027C00008D4E86940F08050E861E869DC
:10364000012700F0805000905C480168C90513D440
:103650000168834641F480710160FEF739FE8246BD
:1036600006E000BFFEF734FEA0EB0A0064284ED847
:10367000DBF80000C005F5D5E06801280AD008B1E4
:10368000052813D0286A20F001002862286A20F05B
:10369000040002E0286A40F001002862E06841F27C
:1036A000883B98B1FEF714FE82460BE0286A40F092
:1036B00004002862EEE700BFFEF70AFEA0EB0A0155
:1036C00059455AD8286A8007F6D50CE0FEF700FE67
:1036D000824605E0FEF7FCFDA0EB0A0159454CD8F7
:1036E000286A8007F6D41FB1E86920F08050E861AD
:1036F000E06988B36968C1F38101022944D00228D6
:10370000C6F8608004D0FEF7E3FD044638E034E0FC
:10371000FEF7DEFD074604E0FEF7DAFDC01B0228D7
:103720002BD828688001F7D4206AB0F5803F05D1F6
:103730006868A16820F4003008436860D4E9080193
:103740000843696821F4741108436860C6F8609002
:10375000FEF7BEFD044606E025E000BFFEF7B8FD1B
:10376000001B022809D828688001F7D51BE000BF9C
:10377000FEF7AEFD001B022802D90320BDE8F88F3A
:1037800028688001F4D40EE00128F7D06868226A26
:1037900000F48031914204D1616A00F470108842D3
:1037A00001D00120EAE70020E8E700000010024015
:1037B0000000424280044242AC0000200070004001
:1037C000F8B505004FF0000016460C46009006D0F4
:1037D0002CB100226946284600F019F808B10120F2
:1037E000F8BD287B2070E87BE070697B6170A97B65
:1037F000A17056B101F0C5FDE070607801F0C1FD27
:103800006070A07801F0BDFDA0700020F8BD2DE92A
:10381000F04791460C465FEA00084AD084B3D8F8D6
:1038200000004068400744D4404601F049FE4FF490
:1038300061620546B0FBF2F1B0FBF2F302FB1350FC
:103840003C23B0FBF3F0B5FBF2F6607002FB1650C0
:10385000B0FBF3F203FB1200A070182931D318203B
:10386000B1FBF0F7B1FBF0F200FB12102070404604
:1038700001F01FFE411C04D0A84202D9461B02E001
:1038800017E04FF0FF36A7EB071000EB4000C0EB4E
:10389000001005EBC0152946404601F060FE40B916
:1038A000701C01D0711900E03146404601F043FE22
:1038B00010B10120BDE8F0873946404601F06CFDAB
:1038C00000E02170B9F1000F0BD0207801F059FD14
:1038D0002070607801F055FD6070A07801F051FD16
:1038E000A0700020E6E7000070B5040003D0607C03
:1038F000002610B105E0012070BD2674204600F0BE
:103900003DF802206074204600F0FCF8042550BB0E
:10391000204601F098FD30BB2068416821F0070186
:103920004160A06820B11448016821F001010160E4
:103930001148001F0168A26821F460711143016001
:103940006068411C04D10120FFF7FCFB58B1401E08
:103950002268C0F303419160216880B2C8602046AC
:1039600001F08CFD08B16574C5E7E6730120607352
:10397000A0736074002070BD306C00400068034983
:10398000884202D1024901200860704700280040A7
:103990003C0442422DE9F0410D4604003BD0C5B342
:1039A000207C01283AD04FF0010884F810800220D2
:1039B0006074E87872B301F0DBFCE073687801F0C2
:1039C000D7FC6073A87801F0D3FCA073C2B2617B0E
:1039D000E07B01F085FD20732870204601F070FD2A
:1039E0004FF46161B0FBF1F1002518292DD918229F
:1039F000B1FBF2F1A1EB011101EB4101C1EB0111AE
:103A000000EBC1163146204601F0A9FD0427C8B9D4
:103A10000BE000E004E00120BDE8F0810220FBE7BC
:103A2000E07368786073A878CFE7204601F041FD25
:103A3000411C0AD0B04208D206490144204601F098
:103A40007AFD10B167742574E5E784F81180257458
:103A50000020E1E7805101002DE9F0410D4604000E
:103A600024D01DB3207C012823D04FF0010884F816
:103A70001080022060742878EAB101F079FC4FF4DC
:103A8000616100FB01F6687801F072FCC0EB001088
:103A900006EB8006A87801F06BFC35182946204615
:103AA00001F05DFD0026042710BB0FE00120BDE8FA
:103AB000F0810220FBE74FF4616148436978C1EB74
:103AC000011100EB8100A9784518E7E720684168FB
:103AD00021F005014160204601F0EBFC411C0AD0B9
:103AE000A84208D206490144204601F024FD10B145
:103AF00067742674DAE784F8118026740020D6E70C
:103B00008051010070B504000AD02068416821F09E
:103B100008014160FEF7DCFB05464FF47A7608E0C9
:103B2000012070BDFEF7D4FB401BB04201D9032039
:103B300070BD206840680007F4D5002070BD00000B
:103B40002DE9FE430446002603200D4684F8340088
:103B5000606C03285ED0B5F5805F5BD04FF40067E2
:103B600000204FF08068BD421FD181460090019037
:103B70000021206801F0DEFF800113D46946204651
:103B800002F008FB07000DD10198400334D5B4F8CA
:103B900050000104206802F002F8070002D102215F
:103BA000206823E0A06B384328E01DB1A06B40F0F3
:103BB000006023E08146009001900021206801F020
:103BC000B9FF8001EED46946204602F0E3FA07000F
:103BD000E8D10198C0030FD5B4F850000104206863
:103BE00001F0DDFF0700DDD10021206802F023F89D
:103BF0000700D7D14F46D5E74746D3E7A063A06B70
:103C0000144F4FF0010848B12068876384F834806E
:103C100001260EE0A06B40F08050EFE7211DD4E9B3
:103C2000050C0EC9CDE90050CDF808C0206801F0A0
:103C300084FF4FF40071206801F0E4FF28B121688F
:103C40008F63A16B0143A163012684F83480304661
:103C5000BDE8FE83FF05400010B504000DD0032031
:103C600084F83400206801F07AFF204600F056F90D
:103C70000020A06384F8340010BD012010BD0000B6
:103C8000F0B5426E920F0A70426EC2F383624A70C0
:103C9000426EC2F301628A70426E120CCA70B0F8B2
:103CA0006420120A0A7190F864204A71826E120D23
:103CB000CA80826EC2F303420A72B0F86820C2F36F
:103CC000C0324A72B0F86820C2F380328A72B0F80B
:103CD0006820C2F34032CA72B0F86820C2F30032E2
:103CE0000A7300264E73426C4FF40075012462B1D2
:103CF000012A3AD0026847499163816B41F08051B3
:103D0000816380F834400120F0BDB0F86820C36EB4
:103D10009205120D42EA93720A61C26EC2F3C26248
:103D20000A75C26EC2F302624A75C26EC2F3425293
:103D30008A75C26EC2F38242CA75C26EC2F3C232C3
:103D40000A760A69521C42650B7E03F007039B1C2E
:103D50009A4042650B7A03F00F0704FA07F3836574
:103D60005B0A5A43C0E917250EE090F86820C36E3D
:103D70009206920A42EA13420A610A69521C9202AE
:103D80004265C0E91652056630F86C2FC2F38032E6
:103D900001F8192F0288C2F3C6124A70027802F0A5
:103DA0007F028A704268D20FCA704268C2F34172C1
:103DB0000A714268C2F382624A714268C2F3835256
:103DC0008A714268C2F34052CA710E724268C2F3ED
:103DD00000424A728288C2F3C0328A728288C2F379
:103DE0008032CA728288C2F340320A738288C2F378
:103DF00000324A738288C2F381228A738288C2F3B6
:103E00000122CA730079C0F3460008744C74002084
:103E1000F0BD0000FF054000426C0A60826C4A6001
:103E2000C26C8A60026DCA60426D0A61826D4A612D
:103E3000C26D8A61006EC8610020704770B504468B
:103E4000B0F8500000250104206801F0DCFF18B133
:103E5000A16B0143A16304E00021206801F06AFE28
:103E60000546C5F3432070BD90F83400704770B527
:103E700004000ED094F83400002518B925772046A8
:103E800000F06AF8032084F83400204600F00AF8B5
:103E900008B1012070BDA5632563012084F83400BA
:103EA000002070BDFEB50025044676200095CDE9C2
:103EB00001502B462A462946206801F03EFE154E49
:103EC00046F8A05F206801F04EFE01253560022013
:103ED000FDF7ECFF204602F045FA28B184F8345093
:103EE000A16B0143A16313E0204602F0C3F900284F
:103EF000F4D14FF40071206801F084FE002808D04E
:103F0000226805499163A16B0143A16384F8345091
:103F10000120FEBD00003042FF05400010B50068E2
:103F2000094988420FD10948416921F48061416102
:103F30004FF4F8510648FEF71FF8BDE81040042181
:103F40000448FEF719B810BD00800140001002407F
:103F5000001001400014014030B585B000210091EF
:103F60000191029103910068184988422BD11848A9
:103F7000416941F480614161416901F480610491CA
:103F8000816941F010018161816901F010010491A2
:103F9000816941F0200181618069022400F02000E4
:103FA00004904FF4F850CDE90004032569460395C9
:103FB0000848FEF77FF80420CDE900046946039520
:103FC0000548FEF777F805B030BD000000800140DD
:103FD0000010024000100140001401402DE9F04F94
:103FE00087B09B4616460D460446FEF771F90090D1
:103FF0003DB194F83400012807D0A06B40F0005088
:104000000DE0A06B40F0006009E00020A063E26DCD
:1040100006EB0B01914204D9A06B40F00070A06345
:104020008AE0032184F834102168C862616C012998
:1040300000D076024FF0FF3101914FEA4B210291FF
:104040004FF0010803AA902102278146CDF818807D
:1040500082E8820201A9206801F056FDBBF1010F40
:1040600005D927633146206801F03EFE05E0C4F81B
:1040700030803146206801F050FEDFF83CA130B1BD
:104080002268C2F838A0A16B0143A16350E0029EF0
:104090001FE0406B000413D596B10027206801F0A3
:1040A00066FD05F8010B010A05F8011B010C05F876
:1040B000021B000E361F7F1C05F8010C082FEDD3E4
:1040C000FEF706F901460098091A1098814220D29D
:1040D000F8B12068426B40F22A310A42D9D0416BD4
:1040E000C90509D5BBF1010F06D9616C032903D0BD
:1040F00001F0BAFE0028C3D12068416B090702D441
:10410000416B89051AD5C0F838A0A06B40F00800B3
:1041100050E02168C1F838A0A06B40F00040A063D7
:1041200084F83480C4F83090032007B0BDE8F08FE5
:1041300084F83480C4F830900120F6E7416B890799
:1041400005D5C0F838A0A06B40F0020032E0416B0A
:1041500089061BD5C0F838A0A06B40F0200029E0EC
:1041600001F005FD05F8010B010A05F8011B010C22
:1041700005F8021B000E05F8010C361FFEF7A8F823
:104180000099411A109881420ED268B12068416BA3
:10419000890201D5002EE3D1216840F23A508863AC
:1041A00084F834800020C0E72168C1F838A0A06BF3
:1041B00040F00040A063BBE7FF0540002DE9F04F51
:1041C0008DB09B4616460D460446FEF781F80A90D0
:1041D0003DB194F83400012807D0A06B40F00050A6
:1041E0000DE0A06B40F0006009E00020A063E26DEC
:1041F00006EB0B01914204D9A06B40F00070A06364
:104200007AE0032184F834102168C862616C0129C6
:1042100000D076024FF0FF3103914FEA4B21049119
:104220009021CDE905104FF00109CDE9070982463B
:1042300003A9206801F068FCBBF1010F06D920201A
:1042400020633146206801F029FE05E0102020633C
:104250003146206801F03BFE5FEA000806D0216885
:1042600041488863A06B40EA080074E0049E27E0A0
:10427000406B40041CD5DEB15FF0000715F8010B60
:10428000009015F8011B361F40EA0120009015F838
:10429000021B40EA0140009015F8011C40EA016051
:1042A00000906946206801F075FC7F1C082FE5D35B
:1042B000FEF70EF80A99411A1698814220D2F8B1F9
:1042C0002068416B40F21A321142D1D0416BC905CE
:1042D00023D5BBF1010F20D9616C03291DD001F05A
:1042E000C3FDD0B1226820499163A16B0143A16352
:1042F00084F83490C4F830A001200DB0BDE8F08FF0
:10430000216819488863A06B40EA0800A06384F81C
:104310003490C4F830A00320EFE72068416B090710
:1043200002D4416B890505D50F498163A06B40F02C
:10433000080010E0416B890705D50B498163A06B2C
:1043400040F0020007E0416BC90606D506498163CB
:10435000A06B40F01000A063CAE740F23A518163BD
:1043600084F834900020C8E7FF05400070B50400D1
:1043700009D0606A002540B125616561A56294F8A5
:10438000510040B10CE0012070BD6068B0F5827F43
:10439000F4D0E561F2E784F85050204600F040F890
:1043A000022084F851002068016821F0400101607A
:1043B000A088218900F4827001F404410843A18996
:1043C00001F400610843217C01F002010843217DD2
:1043D00001F001010843218B01F400710843217FA2
:1043E00001F03801084394F8201001F080010843DF
:1043F000218D01F40051084321680860A06904215F
:1044000001EA1040216848602068C16921F4006118
:10441000C1616565012084F85100002070BD000075
:1044200030B585B000240094019402940394006890
:104430001449884223D11448816941F48051816133
:10444000816901F480510491816941F00401816125
:1044500080690E4D00F004000490B020009002200E
:1044600001900320039069462846FDF723FE402073
:10447000CDE90004694628460294FDF71BFE05B00D
:1044800030BD000000300140001002400008014033
:1044900010B5401EB0F1807F01D3012010BD4FF058
:1044A000E02460610F21601703F09EFD0020A061F1
:1044B00007202061002010BD10B5040015D0242075
:1044C00084F841002068C16821F40051C160204691
:1044D00000F040F80020606484F8410084F8420055
:1044E00044F8300F6060207410BD012010BD70B51D
:1044F000040004D094F84100002510B106E001202A
:1045000070BD84F84050204600F03AF8242084F82A
:1045100041002068C16821F40051C160204602F0CA
:10452000BFF92068016921F4904101612068416967
:1045300021F02A0141612068C16841F40051C16045
:104540006564202084F8410084F8420065630020FF
:1045500070BD000000680749884209D1064881699A
:1045600021F4804181614FF4C0610448FDF704BD2E
:104570007047000000380140001002400008014070
:1045800030B585B00024009401940294039400682F
:104590001449884224D11448816941F480418161E1
:1045A000816901F480410491816941F004018161D4
:1045B00080690E4D00F0040004904FF400700090EC
:1045C000022001900320039069462846FDF772FD02
:1045D0002815CDE90004694628460294FDF76AFDD6
:1045E00005B030BD00380140001002400008014015
:1045F0002DE9F84F044690F842009A4616460D46BB
:10460000202802D00220BDE8F88FB5B1AEB100205D
:104610006064222184F842102063FDF759FEA685CC
:104620008146E685A0684FF480582027404501D197
:10463000206920B12E46002529E00120E3E700266D
:1046400025E04B46002220212046CDF800A002F0B4
:1046500083F918B184F842700320D4E726B1A0682A
:1046600040451AD038B108E020684068C0F308001F
:1046700025F8020B08E0206978B12068406800F056
:104680007F0000BF06F8010BE08D401EE085E08D45
:104690000028D6D184F84270B5E720684068F1E779
:1046A0002DE9F843044690F84100984616460D4619
:1046B000202802D00220BDE8F88385B17EB1002019
:1046C0006064212084F84100FDF702FEA684814643
:1046D000E684A0682027B0F5805F02D003E00120C7
:1046E000E9E7206910B12E4600250EE000260CE017
:1046F0008021204602F030F9A8B9C6B116F8010BA6
:1047000021684860E08C401EE084E08C4B464FF00E
:104710000002CDF800800028EAD14FF04001204689
:1047200002F01AF940B184F841700320C3E735F86C
:10473000020BC0F30800E3E784F841700020BAE7F9
:10474000FEE70000F0B500230A24302537261F4677
:1047500011E000BFB4EB107F02D905EB107C01E043
:1047600006EB107C01F813C001EB430C00015B1C4D
:104770008CF80170DBB29342ECD3F0BD70B5D0F889
:10478000B842054694F8180840B9D4F8140828B17E
:10479000607A18B90121284602F01DFC81212846C3
:1047A00002F019FC607A022808D104F60C022846AF
:1047B000BDE870401F23012102F08DBB70BD0000D9
:1047C00070B5D0F8B84205460121D4F81008C4F8F5
:1047D0003008D4F81408C4F83408284602F024FB42
:1047E0001F280DD12849D4F80C08884208D194F824
:1047F0001918012904D894F81A0808B1102809D901
:1048000094F8191820230522284601F004F9022003
:10481000607209E004F61B02284600F0C5FE00287D
:10482000207A08DA052804D02846BDE87040FFF752
:10483000A5BF012122E0022825D0012823D003288A
:1048400021D06689CEB1D5F8B812284604F10C0201
:10485000D1F81438B34200D33346D1F834489BB270
:10486000A41BC1F83448002481F8384804240C7291
:10487000BDE87040812102F0C9BB00212846BDE897
:10488000704000F083B870BD5553424310B5D0F866
:10489000B842627A022A08D009060BD5012A09D04B
:1048A000BDE81040012100F071B8812102F093FBB6
:1048B0000020607210BD10B5D0F8B8220446107AFE
:1048C000022805D0032801D0042810D1002109E0D6
:1048D00092F81918204602F61B0200F065FE002827
:1048E00005DA01212046BDE8104000F04FB810BDA8
:1048F00010B5D0F8B8220446107A80B1012813D13F
:1049000092F81918204602F61B0200F04DFE00280E
:104910000ADA2046BDE81040012100F037B82046F1
:10492000BDE81040FFF74CBF10BDD0F8B802002121
:104930000172704770B5D0F8B84200210546217267
:10494000617284F85D1884F85C18D0F8BC020168C4
:10495000002088470121284602F05DFA812128467F
:1049600002F059FA04F60C022846BDE870401F23F5
:10497000012102F0B0BAD0F8B82200211172012151
:1049800051721F2302F60C0202F0A5BA70B5D0F8DE
:10499000B84205460B48C4F82C0884F838180020A3
:1049A00020720D2304F62C028121284602F02EFBF2
:1049B00004F60C022846BDE870401F23012102F0D6
:1049C0008ABA00005553425310B504490448FDF714
:1049D00085F90249491E087010BD0000250000201D
:1049E000BCA9000810B590B01C216846FBF7D5FBA8
:1049F000002431480794089409940A940B940C9469
:104A00000D944FF020410E9401602C49C0E901142F
:104A10000821C0E903411021C0E90514C4610A025C
:104A20000462C0E909424A02C0E90B24CA02C0E993
:104A30000D240F20FF220090CDE90102CDE90301F2
:104A40001120CDE90504002269461B48FDF7CAFD87
:104A500008B172B6FEE7184818494830A439016019
:104A60004FF4807141600221C0E902140461446185
:104A70008461C46144628462C46204634463846385
:104A800080F83C40FC200790089009900A900B9019
:104A90000C900D900E9008480BAA07A94830FDF71E
:104AA0006DFD08B172B6FEE70548C16941F4806149
:104AB000C16110B010BD000070230020040100A0EF
:104AC000000001402DE9F04385B0002439480094EE
:104AD000019402940394816941F0400181618169EC
:104AE00001F040010491816941F080018161816997
:104AF00001F080010491816941F0100181618169B7
:104B000001F010010491816941F004018161816922
:104B100001F004010491816941F00801816181691A
:104B200001F008010491816941F48071816181691A
:104B300001F480710491816941F0200181618069F3
:104B4000DFF8748000F0200040F23B350490002232
:104B500029464046FDF7B7FBDFF860904FF4004769
:104B6000002239464846FDF7AEFB3F20CDE9000460
:104B7000694613480294FDF79DFA00950226012527
:104B80000396CDE9015469464046FDF793FA2802A1
:104B9000CDE9000469460B480294FDF78BFA0097B3
:104BA0000396CDE9015469464846FDF783FA05B0FE
:104BB000BDE8F08300100240000C014000200140DD
:104BC000001001400008014030B593B00025304886
:104BD00011951095C16941F08051C161C16901F021
:104BE00080511291C16941F00061C161C06900F05A
:104BF00000601290FEF7A0FA28216846FBF7CDFA74
:104C000008200124009006946846FEF749FC08B18C
:104C100072B6FEE718210AA8FBF7BFFA4FF400703E
:104C2000CDE90A400AA8FEF7E9FA08B172B6FEE734
:104C3000184804601948184901604FF0FF3141607D
:104C4000FEF752FE08B172B6FEE78DF844508DF8BB
:104C500045508DF84650012211A91048FEF7FCFE80
:104C600008B172B6FEE78DF840408DF841408DF8EE
:104C7000424024208DF84300012210A90748FEF786
:104C800089FE002801D072B6FEE713B030BD0000E7
:104C9000001002403C04424200280040E421002071
:104CA0001F4810B5416986B041F480614161416996
:104CB00001F480610491816941F010018161806992
:104CC000002400F0100004904FF4F85000900220EF
:104CD0000190012002900320039069461148FDF7DE
:104CE000E9F912481049C0E900148460C460082141
:104CF0000461C0E90541FFF7BAF808B10CA000E073
:104D000012A003F04DF94FF400610848FEF718FFB8
:104D100020B112A003F044F906B010BD13A0F9E7CA
:104D20000010024000100140008001404C22002091
:104D30005446BFA8CEB4BCECB2E2B5BDA3A8CEB475
:104D4000B2E5C8EBA3BFA3A90D0A00005446BFA853
:104D5000BCBAB2E5C8EB0D0A00000000B1A3B3D69F
:104D600031CEBBC4A3CABD0D0A000000C7D0BBBB77
:104D7000B5BD34CEBBC4A3CABDB3C9B9A60D0A0024
:104D80000F4810B50D4901604FF482714160002158
:104D90008160C1604FF400720161C0E90512082210
:104DA000C0E90721416281620A21C162FFF7DEFA90
:104DB000002801D072B6FEE710BD000000300140AF
:104DC000D022002010B51CA003F0EAF800222349ED
:104DD000234801F055FF20B122A003F0E1F8FCF7D1
:104DE0007BFF29A003F0DCF830491D4802F024FACB
:104DF00020B12FA003F0D4F8FCF76EFF38A003F029
:104E0000CFF84249164802F073F920B140A003F0F0
:104E1000C7F8FCF761FF4BA003F0C2F8104802F09E
:104E200061FA20B154A003F0BBF8FCF755FFBDE8D0
:104E300010405BA003F0B4B85553425F4445564957
:104E400043455F496E69743A20BFAACABCB3F5CA2C
:104E5000BCBBAF2E2E2E0D0A000000002C0000203F
:104E6000182400205553425F4445564943455F4945
:104E70006E69743A20555342445F496E697420CA82
:104E8000A7B0DCA3A10D0A005553425F4445564923
:104E900043455F496E69743A20555342445F496EF9
:104EA000697420B3C9B9A60D0A000000BC00002037
:104EB0005553425F4445564943455F496E69743ACC
:104EC00020555342445F5265676973746572436C41
:104ED00061737320CAA7B0DCA3A10D0A0000000013
:104EE0005553425F4445564943455F496E69743A9C
:104EF00020555342445F5265676973746572436C11
:104F000061737320B3C9B9A60D0A00007C000020AC
:104F10005553425F4445564943455F496E69743A6B
:104F200020555342445F4D53435F52656769737424
:104F3000657253746F7261676520CAA7B0DCA3A164
:104F40000D0A00005553425F4445564943455F49A9
:104F50006E69743A20555342445F4D53435F526526
:104F600067697374657253746F7261676520B3C942
:104F7000B9A60D0A000000005553425F444556494A
:104F800043455F496E69743A20555342445F5374F8
:104F900061727420CAA7B0DCA3A10D0A0000000052
:104FA0005553425F4445564943455F496E69743ADB
:104FB00020555342445F537461727420B3C9B9A63B
:104FC0000D0A0000FEE7FEE72DE9F84F044640F623
:104FD0008F7B48F60F794FF480684FF0000ABDE1EF
:104FE000B0F8441011F00F0539D030F825603104C5
:104FF0007ED530F8251001EA0B0141F0800120F840
:10500000251005EB850004EBC00797F85C0107F558
:10501000A87700286DD0F87802286BD039782268FC
:1050200032F8210048F68F73184048F2C003184345
:1050300022F821003978206830F82120B0F850306B
:1050400052047DD5022202EBC1015A1808EB42013D
:10505000415A8905890D009173D03A89DDE0C9066E
:105060002BD4018801EA090141F400410180206844
:1050700004F11005B0F85030217C022202EBC1018E
:105080005A1808EB4201405AC0F30900E062616A15
:105090000844606200212046FDF7AFFB607B0028DA
:1050A0009DD0A86900289AD1607B216840F08000DB
:1050B000A1F84C0084F80DA050E1018804F5A87512
:1050C0000A0521D5B0F850202B78062101EBC30149
:1050D0000A4408EB4201405A04F52671C0F3090363
:1050E000EB61EA88206802F029FF2068018802E06D
:1050F000AEE06EE07EE001EA0B0141F0800101804C
:105100002046FDF7E7FF29E10904D5D5018801EA2A
:105110000B0141F0800101802068B0F850202B780D
:10512000062101EBC3010A4408EB4201405A830502
:105130009B0DEB6110D0696971B1EA88206801E0CC
:105140005FE05DE002F0FAFEE969686908446861C1
:1051500000212046FDF75AFB216808880205ABD4E0
:10516000C0F301300328A7D0B1F850000844B0F8CC
:105170000C14C1F30901A0F80C142A6900F20C40C8
:105180003E2A09D95109D20600D1491E02884FF49E
:10519000004343EA812109E0B2B15108D20700D0AF
:1051A000491C02884FF6FF7303EA81210A430280FB
:1051B000216808884BF68F72104080F4405048F206
:1051C000800210430880C9E0018841F40041018059
:1051D000EEE72068B0F850203B78062101EBC301D0
:1051E0000A4408EB4201415A8905890D009118D003
:1051F000FA8812E0324639462046FDF763FB0090FC
:105200000FE0062202EBC1015A1808EB4201415A95
:105210008905890D009104D07A897969009B02F093
:105220008DFEF86900990844F8617969009808448E
:105230007861B86918B139690098814204D9397820
:105240002046FDF7E3FA03E03946206802F0EEFB62
:1052500030062ED505EB850004EBC001206830F840
:10526000252002EA090242F4004220F82520C87CE9
:10527000103101281ED0F0056CD42068B0F85030F1
:105280000D78022202EBC5021A4408EB4202805A52
:105290008A69C0F30900824255D9121A8A6154D032
:1052A0004A6902444A61CA691044C861206802F030
:1052B000BDFB53E0C1F818A0087B524608B3700646
:1052C00020D5487810B1012812D03AE02068B0F813
:1052D000502010440A7800EB0210B0F80424C2F306
:1052E0000902A0F80424B0F8042442F4004206E0C5
:1052F0002068B0F8503018440B7800EB0310A0F889
:1053000004241EE04B78206813B1012B11D018E063
:10531000B0F8502010440A7800EB0210B0F80C24CA
:10532000C2F30902A0F80C24B0F80C2442F40042A5
:1053300005E0B0F8503018440B7800EB0310A0F8EB
:105340000C24097802E0C1F818A0E9B22046FDF764
:1053500054FA03E032462046FDF727FB2068B0F8F8
:10536000441009043FF53CAE0020BDE8F88F7047BB
:10537000010901EB810100F00F0000EB4100C0B218
:105380007047002102E00A38C0B2491C0A28FAD24C
:10539000090740EA116070472DE9F04104460025F5
:1053A000C07B627BA37B42E0012A16D0032A14D083
:1053B000052A12D0072A10D0082A0ED00A2A0CD0AB
:1053C0000C2A0AD0042A10D0062A0ED0092A0CD0A2
:1053D0000B2A0AD0022A0DD028E01F2B0CD30C2A4E
:1053E00005D101221346401C20E01E2B04D30123CB
:1053F000521C1BE01C2B02D203F1010316E011D159
:1054000083B29E0710D16426B3FBF6F706FB17366E
:1054100036B94FF4C876B3FBF6F706FB17331BB962
:105420001D2303E01D2B01D1032201236D1C8D429E
:10543000BAD3D1B2E0736173DAB2A27300F050F85C
:105440002073BDE8F08170B50446FCF741FF0546C6
:105450004FF47A7606E0FCF73BFF401BB04201D9DF
:10546000032070BD206840688006F4D5206841683C
:1054700041F010014160002070BD000070B504468D
:105480000068416821F010014160FCF721FF0546EA
:105490004FF47A7607E000BFFCF71AFF401BB042DA
:1054A00001D9032070BD206840688006F4D5002033
:1054B00070BD0168086A496A89B241EA00407047D4
:1054C000006881698AB2C1698BB2816989B28A42F6
:1054D00003D0C06961F31F40704743EA0240704740
:1054E000F0B56424C1EBC1030927A500072603EB2F
:1054F00001130329B3FBF7F100F5FA6011440144ED
:105500000AD2401EB0FBF4F201EB9001B0FBF5F0C3
:10551000891A0844001D08E0B0FBF4F201EB900189
:10552000B0FBF5F0891A0844801CB0FBF6F106FBCD
:105530001100C0B2F0BD70B50D4606460024FFF75D
:1055400082FF48B93168280C08623168A8B2486205
:105550003046FFF793FF00B10124204670BD70B5BF
:105560000D4606460024FFF76EFF48B93168280C47
:1055700088613168A8B2C8613046FFF77FFF00B18B
:105580000124204670BD10B5D0F8B8421A44D4F8B2
:1055900060389A4206D92123052200F03CFA4FF0E8
:1055A000FF3010BD002010BD2DE9F041137800241C
:1055B000232B7DD00DDC1A2B7BD005DCEBB1032B2C
:1055C00039D0122B11D163E01B2B01D01E2B0CD133
:1055D0008DE02A2B6ED004DC252B6CD0282B04D137
:1055E000ABE02F2B68D05A2B67D02023052200F088
:1055F00012FA4FF0FF30BDE8F081D0F8B8720546DE
:105600000E46D7F8140828B1202397F81918052258
:1056100028469FE0D5F8BC0281683046884740B1F3
:105620003A2302223146284600F0F5F90520387267
:105630009BE07C8199E0D0F8B80200214318491C16
:10564000C9B21C731229F9D3702101730C21C174E2
:1056500090F85C1890F85D38994212D000EBC103C5
:10566000491C93F83C58857393F84158057693F894
:105670004038C9B2437680F85C18042901D180F81B
:105680005C4812214181117912296ED841816CE068
:105690005478D0F8B832E40712D007203449588142
:1056A000401E0004000C03EB00040A5C227305E0BA
:1056B0003DE020E044E03DE045E02AE0F0D154E068
:1056C000D0F8BC0201EBC1011279C06900EB810185
:1056D0000879401D824200D81046588104E0401EDF
:1056E00080B21C180A5C22730028F8D13DE0D0F883
:1056F000B802448139E0D0F8B81208201D4A488128
:10570000401E0004000C01EB0004135C2373F7D16E
:105710002BE0D0F8B8020821174A4181491E09043C
:10572000090C00EB0104535C2373F7D11DE000F07A
:105730003BF91AE000F00DF917E000F0BCF814E0B6
:1057400000F083F911E05278D0F8B852920704D5EE
:105750002423052200F05FF907E005F664020CCA75
:10576000FFF711FF002800DB6C81002043E70000F9
:10577000D0A90008D7A90008DFA900082DE9F04149
:10578000D0F8B84206460F46B4F85E08D4F8685818
:105790004FF4006145438D4200D30D46B5FBF0F058
:1057A00083B2D6F8BC0204F10C01D4F86428D0F816
:1057B00010C088463846E047002809DA1123042241
:1057C0003946304600F027F94FF0FF30BDE8F08150
:1057D000ABB242468121304601F018FCB4F85E08B5
:1057E000D4F86428B5FBF0F1B5FBF0F01144C4F82F
:1057F0006418D4F86818081AC4F86808D4F834187B
:10580000A1EB0501C4F8341801D103202072002057
:10581000DCE72DE9F047D0F8B84207464FF40065C1
:10582000B4F85E08D4F8686888464643AE4200D3B0
:105830002E46B6FBF0F083B2D7F8BC0204F10C019F
:10584000D4F86428D0F814C089464046E0470028C0
:1058500009DA032304224146384600F0DCF84FF011
:10586000FF30BDE8F087B4F85E18D4F86428B6FBC2
:10587000F1F01044C4F86408B6FBF1F0D4F86828DD
:10588000101AC4F86808D4F83428A2EB0602C4F849
:1058900034280BD04843A84200D3284683B24A4656
:1058A0000121384601F017FB0020DAE700213846D5
:1058B000FFF76CF8F8E72DE9F041D0F8B84206465A
:1058C0001546207A8846D0BB94F818084FF0FF3769
:1058D00000062FD5D6F8BC0281684046884730B113
:1058E0003A2302224146304600F095F814E06888D9
:1058F000297940BA000440EA01226879414602430E
:10590000C4F86428B5F8070043BA3046C4F86838CC
:10591000FFF739FE002802DA3846BDE8F0810220A0
:105920002072B4F85E18D4F868084843D4F8141804
:10593000884205D0202394F819180522D3E7FFE701
:105940004FF40060608141463046BDE8F041FFF70A
:1059500015BF70B505460E46D5E9AE4004F65E02A9
:105960004368911C3046984740B13A2302223146A1
:10597000284600F050F84FF0FF3070BDD4F86008B2
:10598000401E010E2173010C6173010AA173E073C3
:10599000002020746074B4F85E08010AA174E074F9
:1059A00008206081002070BD2DE9FC410546D0F83B
:1059B000B84200200F4606462118401C80B20E73E4
:1059C0000C28F9D3D5F8BC026A4601A943683846C9
:1059D000984748B13A2302223946284600F01BF87E
:1059E0004FF0FF30BDE8FC810820E0730198401EB5
:1059F000010E2174010C6174010AA174E07402208B
:105A000020756675BDF80000010AA175E0750C20CF
:105A100060810020E6E7D0F8B80290F85D1800EB4E
:105A2000C10181F83C2890F85D28002100EBC202FA
:105A300082F8401890F85D28521CD2B280F85D2898
:105A4000042A01D180F85D1870472DE9F041D0F8A3
:105A5000B84206461546207A884620B13046BDE851
:105A6000F041FFF7D6BE94F818084FF0FF37000654
:105A700036D4D6F8BC0281684046884728B13A231C
:105A80000AE03046FFF7C7FF1EE0D6F8BC02C16847
:105A90004046884718B1272302224146F1E768882B
:105AA000297940BA000440EA01226879414602435C
:105AB000C4F86428B5F8070043BA3046C4F868381B
:105AC000FFF761FD002802DA3846BDE8F081B4F83E
:105AD0005E18D4F868084843D4F81418814204D0FA
