:020000040800F2
:10000000D07E002049010008737A0008656F00085F
:10001000717A0008ED42000853AF000800000000AC
:100020000000000000000000000000004D950008E6
:10003000EF42000800000000F38200085996000813
:100040006301000863010008630100086301000800
:1000500063010008630100086301000863010008F0
:1000600063010008630100086301000863010008E0
:1000700063010008630100086301000863010008D0
:1000800063010008630100086301000863010008C0
:10009000DDAE000863010008630100086301000889
:1000A00063010008630100086301000863010008A0
:1000B0006301000863010008630100086301000890
:1000C0006301000863010008630100086301000880
:1000D0006301000863010008630100086301000870
:1000E0006301000863010008630100086301000860
:1000F0006301000863010008630100086301000850
:10010000630100086301000863010008630100083F
:10011000630100086301000863010008630100082F
:10012000630100086301000863010008630100081F
:10013000DFF810D000F06CFB0048004715D1000834
:10014000AFF30080D07E0020064880470648004775
:10015000FEE7FEE7FEE7FEE7FEE7FEE7FEE7FEE777
:10016000FEE7FEE7D596000831010008202A04DBEF
:10017000203A21FA02F00021704721FA02F3D04020
:10018000C2F120029140084319467047D2B201E003
:1001900000F8012B491EFBD270470022F6E710B58C
:1001A00013460A4604461946FFF7F0FF204610BDE5
:1001B00010B5044604E00B7800F8013B03B1491C7C
:1001C000521EF8D2204610BD421C10F8011B002917
:1001D000FBD1801A704710B5002200E0521C835CEE
:1001E0008C5CA34201D1002BF8D1D8B2E1B2401A05
:1001F00010BD0022CBB20178994200D10246401CCA
:100200000029F8D11046704770B506460AF02CFF59
:10021000046805460A220021304600F0D1F82C601F
:1002200070BD80EA010210B502F00043400022D008
:100230004A001FD0010E01EB1261C0F35600C2F359
:10024000560240F4000042F40002A0FB0220000429
:100250007F39140400D0401C50EA124001D4400001
:10026000491EC2B20C0604EBD010401C4008802A84
:1002700002D003E0002010BD20F00100002900DAC8
:100280000020184310BD30B480EA010202F000459E
:1002900030F0004221F0004013D090B1C30DD40DD6
:1002A000C2F31601C0F31600E41A41F4000140F451
:1002B00000027D34914201D3641C00E04900002C0F
:1002C00002DA30BC002070474FF400000023914256
:1002D00001D3891A034340084FEA4101F7D151B1D4
:1002E000914202D14FF0004105E002D24FF00101EE
:1002F00001E06FF0010103EBC450284430BC00F072
:1003000097B896230022114600F09BB800F00042F7
:1003100030F000400AD0C10D01F56071C0F3160045
:1003200042EA0151C20840071143704700200146CC
:10033000704730B50B46014600202022012409E019
:1003400021FA02F59D4205D303FA02F5491B04FA8E
:1003500002F52844151EA2F10102F1DC30BD2DE9A1
:10036000F05F0546002092469B4688460646814639
:1003700040241BE02846414647462246FFF7F6FE4A
:1003800053465A46C01A914110D311461846224688
:1003900000F050FA2D1A67EB01084F462246012063
:1003A000002100F047FA17EB00094E41201EA4F18E
:1003B0000104DFDC484631462A464346BDE8F09F4B
:1003C0002DE9F04791460F4680460446002614F872
:1003D000015B2DB100F050FA0068405DC007F6D116
:1003E0002B2D02D02D2D18D0641E4A4639462046AA
:1003F00000F046FA27B13968A14201D1C7F8008060
:1004000071054FF002040BD54042002803DD0AF0CD
:100410002BFE0460A007BDE8F08746F48066E4E7A1
:100420000028F8DA0AF020FE04606FF00040F2E7DE
:100430000029A8BF7047401C490008BF20F00100F8
:10044000704710B4B0FA80FC00FA0CF050EA0104D6
:1004500004BF10BC704749B1CCF1200421FA04F468
:1004600011FA0CF118BF012121430843A3EB0C0141
:10047000CB1D4FEA00614FEA102042BF002010BCA4
:10048000704700EBC35010440029A4BF10BC704754
:10049000401C490008BF20F0010010BC70472DE946
:1004A000FE4F804681EA0300C00F0C46009021F009
:1004B000004123F00045B8EB0200A94105D24046B7
:1004C000214690461C460B46024623F0004010434E
:1004D00047D0270DC7F30A00C3F30A510290401A10
:1004E000019040286BDAC3F3130040F4801B00989E
:1004F000924620B10023D2EB030A63EB0B0B019869
:100500005946C0F14002504600F094F906460D46A7
:1005100050465946019A00F09CF910EB08006141E1
:10052000002487EA115284EAE7731A4340D0009A04
:1005300062B3019A012A4FEA075215DC001B61EBF6
:1005400002014FF0004202EA0752CDE90042001CCE
:1005500041F5801132462B4600F0F0F903B0BDE8BA
:10056000F08F40462146F9E7001B61EB0201001CB9
:1005700041F5801300185B412018A2F5001747EBE6
:10058000030140EAD570B6196D4111E06D084FEADC
:10059000360645EAC0754FEA0752001B61EB0201BF
:1005A000001C41F5801149084FEA30000019514103
:1005B00032462B4603B0BDE8F04F00F0B0B90098CA
:1005C000012240000023D0EB020263EBE0730098AD
:1005D00021464FEAE074B8EB000061EB0401E9E763
:1005E00083F000435BE781F0004158E72DE9FE4FBF
:1005F00081EA030404F0004421F0004100944FF02C
:10060000000B23F0004350EA01045ED052EA0304D9
:100610005BD0C3F30A54C1F30A552C44A4F2F3345B
:100620000194A0FB0254C1F3130141F48011C3F300
:10063000130343F4801301FB024400FB034E840ABE
:10064000970A44EA815447EA8357A4FB0768029556
:100650008D0A05FB07854FEA932C04FB0C542705F4
:10066000029D4FEA065847EA1637B5EB08056EEBD0
:10067000070C870E920E47EA811742EA8312A7FB06
:100680000201B6EB0B0164EB00042B0D43EA0C33C3
:100690005E1844EB1C50DA465146E7FB0201C5F3F5
:1006A00013044FEA0B3343EA14534FEA0432019C1C
:1006B00043EA0603A4F10C040294009CCDE900B4C3
:1006C00000F03CF903B0BDE8F08F00200146F9E7E7
:1006D0002DE9F04D81EA030404F0004B21F00045C0
:1006E00014464FF0000A23F0004150EA050220D0E2
:1006F00054EA01021DD0C5F30A570246C5F313039D
:10070000C1F31300C1F30A5640F4801543F480137B
:10071000A7EB0608101BD64608F2FD3873EB050060
:1007200002D308F1010801E092185B41B8F1000F13
:1007300003DA00200146BDE8F08D00204FF480115F
:10074000064684460EE0171B73EB050705D3121B04
:1007500063EB050306434CEA010C49084FEA3000FD
:1007600092185B4150EA0107EDD152EA030012D022
:1007700082EA040083EA0501084305D0101BAB415F
:1007800006D20122002306E000224FF0004302E0DF
:100790006FF0010253101AEB06004CEB085110EBFE
:1007A0000A0041EB0B01BDE8F04D00F0B8B8C1F311
:1007B0000A52C1F3130140F2FF3341F480119A420F
:1007C00002DA00200146704740F233439A42A2F217
:1007D000334202DC5242FFF7C9BC00F02BB80000E4
:1007E00030B5041E71F1000404DB4FF000444042B8
:1007F00064EB0101141E73F1000405DB1C464FF08D
:100800000043524263EB0403994208BF904230BD5B
:10081000064C074D06E0E06840F0010394E807004D
:1008200098471034AC42F6D3FFF786FC3CFF000833
:100830005CFF0008202A04DB203A00FA02F10020C5
:1008400070479140C2F1200320FA03F3194390400E
:100850007047202A06DBCB17203A41FA02F043EA20
:10086000E07306E041FA02F3D040C2F12002914069
:1008700008431946704700000048704730FD0008E3
:100880002DE9F05F82460078002715468B460AF175
:100890000104B946302801D09DB113E014F8010BD2
:1008A0000127782803D0582801D045B10AE00DB1BE
:1008B000102D07D10027102514F8010B02E00825A0
:1008C00000E00A250026B0460EE005FB080005FB07
:1008D00006F1012701EB10461FFA80F8B6F5803FBC
:1008E00000D3B94614F8010B294600F075F800282A
:1008F000EBDABBF1000F05D00FB1641E00E05446E7
:10090000CBF80040B9F1000F06D00AF0ADFB022190
:100910000160C81EBDE8F09F48EA0640FAE710B53E
:10092000141E73F1000408DA401C41F10001921812
:100930005B411A4301D120F0010010BD2DE9F04DBB
:1009400092469B4611B1B1FA81F202E0B0FA80F210
:1009500020329046FFF76EFF04460F4640EA0A0039
:1009600041EA0B0153465A46084313D0114653EA55
:10097000010019D0C8F140025046FFF7F7FB0546C9
:100980000E46504659464246FFF754FF084305D0ED
:10099000012004E020463946BDE8F08D00200543E3
:1009A00046EAE0762C4337430A986305E40AA0EB55
:1009B00008000022FD0A44EA47540A3002D500200C
:1009C0000146E9E7010510196941DDE9084500190B
:1009D0006941BDE8F04DA2E73A2800D2303820F056
:1009E0002002412A01D3A2F13700884201D34FF0FF
:1009F000FF30704770B58C1810F8015B15F00703D5
:100A000001D110F8013B2A1106D110F8012B03E0A7
:100A100010F8016B01F8016B5B1EF9D12B0705D4AF
:100A20000023521E0DD401F8013BFAE710F8013BF8
:100A3000CB1A921C03E013F8015B01F8015B521E14
:100A4000F9D5A142D8D3002070BD00002DE9FC5F8C
:100A5000904641B1C2070AD0014658A00AF0A4FA54
:100A60000220BDE8FC9F5FA00AF09EFAF8E74A1C4E
:100A700056084FEA500911F0010700EB010202D0BD
:100A80000123934300E000230024A346A2460193E0
:100A9000B8F1000F06D00B46014659A0521E009631
:100AA0000AF082FA00255DE009EB0500410001F142
:100AB000C041002F0B883BD0711E8D4238D1019967
:100AC00039B1FF21B1EB132F4BD0641C012C1AD08C
:100AD0001EE0D94311F0FF0F43D0641C012C04D158
:100AE0004FF0C04101EB400B9A46B8F1000F38D0EF
:100AF0000A2C36D8D9B200914FF0C04101EB400228
:100B000021464EA011E04FF0C04101EB400B9A4648
:100B1000B8F1000F25D00A2C23D8190A00914FF004
:100B2000C04101EB4002214653A00AF03DFA18E013
:100B3000A3F57F41FF3914D0641C012C04D14FF080
:100B4000C04101EB400B9A46B8F1000F09D00A2CC6
:100B500007D84FF0C04101EB4002214655A00AF0F2
:100B600023FA6D1CB5429FD3B8F1000F21D0002CA1
:100B70001BD021465CA00AF017FA5246594662A0E3
:100B80000AF012FA0A2C03D9214669A00AF00CFADD
:100B900071A00AF009FA75A00AF006FA80A00AF01E
:100BA00003FA8CA00AF000FA04E096A00AF0FCF91F
:100BB00002E00CB1012054E7002052E7BCECB2E99E
:100BC000CAA7B0DCA3BAC6F0CABCB5D8D6B73078CD
:100BD00025303858B2BBCAC7C5BCB6D4C6EB0D0A5F
:100BE00000000000BCECB2E9CAA7B0DCA3BABCECC0
:100BF000B2E9B3A4B6C8B2BBC4DCCEAA300D0A00B9
:100C0000D5FDD4DABCECB2E9D0BEC6ACC7F8D3F29D
:100C10003A2030782530386C58207E2030782530C6
:100C2000386C582028B9B2256C75D7D6BDDA2C207F
:100C3000256C75B0EBD7D6290D0A00002020B4ED45
:100C4000CEF32023256C753A20B5D8D6B730782559
:100C500030386C5820CAFDBEDD307825303458203D
:100C600028B5CDD7D6BDDA307825303258B7C73061
:100C7000784646290D0A00002020B4EDCEF320234B
:100C8000256C753A20B5D8D6B730782530386C58F1
:100C900020CAFDBEDD3078253034582028B8DFD793
:100CA000D6BDDA307825303258B7C7307846462975
:100CB0000D0A00002020B4EDCEF32023256C753AF8
:100CC00020B5D8D6B730782530386C5820CAFDBE4C
:100CD000DD3078253034582028D3A6CEAA30784687
:100CE000464646290D0A00000D0A3F3F2020BCEC75
:100CF000B2E9B7A2CFD620256C7520B8F6B7C7BF2A
:100D0000D5B0D7B5D8D6B7002028CAD7B8F6B4ED35
:100D1000CEF3A3BAB5D8D6B730782530386C582082
:100D2000CAFDBEDD307825303458290D0A00000098
:100D300020202028D6BBCFD4CABEC1CBC7B031300B
:100D4000B8F6B4EDCEF3A3ACB9B2256C75B8F6B471
:100D5000EDCEF3290D0A00000D0ABFC9C4DCB5C4ED
:100D6000D4ADD2F2A3BA0D0A000000002020312E2B
:100D700020D0BEC6ACC9D0CEB4B2C1B3FD202D20A8
:100D8000BDA8D2E9CFC8D6B4D0D0D5FBC6ACB2C1CD
:100D9000B3FDA3A8D1A1CFEE32A3A90D0A00000094
:100DA0002020322E20D0BEC6ACD2D1D3D0D3D0D0CA
:100DB000A7CAFDBEDD202D20D6B1BDD3D0B4C8EB6F
:100DC000BFC9C4DCB5BCD6C2CAFDBEDDCBF0BBB565
:100DD0000D0A00002020332E20D3B2BCFEC1ACBDD2
:100DE000D3CECACCE2202D20BCECB2E946534D4311
:100DF000C1ACBDD3BACDD0BEC6ACB9A9B5E70D0A5A
:100E0000000000003F20BCECB2E9CDA8B9FDA3BAB8
:100E1000D6B8B6A8C7F8D3F2C8ABB2BFCEAA30785E
:100E2000464646460D0A0000F8B504460122110266
:100E30000020FFF70BFE00287BD0002C79D062A0A9
:100E40000AF0B2F869A00AF0AFF806F013FE75A236
:100E5000012100200CF010FB012175A208460CF0C6
:100E60000BFB76A2012102200CF006FB76A20121E9
:100E700003200CF001FB78A2012104200CF0FCFA05
:100E800079A2012105200CF0F7FA7AA201210620AF
:100E90000CF0F2FA7BA2012107200CF0EDFA06F02B
:100EA000EFFE03F027FE04464FF4FA75002742F2E6
:100EB000107629E006F022F958B175A00AF074F80E
:100EC00006F0D8FD7BA2012100200CF0D5FA7DA20E
:100ED00069E006F0BFF858B17CA00AF065F806F0AA
:100EE000C9FD83A2012100200CF0C6FA84A242E0D1
:100EF0008DF80070002301226946844805F08AFFBE
:100F0000E0B1142003F0E4FB03F0F4FD001BB04259
:100F1000D0D37FA00AF048F806F0ACFD84A20121EE
:100F200000200CF0A9FA012183A208460CF0A4FAD3
:100F300000E02CE0012183A202201EE09DF80000C9
:100F400020385E2806D84FF0FF33012269466F48EB
:100F500005F0B8FF9DF80000592819D0792817D05E
:100F60007BA00AF021F806F085FD61A20121002096
:100F70000CF082FA80A2012108460CF07DFA81A2D1
:100F8000012107200CF078FA06F07AFE0220F8BD65
:100F900080A00AF009F806F06DFD46A201210020AC
:100FA0000CF06AFA84A2012108460CF065FA84A2CA
:100FB000012102200CF060FA06F062FE284603F0E0
:100FC00087FB0020F8BD00000D0ABEAFB8E6A3BA4B
:100FD000D0BEC6ACC6F0CABCC7F8D3F2B2BBCAC753
:100FE000BFD5B0D7B5C4A3A10D0A0000CAC7B7F1D9
:100FF000C7BFD6C6BCCCD0F8D0B4C8EBA3BF28B00E
:10100000B4205920BCFC20BBF2204F4BBCFC20BCC0
:10101000CCD0F8A3ACC6E4CBFBBCFCC8A1CFFB2969
:101020003A2000005741524E494E4721000000002F
:101030005374617274206172656100004E4F5420D8
:10104000626C616E6B210000466F72636520636F96
:101050006E74696E75653F00507265737320592018
:101060006F72204F4B000000746F20636F6E7469C5
:101070006E7565005072657373206F746865727366
:1010800000000000746F2063616E63656C000000F7
:101090000D0AD3C3BBA7B0B44F4BBCFCC8B7C8CF75
:1010A000A3ACC7BFD6C6BCCCD0F8D0B4C8EB2E2EEC
:1010B0002E0D0A00436F6E6669726D656420627959
:1010C000000000004F4B206B657900000D0AD3C370
:1010D000BBA7B0B4C8A1CFFBBCFCA3ACD0B4C8EBD9
:1010E000B2D9D7F7D2D1C8A1CFFB0D0A00000000BA
:1010F00043616E63656C6C6564206279000000007A
:1011000043414E43454C206B657900002C23002061
:101110000D0AB5C8B4FDB3ACCAB1A3ACD0B4C8EB2A
:10112000B2D9D7F7D2D1C8A1CFFB0D0A0000000079
:1011300054696D656F7574004F7065726174696F85
:101140006E00000043616E63656C6C6564000000B6
:101150000D0AD3C3BBA7CAE4C8EBC6E4CBFBD7D602
:10116000B7FBA3ACD0B4C8EBB2D9D7F7D2D1C8A1E2
:10117000CFFB0D0A000000006F74686572206B657C
:1011800079000000507265737320616E79206B6581
:10119000790000000D0AD3C3BBA7CAE4C8EB59C845
:1011A000B7C8CFA3ACC7BFD6C6BCCCD0F8D0B4C8E4
:1011B000EB2E2E2E0D0A0000275927206B65790093
:1011C000436F6E74696E75652E2E2E002DE9F04FFB
:1011D00097B008F017FA0020159013901490119012
:1011E0000246129013A9EF4804F023FF30B1EEA09D
:1011F00009F0DAFE052017B0BDE8F08F002214A92F
:10120000E84804F0EFFE13A914A80CF00DFA01460B
:101210000B90ECA009F0C8FE9DF84C009DF84E2004
:101220009DF84D108DE807009DF853109DF8523041
:101230009DF85120EDA001F5FA6109F0B5FE0027F7
:10124000B84600F069FC18B1142819D83C211FE0F9
:10125000F4A009F0A9FE06F00DFCF6A20121002081
:101260000CF00AF90121F7A208460CF005F9FAA2E0
:10127000012107200CF000F906F002FD6320BAE717
:10128000A0F11501072909D8491CC1EB0111C900BA
:10129000894600F03BFC850E18D018E0F2A009F05A
:1012A00083FE06F0E7FBE3A2012100200CF0E4F846
:1012B0000121F4A208460CF0DFF8E7A20121072083
:1012C0000CF0DAF806F0DCFC622094E701254FEA26
:1012D000500A010D53462A46EFA009F065FE4FF073
:1012E00000700790F8484FF0000B5E4681695C463D
:1012F00041F0200181618069CDF838B000F0200014
:10130000009040200D9001200F90022010900DA918
:10131000EE4803F0E1FA4FF0C041F02008800A20C7
:1013200003F0D6F9AFE0611CE9A009F03DFEA0068C
:1013300008F032F9EA494FF0AA08A1F800800AF053
:101340009BFCE84A552010800AF096FC802008801B
:101350000AF092FCA1F800800AF08EFC5520108063
:101360000AF08AFC102008800A2003F0B1F940211D
:10137000D64803F0ADFB8046DBA009F015FEB8F1BE
:10138000000F0FD0DEA009F00FFE06F073FBA9A23C
:10139000012100200CF070F80121E1A208460CF0B8
:1013A0006BF8FEE2E2A009F0FFFD4F4520D9394677
:1013B000E7A009F0F9FD06F05DFB9EA201210020E7
:1013C0000CF05AF801213B46E7A208460CF054F80D
:1013D000A1A2012107200CF04FF806F051FC4FF0BC
:1013E000C041F02008800A2003F072F9012002E7D2
:1013F0004021B64803F06CFB8046012822D0002231
:101400003946DCA009F0D0FD06F034FB3B46DFA2F4
:10141000012100200CF030F8B8F1010F14D00023A6
:101420000121DDA208460CF027F8631CDDA2012192
:10143000022000950CF020F806F022FCB8F1010F14
:1014400004D032E00122DBE70123E9E74FF0C0409E
:101450000078C0F340110891C0F38011C0F3C018A8
:1014600001200C9100900A464146D2A0089B09F049
:101470009BFDB8F1000F18D00C98A0B1089890B15E
:101480004FF00108A41CAC42FFF44DAF4FF0C04038
:10149000F02101800A2003F01BF95146D0A009F089
:1014A00083FD002470E0089848B14FF47A7003F08F
:1014B0000FF90121D44803F010FB7F1C75E70420CD
:1014C00099E6079904FB01F0431881460246611C26
:1014D000CEA05B1E09F068FDA00608F05DF80027AD
:1014E0004FE0780000F1C0400388A3F57F40FF384B
:1014F00010D00BF1010B09EB07005FEACB3109D1EA
:101500004FF0C04101EB40013A46D048CDF800B061
:1015100009F04AFD761CF0032FD10121BA4803F0EF
:10152000DCFA601CCDE900055B4652463146C8A096
:1015300009F03AFD06F09EFAD5A2012100200BF039
:101540009BFF4FF47A707043B0FBFAF080B20A222E
:10155000B0FBF2F1B0FBF2F302FB110100910121AB
:10156000CEA208460BF088FF631C8EA20121022048
:1015700000950BF081FF06F083FB07987F1C8742E4
:1015800001D25645ADD3641CAC429AD3002211A9B6
:10159000044804F04EFD18B1C3A009F005FDB9E1FF
:1015A00090E10000E8210020BBF1C8A1B2C1B3FD69
:1015B000BFAACABCCAB1BCE4CAA7B0DCA3A10D0AC9
:1015C00000000000B2C1B3FDBFAACABCCAB1BCE4EE
:1015D000A3A8556E6978CAB1BCE4B4C1A3A9A3BAE3
:1015E000256C7520C3EB0D0A00000000B2C1B3FDED
:1015F000BFAACABCCAB1BCE4A3A8B1BEB5D8A3A94E
:10160000A3BA253034642D253032642D2530326460
:1016100020253032643A253032643A253032640D68
:101620000A000000BBF1C8A1C8DDC1BFCAA7B0DC79
:101630000D0A00004572617365204661696C65643E
:101640002100000047657420434649204361702013
:101650004661696C00000000507265737320616E12
:1016600079206B6579000000D7EEB4F3D6A7B3D626
:101670003235364D4279746528533730474C303215
:10168000290D0A004D617820737570706F72743A7D
:101690003235364D00000000D0BEC6ACC8DDC1BF3B
:1016A0003A20256C75204D422C20D7DCBFE9CAFDBD
:1016B0003A20256C752C20D7DCB0EBD7D6CAFD3A82
:1016C00020256C750D0A0000001002400014014036
:1016D0000D0AB5DA20257520BFE90D0A00000000CB
:1016E000AA0A006054050060D5FDD4DABCECB2E96A
:1016F000CAC7B7F1BDF8C8EBB2C1B3FD0D0A00000F
:1017000052592F42592320697320312C20B2C1B382
:10171000FDD7B4CCACBDF8C8EBCAA7B0DC0D0A004D
:1017200052592F425923206E6F742031000000005F
:1017300052592F42592320697320302C20B3C9B944
:10174000A6BDF8C8EBB2C1B3FDD7B4CCAC0D0A004E
:10175000B2C1B3FDB3ACCAB1212028436F756E741A
:101760003A202575290D0A0054696D654F75743A44
:1017700025750000BCC6CAB13A2564732C205259A5
:101780002F4259233A25640D0A0000004572617307
:10179000696E673A2564730052592F4259233A25DE
:1017A00064000000426C6F636B3A20256C752F2536
:1017B0006C750000B2C1B3FDD7B4CCAC3A20513740
:1017C0003D25642C2051363D25642C2051353D2586
:1017D000642C2052592F4259233D25640D0A0000E4
:1017E000BFAACABCC8ABD0BEC6ACB2C1B3FDD1E9BA
:1017F000D6A4A3ACD7DCD0A3D1E9B0EBD7D6CAFD31
:10180000A3BA256C750D0A00000C01400D0A3D3D80
:101810003D3D3D20D1E9D6A4B5DA20256C7520BF29
:10182000E92028B0EBD7D6B5D8D6B7B7B6CEA73A09
:101830002030782530386C58202D203078253038ED
:101840006C5829203D3D3D3D3D0D0A00C4FD00087A
:10185000D1E9D6A4BDF8B6C8A3BA256C752F256CFE
:101860007520B0EBD7D6207C20B5B1C7B0B4EDCE93
:10187000F3CAFDA3BA256C75207C20B5B1C7B0BFF3
:10188000E93A20256C752F256C750D0A00000000C3
:10189000426C616E6B20436865636B0025642E2586
:1018A0006420252500000000BBF1C8A1B2C1B3FD32
:1018B000BDE1CAF8CAB1BCE4CAA7B0DCA3A10D0A55
:1018C00000000000002212A93B4804F08BFB11A984
:1018D00012A80BF0A9FE0446014638A009F064FBEB
:1018E0009DF844009DF846209DF845108DE80700BE
:1018F0009DF84B109DF84A309DF8492039A001F51C
:10190000FA6109F051FB0B98201A0146159043A08B
:1019100009F04AFB5A46314647A009F045FBBBF1A6
:10192000000F06D04FF00008594651A009F03CFBCB
:1019300002E05AA009F038FB07F064FE4FF0C04106
:10194000F0200880012002F0C3FEB8F1000F16D08D
:1019500006F090F85CA2012100200BF08DFD012122
:101960005DA20846159B0BF087FDAFF214320121F2
:1019700007200BF081FD06F083F900203BE406F020
:1019800079F858A2012100200BF076FD012159A21F
:1019900008460BF071FD5B465BA2012102200BF0B3
:1019A0006BFDAFF24C32012107200BF065FD06F014
:1019B00067F902201FE40000E8210020B2C1B3FD56
:1019C000BDE1CAF8CAB1BCE4A3A8556E6978CAB132
:1019D000BCE4B4C1A3A9A3BA256C7520C3EB0D0A5E
:1019E00000000000B2C1B3FDBDE1CAF8CAB1BCE459
:1019F000A3A8B1BEB5D8A3A9A3BA253034642D25B8
:101A00003032642D2530326420253032643A25305E
:101A100032643A253032640D0A000000414D3239FB
:101A2000D0BEC6ACB2C1B3FDBAC4CAB1A3BA2575A3
:101A300020C3EB0D0A000000C8ABD0BEC6ACD1E994
:101A4000D6A4CDEAB3C9A3BAB9B2D0A3D1E9256C63
:101A500075B8F6B0EBD7D6207C20B7C730784646AD
:101A60004646B5D8D6B7CAFDA3BA256C750D0A008F
:101A7000B2C1B3FDD1E9D6A4CAA7B0DCA3A1B9B263
:101A8000BCECB2E2B5BD256C75B8F6B5D8D6B7CE0C
:101A9000B4B2C1B3FDB8C9BEBB0D0A00B2C1B3FD3B
:101AA000D1E9D6A4CDA8B9FDA3A1C8ABD0BEC6AC20
:101AB000CBF9D3D0B5D8D6B7BEF9CEAA3078464642
:101AC00046460D0A0000000045726173652053759B
:101AD000636365737300000054696D653A2575731F
:101AE000000000004572617365204661696C6564A1
:101AF000000000004E6F7420307846464646204372
:101B00006F756E743A000000256C7500002802D0D5
:101B1000012101FA00F0704770B54FF0C045F02682
:101B20002E80012002F0D4FD9820A5F8AA000AF02A
:101B3000A3F8B5F84E400AF09FF82E80012002F07D
:101B4000C7FDFF2C09D0A4F57060FF3805D0A4F5BF
:101B50007F40FF3801D0204670BD02A009F024FA72
:101B6000002070BDD2ECB3A3C8DDC1BF00000000EF
:101B700070B515000C46064615D0002C13D04FF05A
:101B8000C041F0200880012002F0A2FD002308E0FF
:101B9000F018400000F1C040008825F813005B1CDD
:101BA0009BB2A342F4D370BD70B54FF0C044F02691
:101BB0002680012002F08CFD0E49AA2008800AF040
:101BC0005BF80D4A552010800AF056F890200880E6
:101BD0000AF052F8094D2088E88060882881A088A2
:101BE00068812680012002F073FD2889E98840EA97
:101BF000014070BDAA0A006054050060000000208A
:101C00002DE9F14FADF5175DFDA042F27C246C4447
:101C10009A904FF482712046FEF7BFFA4FF0000908
:101C2000CDE99B99CA46C8464D46CDF87492CDF889
:101C30005C92CDF86492FFF76FFFC8B11C282AD9D7
:101C400005F018FFEFA2012100200BF015FCF2A215
:101C5000012107200BF010FC06F012F8F2A009F0A9
:101C6000A3F962200DF2C45D0DF5005DBDE8F08FB3
:101C7000F2A009F099F905F0FDFEF4A2012100207F
:101C80000BF0FAFBE4A2012107200BF0F5FB05F0B5
:101C9000F7FF6320E6E7FFF739FF820A06460146B1
:101CA0009346EFA009F080F90120FFF7BDF806AFD9
:101CB000022830D00DF50050D0F8C005002834D0EF
:101CC0000DF50050D0F8C005FEF77EFA00282CD0A4
:101CD0000DF50050EBA1D0F8C025204609F074F9AD
:101CE00001220DF50E509A990AF09AFB01002ED0B0
:101CF000E7A009F059F905F0BDFEEFA2012100208F
:101D00000BF0BAFBC4A2012107200BF0B5FB05F0D4
:101D1000B7FF0220A6E738460AF066F90122002044
:101D20009A990AF07DFB0A209CE7E7A009F03CF9AC
:101D300005F0A0FEB3A2012100200BF09DFBB6A28E
:101D4000012107200BF098FB05F09AFFB6E0012275
:101D5000214638460AF092FB04002BD002460DF5CE
:101D60000050D0F8C015DFA009F01EF905F082FE82
:101D7000E6A2012100200BF07FFB0DF500500121B0
:101D8000D0F8C035C1A208460BF076FB2346E3A28B
:101D9000012102200BF070FB9FA2012107200BF014
:101DA0006BFB05F06DFF012200209A990AF038FBC9
:101DB000032057E70DF50050899CD0F8C015224646
:101DC000D9A009F0F1F8B44232D932462146DFA059
:101DD00009F0EAF805F04EFEEAA2012100200BF01E
:101DE0004BFB0121EBA208460BF046FB5B46ECA245
:101DF000012102200BF040FBEBA2012103200BF09C
:101E00003BFBA30AE6A2012104200BF035FB82A2D2
:101E1000012107200BF030FB05F032FF38460AF0B5
:101E2000E3F8012200209A990AF0FAFA042019E74F
:101E3000002C2AD0DFA009F0B7F84FF0C041F02005
:101E40000880012002F044FC9E95E2A0959509F0DF
:101E5000ABF80DF51C7B00225946E84804F0E9F880
:101E600000282DD0E6A009F09FF805F003FEEBA2B4
:101E7000012100200BF000FB67A2012107200BF0DD
:101E8000FBFA05F0FDFE0520ECE6E8A009F08CF871
:101E900005F0F0FDEBA2012100200BF0EDFA5EA2AF
:101EA000012107200BF0E8FA05F0EAFE38460AF0B7
:101EB0009BF8012200209A990AF0B2FA0120D1E69B
:101EC0009DAE00223146CD4804F08CF8594630468C
:101ED0000BF0AAFB01469490DEA009F065F89DF88E
:101EE00070029DF872229DF871128DE807009DF82E
:101EF00077129DF876329DF87522E0A001F5FA611F
:101F000009F052F8AB465CE2CDF854B295AB022230
:101F10009EA906A8CDF878B20AF0D0FB010003D044
:101F2000E4A009F041F847E09598002865D0BDF895
:101F300078024FEA5A0641BA4FF0C040E84A00EB37
:101F40004607AA20108009F097FEE64B552018801E
:101F500009F092FEA020108009F08EFE700000F1C2
:101F6000C040018009F088FE4FF47A7504E000BF9C
:101F700009F082FE6D1E16D04021DB4802F0A8FD5C
:101F80000028F5D095998A441FFA8AF0002801D0DC
:101F9000A245B8D1D54DCDF884B2CDF888B2A869A4
:101FA000002658B118E032463946D1A008F0FCFFAF
:101FB0004FF0C041F02008800520A8E20022A1A92E
:101FC0008E4804F036F8002818D002F093FD4FF444
:101FD0007A71B0FBF1F0A8610022A1A9874804F052
:101FE00028F800280BD002F085FD4FF47A71B0FB81
:101FF000F1F0A969401AA3908EE1E5E1F5E1FFE176
:10200000303A00004D617820537570706F72743AE9
:102010003235364D00000000507265737320616EDA
:1020200079206B6579000000D7EEB4F3D6BBD6A754
:10203000B3D6533730474C30320D0A00BBF1C8A13C
:10204000C8DDC1BFCAA7B0DC0D0A00004765742017
:1020500073697A65206661696C65642E0000000012
:10206000414D3239C8DDC1BF3A20256C7520427917
:102070007465732028256C75204B42797465290D91
:102080000A000000303A2F414D32392F25730000ED
:10209000D0B4C8EBCAA7B0DCA3BA5446BFA8B9D223
:1020A000D4D8CAA7B0DCA3ACB4EDCEF3C2EBA3BACC
:1020B00025640D0A000000005446204E4F54207045
:1020C000726573656E740000D0B4C8EBCAA7B0DC4B
:1020D000A3BACEC4BCFEC3FBB2CECAFDCEAABFD546
:1020E0000D0A0000D0B4C8EBCAA7B0DCA3BAB4F2A2
:1020F000BFAACEC4BCFE2573CAA7B0DCA3ACB4EDA6
:10210000CEF3C2EBA3BA25640D0A00004661696CE8
:1021100020746F206F70656E00000000636F64654F
:102120003A20256400000000B4F2BFAACEC4BCFE71
:10213000B3C9B9A6A3BA2573207C20B4F3D0A1A358
:10214000BA257520D7D6BDDA0D0A0000D0B4C8EB89
:10215000CAA7B0DCA3BACEC4BCFEB4F3D0A1282574
:1021600075D7D6BDDA29B3ACB9FDD0BEC6ACD7EEB3
:10217000B4F3C8DDC1BF282575D7D6BDDA290D0A4D
:102180000000000046696C65206F766572207369F7
:102190007A650000436869702073697A653A0000C7
:1021A0002564204B4200000046696C652073697A03
:1021B000653A0000D0BEC6ACB3F5CABCBBAFA3A89D
:1021C000BDF6B8B4CEBBD2BBB4CEA3A92E2E2E0D75
:1021D0000A000000BFAACABCD0B4C8EBCEC4BCFE83
:1021E000B5BDD0BEC6ACA3A8CACAC5E4B4F3B6CBCD
:1021F000C4A3CABDA3A92E2E2E0D0A00E8210020DB
:10220000BBF1C8A1D0B4C8EBBFAACABCCAB1BCE478
:10221000CAA7B0DCA3A10D0A000000004765742026
:10222000525443204661696C65640000D0B4C8EB29
:10223000CAA7B0DCA3BACEC4BCFECEAABFD50D0AD5
:102240000000000046696C652053697A65203042C1
:1022500079746500D0B4C8EBBFAACABCCAB1BCE4EB
:10226000A3A8556E6978CAB1BCE4B4C1A3A9A3BA46
:10227000256C7520C3EB0D0A00000000D0B4C8EB3C
:10228000BFAACABCCAB1BCE4A3A8B1BEB5D8A3A9B1
:10229000A3BA253034642D253032642D25303264C4
:1022A00020253032643A253032643A253032640DCC
:1022B0000A000000D0B4C8EBCAA7B0DCA3BAB6C10C
:1022C000C8A1CEC4BCFECAFDBEDDCAA7B0DCA3ACAB
:1022D000B4EDCEF3C2EBA3BA25640D0A00000000F2
:1022E000AA0A0060540500600014014000000020AC
:1022F000D0B4C8EBB3ACCAB1A3BAB5D8D6B73078AE
:10230000253038582028B0EBD7D6C6ABD2C63078A7
:1023100025303658290D0A00BAF1000F13D0A398C2
:1023200088B12046FDF7EDFF05465046FDF7E9FF71
:102330002946FDF7A8FF0546A398FDF7E2FF2946C9
:10234000FDF7A1FF06463046FDF7E0FF05460E46C5
:102350002046FDF7D6FF07465046FDF7D2FF394627
:10236000FDF791FFC949FDF75CFFFDF7CFFFA09096
:10237000CDE90456A39A0090CDE901120F462246FA
:102380005146C34808F010FE05F074FBA098CDE953
:102390000007C0A2012100200BF06EF80121C1A2AC
:1023A0000846A39B0BF068F8CDE90056C0A20121B6
:1023B00002200BF061F805F063FC0121BF4802F038
:1023C0008CFBA245FFF4A0ADBDA008F0EDFD0027F9
:1023D0003E464FF400519FA8FDF7DFFE002106A8FE
:1023E000CDF808B009F028FE86E0A2AF00223946F9
:1023F000BD4803F0F7FDA1A938460BF015F9EAE551
:10240000A2AF00223946B84803F0ECFDA1A9384636
:102410000BF00AF9EDE5A51B4FF40050854200D9F9
:10242000054602AB2A469FA906A80AF047F910B94B
:102430000298A84208D02A463146AC48029B08F0D0
:10244000B3FD4FF0060959E0002552E09FA86B1C30
:10245000415D934202D22844407800E0002040EAE7
:1024600001227008400000F1C0400388934210D060
:1024700008F10100804601464FF47A70B1FBF0FC90
:1024800000FB1C8028B9009106F1C041984808F073
:102490008BFD98487F1CB7FBF0F100FB117030BB3F
:1024A000601C41088B460A464346394692A008F014
:1024B0007BFD05F0DFFA4FF47A7107FB01F0B0FB0A
:1024C000FBF01FFA80FB97A2012100200AF0D4FF45
:1024D0000A22BBFBF2F1BBFBF2F302FB11B100914C
:1024E000012193A208460AF0C7FF05F0C9FBAD1C05
:1024F000B61C029A9542A9D3A6428CD342463946CD
:102500008EA008F051FDB8F1000F02D006208146E0
:1025100002E098A008F048FD4FF0C041F02008808C
:10252000012002F0D5F806A809F05EFD0122002086
:102530009A9909F075FFB9F1000F29D0B9F1060F8A
:102540007DD00DF50050D0F8C01590A008F02CFDFE
:1025500005F090FA93A2012100200AF08DFF0DF5FD
:1025600000500121D0F8C03592A208460AF084FF3D
:102570004B4693A2012102200AF07EFFAFF268527F
:10258000012107200AF078FF05F07AFB484610E4A5
:1025900097AD00222946544803F04BFD18B18CA09A
:1025A00008F002FD28E099AC002221464E4803F0D5
:1025B00019FD294620460BF037F8044601468BA04A
:1025C00008F0F2FC9DF85C029DF85E229DF85D1219
:1025D0008DE807009DF867129DF866329DF8652228
:1025E0008CA001F5FA6108F0DFFC9498201A0146EE
:1025F0009B9096A008F0D8FC0DF500505246D0F8FC
:10260000C01599A008F0D0FC05F034FAA0A2012171
:1026100000200AF031FF012122A208469B9B0AF00C
:102620002BFF4FEA9A239EA2012102200AF024FFE9
:10263000AFF21C62012107200AF01EFF00E003E058
:1026400005F01EFB00201FE40DF500504246D0F8B7
:10265000C01596A008F0A8FC05F00CFAA0A2012174
:1026600000200AF009FF0DF500500121D0F8C03517
:1026700050A208460AF000FF9DA2012102200AF0A4
:10268000FBFE012143469EA2032075E70000C842DD
:10269000B0FE000857726974696E673A20252E31C2
:1026A000662525005573653A202575530000000006
:1026B0004573743A20252E3166530000000C01400A
:1026C000BFAACABCC8ABC1BFD6F0576F7264D1E90C
:1026D000D6A4A3A8CEC4BCFE5653D0BEC6ACA3A9F4
:1026E0002E2E2E0D0A000000E821002068FE0008B2
:1026F00080FD0008A0860100D1E9D6A4BDF8B6C8C7
:10270000A3BA256C752F256C7520576F72647320E2
:102710007C20B5B1C7B0B4EDCEF3CAFDA3BA256C29
:10272000750D0A005665726966696E673A20000089
:1027300025642E256420252500000000C8ABC1BFFC
:10274000D1E9D6A4CDEAB3C9207C20D7DCD1E9D623
:10275000A4576F7264CAFDA3BA256C75207C20B2A1
:10276000BBD2BBD6C2576F7264CAFDA3BA256C75C3
:102770000D0A0000C8ABC1BFD6F0576F7264D0A37A
:10278000D1E9CDA8B9FDA3A10D0A0000CEC4BCFEBD
:102790002573D0B4C8EBD0BEC6ACCAA7B0DCA3A129
:1027A0000D0A00005772697465204661696C6564A2
:1027B0000000000046696C653A20257300000000A7
:1027C0004572726F72436F64653A20257500000090
:1027D000BBF1C8A1D0B4C8EBBDE1CAF8CAB1BCE432
:1027E000CAA7B0DCA3A10D0A00000000D0B4C8EB5A
:1027F000BDE1CAF8CAB1BCE4A3A8556E6978CAB1F4
:10280000BCE4B4C1A3A9A3BA256C7520C3EB0D0A1F
:1028100000000000D0B4C8EBBDE1CAF8CAB1BCE406
:10282000A3A8B1BEB5D8A3A9A3BA253034642D2579
:102830003032642D2530326420253032643A253020
:1028400032643A253032640D0A000000414D3239BD
:10285000D0BEC6ACD0B4C8EBBAC4CAB1A3BA257551
:1028600020C3EB0D0A000000CEC4BCFE2573D0B41B
:10287000C8EBD0BEC6ACB3C9B9A6A3A1D7DCD0B44F
:10288000C8EBD7D6BDDAA3BA25750D0A0000000043
:102890005772697465205375636365737300000034
:1028A00053697A653A2025754B420000CEC4BCFEC0
:1028B0002573D0B4C8EBD0BEC6ACCAA7B0DCA3A108
:1028C000D1E9D6A4B7A2CFD620257520B8F6576F88
:1028D0007264CAFDBEDDB2BBD2BBD6C20D0A000017
:1028E000566572696679204661696C65640000000E
:1028F0004572726F72436F75743A2025750000003F
:10290000257500002DE9F04FADF6F41DF2A00FF291
:10291000CC39CDF8D4094FF482710DF25C60FDF72B
:102920003CFC0024CDF8A449CDF8A849CDF8E049F5
:102930000127A046A346CDF8DC49CDF8CC49EAA052
:10294000CDF8D04908F030FBFFF7E6F8E0B11C28DD
:1029500032D9F0A008F028FB05F08CF8F4A2012190
:1029600000200AF089FD0121F5A208460AF084FD45
:10297000F8A2012107200AF07FFD05F081F962200D
:102980000DF6F41DBDE8F08FF6A008F00DFB05F084
:1029900071F8E7A2012100200AF06EFD0121F7A2E3
:1029A00008460AF069FDEBA2012107200AF064FD48
:1029B00005F066F96320E3E7FFF7A8F80646020D85
:1029C0000146F3A008F0F0FAF9A008F0EDFA0122B0
:1029D0000DF5EC60DDF8D41909F022FD010017D0E7
:1029E000F7A008F0E1FA05F045F8D1A20121002096
:1029F0000AF042FD0121F9A208460AF03DFDD5A2E8
:102A0000012107200AF038FD05F03AF90220B7E766
:102A1000494604A809F008FE002836D0F3A008F0C3
:102A2000C3FA484609F04AFC010022D0F7A008F09A
:102A3000BBFA05F01FF8BEA2012100200AF01CFD20
:102A40000121FAA208460AF017FDFDA20121022089
:102A50000AF012FDBFA2012107200AF00DFD05F0CA
:102A60000FF901220020DDF8D41909F0D9FC032068
:102A700086E7F5A008F098FAF8A008F095FA49461C
:102A800004A809F0D1FD28B155E004A809F0C1FA65
:102A9000F9A0EFE700250DF6B91700BF0DF51B6192
:102AA00004A809F0D1FEE0BB9DF8B909C8B39DF8B0
:102AB000B809C006F2D43846FDF786FBC0B20C2830
:102AC000ECD12E213846FDF794FB5FEA000AE5D0F1
:102AD000EEA1FDF780FB28B1EEA15046FDF77BFB90
:102AE0000028DBD100200DF51B610A18527A303A1C
:102AF0000A2AD3D2401C0828F7DBCDF8E489CDF8A8
:102B0000E889082239460DF6E410CDF8EC89FDF786
:102B10004FFB0DF6E410FDF777FBA842BED9054642
:102B2000BCE7FFE704A809F074FA6F1C3A4629468F
:102B3000DAA008F039FA3B464A46E3A10DF25C60A0
:102B400008F042FA0DF25C61E3A008F02DFA0622CB
:102B50000DF25C610DF5866009F090FC05002BD04C
:102B60000146E2A008F020FA04F084FF70A20121DF
:102B700000200AF081FC0121E3A208460AF07CFC57
:102B80000DF25C63E5A2012102200AF075FC2B46E0
:102B9000E3A2012103200AF06FFC6EA201210720AD
:102BA0000AF06AFC05F06CF801220020DDF8D41967
:102BB00009F036FC0420E3E600220DF6DC11DA48C9
:102BC00003F037FAF8B900220DF51E61D64803F07C
:102BD00009FA0DF6DC11081D0AF026FDCDF8A8094A
:102BE0009DF8DC099DF8DE299DF8DD198DE80700C8
:102BF0009DF8E3199DF8E2399DF8E129CBA001F594
:102C0000FA6108F0D1F9D5A008F0CEF9B70E01D0DD
:102C1000002529E2012700254FEA85684FF0000AC8
:102C2000691CD8A008F0C0F9404606F0B5FC17E2D0
:102C300004F500704FF40079B04201D9A6EB040905
:102C40004FEA59034FEA5A0800208CAA0FE000BF50
:102C500008EB0001490001F1C04109884FEA112C3D
:102C600002F810C002EB400C401C8CF80110984296
:102C7000EED30DF6A4134A468CA90DF5866009F033
:102C800068FE5FEA000803D1DDF8A419494522D0A7
:102C90004146C4A008F088F904F0ECFE24A201210A
:102CA00000200AF0E9FB0121C5A208460AF0E4FB76
:102CB0000DF25C6399A2012102200AF0DDFB43467C
:102CC00097A2012103200AF0D7FB22A201210720AD
:102CD0000AF0D2FB7CE189E1303A0000303A2F4122
:102CE0004D323952000000000D0A3D3D3D3D3D2072
:102CF000BFAACABCB6C1C8A1414D3239D0BEC6AC0C
:102D0000C4DAC8DDB5BD5446BFA8203D3D3D3D3DBC
:102D10000D0A0000D7EEB4F3D6BBD6A7B3D653370F
:102D200030474C3032203235364D0D0A000000005D
:102D300052656164204661696C6564210000000091
:102D40004D617820737570706F72743A3235364DFC
:102D500000000000507265737320616E79206B650E
:102D600079000000BBF1C8A1414D3239C8DDC1BFB7
:102D7000CAA7B0DCA3A10D0A0000000047657420BB
:102D800043464920436170204661696C00000000A1
:102D9000414D3239C8DDC1BF3A20256C75204279DA
:102DA0007465732028256C75204D42290D0A00009A
:102DB000B9D2D4D85446BFA82E2E2E0D0A0000003A
:102DC0005446BFA8B9D2D4D8CAA7B0DC2120B4EDEC
:102DD000CEF3C2EB3A2025640D0A00005446204E83
:102DE0004F5420466F756E6400000000414D32392B
:102DF00052C4BFC2BCB2BBB4E6D4DAA3ACB3A2CA5D
:102E0000D4B4B4BDA82E2E2E0D0A0000B4B4BDA8B3
:102E1000414D323952C4BFC2BCCAA7B0DC2120B474
:102E2000EDCEF3C2EB3A2025640D0A0043726561D2
:102E3000746520414D32395220446972000000000F
:102E40004661696C65642100414D323952C4BFC28C
:102E5000BCB4B4BDA8B3C9B9A60D0A00C9A8C3E8DB
:102E6000414D323952C4BFC2BCD6D0B5C4CEC4BCA9
:102E7000FE2E2E2E0D0A0000414D323952C4BFC223
:102E8000BCD2D1B4E6D4DA0D0A0000002E62696E1D
:102E9000000000002E42494E00000000D7EEB4F3BF
:102EA000CEC4BCFEB1E0BAC53A202530386C752CD2
:102EB00020CFC2D2BBB8F6B1E0BAC53A202530382F
:102EC0006C750D0A0000000025732F2530386C75D5
:102ED0002E62696E00000000D7BCB1B8B4B4BDA8C2
:102EE000CEC4BCFE3A2025730D0A0000B4B4BDA8C0
:102EF000CEC4BCFECAA7B0DC2120B4EDCEF3C2EB39
:102F00003A2025640D0A000043726561746520460D
:102F1000696C65204661696C65640000257300007A
:102F2000436F64653A256400E8210020B6C1C8A15A
:102F3000BFAACABCCAB1BCE4A3BA253034642D25EB
:102F40003032642D2530326420253032643A253009
:102F500032643A253032640D0A000000BFAACABCB0
:102F6000B6C1C8A1D0BEC6ACC4DAC8DDA3A8B7D666
:102F700036344D42BFE9B4A6C0EDA3A92E2E2E0DC6
:102F80000A0000000D0A3D3D3D3D3D20B4A6C0EDC8
:102F9000B5DA20256C7520BFE920203D3D3D3D3D43
:102FA0000D0A0000CEC4BCFED0B4C8EBCAA7B0DC8A
:102FB0002120B4EDCEF3C2EB3A2025640D0A0000C7
:102FC00046696C65207772697465206661696C007A
:102FD00004F056FE0DF5866009F006F80122002087
:102FE000DDF8D41909F01CFA0520C9E44C44CA44A0
:102FF000E00301D0B44230D13046FDF782F980467B
:103000002046FDF77EF94146FDF73DF94F49FDF7B2
:1030100008F9FDF77BF96A1CCDE90227894680464D
:10302000324621464AA0CDE9008907F0BDFF04F0F1
:1030300021FD54A201210020CDE900890AF01CFAEB
:1030400001216B1C53A2084600970AF015FA04F000
:1030500017FE0121534801F040FDBAF1806F02D202
:10306000B442FFF4E5AD6D1CBD42FFF4D5AD0022C6
:103070000DF6CC114C4802F0DCFF28BB00220DF508
:103080001D61494802F0AEFF0DF6CC11081D0AF093
:10309000CBFADDF8A8199DF8CE29A0EB010B9DF81D
:1030A000CC099DF8CD198DE807009DF8D3199DF83E
:1030B000D2399DF8D1293DA001F5FA6107F074FFDE
:1030C000594646A007F070FF0DF5866008F08CFFAA
:1030D00001220020DDF8D41909F0A2F906F092FAD5
:1030E0004FF0C041F0200880012001F0F1FA0DF20C
:1030F0005C613EA007F058FF214647A007F054FF4F
:1031000004F0B8FC49A2012100200AF0B5F9012120
:103110005B464AA208460AF0AFF90DF25C63AFF2D3
:103120000422012102200AF0A7F9A30A45A20121E5
:1031300003200AF0A1F9AFF2E432012107200AF0DE
:103140009BF904F09DFD00201AE400000000C84235
:10315000B6C1C8A1BDF8B6C8A3BA256C752F256C39
:103160007520D7D6BDDA2028252E316625252920C1
:103170007C20B5B1C7B0BFE93A2025752F25750D64
:103180000A000000526561643A20252E316625252B
:1031900000000000426C6F636B3A2025752F257587
:1031A00000000000000C0140E8210020B6C1C8A1C9
:1031B000BDE1CAF8CAB1BCE4A3BA253034642D25F8
:1031C0003032642D2530326420253032643A253087
:1031D00032643A253032640D0A000000D7DCBAC4EC
:1031E000CAB1A3BA257520C3EB0D0A000D0A3D3DF7
:1031F0003D3D3D20B6C1C8A1CDEAB3C9A3A1CEC40F
:10320000BCFED2D1B1A3B4E6CEAAA3BA2573203DA9
:103210003D3D3D3D0D0A0000CEC4BCFEB4F3D0A13F
:10322000A3BA257520D7D6BDDA0D0A0052656164B0
:103230002053756363657373210000002575205367
:103240000000000025754B42797465730000000092
:1032500010B53FA007F0A8FE49A007F0A5FE52A0B8
:1032600007F0A2FE58A007F09FFE04F003FC61A245
:10327000012100200AF000F9012161A208460AF0AC
:10328000FBF862A2012102200AF0F6F863A20121F4
:1032900003200AF0F1F864A2012104200AF0ECF8FE
:1032A00065A2012105200AF0E7F866A201210620A7
:1032B0000AF0E2F867A2012107200AF0DDF804F025
:1032C000DFFC67A007F070FE47F2305007F042FEC7
:1032D00059280ED079280CD004280AD0052808D007
:1032E00000281AD06CA007F05FFE04F0C3FB6EA2AA
:1032F00019E070A007F058FE04F0BCFB75A2012194
:1033000000200AF0B9F8012175A208460AF0B4F8C5
:1033100004F0B6FCFDF75AFF15E074A007F044FE78
:1033200004F0A8FB78A2012100200AF0A5F80121F1
:1033300077A208460AF0A0F878A2012107200AF037
:103340009BF804F09DFCBDE81040002007F002BE91
:103350000D0A3D3D3D3D3D3D3D3D3D3D3D3D3D3D00
:103360003D3D3D3D3D3D3D3D3D3D3D3D3D3D3D3D8D
:103370003D3D3D3D3D3D3D3D3D3D0D0A00000000D4
:1033800020202020BEAFB8E6A3BABCB4BDABD6B4F3
:10339000D0D0D5FBD0BEC6ACB2C1B3FDB2D9D7F741
:1033A000A3A10D0A0000000020202020B2C1B3FD1F
:1033B000BAF3CBF9D3D0CAFDBEDDBDABB6AACAA75E
:1033C000A3A10D0A000000003D3D3D3D3D3D3D3DBA
:1033D0003D3D3D3D3D3D3D3D3D3D3D3D3D3D3D3D1D
:1033E0003D3D3D3D3D3D3D3D3D3D3D3D3D3D3D3D0D
:1033F0000D0A00005741524E494E4721000000007F
:10340000436869702045726173650000416C6C20EF
:10341000646174612077696C6C0000006265206CE7
:103420006F73742100000000507265737320522086
:103430006F72204F4B000000746F20636F6E7469D1
:103440006E7565005072657373206F746865727372
:1034500000000000746F2063616E63656C00000003
:10346000C7EBCAE4C8EB205920C8B7C8CFB2C1B374
:10347000FDA3ACBBF2B0B4D3D2BCFC2FC8B7C8CF4D
:10348000BCFCBCCCD0F8A3ACC6E4CBFBBCFCC8A154
:10349000CFFBA3BA0D0A00000D0AB2D9D7F7D2D1DB
:1034A000C8A1CFFB0D0A00004F7065726174696F8F
:1034B0006E0000000D0AD3C3BBA7D2D1C8B7C8CFD6
:1034C000A3ACBFAACABCB2C1B3FDD0BEC6AC2E2E3F
:1034D0002E0D0A0045726173696E672E2E2E000054
:1034E000506C656173652077616974000D0AB5C819
:1034F000B4FDB3ACCAB1A3ACB2D9D7F7D2D1C8A18D
:10350000CFFB0D0A0000000054696D656F757400F3
:1035100043616E63656C6C65640000005072657396
:103520007320616E79206B65790000002DE9F04110
:1035300086B000200290039002AA06210490FEF7B4
:1035400017FBFEF731FB8046014638A007F02CFD43
:10355000FEF7E2FA0646FEF7D9FA0446314638A0ED
:1035600007F022FD2CB1A20A21463DA007F01CFD68
:1035700002E043A007F018FD46A007F015FD002566
:103580000DF1080748A037F8151007F00DFD6D1C68
:10359000062DF7DB3EA007F007FD04F06BFA43466B
:1035A00043A20121002009F067FF0121334644A214
:1035B000084609F061FF234644A20121022009F0D8
:1035C0005BFFA30A44A20121032009F055FF45A295
:1035D0000121042009F050FFBDF80C10BDF80A00CD
:1035E000CDE90001BDF8083041A20121052009F014
:1035F00043FFBDF81210BDF81000CDE90001BDF881
:103600000E303BA20121062009F036FF3DA2012128
:10361000072009F031FF04F033FB3EA007F0C4FCA3
:10362000002007F097FC06B0BDE8F081414D32392B
:103630002049443A203078253038580D0A000000DF
:10364000414D323920434649C8DDC1BFD4ADCABC63
:10365000D6B53A203078253034580D0A00000000E5
:10366000414D3239C8DDC1BF3A20257520427974F9
:10367000657320282575204B42797465290D0A0051
:10368000BBF1C8A1414D3239C8DDC1BFB4EDCEF3A5
:103690000D0A0000307830307E30783042204461AE
:1036A00074613A2000000000307825303458200042
:1036B000414D32392049443A20307825303858007D
:1036C0004346493A20307825303458002575204249
:1036D00079746573000000002575204B427974658C
:1036E00073000000307830302D307830423A0000DE
:1036F000307825303458202530345820253034583F
:1037000000000000507265737320616E79206B6554
:10371000790000000D0AB2D9D7F7CDEAB3C9A3AC3E
:10372000000000002DE9F0410546ADF58D6D5AA76A
:103730005AA64FF402515B48FCF72FFD5A4C00206B
:10374000002D207011D0287058A007F02DFC012208
:10375000394688A808F064FE010008D05DA007F093
:1037600023FC63A007F020FC25E06DA0FAE774A01D
:1037700007F01AFC3146684608F056FF01001FD0DA
:1037800074A007F011FC304608F098FD010001D04C
:103790007CA009E083A007F007FC3146684608F0EA
:1037A00043FF01000CD088A007F0FEFB0122394640
:1037B000002008F035FE00200DF58D6DBDE8F0818C
:1037C0008AA007F0F1FB0DF25946207820284FD24D
:1037D0000DF58A61684609F037F8002848D19DF850
:1037E0005904002844D09DF85804C006EDD42E2179
:1037F0003046FCF7FEFC5FEA0008E6D08AA1FCF741
:10380000EAFC28B18AA14046FCF7E5FC0028DCD19F
:103810003046FCF7D9FCC1B200200DF58A620AE0FF
:1038200013185B7A7F2B04D9314683A007F0BCFBC9
:10383000CBE7401CC0B28842F2D32078DFF8648026
:1038400000EB801108EB8100FF223146FCF7B0FC51
:103850002078DDF8502400EB801108EB81017CA07A
:10386000C1F8002107F0A0FB2078401C2070ACE7D5
:10387000684608F0CEFB01223946002008F0D0FD52
:103880002178297021B179A007F08EFB054893E7D4
:1038900086A007F089FBF9E7303A0000303A2F4163
:1038A0004D32390068010020000000205344494F88
:1038B000CDE2C9E8B3F5CABCBBAFB3C9B9A6A3ACE6
:1038C000BFAACABCB9D2D4D85446BFA82E2E2E0D3A
:1038D0000A0000005446BFA8B9D2D4D8CAA7B0DCA9
:1038E0002120B4EDCEF3C2EB3A2025640D0A00008E
:1038F000B4EDCEF3D4ADD2F2A3BA313D5344494F27
:10390000C5E4D6C3B4EDCEF3207C20343D5446BF8D
:10391000A8CBF0BBB52FCEB4B2E5BAC30D0A0000F8
:10392000B2CECAFDB4EDCEF3A3BA66696C655F632F
:103930006F756E74D6B8D5EBCEAABFD50D0A000050
:103940005446BFA8B9D2D4D8B3C9B9A6A3A10D0A09
:1039500000000000B4F2BFAA414D3239C4BFC2BC5E
:10396000CAA7B0DC2120B4EDCEF3C2EB3A20256427
:10397000A3ACB3A2CAD4B4B4BDA8C4BFC2BC2E2EDB
:103980002E0D0A00B4B4BDA8414D3239C4BFC2BC2B
:10399000CAA7B0DC2120B4EDCEF3C2EB3A202564F7
:1039A0000D0A0000414D3239C4BFC2BCB4B4BDA839
:1039B000B3C9B9A6A3ACD6D8D0C2B4F2BFAAC4BF0B
:1039C000C2BC2E2E2E0D0A00D6D8D0C2B4F2BFAA89
:1039D000414D3239C4BFC2BCCAA7B0DC2120B4ED0E
:1039E000CEF3C2EB3A2025640D0A00003D3D3D3D7B
:1039F0003D20414D3239C4BFC2BCCFC2B5C42E62D6
:103A0000696ECEC4BCFEC1D0B1EDA3A8C5C5B3FDDF
:103A1000D6D0CEC4CEC4BCFEC3FBA3A9203D3D3D41
:103A20003D3D0D0A000000002E62696E000000009E
:103A30002E42494E00000000C5C5B3FDD6D0CEC40D
:103A4000CEC4BCFEC3FB3A2025730D0A0000000063
:103A5000CEC4BCFE3A202573207C20B4F3D0A13A1A
:103A600020256C7520D7D6BDDA0D0A003D3D3D3DC1
:103A70003D20B9B2D5D2B5BD20256420B8F6D3D04B
:103A8000D0A7B5C42E62696ECEC4BCFEA3A8D2D1A5
:103A9000C5C5B3FDD6D0CEC4CEC4BCFEC3FBA3A95E
:103AA000203D3D3D3D3D0D0A00000000414D3239B5
:103AB000C4BFC2BCCFC2CEB4D5D2B5BDD3D0D0A7BF
:103AC000B5C42E62696ECEC4BCFEA3A8CEDED6D02D
:103AD000CEC4CEC4BCFEC3FBA3A90D0A00000000E7
:103AE0002DE9F04FCDB000208DF8000182464FF453
:103AF00080716846FCF751FB4FF00008E8A007F022
:103B000053FA40A8FFF70EFE5FEA000934D09DF893
:103B1000000180B3C01DC008CDF804014FEACA609F
:103B2000040E04F10800C6B29DF80001864200D9D7
:103B30000646301BC7B24990B84501D34FF0000884
:103B400003F098FF0025BD4229D2601900F0FF0B59
:103B5000142144A8FCF721FB0BEB8B1109EB81012D
:103B6000102244A8FCF724FB44ABD9A2012128462B
:103B700009F082FC18E0FFE7D6A007F015FA03F081
:103B800079FFE1A20121002009F076FC0121E2A2E7
:103B9000084609F071FC0121E3A20220BAE0E5A287
:103BA0000121284609F068FC6D1CEDB2082DCAD32E
:103BB000B84518D204EB0800C5B2142144A8FCF79C
:103BC000ECFA05EB851109EB8101102244A8FCF702
:103BD000EFFA44ABDCA20121404609F04DFC012183
:103BE000404604F039F804F04BF8D8A007F0DCF9AF
:103BF0009DF80011E1A007F0D7F9ECA007F0D4F987
:103C000025460DE0281B05EB8512401C09EB8202BE
:103C1000C1B2F1A0D2F8003107F0C6F96D1CEDB2C7
:103C2000B542EFD3EBA007F0BFF9419801280BD9BB
:103C300002460AF10101EEA007F0B6F9F1A007F083
:103C4000B3F9F4A007F0B0F9F6A007F0ADF93946E2
:103C5000F94807F0A9F900208DF80C016EE000BFCB
:103C6000B8F1000F02D0A8F1010014E0BAF1000F82
:103C70003FF454AFAAF1010000F0FF0A4FEACA6016
:103C8000020E02F108009DF80011C0B2884200D96E
:103C90000846801A401EC0B21AE000BF03F0F6F9D1
:103CA00058B14998C0B2401E804516DA08F10100AB
:103CB000F1E700BF0AF1010007E003F003FA48B1A1
:103CC000BAF1000FD4D0AAF1010000F0FF0A0020E1
:103CD000804623E703F02EFA20B14198401E82452A
:103CE000F7DAE7E703F00AFA78B104EB08009DF889
:103CF0000011C0B28842ECD200EB801109EB8101C7
:103D0000FF226846FCF754FA45E003F0A3F958B1E6
:103D1000CAA061E009F0B0FBCCA20121072009F0A4
:103D2000ABFB03F0ADFF49E20023012243A9CB48DE
:103D300003F070F838B1142000F0CAFC03F016FA52
:103D40000028ABD08CE79DF80C0120385E2806D8FF
:103D50004FF0FF33012243A9C04803F0B3F89DF8A8
:103D60000C01A0F1310107292CD83038C0B2B8427B
:103D7000AFD82044401E9DF80011C0B28842A8D29E
:103D800000EB801109EB8101FF226846FCF710FA75
:103D900090A007F009F96946B1A007F005F903F012
:103DA00069FEB5A20121002009F066FB6C462046A1
:103DB000FCF70AFAC0B2102831D801212346B1A27B
:103DC000084649E0392812D0302819D0622802D09C
:103DD00042287FF47EAFACA007F0E6F803F04AFE7D
:103DE000AEA20121002009F047FBAFA2CCE141982F
:103DF000401E824502DA0AF1010006E0ADA00BE0A8
:103E0000BAF1000F07D0AAF1010000F0FF0A4FF04D
:103E1000000870A000E0ADA007F0C6F87EE614210F
:103E200043A8FCF7BAF9142148A8FCF7B6F9102208
:103E3000214643A8FCF7BCF9102204F1100148A860
:103E4000FCF7B6F9012143AB8EA2084609F014FB3A
:103E500048AB8CA20121022009F00EFBA1A2012196
:103E6000042009F009FBA2A20121052009F004FBAE
:103E7000A2A20121062009F0FFFAA4A20121072035
:103E800009F0FAFA03F0FCFEA3A007F08DF8002079
:103E90008DF8080100F02EFE044642F2107563E131
:103EA0000D0A3D3D3D3D3D20D5FDD4DAC9A8C3E80E
:103EB000414D3239C4BFC2BCCFC2B5C42E62696E97
:103EC000CEC4BCFE203D3D3D3D3D0D0A000000003E
:103ED00020257300414D3239C4BFC2BCCFC2C3BB21
:103EE000D3D0D5D2B5BD2E62696ECEC4BCFEA3AC14
:103EF000C7EBCFC8B7C5C8EBCEC4BCFED4D9B2D9C6
:103F0000D7F70D0A000000004E6F2042494E206690
:103F1000696C657300000000666F756E6420696EE1
:103F200020414D32390000006469726563746F721C
:103F30007900000020202020202020202020202088
:103F400020202020000000003E2573000D0A3D3D8A
:103F50003D3D3D3D3D3D3D3D3D3D3D3D3D3D3D3D91
:103F60003D3D3D3D3D3D3D3D3D3D3D3D3D3D3D3D81
:103F70003D3D3D3D3D3D0D0A000000003D3D3D3DC8
:103F80003D20C7EBD1A1D4F1D2AAD0B4C8EBB5C4BF
:103F900042494ECEC4BCFE2028B9B22564B8F629E9
:103FA000203D3D3D3D3D0D0A000000003D3D3D3DB5
:103FB0003D3D3D3D3D3D3D3D3D3D3D3D3D3D3D3D31
:103FC0003D3D3D3D3D3D3D3D3D3D3D3D3D3D3D3D21
:103FD0003D3D3D3D0D0A00002564202D2025732028
:103FE00028256C7520D7D6BDDA290D0A00000000FF
:103FF000B5B1C7B0B5DA2025642F256420D2B30D42
:104000000A00000039202D20CFC2D2BBD2B30D0A46
:104010000000000030202D20C9CFD2BBD2B30D0A42
:104020000000000062202D20B7B5BBD8D6F7B2CB78
:10403000B5A50D0A00000000F8FE0008D2D1B7B502
:10404000BBD8D6F7B2CBB5A50D0A00005072657388
:104050007320616E79206B65790000002C230020AD
:104060000D0AC4FAD1A1D4F1C1CBCEC4BCFEA3BA0F
:1040700025730D0A0000000053656C656374656468
:104080003A000000257300000D0AD2D1B7B5BBD8A5
:10409000D6F7B2CBB5A50D0A0000000052657475C5
:1040A000726E20746F0000004D61696E204D656E68
:1040B000750000000D0AD2D1BEADCAC7D7EEBAF363
:1040C000D2BBD2B3C1CBA3A10D0A00000D0AD2D13D
:1040D000BEADCAC7B5DAD2BBD2B3C1CBA3A10D0A5C
:1040E000000000005072657373204F4B20746F0006
:1040F00073746172742077726974650050726573AD
:10410000732043616E63656C00000000746F206172
:10411000626F727400000000B0B44F4BBCFCBFAAC9
:10412000CABCD0B4C8EBA3ACB0B4C8A1CFFBBCFC34
:10413000C8A1CFFB2E2E2E0D0A00000002F0DEFFDC
:1041400028BB02F087FFA0B90023012242A91E4824
:1041500002F060FE28B99DF808010D2817D00A2842
:1041600015D0322000F0B4FA00F0C4FC001BA842C5
:10417000E4D316A006F018FF03F07CFC17A201217F
:10418000002009F079F918A201210846C2E5694624
:1041900018A006F009FF03F06DFC1FA2012100200A
:1041A00009F06AF96B46AFF224120121084609F0C2
:1041B00063F903F065FD6846FDF722FD002006F077
:1041C000C9FE4DB0BDE8F08F2C230020B2D9D7F73F
:1041D000D2D1C8A1CFFB0D0A000000004F7065725C
:1041E0006174696F6E00000043616E63656C6C659D
:1041F000640000000D0A3D3D3D3D3D20BFAACABC04
:10420000D0B4C8EBCEC4BCFE3A202573203D3D3D62
:104210003D3D0D0A0000000057726974696E672EFB
:104220002E2E000010B501242102034800F050FC9E
:1042300000B10024204610BD00080140014601489D
:1042400002F0FCB95022002010B5044802F008FA30
:10425000042801D0012010BD002010BD50220020F4
:1042600010B500F015F8012801D0012010BD074855
:1042700002F00FFA040006D14FF40061034802F087
:1042800071F800B10124204610BD0000502200202A
:1042900008B501208DF80000FFF7C4FF10B9002019
:1042A0008DF800009DF8000008BD000038B500241E
:1042B000009313460A460146034802F0A1FA00B1F2
:1042C0000124204638BD00005022002038B50024CB
:1042D000009313460A460146034802F081FB00B1F1
:1042E0000124204638BD000050220020FEE7704720
:1042F00072B6FEE7002200F001B8000030B50E4BA8
:10430000054601205C7A012C15D8587A00241C54EB
:10431000587A03EB800045605D7A03F108002A5467
:10432000587A421C5A72303008703A2048702F2058
:104330008870CC70002030BDC03E002010B5D1E99F
:10434000004344EA03230C89097B240444EA016105
:104350000B43102A03D0C16AC362002010BDC1689C
:10436000C360FAE710B5D1E9004344EA03230C899E
:10437000097B240444EA01610B43102A03D0816ABB
:104380008362002010BD81688360FAE770B5D1E9CF
:1043900001231A43D1E9033633431A434B690D68AD
:1043A00089690B4C42EA432242EA4131102D07D081
:1043B000026A2240114341F008010162002070BDF1
:1043C00002682240114341F008010160F6E7000055
:1043D0008101F0FF30B5B3F5804F05D06FF070412B
:1043E00040F82210002030BD8C690B688D68234393
:1043F0004C688989240144EA0524234343EA0141A6
:1044000050F82230014C23401943E9E70000F0CF77
:1044100010B50A6850F8223023F0010340F822302A
:104420008C68082C23D000234A682243CC681C43A4
:104430000B6922431A434B690E4C1A43CB691A434A
:104440000B6A1A434B6A1A438B6A1A43CB6A1A43A4
:104450000B6B1A438B6913434A6B09681A4350F874
:104460002130A343134340F82130002010BD4023E6
:10447000DAE700007FFF0F0030B5D1E9003443EAEE
:1044800004138C688D89240244EA054423430C8A72
:10449000074D00EB820005EB045423430C7D6D01B6
:1044A00005EB0464896923430B434360002030BD5E
:1044B0000000F0FF50F8212022F4805240F8212023
:1044C0000020704708B500208DF8000002F04EFE75
:1044D00020B126A006F068FD012008BD02F0D6FD3F
:1044E00020B126A006F060FD022008BD02F0EAFD22
:1044F00020B126A006F058FD032008BD02F01AFEE8
:1045000020B126A006F050FD042008BD02F0F6FD03
:1045100020B126A006F048FD052008BD02F09AFD56
:1045200020B127A006F040FD062008BD002301228F
:104530006946284802F06EFC08B1002008BD9DF8CD
:10454000000020385E280DD84FF0FF330122694665
:10455000204802F0B7FC9DF800000D2802D11EA0F3
:1045600006F022FD9DF8000008BD0000BCECB2E2A0
:10457000B5BDA3BAC9CFBCFC0D0A0000BCECB2E2C9
:10458000B5BDA3BACFC2BCFC0D0A0000BCECB2E2C0
:10459000B5BDA3BAD7F3BCFC0D0A0000BCECB2E277
:1045A000B5BDA3BAD3D2BCFC0D0A0000BCECB2E28C
:1045B000B5BDA3BAC8B7C8CFBCFC0D0A0000000047
:1045C000BCECB2E2B5BDA3BAC8A1CFFBBCFC0D0ADE
:1045D000000000002C2300200A00000038B5354CF4
:1045E00000208DF80000E07820B9A07803F0EEFB01
:1045F0000120E07002F0BAFD80B1A07803280DD947
:10460000012103F029FBA0780121401EC0B2A07057
:1046100003F022FBA17828A006F0C6FC02F036FDCC
:1046200080B1A07807280DD2012103F015FBA078F6
:104630000121401CC0B2A07003F00EFBA1781EA0A7
:1046400006F0B2FC02F05AFD90B1A078C01E052819
:104650002DD2DFE800F0030507090B00012038BD6B
:10466000022038BD032038BD042038BD052038BDE8
:10467000002301226946154802F0CCFBB8B99DF829
:104680000000A0F13101042911D82E38C5B2A0785C
:10469000854207D0012103F0DFFA2846A5700121E9
:1046A00003F0DAFA9DF800003038C0B238BD0020BF
:1046B00038BD0000000000200D0AB5B1C7B0D1A17F
:1046C000D4F1A3BAD0D02025640D0A002C230020F9
:1046D00070B5044600F00EFA0546601C02D004488E
:1046E0000078044400F006FA401BA042FAD370BDE3
:1046F0009C00002070B586B00026224800960196E6
:10470000029603960168002939D1012101601E48F3
:10471000416941F4807141614069022400F4807074
:1047200004904FF6FC70CDE900040325694603951B
:10473000164800F0D1F84FF23F00CDE90004694679
:104740000395134800F0C8F846F23F20CDE9000475
:10475000694603950F4800F0BFF84FF6B370CDE9F6
:1047600000040D4C69460395204600F0B5F8402042
:10477000CDE9000669462046029600F0ADF806B085
:1047800070BD00001C000020001002400018014015
:10479000001C014000200140001401402DE9F043BD
:1047A0000023454F0F2581E001229A400A407BD02B
:1047B00023F00304E619D6F808809C074FEA147C1E
:1047C00005FA0CF909EA0804DFF8F080404502D147
:1047D0004FF0000824E0DFF8E880404502D14FF0B8
:1047E00001081DE0DFF8DC80404502D14FF00208EF
:1047F00016E0DFF8D480404502D14FF003080FE007
:10480000DFF8C880404502D14FF0040808E0DFF827
:10481000C080404502D14FF0050801E04FF0060886
:1048200008FA0CF8A04522D12A4CD4F800C02CEA92
:10483000020CC4F800C0241DD4F800C02CEA020CFD
:10484000C4F800C0234C0C34D4F800C02CEA020C8D
:10485000C4F800C0241FD4F800C02CEA020CC4F82D
:1048600000C0D6F808C02CEA090CC6F808C0FF2A18
:1048700001D8064601E000F104064FEA830401D99D
:10488000A4F12004D6F800C005FA04F82CEA080CBC
:104890004FF0040808FA04F84CEA080CC6F800C007
:1048A000C46824EA0204C46003F1010331FA03F28C
:1048B0007FF47AAFBDE8F0830000014000080140BA
:1048C000000C01400010014000140140001801409C
:1048D000001C0140000401402DE9F84FDFF8C891A9
:1048E0000024A9F1040B23460F2709F1040AABF1B8
:1048F000040ED1E00125A54006EA0502AA4276D1C0
:10490000DFF8A8C14E68A6EB0C0866452BD00DDC7D
:10491000032E34D005DC36B3012E19D0022E2FD150
:104920001BE0112E16D0122E2AD119E0B8F5881FDF
:1049300019D006DCB8F5803F15D0B8F5801F1FD11F
:1049400011E0B8F5001F0ED0B8F5041F18D10AE029
:10495000CB6815E0CB681B1D12E0CB6808330FE075
:10496000CB680C330CE08B682BB1012B4FF00803A4
:1049700003D0456104E0042302E0056100E0002368
:10498000FF2A01D8064601E000F104064FEA84053B
:1049900001D9A5F12005D6F8008007FA05FC28EA20
:1049A0000C0803FA05F548EA0508C6F800804D68CA
:1049B000ED0070D53E4DAE6946F00106AE61AD69C1
:1049C00024F0030605F0010500953A4D06EB050CB1
:1049D000DCF80850A607360F07FA06F825EA08059E
:1049E000DFF8D480404503D14FF0000825E052E0C5
:1049F000DFF8C880404502D14FF001081DE0DFF824
:104A0000C080404502D14FF0020816E0DFF8B480C4
:104A1000404502D14FF003080FE0DFF8AC8040457D
:104A200002D14FF0040808E0DFF8A080404502D131
:104A30004FF0050801E04FF0060808FA06F848EACA
:104A40000508CCF808804D68D9F80060ED024D46A5
:104A500001D5164300E096432E604D68DAF80060F9
:104A6000AD02554601D5164300E096432E604D68D1
:104A7000DBF80060AD035D4601D5164300E09643C8
:104A80002E604D68DEF80060ED03754601D51643D3
:104A900000E096432E60641C0A681646E2407FF4EC
:104AA00029AFBDE8F88F0000080401400000111094
:104AB000001002400000014000080140000C0140CD
:104AC000001001400014014000180140001C01408A
:104AD0008068084000D001207047C26821EA0203C4
:104AE0000A4043EA0241016170470AB1016170471F
:104AF0000904FBE701488068704700009C00002023
:104B000001480078704700009C00002070B5040048
:104B100025D094F83D00002520B984F83C5020466B
:104B200000F0B8F8242084F83D002068016821F0E6
:104B3000010101602068016841F4004101602068C2
:104B4000016821F40041016001F076F84D4A616886
:104B5000914201D84C4900E04C49884201D20120E1
:104B600070BD4B492368B0FBF1F15E6826F03F064B
:104B70000E435E606368934206D94FF496735943BF
:104B80004FF47A73B1FBF3F12368491C1E6A26F0D7
:104B90003F06314319626168914210D84900401EB6
:104BA000B0FBF1F2521CC2F30B02042A01D2042022
:104BB00022E0B0FBF1F0401CC0F30B001CE0A26847
:104BC000F2B301EBC10303EB0116431EB3FBF6F393
:104BD0005B1C43F480431B0549D092B301EBC10237
:104BE00002EB0111401EB0FBF1F0401CC0F30B00C2
:104BF00040F4804040F400402168CA694CF6FF73DD
:104C00009A431043C861D4E9071001432068026841
:104C100022F0C00211430160D4E90301014320687E
:104C2000826848F2FF339A4311438160D4E9050159
:104C300008432168CA6822F0FF021043C86001E0FF
:104C40000EE016E02068016841F001010160256472
:104C5000202084F83D00256384F83E50002070BD7C
:104C600001EB4106431EB3FBF6F35B1CB3E70120E7
:104C7000C2E701EB4101401EB0FBF1F0401CC0F364
:104C80000B00B7E7A086010080841E0000093D00EC
:104C900040420F0010B586B00021009101910291B1
:104CA000039100680F4988421AD10F4CA06940F067
:104CB0000800A061A069694600F008000490C020C7
:104CC000009012200190032003900848FFF704FE93
:104CD000E06940F40010E061E06900F40010049025
:104CE00006B010BD0054004000100240000C01400E
:104CF0000248816802781144816070479C0000205E
:104D0000074810B5016841F010010160032000F070
:104D100055F90F2000F006F800F024F8002010BD2F
:104D20000020024070B50D4D04464FF47A7128788A
:104D3000B1FBF0F00A490968B1FBF0F001F0BAFFED
:104D400048B9102C07D200222146501E00F016F957
:104D500000206C6070BD012070BD00009C00002030
:104D6000AC0000200C4808B5816941F00101816167
:104D7000816901F001010091C16941F08051C16177
:104D8000C06900F0805000900448416821F0E06163
:104D900041F00071416008BD001002400000014078
:104DA00070B515460E46040003D094F8210010B1EA
:104DB00007E0012070BD002084F82000204600F0AC
:104DC00020F8211D2068FFF7E1FAD4E900023146FE
:104DD000FFF7C8FAD4E900022946FFF7AFFA606886
:104DE0001028206808D0016A41F004010162012006
:104DF00084F82100002070BD016841F004010160C9
:104E0000F5E7FFF777BC00002DE9F041174688462B
:104E100004004FF0000504D094F84100002618B1BA
:104E200007E00120BDE8F08184F84060204600F0F2
:104E300059F804F108012068FFF7EAFA4146A26830
:104E40002068FFF719FBD4E901023946236BFFF70D
:104E5000C1FAA168206850F8212042F0010240F810
:104E600021201F4A6169012011B3106084F84100BC
:104E7000A168F9B1022920D0042921D04FF0D840EF
:104E8000A36A03B31168982321B3012922D000F14A
:104E900055010B80BFF34F8F116801291DD01330CE
:104EA00000886064204600F01FF805462846B9E7F0
:104EB0001660DBE74FF0C040E2E74FF0C840DFE7A5
:104EC0004FF0D040DCE72068FFF7F4FA042084F8C4
:104ED0004100EBE700F1AA01DBE72630E0E7000044
:104EE000A8000020FFF706BC10B590F84120002371
:104EF000022A24D0042A01D0012A01D0012010BDA9
:104F000090F8401001291AD0012180F840100221A8
:104F100080F841108168A1B1022915D0042916D06A
:104F20004FF0D841446C022C14D0012C14D0012332
:104F300080F84120002180F84010184610BD022062
:104F400010BD4FF0C041EDE74FF0C841EAE74FF028
:104F5000D041E7E7F02400E0FF240C80BFF34F8F3F
:104F6000E6E7002809DB00F01F020121914040091B
:104F7000800000F1E020C0F800117047F0B40E4B43
:104F80001B680C46C3F30223C3F10705042D00D9A7
:104F90000425191D072901D2002300E0DB1E01268C
:104FA00006FA05F1491E214099409E40761E1640A2
:104FB0003143F0BC06F036B80CED00E0064900F0D5
:104FC000070208684FF6FF03184040EA0220034A30
:104FD00010430860704700000CED00E00000FA0587
:104FE00010B50C0607D501F0070101EB810100EBBC
:104FF000C100103005E001EB810100EBC10000F5BC
:10500000A87099B232B1012202730181190C418159
:10501000002010BD00220273C180F9E7704701EB48
:10502000810200EBC202D0F8D402526A04F029BE19
:1050300001EB810200EBC202D0F8D402D2F8642165
:1050400004F082BE70B504460B0601F0070000EBC9
:10505000800104EBC1014FF001024FF0000502D5C1
:105060004A74103103E081F8515101F5A8710870BC
:1050700094F89002012808D084F89022206805F066
:10508000BDFB84F89052002070BD022070BD70B549
:10509000044601F00F002279904201D9012070BD31
:1050A0000B0601F0070000EB800104EBC1014FF09B
:1050B00001024FF0000502D54A74103103E081F877
:1050C000515101F5A8718D70087094F89002012873
:1050D00008D084F89022206805F02DFC84F89052C6
:1050E000002070BD022070BD2DE9F05F04685FEA0A
:1050F000424C0B788D69B4F850C04FF000064BF667
:105100008F7948F2800A48F68F7B48F2C00E4FF440
:1051100080672AD54FF0020808EBC308C44407EBA8
:105120004C07E45BC4F30904A54203D32D1B8D6136
:1051300001D00BE08E61066836F8235005EA0905B8
:1051400085F4005545EA0A0526F82350520609D58C
:105150000D78036833F8252002EA0B0242EA0E02BA
:1051600023F8252084B30A8929E04FF0060808EBCC
:10517000C308C44407EB4C07E45BC4F30904A5422D
:1051800003D32D1B8D6101D00BE08E61066836F8CC
:10519000235005EA090585F4005545EA0A0526F875
:1051A0002350520609D40B78056835F8232002EA0B
:1051B0000B0242EA0E0225F823202CB14A894969E4
:1051C0000068234605F094FE2046BDE8F09F2DE9D7
:1051D000F05F054600680C465FEA426C16468B6934
:1051E0002278B0F850C048F68F774CF280094FF41F
:1051F000004B4FF6FF7E4FF4806A4FF0000172D5EE
:105200004FF0020808EBC208E0440AEB480C30F803
:105210000C00C0F30900834211D91B1AA3610FD0FF
:10522000730407D52E6836F822303B4043EA090361
:1052300026F8223094F82420012A47D052E1A161B7
:10524000607810B1012813D01AE02868B0F8503007
:10525000184400EB0210B0F80424C2F30902A0F8CD
:105260000424B0F8042442F40042A0F8042407E027
:105270002868B0F85030184400EB0210A0F804146D
:105280006278286812B1012A11D018E0B0F85010E5
:105290000844217800EB0110B0F80C14C1F30901A7
:1052A000A0F80C14B0F80C1441F4004105E0B0F87B
:1052B00050201044227800EB0210A0F80C14217842
:1052C0002846FFF7ACFE700472D40BE16269024419
:1052D0006261E2690244E2612369226A9A4203D36D
:1052E0001846111A04E03EE084F824100AB1104672
:1052F0002162617811B1012929D031E02968B1F822
:1053000050201144227801EB0211B1F80424C2F3B9
:105310000902A1F8042401F204413E2807D94209F8
:10532000C30600D1521E0B884BEA822207E048B127
:105330004208C30700D0521C0B880EEA8222134396
:105340000B800DE00A8842F400420A8008E02968D8
:10535000B1F850201144227801EB0211A1F80404A5
:1053600083B22289BAE04FF0060808EBC208E04495
:105370000AEB480C30F80C00C0F30900834211D34B
:105380001B1AA3610FD0730407D42E6836F822309D
:105390003B4043EA090326F8223094F82420012AEE
:1053A00051D09FE0A161607818B1012814D01BE0B2
:1053B0003FE02868B0F85030184400EB0210B0F815
:1053C0000424C2F30902A0F80424B0F8042442F42F
:1053D0000042A0F8042407E02868B0F850301844D0
:1053E00000EB0210A0F804146278286812B1012AB8
:1053F00011D018E0B0F850100844217800EB0110EB
:10540000B0F80C14C1F30901A0F80C14B0F80C1496
:1054100041F4004105E0B0F850201044227800EB40
:105420000210A0F80C1421782846FFF7F8FD70044C
:1054300058D42278296831F82200384040EA09001F
:1054400021F822004EE0626902446261E26902448E
:10545000E2612369226A9A4203D31846111A216233
:1054600004E00AB11046216284F8241062782968A9
:1054700012B1012A28D02FE0B1F85020114422782F
:1054800001EB0211B1F80C24C2F30902A1F80C24BB
:1054900001F20C413E2807D94209C30600D1521E31
:1054A0000B884BEA822207E048B14208C30700D0CC
:1054B000521C0B880EEA822213430B800CE00A88F0
:1054C00042F400420A8007E0B1F8502011442278EB
:1054D00001EB0211A1F80C04628983B261692868AA
:1054E00005F024FD2278296831F8220048F6BF73C0
:1054F000184080F0300048F28003184321F8220061
:105500000020BDE8F09F10B5044690F890020128F5
:105510000AD0012084F89002080607D501F007019F
:10552000206805F0D9FC04E0022010BD206805F0D9
:10553000D1FC002084F8900210BD01F0070101EBBE
:10554000810100EBC100D0F86C0170472DE9F041FA
:1055500004460F0601F0070000EB800104EBC101D7
:105560004FF001064FF0000502D54E74103103E0F4
:1055700081F8515101F5A871022B08700A61CB70B6
:1055800000D10D7194F89002012809D084F890623E
:10559000206804F0E3FF284684F89052BDE8F081CB
:1055A0000220FBE710B501F0070404EB840100EBD7
:1055B000C101C1E959230022C1F86C2181F85121B0
:1055C00081F85041006801F5A87105F009FA002042
:1055D00010BD70B504460D4601F0070021798842E0
:1055E00001D9012070BD29064FF000064FF00102DD
:1055F00006D500EB800104EBC1014A74103107E0CD
:1056000005EB850104EBC10181F8516101F5A87139
:105610008A70087094F89002012807D084F89022CC
:10562000206805F0C4F9680702D006E0022070BDCA
:1056300004F52671206805F07CF984F8906200205A
:1056400070BD10B501F0070404EB840100EBC1014B
:10565000C1E90923012281F834200B630023CB62C6
:105660004A7401F8104F006805F0BAF9002010BD27
:105670001FB50446006805F037FC010403D5204639
:1056800002F064FC1FBD41050DD5206830F8441FB1
:1056900021F480610180204600F000F900212046BD
:1056A00000F017F91FBD410405D5206830F8441FEC
:1056B00021F4804174E0810405D5206830F8441F4E
:1056C00021F400516CE0C10414D5206830F8401F6B
:1056D00021F004010180206830F8401F21F008010A
:1056E0000180204600F0EDF8206830F8441F21F4D6
:1056F000805155E0010540D5D4F8002000206946CE
:1057000032F8203021F81030401CC0B20828F7D3FE
:1057100032F8400F40F001001080206830F8402F30
:1057200022F0010202802068B0F844205205FBD527
:1057300030F8442F22F4806202800020236831F880
:10574000102023F82020401CC0B20828F6D320687F
:1057500030F8401F41F008010180206830F8441FF4
:1057600021F400610180206830F8401F41F00401FD
:105770000180204600F0E0F81FBD810509D52068B2
:1057800030F8441F21F400710180204600F09DF89C
:105790001FBDC005FCD5206830F8441F21F480717E
:1057A00001801FBD2DE9F041040004D094F891025E
:1057B000002518B107E00120BDE8F08184F890527F
:1057C000204600F04DF8032084F8910265712068AE
:1057D00005F0A8F894E80F0005F00EF8022698BB33
:1057E0000021206805F09AFB70BB002001270BE028
:1057F00000EB800104EBC1014F740874CD740D629D
:105800004D62401CC0B28D6221798142F0D80020E7
:1058100012E000BF00EB800104EBC10181F851519F
:1058200081F8500181F85351C1F86051C1F86451B9
:10583000401CC0B2C1F8685121798142EAD894E88D
:105840000F0005F066F810B184F89162B3E7657354
:1058500084F89172206805F05AF80020ACE7000047
:1058600008B500680B49884212D10B48C16941F460
:105870000001C161C069002200F4000000901146DF
:105880001420FFF77BFBBDE808401420FFF769BB3D
:1058900008BD0000005C00400010024070B50446E6
:1058A00080790125022801D0FEF722FD2946D4F88F
:1058B000D40204F031FBD4F8D402BDE8704004F007
:1058C000EDBAD0F8D40204F011BBD0F8D40204F041
:1058D00017BB10B5044690F8900201280AD00120A9
:1058E00084F890026173206805F01AFB002084F8A8
:1058F000900210BD022010BDD0F8D42200F5267110
:10590000104604F015BB10B5044690F8900201282B
:1059100010D0012084F89002206805F0D2FA01210D
:105920002046FFF77BFB206804F0EFFF002084F89F
:10593000900210BD022010BD10B50446D0F8D4026C
:1059400004F035FBA07A002804D00348016841F038
:105950000601016010BD000010ED00E001490120CA
:105960000862704700000E4210B501460020284C26
:1059700004292FD00BDC012930D0022929D100F0D5
:105980006BF96168C1F38131491C49001FE00829A6
:1059900020D010291DD161682268D20119D51D4877
:1059A000C1F38342C903805C0AD56168194AC1F317
:1059B0004041921E515C184AB2FBF1F1484301E0AC
:1059C000164948436168490203D440000321B0FBF3
:1059D000F1F010BDBDE8104000F04EB9226AC2F3EC
:1059E0000121012903D1920701D5C80310BD022965
:1059F00005D1626A920702D549F6404010BD0329DD
:105A0000FCD121688903F9D54FF2244010BD000074
:105A100000100240AEFB000800127A0000093D00B1
:105A20002DE9F84305460078354CC00754D0E069AD
:105A30000026C00008D4E06940F08050E061E069D1
:105A4000012600F0805000902E480168C90512D44C
:105A50000168804641F480710160FFF74BF807460A
:105A600005E000BFFFF746F8C01B642823D8D8F82C
:105A70000000C005F6D5206A10F4407021D0A98836
:105A800001F4407181421CD0206A1F49012220F498
:105A900040700A6000220A602062C00711D0FFF740
:105AA00029F8074641F2883808E000BFFFF722F8DE
:105AB000C11B414502D90320BDE8F883206A800755
:105AC000F4D5206A696820F44070084320621EB152
:105AD000E06920F08050E0612878800705D5606893
