:020000040800F2
:10000000D07E002049010008DB780008516E00080E
:10001000D9780008D9410008FBAC000800000000B6
:10002000000000000000000000000000B593000880
:10003000DB410008000000005B810008019400081B
:100040006301000863010008630100086301000800
:1000500063010008630100086301000863010008F0
:1000600063010008630100086301000863010008E0
:1000700063010008630100086301000863010008D0
:1000800063010008630100086301000863010008C0
:1000900085AC0008630100086301000863010008E3
:1000A00063010008630100086301000863010008A0
:1000B0006301000863010008630100086301000890
:1000C0006301000863010008630100086301000880
:1000D0006301000863010008630100086301000870
:1000E0006301000863010008630100086301000860
:1000F0006301000863010008630100086301000850
:10010000630100086301000863010008630100083F
:10011000630100086301000863010008630100082F
:10012000630100086301000863010008630100081F
:10013000DFF810D000F06CFB00480047BDCE00088F
:10014000AFF30080D07E0020064880470648004775
:10015000FEE7FEE7FEE7FEE7FEE7FEE7FEE7FEE777
:10016000FEE7FEE77D94000831010008202A04DB49
:10017000203A21FA02F00021704721FA02F3D04020
:10018000C2F120029140084319467047D2B201E003
:1001900000F8012B491EFBD270470022F6E710B58C
:1001A00013460A4604461946FFF7F0FF204610BDE5
:1001B00010B5044604E00B7800F8013B03B1491C7C
:1001C000521EF8D2204610BD421C10F8011B002917
:1001D000FBD1801A704710B5002200E0521C835CEE
:1001E0008C5CA34201D1002BF8D1D8B2E1B2401A05
:1001F00010BD0022CBB20178994200D10246401CCA
:100200000029F8D11046704770B506460AF000FE86
:10021000046805460A220021304600F0D1F82C601F
:1002200070BD80EA010210B502F00043400022D008
:100230004A001FD0010E01EB1261C0F35600C2F359
:10024000560240F4000042F40002A0FB0220000429
:100250007F39140400D0401C50EA124001D4400001
:10026000491EC2B20C0604EBD010401C4008802A84
:1002700002D003E0002010BD20F00100002900DAC8
:100280000020184310BD30B480EA010202F000459E
:1002900030F0004221F0004013D090B1C30DD40DD6
:1002A000C2F31601C0F31600E41A41F4000140F451
:1002B00000027D34914201D3641C00E04900002C0F
:1002C00002DA30BC002070474FF400000023914256
:1002D00001D3891A034340084FEA4101F7D151B1D4
:1002E000914202D14FF0004105E002D24FF00101EE
:1002F00001E06FF0010103EBC450284430BC00F072
:1003000097B896230022114600F09BB800F00042F7
:1003100030F000400AD0C10D01F56071C0F3160045
:1003200042EA0151C20840071143704700200146CC
:10033000704730B50B46014600202022012409E019
:1003400021FA02F59D4205D303FA02F5491B04FA8E
:1003500002F52844151EA2F10102F1DC30BD2DE9A1
:10036000F05F0546002092469B4688460646814639
:1003700040241BE02846414647462246FFF7F6FE4A
:1003800053465A46C01A914110D311461846224688
:1003900000F050FA2D1A67EB01084F462246012063
:1003A000002100F047FA17EB00094E41201EA4F18E
:1003B0000104DFDC484631462A464346BDE8F09F4B
:1003C0002DE9F04791460F4680460446002614F872
:1003D000015B2DB100F050FA0068405DC007F6D116
:1003E0002B2D02D02D2D18D0641E4A4639462046AA
:1003F00000F046FA27B13968A14201D1C7F8008060
:1004000071054FF002040BD54042002803DD0AF0CD
:10041000FFFC0460A007BDE8F08746F48066E4E7CF
:100420000028F8DA0AF0F4FC04606FF00040F2E70C
:100430000029A8BF7047401C490008BF20F00100F8
:10044000704710B4B0FA80FC00FA0CF050EA0104D6
:1004500004BF10BC704749B1CCF1200421FA04F468
:1004600011FA0CF118BF012121430843A3EB0C0141
:10047000CB1D4FEA00614FEA102042BF002010BCA4
:10048000704700EBC35010440029A4BF10BC704754
:10049000401C490008BF20F0010010BC70472DE946
:1004A000FE4F804681EA0300C00F0C46009021F009
:1004B000004123F00045B8EB0200A94105D24046B7
:1004C000214690461C460B46024623F0004010434E
:1004D00047D0270DC7F30A00C3F30A510290401A10
:1004E000019040286BDAC3F3130040F4801B00989E
:1004F000924620B10023D2EB030A63EB0B0B019869
:100500005946C0F14002504600F094F906460D46A7
:1005100050465946019A00F09CF910EB08006141E1
:10052000002487EA115284EAE7731A4340D0009A04
:1005300062B3019A012A4FEA075215DC001B61EBF6
:1005400002014FF0004202EA0752CDE90042001CCE
:1005500041F5801132462B4600F0F0F903B0BDE8BA
:10056000F08F40462146F9E7001B61EB0201001CB9
:1005700041F5801300185B412018A2F5001747EBE6
:10058000030140EAD570B6196D4111E06D084FEADC
:10059000360645EAC0754FEA0752001B61EB0201BF
:1005A000001C41F5801149084FEA30000019514103
:1005B00032462B4603B0BDE8F04F00F0B0B90098CA
:1005C000012240000023D0EB020263EBE0730098AD
:1005D00021464FEAE074B8EB000061EB0401E9E763
:1005E00083F000435BE781F0004158E72DE9FE4FBF
:1005F00081EA030404F0004421F0004100944FF02C
:10060000000B23F0004350EA01045ED052EA0304D9
:100610005BD0C3F30A54C1F30A552C44A4F2F3345B
:100620000194A0FB0254C1F3130141F48011C3F300
:10063000130343F4801301FB024400FB034E840ABE
:10064000970A44EA815447EA8357A4FB0768029556
:100650008D0A05FB07854FEA932C04FB0C542705F4
:10066000029D4FEA065847EA1637B5EB08056EEBD0
:10067000070C870E920E47EA811742EA8312A7FB06
:100680000201B6EB0B0164EB00042B0D43EA0C33C3
:100690005E1844EB1C50DA465146E7FB0201C5F3F5
:1006A00013044FEA0B3343EA14534FEA0432019C1C
:1006B00043EA0603A4F10C040294009CCDE900B4C3
:1006C00000F03CF903B0BDE8F08F00200146F9E7E7
:1006D0002DE9F04D81EA030404F0004B21F00045C0
:1006E00014464FF0000A23F0004150EA050220D0E2
:1006F00054EA01021DD0C5F30A570246C5F313039D
:10070000C1F31300C1F30A5640F4801543F480137B
:10071000A7EB0608101BD64608F2FD3873EB050060
:1007200002D308F1010801E092185B41B8F1000F13
:1007300003DA00200146BDE8F08D00204FF480115F
:10074000064684460EE0171B73EB050705D3121B04
:1007500063EB050306434CEA010C49084FEA3000FD
:1007600092185B4150EA0107EDD152EA030012D022
:1007700082EA040083EA0501084305D0101BAB415F
:1007800006D20122002306E000224FF0004302E0DF
:100790006FF0010253101AEB06004CEB085110EBFE
:1007A0000A0041EB0B01BDE8F04D00F0B8B8C1F311
:1007B0000A52C1F3130140F2FF3341F480119A420F
:1007C00002DA00200146704740F233439A42A2F217
:1007D000334202DC5242FFF7C9BC00F02BB80000E4
:1007E00030B5041E71F1000404DB4FF000444042B8
:1007F00064EB0101141E73F1000405DB1C464FF08D
:100800000043524263EB0403994208BF904230BD5B
:10081000064C074D06E0E06840F0010394E807004D
:1008200098471034AC42F6D3FFF786FC98FC0008DA
:10083000B8FC0008202A04DB203A00FA02F100206C
:1008400070479140C2F1200320FA03F3194390400E
:100850007047202A06DBCB17203A41FA02F043EA20
:10086000E07306E041FA02F3D040C2F12002914069
:10087000084319467047000000487047D8FA00083E
:100880002DE9F05F82460078002715468B460AF175
:100890000104B946302801D09DB113E014F8010BD2
:1008A0000127782803D0582801D045B10AE00DB1BE
:1008B000102D07D10027102514F8010B02E00825A0
:1008C00000E00A250026B0460EE005FB080005FB07
:1008D00006F1012701EB10461FFA80F8B6F5803FBC
:1008E00000D3B94614F8010B294600F075F800282A
:1008F000EBDABBF1000F05D00FB1641E00E05446E7
:10090000CBF80040B9F1000F06D00AF081FA0221BD
:100910000160C81EBDE8F09F48EA0640FAE710B53E
:10092000141E73F1000408DA401C41F10001921812
:100930005B411A4301D120F0010010BD2DE9F04DBB
:1009400092469B4611B1B1FA81F202E0B0FA80F210
:1009500020329046FFF76EFF04460F4640EA0A0039
:1009600041EA0B0153465A46084313D0114653EA55
:10097000010019D0C8F140025046FFF7F7FB0546C9
:100980000E46504659464246FFF754FF084305D0ED
:10099000012004E020463946BDE8F08D00200543E3
:1009A00046EAE0762C4337430A986305E40AA0EB55
:1009B00008000022FD0A44EA47540A3002D500200C
:1009C0000146E9E7010510196941DDE9084500190B
:1009D0006941BDE8F04DA2E73A2800D2303820F056
:1009E0002002412A01D3A2F13700884201D34FF0FF
:1009F000FF30704770B58C1810F8015B15F00703D5
:100A000001D110F8013B2A1106D110F8012B03E0A7
:100A100010F8016B01F8016B5B1EF9D12B0705D4AF
:100A20000023521E0DD401F8013BFAE710F8013BF8
:100A3000CB1A921C03E013F8015B01F8015B521E14
:100A4000F9D5A142D8D3002070BD00002DE9FC5F8C
:100A5000904641B1C2070AD0014658A00AF078F981
:100A60000220BDE8FC9F5FA00AF072F9F8E74A1C7B
:100A700056084FEA500911F0010700EB010202D0BD
:100A80000123934300E000230024A346A2460193E0
:100A9000B8F1000F06D00B46014659A0521E009631
:100AA0000AF056F900255DE009EB0500410001F16F
:100AB000C041002F0B883BD0711E8D4238D1019967
:100AC00039B1FF21B1EB132F4BD0641C012C1AD08C
:100AD0001EE0D94311F0FF0F43D0641C012C04D158
:100AE0004FF0C04101EB400B9A46B8F1000F38D0EF
:100AF0000A2C36D8D9B200914FF0C04101EB400228
:100B000021464EA011E04FF0C04101EB400B9A4648
:100B1000B8F1000F25D00A2C23D8190A00914FF004
:100B2000C04101EB4002214653A00AF011F918E040
:100B3000A3F57F41FF3914D0641C012C04D14FF080
:100B4000C04101EB400B9A46B8F1000F09D00A2CC6
:100B500007D84FF0C04101EB4002214655A00AF0F2
:100B6000F7F86D1CB5429FD3B8F1000F21D0002CCF
:100B70001BD021465CA00AF0EBF85246594662A011
:100B80000AF0E6F80A2C03D9214669A00AF0E0F839
:100B900071A00AF0DDF875A00AF0DAF880A00AF07A
:100BA000D7F88CA00AF0D4F804E096A00AF0D0F8A8
:100BB00002E00CB1012054E7002052E7BCECB2E99E
:100BC000CAA7B0DCA3BAC6F0CABCB5D8D6B73078CD
:100BD00025303858B2BBCAC7C5BCB6D4C6EB0D0A5F
:100BE00000000000BCECB2E9CAA7B0DCA3BABCECC0
:100BF000B2E9B3A4B6C8B2BBC4DCCEAA300D0A00B9
:100C0000D5FDD4DABCECB2E9D0BEC6ACC7F8D3F29D
:100C10003A2030782530386C58207E2030782530C6
:100C2000386C582028B9B2256C75D7D6BDDA2C207F
:100C3000256C75B0EBD7D6290D0A00002020B4ED45
:100C4000CEF32023256C753A20B5D8D6B730782559
:100C500030386C5820CAFDBEDD307825303458203D
:100C600028B5CDD7D6BDDA307825303258B7C73061
:100C7000784646290D0A00002020B4EDCEF320234B
:100C8000256C753A20B5D8D6B730782530386C58F1
:100C900020CAFDBEDD3078253034582028B8DFD793
:100CA000D6BDDA307825303258B7C7307846462975
:100CB0000D0A00002020B4EDCEF32023256C753AF8
:100CC00020B5D8D6B730782530386C5820CAFDBE4C
:100CD000DD3078253034582028D3A6CEAA30784687
:100CE000464646290D0A00000D0A3F3F2020BCEC75
:100CF000B2E9B7A2CFD620256C7520B8F6B7C7BF2A
:100D0000D5B0D7B5D8D6B7002028CAD7B8F6B4ED35
:100D1000CEF3A3BAB5D8D6B730782530386C582082
:100D2000CAFDBEDD307825303458290D0A00000098
:100D300020202028D6BBCFD4CABEC1CBC7B031300B
:100D4000B8F6B4EDCEF3A3ACB9B2256C75B8F6B471
:100D5000EDCEF3290D0A00000D0ABFC9C4DCB5C4ED
:100D6000D4ADD2F2A3BA0D0A000000002020312E2B
:100D700020D0BEC6ACC9D0CEB4B2C1B3FD202D20A8
:100D8000BDA8D2E9CFC8D6B4D0D0D5FBC6ACB2C1CD
:100D9000B3FDA3A8D1A1CFEE32A3A90D0A00000094
:100DA0002020322E20D0BEC6ACD2D1D3D0D3D0D0CA
:100DB000A7CAFDBEDD202D20D6B1BDD3D0B4C8EB6F
:100DC000BFC9C4DCB5BCD6C2CAFDBEDDCBF0BBB565
:100DD0000D0A00002020332E20D3B2BCFEC1ACBDD2
:100DE000D3CECACCE2202D20BCECB2E946534D4311
:100DF000C1ACBDD3BACDD0BEC6ACB9A9B5E70D0A5A
:100E0000000000003F20BCECB2E9CDA8B9FDA3BAB8
:100E1000D6B8B6A8C7F8D3F2C8ABB2BFCEAA30785E
:100E2000464646460D0A0000F8B504460122110266
:100E30000020FFF70BFE00287BD0002C79D062A0A9
:100E400009F086FF69A009F083FF06F047FD75A24F
:100E5000012100200CF0E4F9012175A208460CF0F4
:100E6000DFF976A2012102200CF0DAF976A2012145
:100E700003200CF0D5F978A2012104200CF0D0F960
:100E800079A2012105200CF0CBF97AA201210620DC
:100E90000CF0C6F97BA2012107200CF0C1F906F085
:100EA00023FE03F09DFD04464FF4FA75002742F23D
:100EB000107629E006F098F858B175A009F048FFBF
:100EC00006F00CFD7BA2012100200CF0A9F97DA207
:100ED00069E006F035F858B17CA009F039FF06F05A
:100EE000FDFC83A2012100200CF09AF984A242E0CB
:100EF0008DF80070002301226946844805F000FF48
:100F0000E0B1142003F05AFB03F06AFD001BB0426D
:100F1000D0D37FA009F01CFF06F0E0FC84A20121E1
:100F200000200CF07DF9012183A208460CF078F92D
:100F300000E02CE0012183A202201EE09DF80000C9
:100F400020385E2806D84FF0FF33012269466F48EB
:100F500005F02EFF9DF80000592819D0792817D0E8
:100F60007BA009F0F5FE06F0B9FC61A2012100208A
:100F70000CF056F980A2012108460CF051F981A22B
:100F8000012107200CF04CF906F0AEFD0220F8BD5F
:100F900080A009F0DDFE06F0A1FC46A201210020A0
:100FA0000CF03EF984A2012108460CF039F984A224
:100FB000012102200CF034F906F096FD284603F0DA
:100FC000FDFA0020F8BD00000D0ABEAFB8E6A3BAD6
:100FD000D0BEC6ACC6F0CABCC7F8D3F2B2BBCAC753
:100FE000BFD5B0D7B5C4A3A10D0A0000CAC7B7F1D9
:100FF000C7BFD6C6BCCCD0F8D0B4C8EBA3BF28B00E
:10100000B4205920BCFC20BBF2204F4BBCFC20BCC0
:10101000CCD0F8A3ACC6E4CBFBBCFCC8A1CFFB2969
:101020003A2000005741524E494E4721000000002F
:101030005374617274206172656100004E4F5420D8
:10104000626C616E6B210000466F72636520636F96
:101050006E74696E75653F00507265737320592018
:101060006F72204F4B000000746F20636F6E7469C5
:101070006E7565005072657373206F746865727366
:1010800000000000746F2063616E63656C000000F7
:101090000D0AD3C3BBA7B0B44F4BBCFCC8B7C8CF75
:1010A000A3ACC7BFD6C6BCCCD0F8D0B4C8EB2E2EEC
:1010B0002E0D0A00436F6E6669726D656420627959
:1010C000000000004F4B206B657900000D0AD3C370
:1010D000BBA7B0B4C8A1CFFBBCFCA3ACD0B4C8EBD9
:1010E000B2D9D7F7D2D1C8A1CFFB0D0A00000000BA
:1010F00043616E63656C6C6564206279000000007A
:1011000043414E43454C206B657900002C23002061
:101110000D0AB5C8B4FDB3ACCAB1A3ACD0B4C8EB2A
:10112000B2D9D7F7D2D1C8A1CFFB0D0A0000000079
:1011300054696D656F7574004F7065726174696F85
:101140006E00000043616E63656C6C6564000000B6
:101150000D0AD3C3BBA7CAE4C8EBC6E4CBFBD7D602
:10116000B7FBA3ACD0B4C8EBB2D9D7F7D2D1C8A1E2
:10117000CFFB0D0A000000006F74686572206B657C
:1011800079000000507265737320616E79206B6581
:10119000790000000D0AD3C3BBA7CAE4C8EB59C845
:1011A000B7C8CFA3ACC7BFD6C6BCCCD0F8D0B4C8E4
:1011B000EB2E2E2E0D0A0000275927206B65790093
:1011C000436F6E74696E75652E2E2E002DE9F04FFB
:1011D0004FF0000993B04C46CDF84090CDF84490C4
:1011E000CDF838904A4610A9F048CDF83C9004F06C
:1011F00096FE30B1EEA009F0ABFD052013B0BDE8BE
:10120000F08F002211A9E94804F062FE10A911A88C
:101210000CF0DEF801460690ECA009F099FD9DF86F
:1012200040009DF842209DF841108DE807009DF890
:1012300047109DF846309DF84520EEA001F5FA6173
:1012400009F086FD00264FF6FF7500F0CDFB18B1C2
:10125000142819D83C271FE0F4A009F079FD06F006
:101260003DFBF6A2012100200BF0DAFF0121F7A2DD
:1012700008460BF0D5FFFAA2012107200BF0D0FFA2
:1012800006F032FC6320B9E7A0F11501072955D813
:101290001438C0EB0010C700F548816941F0200107
:1012A000816180690AA900F02000009040204FF081
:1012B000010B81E8110802200D90EE4803F082FA3C
:1012C000A8464FF0C0450120A5F8008003F076F94C
:1012D000E949AA220A800AF0A3FBDFF8A0A355245B
:1012E000AAF800400AF09CFB802008800AF098FBD6
:1012F0000A800AF095FBAAF800400AF091FB102042
:1013000008800A2003F05AF94021DA4803F056FB1E
:101310000446DBA009F01CFD002C27D0DEA009F05C
:1013200017FD06F0DBFAC5A2012100200BF078FFC3
:101330000121E1A208460BF073FF2DE1E2A009F0C4
:1013400007FD06F0CBFABDA2012100200BF068FFDB
:101350000121E4A208460BF063FFC1A2012107208E
:101360000BF05EFF06F0C0FB622047E7E2A009F049
:10137000EFFCBE421ED93146E7A009F0E9FC06F0B9
:10138000ADFAAEA2012100200BF04AFF0121334645
:10139000E7A208460BF044FFB1A2012107200BF0A1
:1013A0003FFF06F0A1FBA5F80080012003F006F93D
:1013B000012023E74021AF4803F000FB0446012849
:1013C00019D000223146DDA009F0C2FC06F086FAF1
:1013D0003346E0A2012100200BF022FF012C0CD0AB
:1013E00000230121DEA208460BF01AFF06F07CFB69
:1013F000012C04D02FE00122E4E70123F1E7287853
:10140000CDF800B0C0F38011C0F3401AC0F3C0148F
:101410000A46059153462146D4A009F099FCD4B15F
:101420000598A8B1BAF1000F12D04FF0C0410A20C0
:10143000A1F8008003F0C2F800254FF400112C46FB
:101440000F46D5A009F084FCC246DFF874B30EE065
:10145000BAF1000F09D04FF47A7003F0AFF8012110
:10146000D84803F0B0FA761C83E70420C6E64FF0B4
:10147000C0404FEA440830F8082052450FD04FF4DE
:101480007A706D1CB5FBF0F100FB115038B94FF0CC
:10149000C04000EB44012B46CBA009F059FCB4FB43
:1014A000FBF10BFB114028BB0121C64803F08BFA6E
:1014B0007A0041462B46D1A009F04AFC06F00EFA0C
:1014C000D8A2012100200BF0ABFE4FF47A706043EC
:1014D000B0FBF7F080B20A22B0FBF2F1B0FBF2F3FE
:1014E00002FB110100910121D1A208460BF098FEE8
:1014F00006F0FAFA641CBC42B9D300220EA92B48AC
:1015000004F00DFD18B1CDA009F022FC27E0002267
:101510000FA9264804F0DCFC0EA90FA80BF058FF19
:1015200007460146CCA009F013FC9DF838009DF851
:101530003A209DF839108DE807009DF83F109DF87E
:101540003E309DF83D20CEA001F5FA6109F000FC87
:101550000698381A81460146D7A009F0F9FB2A46B9
:101560002146DCA009F0F4FBFDB12946E7A009F013
:10157000EFFB06F0B3F93346EFA2012100200BF098
:101580004FFE0121F0A208460BF04AFE2B466AA24C
:10159000012102200BF044FE31A2012107200BF0B3
:1015A0003FFE06F0A1FA022028E6D7E1E82100205C
:1015B000BBF1C8A1B2C1B3FDBFAACABCCAB1BCE4E9
:1015C000CAA7B0DCA3A10D0A00000000B2C1B3FDA0
:1015D000BFAACABCCAB1BCE4A3A8556E6978CAB197
:1015E000BCE4B4C1A3A9A3BA256C7520C3EB0D0A52
:1015F00000000000B2C1B3FDBFAACABCCAB1BCE4BE
:10160000A3A8B1BEB5D8A3A9A3BA253034642D25AB
:101610003032642D2530326420253032643A253052
:1016200032643A253032640D0A000000BBF1C8A1D3
:10163000C8DDC1BFCAA7B0DC0D0A000045726173E6
:1016400065204661696C656421000000476574206F
:1016500043464920436170204661696C00000000E8
:10166000507265737320616E79206B65790000009C
:101670000010024000140140AA0A006054050060F6
:10168000D5FDD4DABCECB2E9CAC7B7F1BDF8C8EBF6
:10169000B2C1B3FD0D0A000052592F4259232069EF
:1016A0007320312C20B2C1B3FDD7B4CCACBDF8C887
:1016B000EBCAA7B0DC0D0A0052592F425923206E05
:1016C0006F74203100000000D7EEB4F3D6A7B3D674
:1016D0003235364D4279746528533730474C3032B5
:1016E000290D0A004D617820737570706F72743A1D
:1016F0003235364D0000000052592F4259232069DF
:101700007320302C20B3C9B9A6BDF8C8EBB2C1B361
:10171000FDD7B4CCAC0D0A00B2C1B3FDB3ACCAB1B5
:10172000212028436F756E743A202575290D0A0013
:1017300054696D654F75743A25750000BCC6CAB111
:101740003A2564732C2052592F4259233A25640DAF
:101750000A00000045726173696E673A2564730080
:1017600052592F4259233A2564000000B2C1B3FDFB
:10177000D7B4CCAC3A2051373D25642C2051363DAE
:1017800025642C2051353D25642C2052592F425977
:10179000233D25640D0A0000BFAACABCC8ABD0BE59
:1017A000C6ACB2C1B3FDD1E9D6A4A3ACD7DCD0A3FB
:1017B000D1E9B0EBD7D6CAFDA3BA256C750D0A00E6
:1017C000A0860100000C0140D1E9D6A4D2ECB3A35D
:1017D000A3BAB5D8D6B730782530385820CAFDBE60
:1017E000DD307825303458207C20C0DBBCC6B4ED19
:1017F000CEF3CAFDA3BA256C750D0A00D1E9D6A4B3
:10180000BDF8B6C8A3BA256C752F256C7520207C51
:1018100020B5B1C7B0B4EDCEF3CAFDA3BA256C753F
:101820000D0A0000426C616E6B20436865636B00BB
:1018300025642E256420252500000000BBF1C8A1E9
:10184000B2C1B3FDBDE1CAF8CAB1BCE4CAA7B0DCFD
:10185000A3A10D0A00000000B2C1B3FDBDE1CAF8AA
:10186000CAB1BCE4A3A8556E6978CAB1BCE4B4C1DE
:10187000A3A9A3BA256C7520C3EB0D0A00000000D4
:10188000B2C1B3FDBDE1CAF8CAB1BCE4A3A8B1BE00
:10189000B5D8A3A9A3BA253034642D253032642DE0
:1018A0002530326420253032643A253032643A25BE
:1018B0003032640D0A000000414D3239D0BEC6AC52
:1018C000B2C1B3FDBAC4CAB1A3BA257520C3EB0D2A
:1018D0000A000000C8ABD0BEC6ACD1E9D6A4CDEAA0
:1018E000B3C9A3BAB9B2D0A3D1E92575B8F6B0EBA4
:1018F000D7D6207C20B7C7307846464646B5D8D6DE
:10190000B7CAFDA3BA25750D0A000000B2C1B3FD28
:10191000D1E9D6A4CAA7B0DCA3A1B9B2BCECB2E2AB
:10192000B5BD2575B8F6B5D8D6B7CEB4B2C1B3FD3E
:10193000B8C9BEBB0D0A00004572617365204661DF
:10194000696C6564000000004E6F74203078464674
:10195000464620436F756E743A0000000DA009F0F2
:10196000F7F905F0BBFF334615A2012100200BF06B
:1019700057FC01214B4616A208460BF051FCAFF272
:101980002032012107200BF04BFC06F0ADF80020BF
:1019900034E40000B2C1B3FDD1E9D6A4CDA8B9FDAD
:1019A000A3A1C8ABD0BEC6ACCBF9D3D0B5D8D6B7FF
:1019B000BEF9CEAA3078464646460D0A0000000021
:1019C000457261736520537563636573730000002E
:1019D00054696D653A25757300000000002802D037
:1019E000012101FA00F0704770B54FF0C0454FF685
:1019F000FF762E80012002F0E1FD9820A5F8AA00D4
:101A00000AF00EF8B5F84E400AF00AF82E800120D0
:101A100002F0D4FDFF2C04D0B4EB261001D0B44268
:101A200004D103A009F094F9002070BD204670BDD8
:101A3000D2ECB3A3C8DDC1BF0000000070B5150033
:101A40000C46064616D0002C14D04FF0C0414FF67D
:101A5000FF700880012002F0B1FD002308E0F018BB
:101A6000400000F1C040008825F813005B1C9BB2C9
:101A7000A342F4D370BD000070B54FF0C0444FF6E0
:101A8000FF762680012002F099FD0F49AA200880E8
:101A900009F0C6FF0D4A5520108009F0C1FF9020C3
:101AA000088009F0BDFF0A4D2088E8806088288101
:101AB000A08868812680012002F080FD2889E988BD
:101AC00040EA014070BD0000AA0A006054050060B1
:101AD000000000202DE9F14FADF5175DFEA042F2A8
:101AE0007C246C449A904FF482712046FEF755FB9B
:101AF0004FF00009CDE99B99CA46C8464D46CDF83E
:101B00007492CDF85C92CDF86492FFF76DFFC8B186
:101B10001C282AD905F0E2FEF0A2012100200BF0DA
:101B20007FFBF3A2012107200BF07AFB05F0DCFF1D
:101B3000F3A009F00DF962200DF2C45D0DF5005D12
:101B4000BDE8F08FF3A009F003F905F0C7FEF5A298
:101B5000012100200BF064FBE5A2012107200BF01E
:101B60005FFB05F0C1FF6320E6E7FFF737FF820A5E
:101B7000064601469346F0A009F0EAF80120FFF777
:101B800053F906AF022830D00DF50050D0F8C0054B
:101B9000002834D00DF50050D0F8C005FEF714FB36
:101BA00000282CD00DF50050ECA1D0F8C02520461F
:101BB00009F0DEF801220DF50E509A990AF004FBA7
:101BC00001002ED0E8A009F0C3F805F087FEF0A2CE
:101BD000012100200BF024FBC5A2012107200BF0FE
:101BE0001FFB05F081FF0220A6E738460AF0D0F877
:101BF000012200209A990AF0E7FA0A209CE7E8A05F
:101C000009F0A6F805F06AFEB4A2012100200BF04D
:101C100007FBB7A2012107200BF002FB05F064FFD0
:101C2000B7E00122214638460AF0FCFA04002BD026
:101C300002460DF50050D0F8C015E0A009F088F874
:101C400005F04CFEE7A2012100200BF0E9FA0DF5AA
:101C500000500121D0F8C035C2A208460BF0E0FACE
:101C60002346E4A2012102200BF0DAFAA0A201210E
:101C700007200BF0D5FA05F037FF012200209A99D2
:101C80000AF0A2FA032057E70DF50050899CD0F81E
:101C9000C0152246DAA009F05BF8B44232D93246C8
:101CA0002146E0A009F054F805F018FEEBA201214E
:101CB00000200BF0B5FA0121ECA208460BF0B0FAB7
:101CC0005B46EDA2012102200BF0AAFAECA2012151
:101CD00003200BF0A5FAA30AE7A2012104200BF0D0
:101CE0009FFA83A2012107200BF09AFA05F0FCFE6F
:101CF00038460AF04DF8012200209A990AF064FA59
:101D0000042019E7002C2BD0E0A009F021F84FF0B7
:101D1000C0414FF6FF700880012002F04FFC9E95F5
:101D2000E2A0959509F014F80DF51C7B00225946A8
:101D3000E84804F0F4F800282DD0E7A009F008F8EE
:101D400005F0CCFDEBA2012100200BF069FA68A29E
:101D5000012107200BF064FA05F0C6FE0520EBE632
:101D6000E8A008F0F5FF05F0B9FDECA20121002084
:101D70000BF056FA5EA2012107200BF051FA05F094
:101D8000B3FE38460AF004F8012200209A990AF0BE
:101D90001BFA0120D0E69DAE00223146CD4804F06A
:101DA00097F8594630460BF013FB01469490DFA09C
:101DB00008F0CEFF9DF870029DF872229DF8711216
:101DC0008DE807009DF877129DF876329DF8752210
:101DD000E0A001F5FA6108F0BBFFAB465FE200BF8F
:101DE000CDF854B295AB02229EA906A8CDF878B2E0
:101DF0000AF038FB010003D0E4A008F0A9FF48E096
:101E00009598002864D0BDF878024FEA5A0641BA86
:101E10004FF0C040E84A00EB4607AA20108009F0C6
:101E2000FFFDE64B5520188009F0FAFDA020108038
:101E300009F0F6FD700000F1C040018009F0F0FDEE
:101E40004FF47A7504E000BF09F0EAFD6D1E16D06C
:101E50004021DB4802F0B2FD0028F5D095998A4474
:101E60001FFA8AF0002801D0A245B7D1D54DCDF890
:101E700084B2CDF888B2A869002660B119E0324674
:101E80003946D1A008F064FF4FF0C0414FF6FF7013
:101E900008800520A9E20022A1A98E4804F03FF89D
:101EA000002816D002F09CFD4FF47A71B0FBF1F0DF
:101EB000A8610022A1A9874804F031F8002809D0C0
:101EC00002F08EFD4FF47A71B0FBF1F0A9698FE159
:101ED000E8E1F8E102E20000303A00004D617820CC
:101EE000537570706F72743A3235364D00000000D1
:101EF000507265737320616E79206B657900000004
:101F0000D7EEB4F3D6BBD6A7B3D6533730474C3051
:101F1000320D0A00BBF1C8A1C8DDC1BFCAA7B0DC41
:101F20000D0A00004765742073697A65206661694F
:101F30006C65642E00000000414D3239C8DDC1BF20
:101F40003A20256C752042797465732028256C75BC
:101F5000204B42797465290D0A000000303A2F4168
:101F60004D32392F25730000D0B4C8EBCAA7B0DCBE
:101F7000A3BA5446BFA8B9D2D4D8CAA7B0DCA3AC80
:101F8000B4EDCEF3C2EBA3BA25640D0A0000000045
:101F90005446204E4F542070726573656E74000075
:101FA000D0B4C8EBCAA7B0DCA3BACEC4BCFEC3FB96
:101FB000B2CECAFDCEAABFD50D0A0000D0B4C8EB80
:101FC000CAA7B0DCA3BAB4F2BFAACEC4BCFE2573C4
:101FD000CAA7B0DCA3ACB4EDCEF3C2EBA3BA2564C0
:101FE0000D0A00004661696C20746F206F70656E89
:101FF00000000000636F64653A2025640000000063
:10200000B4F2BFAACEC4BCFEB3C9B9A6A3BA2573A5
:10201000207C20B4F3D0A1A3BA257520D7D6BDDA91
:102020000D0A0000D0B4C8EBCAA7B0DCA3BACEC476
:10203000BCFEB4F3D0A1282575D7D6BDDA29B3AC40
:10204000B9FDD0BEC6ACD7EEB4F3C8DDC1BF2825FC
:1020500075D7D6BDDA290D0A0000000046696C6507
:10206000206F7665722073697A6500004368697035
:102070002073697A653A00002564204B4200000015
:1020800046696C652073697A653A0000D0BEC6ACBB
:10209000B3F5CABCBBAFA3A8BDF6B8B4CEBBD2BB28
:1020A000B4CEA3A92E2E2E0D0A000000BFAACABCD2
:1020B000D0B4C8EBCEC4BCFEB5BDD0BEC6ACA3A8E0
:1020C000CACAC5E4B4F3B6CBC4A3CABDA3A92E2E15
:1020D0002E0D0A00E8210020BBF1C8A1D0B4C8EB46
:1020E000BFAACABCCAB1BCE4CAA7B0DCA3A10D0A8E
:1020F0000000000047657420525443204661696C1B
:1021000065640000D0B4C8EBCAA7B0DCA3BACEC4E3
:10211000BCFECEAABFD50D0A0000000046696C6562
:102120002053697A6520304279746500D0B4C8EBD9
:10213000BFAACABCCAB1BCE4A3A8556E6978CAB12B
:10214000BCE4B4C1A3A9A3BA256C7520C3EB0D0AE6
:1021500000000000D0B4C8EBBFAACABCCAB1BCE43E
:10216000A3A8B1BEB5D8A3A9A3BA253034642D2540
:102170003032642D2530326420253032643A2530E7
:1021800032643A253032640D0A000000D0B4C8EB46
:10219000CAA7B0DCA3BAB6C1C8A1CEC4BCFECAFDF2
:1021A000BEDDCAA7B0DCA3ACB4EDCEF3C2EBA3BADC
:1021B00025640D0A00000000AA0A006054050060B2
:1021C0000014014000000020D0B4C8EBB3ACCAB189
:1021D000A3BAB5D8D6B73078253038582028B0EB18
:1021E000D7D6C6ABD2C6307825303658290D0A006E
:1021F000401AA390BAF1000F13D0A39888B12046DB
:10220000FEF77FF805465046FEF77BF82946FEF7B5
:102210003AF80546A398FEF774F82946FEF733F816
:1022200006463046FEF772F805460E462046FEF793
:1022300068F807465046FEF764F83946FEF723F87B
:10224000CA49FDF7EEFFFEF761F8A090CDE904560C
:10225000A39A0090CDE901120F4622465146C44888
:1022600008F076FD05F03AFBA098CDE90007C1A281
:10227000012100200AF0D4FF0121C2A20846A39B3D
:102280000AF0CEFFCDE90056C1A2012102200AF0DA
:10229000C7FF05F029FC0121C04802F094FBA245CC
:1022A000FFF49EADBEA008F053FD00273E464FF45C
:1022B00000519FA8FDF771FF002106A8CDF808B0D6
:1022C00009F08EFD86E0A2AF00223946BE4803F039
:1022D000FFFDA1A938460BF07BF8E9E5A2AF00228B
:1022E0003946B94803F0F4FDA1A938460BF070F85F
:1022F000ECE5A51B4FF40050854200D9054602AB22
:102300002A469FA906A80AF0ADF810B90298A8427B
:1023100008D02A463146AD48029B08F019FD4FF01F
:10232000060959E0002552E09FA86B1C415D9342CD
:1023300002D22844407800E0002040EA01227008E0
:10234000400000F1C0400388934210D008F1010022
:10235000804601464FF47A70B1FBF0FC00FB1C8014
:1023600028B9009106F1C041994808F0F1FC99485C
:102370007F1CB7FBF0F100FB117030BB601C410803
:102380008B460A464346394693A008F0E1FC05F027
:10239000A5FA4FF47A7107FB01F0B0FBFBF01FFACE
:1023A00080FB98A2012100200AF03AFF0A22BBFB21
:1023B000F2F1BBFBF2F302FB11B10091012194A2F7
:1023C00008460AF02DFF05F08FFBAD1CB61C029AE3
:1023D0009542A9D3A6428CD3424639468FA008F035
:1023E000B7FCB8F1000F02D00620814602E099A0A8
:1023F00008F0AEFC4FF0C0414FF6FF70088001209E
:1024000002F0DCF806A809F0C3FC012200209A992A
:1024100009F0DAFEB9F1000F2AD0B9F1060F7CD02D
:102420000DF50050D0F8C01590A008F091FC05F013
:1024300055FA94A2012100200AF0F2FE0DF5005099
:102440000121D0F8C03593A208460AF0E9FE4B46B8
:1024500093A201215FF002000AF0E2FEAFF2705297
:10246000012107200AF0DCFE05F03EFB48460AE4A5
:1024700097AD00222946544803F051FD18B18CA0B5
:1024800008F066FC28E099AC002221464E4803F093
:102490001FFD294620460AF09BFF044601468BA0FB
:1024A00008F056FC9DF85C029DF85E229DF85D12D6
:1024B0008DE807009DF867129DF866329DF8652249
:1024C0008CA001F5FA6108F043FC9498201A0146AB
:1024D0009B9096A008F03CFC0DF500505246D0F8B9
:1024E000C01599A008F034FC05F0F8F9A0A201216C
:1024F00000200AF095FE012122A208469B9B0AF0CB
:102500008FFE4FEA9A239EA2012102200AF088FE44
:10251000AFF224620121072000E005E00AF080FE0E
:1025200005F0E2FA00201AE40DF500504246D0F81A
:10253000C01596A008F00CFC05F0D0F9A0A201216E
:1025400000200AF06DFE0DF500500121D0F8C035D5
:1025500050A208460AF064FE9DA2012102200AF062
:102560005FFE012143469EA2032075E70000C8429A
:102570000CFC000857726974696E673A20252E3189
:10258000662525005573653A202575530000000027
:102590004573743A20252E3166530000000C01402B
:1025A000BFAACABCC8ABC1BFD6F0576F7264D1E92D
:1025B000D6A4A3A8CEC4BCFE5653D0BEC6ACA3A915
:1025C0002E2E2E0D0A000000E8210020C4FB00087A
:1025D00028FB0008A0860100D1E9D6A4BDF8B6C842
:1025E000A3BA256C752F256C7520576F7264732004
:1025F0007C20B5B1C7B0B4EDCEF3CAFDA3BA256C4B
:10260000750D0A005665726966696E673A200000AA
:1026100025642E256420252500000000C8ABC1BF1D
:10262000D1E9D6A4CDEAB3C9207C20D7DCD1E9D644
:10263000A4576F7264CAFDA3BA256C75207C20B2C2
:10264000BBD2BBD6C2576F7264CAFDA3BA256C75E4
:102650000D0A0000C8ABC1BFD6F0576F7264D0A39B
:10266000D1E9CDA8B9FDA3A10D0A0000CEC4BCFEDE
:102670002573D0B4C8EBD0BEC6ACCAA7B0DCA3A14A
:102680000D0A00005772697465204661696C6564C3
:102690000000000046696C653A20257300000000C8
:1026A0004572726F72436F64653A202575000000B1
:1026B000BBF1C8A1D0B4C8EBBDE1CAF8CAB1BCE453
:1026C000CAA7B0DCA3A10D0A00000000D0B4C8EB7B
:1026D000BDE1CAF8CAB1BCE4A3A8556E6978CAB115
:1026E000BCE4B4C1A3A9A3BA256C7520C3EB0D0A41
:1026F00000000000D0B4C8EBBDE1CAF8CAB1BCE428
:10270000A3A8B1BEB5D8A3A9A3BA253034642D259A
:102710003032642D2530326420253032643A253041
:1027200032643A253032640D0A000000414D3239DE
:10273000D0BEC6ACD0B4C8EBBAC4CAB1A3BA257572
:1027400020C3EB0D0A000000CEC4BCFE2573D0B43C
:10275000C8EBD0BEC6ACB3C9B9A6A3A1D7DCD0B470
:10276000C8EBD7D6BDDAA3BA25750D0A0000000064
:102770005772697465205375636365737300000055
:1027800053697A653A2025754B420000CEC4BCFEE1
:102790002573D0B4C8EBD0BEC6ACCAA7B0DCA3A129
:1027A000D1E9D6A4B7A2CFD620257520B8F6576FA9
:1027B0007264CAFDBEDDB2BBD2BBD6C20D0A000038
:1027C000566572696679204661696C65640000002F
:1027D0004572726F72436F75743A20257500000060
:1027E000257500002DE9F04FADF6E41DF3A00FF2C2
:1027F000D03BCDF8CC094FF482710DF5CB60FDF7DD
:10280000CCFC0024CDF898490127A246A146A04659
:10281000CDF8D449CDF8B849CDF8C449EBA0CDF8EE
:10282000C84908F095FAFFF7DFF8E0B11C2832D963
:10283000F1A008F08DFA05F051F8F6A20121002070
:102840000AF0EEFC0121F7A208460AF0E9FCFAA220
:10285000012107200AF0E4FC05F046F962200DF69C
:10286000E41DBDE8F08FF8A008F072FA05F036F824
:10287000E8A2012100200AF0D3FC0121F8A20846B9
:102880000AF0CEFCECA2012107200AF0C9FC05F0F9
:102890002BF96320E3E7FFF7A1F80546020D014697
:1028A000F4A008F055FAFBA008F052FA01220DF24C
:1028B0005C70DDF8CC1909F087FC010017D0F9A095
:1028C00008F046FA05F00AF8D2A2012100200AF029
:1028D000A7FC0121FAA208460AF0A2FCD6A2012117
:1028E00007200AF09DFC05F0FFF80220B7E75946E3
:1028F00003A809F06DFD002837D0F5A008F028FAEC
:10290000584609F0AFFB010022D0F9A008F020FAE8
:1029100004F0E4FFBFA2012100200AF081FC0121A4
:10292000FBA208460AF07CFCFEA2012102200AF06C
:1029300077FCC1A2012107200AF072FC05F0D4F84F
:1029400001220020DDF8CC1909F03EFC032086E7C7
:10295000F6A000BF08F0FCF9F9A008F0F9F9594613
:1029600003A809F035FD28B16AE003A809F025FAAB
:10297000FAA0EFE700260DF6A91700BF0DF51A61C2
:1029800003A809F035FE002851D19DF8A9090028B7
:102990004DD09DF8A809C006F0D43846FDF714FCC8
:1029A00002463946F2A008F0D3F93846FDF70CFC90
:1029B000C0B20C2801D0F5A00FE02E213846FDF75B
:1029C00018FC009040B1F7A1FDF705FC40B1F7A15C
:1029D0000098FDF700FC18B1F6A008F0B9F9CDE7B2
:1029E00000200DF51A610A18527A303A0A2A01D3EA
:1029F000F5A0F2E7401C0828F5DBCDF8D8A9CDF802
:102A0000DCA9082239460DF6D810CDF8E0A9FDF76B
:102A1000CFFB0DF6D810FDF7F7FB01460090F0A0B4
:102A200008F096F90098B042A8D90646A6E703A890
:102A300009F0C3F9771C3A463146EFA008F088F94F
:102A40003B465A46F7A10DF5CB6008F091F90DF51C
:102A5000CB61F8A008F07CF906220DF5CB610DF2F0
:102A60002C4009F0DFFB06002BD00146F6A008F051
:102A70006FF904F033FF67A2012100200AF0D0FBB8
:102A80000121F8A208460AF0CBFB0DF5CB63FAA2B0
:102A9000012102200AF0C4FB3346F8A201210320E1
:102AA0000AF0BEFB64A2012107200AF0B9FB05F081
:102AB0001BF801220020DDF8CC1909F085FB042069
:102AC000CDE64FF0C04B4FF6FF7AABF800A00120E7
:102AD00001F074FD00220DF6D411EA4803F01FFA4C
:102AE000F8B900220DF6B811E64803F0F1F90DF639
:102AF000D4110DF6B8100AF06BFC81469DF8D4098C
:102B00009DF8D6299DF8D5198DE807009DF8BB19C9
:102B10009DF8BA399DF8B929DBA001F5FA6108F0F2
:102B200017F9E5A008F014F92BE200BF04F50070D6
:102B30004FF40076A84200D92E1B730867080020C6
:102B40008BAA0DE03918490001F1C04109884FEA0C
:102B5000112C02F810C002EB400C401C8CF8011044
:102B60009842EFD30DF6981332468BA90DF22C4004
:102B700009F0C3FD070003D1DDF89809B0421BD06E
:102B80003946D3A008F0E4F804F0A8FE21A2012100
:102B900000200AF045FB0121D4A208460AF040FBC0
:102BA0000DF5CB63B4A2012102200AF039FB01210B
:102BB0003B46B2A20320A1E1B6E10000303A00009A
:102BC000303A2F414D323952000000000D0A3D3D90
:102BD0003D3D3D20BFAACABCB6C1C8A1414D323956
:102BE000D0BEC6ACC4DAC8DDB5BD5446BFA8203DD2
:102BF0003D3D3D3D0D0A0000D7EEB4F3D6BBD6A750
:102C0000B3D6533730474C3032203235364D0D0A6B
:102C10000000000052656164204661696C656421B2
:102C2000000000004D617820737570706F72743A07
:102C30003235364D00000000507265737320616EAE
:102C400079206B6579000000BBF1C8A1414D323994
:102C5000C8DDC1BFCAA7B0DCA3A10D0A00000000F7
:102C60004765742043464920436170204661696C82
:102C700000000000414D3239C8DDC1BF3A20256C4B
:102C8000752042797465732028256C75204D422982
:102C90000D0A0000B9D2D4D85446BFA82E2E2E0D4E
:102CA0000A0000005446BFA8B9D2D4D8CAA7B0DCE5
:102CB0002120B4EDCEF3C2EB3A2025640D0A0000CA
:102CC0005446204E4F5420466F756E64000000003D
:102CD000414D323952C4BFC2BCB2BBB4E6D4DAA350
:102CE000ACB3A2CAD4B4B4BDA82E2E2E0D0A0000D7
:102CF000B4B4BDA8414D323952C4BFC2BCCAA7B09A
:102D0000DC2120B4EDCEF3C2EB3A2025640D0A009D
:102D100043726561746520414D32395220446972B5
:102D2000000000004661696C65642100414D323944
:102D300052C4BFC2BCB4B4BDA8B3C9B9A60D0A0081
:102D4000C9A8C3E8414D323952C4BFC2BCD6D0B5C0
:102D5000C4CEC4BCFE2E2E2E0D0A0000414D3239C9
:102D600052C4BFC2BCD2D1B4E6D4DA0D0A0000000E
:102D7000B7A2CFD6CEC4BCFE3A202225732220288B
:102D8000B3A4B6C83A2564290D0A00002020B3A4D4
:102D9000B6C8B2BBCAC73132A3ACCCF8B9FD0D0A74
:102DA000000000002E62696E000000002E42494EB5
:102DB000000000002020C0A9D5B9C3FBB2BBCAC720
:102DC0002E62696E0D0A00002020C7B038D7D6B732
:102DD000FBB2BBCAC7C8ABCAFDD7D60D0A000000FC
:102DE0002020C6A5C5E4B3C9B9A63A20B1E0BAC54A
:102DF0003D256C750D0A0000D7EEB4F3CEC4BCFEC1
:102E0000B1E0BAC53A202530386C752C20CFC2D23B
:102E1000BBB8F6B1E0BAC53A202530386C750D0A5A
:102E20000000000025732F2530386C752E62696E06
:102E300000000000D7BCB1B8B4B4BDA8CEC4BCFE7D
:102E40003A2025730D0A0000B4B4BDA8CEC4BCFE60
:102E5000CAA7B0DC2120B4EDCEF3C2EB3A20256442
:102E60000D0A00004372656174652046696C652037
:102E70004661696C6564000025730000436F6465FA
:102E80003A256400E8210020B6C1C8A1BFAACABC87
:102E9000CAB1BCE4A3BA253034642D253032642D88
:102EA0002530326420253032643A253032643A25A8
:102EB0003032640D0A000000BFAACABCB6C1C8A166
:102EC000D0BEC6ACC4DAC8DD2E2E2E0D0A0000001E
:102ED000CEC4BCFED0B4C8EBCAA7B0DC2120B4ED90
:102EE000CEF3C2EB3A2025640D0A000046696C65FA
:102EF000207772697465206661696C000AF090F948
:102F0000AFF2CC22012107200AF08AF904F0ECFD8F
:102F10000DF22C4008F03CFF01220020DDF8CC1916
:102F200009F052F905209AE434442004000C01D041
:102F3000AC4226D12846FDF7E4F906462046FDF7C7
:102F4000E0F93146FDF79FF94349FDF76AF9FDF7CE
:102F5000DDF90F4606462A46214640A0CDE9006726
:102F600007F0F6FE04F0BAFC45A201210020CDE9ED
:102F700000670AF055F904F0B7FD0121444801F05B
:102F800022FDAC42FFF4D2AD00220DF6C41141483F
:102F900002F0C5FF18BB00220DF6C8113D4802F033
:102FA00097FF0DF6C411081D0AF012FAA0EB0908EC
:102FB0009DF8C4099DF8C6299DF8C5198DE807003C
:102FC0009DF8CB199DF8CA399DF8C92932A001F5A1
:102FD000FA6107F0BDFE41463BA007F0B9FE0DF2D5
:102FE0002C4008F0D5FE01220020DDF8CC1909F0B4
:102FF000EBF8ABF800A0012001F0E0FA0DF5CB6191
:1030000035A007F0A5FE21463EA007F0A1FE04F082
:1030100065FC41A2012100200AF002F9012143468A
:1030200041A208460AF0FCF80DF5CB63AFF2B812E6
:10303000012102200AF0F4F8A30A3DA20121032095
:103040000AF0EEF8AFF21042012107200AF0E8F88A
:1030500004F04AFD00201DE40000C842B6C1C8A12A
:10306000BDF8B6C8A3BA256C752F256C7520D7D6C8
:10307000BDDA2028252E31662525290D0A000000FD
:10308000526561643A20252E316625250000000036
:10309000000C0140E8210020B6C1C8A1BDE1CAF87A
:1030A000CAB1BCE4A3BA253034642D253032642D76
:1030B0002530326420253032643A253032643A2596
:1030C0003032640D0A000000D7DCBAC4CAB1A3BA1A
:1030D000257520C3EB0D0A000D0A3D3D3D3D3D2009
:1030E000B6C1C8A1CDEAB3C9A3A1CEC4BCFED2D19A
:1030F000B1A3B4E6CEAAA3BA2573203D3D3D3D3D24
:103100000D0A0000CEC4BCFEB4F3D0A1A3BA25754D
:1031100020D7D6BDDA0D0A0052656164205375636D
:1031200063657373210000002575205300000000C3
:1031300025754B42797465730000000010B53FA0FF
:1031400007F006FE49A007F003FE52A007F000FEBC
:1031500058A007F0FDFD04F0C1FB61A20121002091
:103160000AF05EF8012161A208460AF059F862A24D
:10317000012102200AF054F863A2012103200AF081
:103180004FF864A2012104200AF04AF865A2012147
:1031900005200AF045F866A2012106200AF040F851
:1031A00067A2012107200AF03BF804F09DFC67A00C
:1031B00007F0CEFD47F2305007F0A0FD59280ED0A1
:1031C00079280CD004280AD0052808D000281AD065
:1031D0006CA007F0BDFD04F081FB6EA219E070A0A9
:1031E00007F0B6FD04F07AFB75A2012100200AF079
:1031F00017F8012175A208460AF012F804F074FCD1
:10320000FDF7E4FF15E074A007F0A2FD04F066FBF3
:1032100078A2012100200AF003F8012177A20846D4
:1032200009F0FEFF78A20121072009F0F9FF04F060
:103230005BFCBDE81040002007F060BD0D0A3D3D7D
:103240003D3D3D3D3D3D3D3D3D3D3D3D3D3D3D3DAE
:103250003D3D3D3D3D3D3D3D3D3D3D3D3D3D3D3D9E
:103260003D3D3D3D3D3D0D0A000000002020202059
:10327000BEAFB8E6A3BABCB4BDABD6B4D0D0D5FB14
:10328000D0BEC6ACB2C1B3FDB2D9D7F7A3A10D0A67
:103290000000000020202020B2C1B3FDBAF3CBF91A
:1032A000D3D0CAFDBEDDBDABB6AACAA7A3A10D0A85
:1032B000000000003D3D3D3D3D3D3D3D3D3D3D3D32
:1032C0003D3D3D3D3D3D3D3D3D3D3D3D3D3D3D3D2E
:1032D0003D3D3D3D3D3D3D3D3D3D3D3D0D0A0000FB
:1032E0005741524E494E4721000000004368697023
:1032F0002045726173650000416C6C2064617461EB
:103300002077696C6C0000006265206C6F7374211B
:103310000000000050726573732052206F72204FBE
:103320004B000000746F20636F6E74696E756500EA
:103330005072657373206F746865727300000000CB
:10334000746F2063616E63656C000000C7EBCAE4B4
:10335000C8EB205920C8B7C8CFB2C1B3FDA3ACBBDE
:10336000F2B0B4D3D2BCFC2FC8B7C8CFBCFCBCCC25
:10337000D0F8A3ACC6E4CBFBBCFCC8A1CFFBA3BA7E
:103380000D0A00000D0AB2D9D7F7D2D1C8A1CFFBE0
:103390000D0A00004F7065726174696F6E00000065
:1033A0000D0AD3C3BBA7D2D1C8B7C8CFA3ACBFAA9D
:1033B000CABCB2C1B3FDD0BEC6AC2E2E2E0D0A00C3
:1033C00045726173696E672E2E2E0000506C656128
:1033D00073652077616974000D0AB5C8B4FDB3AC9C
:1033E000CAB1A3ACB2D9D7F7D2D1C8A1CFFB0D0ACD
:1033F0000000000054696D656F75740043616E6371
:10340000656C6C6564000000507265737320616EBA
:1034100079206B65790000002DE9F04186B0FEF758
:103420002BFB804601463CA007F092FCFEF7DCFA3D
:103430000646FEF7D3FA044631463CA007F088FC66
:103440002CB1A20A214641A007F082FC02E047A06D
:1034500007F07EFC00200290039002AA062104904F
:10346000FEF7ECFA46A007F073FC00250DF1080703
:1034700048A037F8151007F06BFC6D1C062DF7DB24
:103480003EA007F065FC04F029FA434643A201215F
:10349000002009F0C5FE0121334644A2084609F088
:1034A000BFFE234644A20121022009F0B9FEA30A6F
:1034B00044A20121032009F0B3FE45A2012104200A
:1034C00009F0AEFEBDF80C10BDF80A00CDE9000110
:1034D000BDF8083041A20121052009F0A1FEBDF888
:1034E0001210BDF81000CDE90001BDF80E303BA26E
:1034F0000121062009F094FE3DA20121072009F0D8
:103500008FFE04F0F1FA3EA007F022FC002007F045
:10351000F5FB06B0BDE8F081414D32392049443A0F
:10352000203078253038580D0A000000414D3239DE
:1035300020434649C8DDC1BFD4ADCABCD6B53A2088
:103540003078253034580D0A00000000414D3239E2
:10355000C8DDC1BF3A2025752042797465732028E3
:103560002575204B42797465290D0A00BBF1C8A16D
:10357000414D3239C8DDC1BFB4EDCEF30D0A0000B4
:10358000307830307E3078304220446174613A20A7
:10359000000000003078253034582000414D323989
:1035A0002049443A20307825303858004346493A7B
:1035B00020307825303458002575204279746573A1
:1035C000000000002575204B4279746573000000EF
:1035D000307830302D307830423A00003078253065
:1035E000345820253034582025303458000000004D
:1035F000507265737320616E79206B6579000000ED
:103600000D0AB2D9D7F7CDEAB3C9A3AC00000000C8
:103610002DE9F0410546ADF58D6D5AA75AA64FF438
:1036200002515B48FCF7B9FD5A4C0020002D207078
:1036300011D0287058A007F08BFB0122394688A8CA
:1036400008F0C2FD010008D05DA007F081FB63A077
:1036500007F07EFB25E06DA0FAE774A007F078FB89
:103660003146684608F0B4FE01001FD074A007F090
:103670006FFB304608F0F6FC010001D07CA009E0A9
:1036800083A007F065FB3146684608F0A1FE010003
:103690000CD088A007F05CFB01223946002008F01E
:1036A00093FD00200DF58D6DBDE8F0818AA007F037
:1036B0004FFB0DF25946207820284FD20DF58A6134
:1036C000684608F095FF002848D19DF85904002865
:1036D00044D09DF85804C006EDD42E213046FCF7A6
:1036E00088FD5FEA0008E6D08AA1FCF774FD28B1E6
:1036F0008AA14046FCF76FFD0028DCD13046FCF77C
:1037000063FDC1B200200DF58A620AE013185B7AEE
:103710007F2B04D9314683A007F01AFBCBE7401C6E
:10372000C0B28842F2D32078DFF8648000EB8011C9
:1037300008EB8100FF223146FCF73AFD2078DDF8E6
:10374000502400EB801108EB81017CA0C1F800211E
:1037500007F0FEFA2078401C2070ACE7684608F0BD
:103760002CFB01223946002008F02EFD217829701B
:1037700021B179A007F0ECFA054893E786A007F09D
:10378000E7FAF9E7303A0000303A2F414D3239007C
:1037900068010020000000205344494FCDE2C9E8F1
:1037A000B3F5CABCBBAFB3C9B9A6A3ACBFAACABC68
:1037B000B9D2D4D85446BFA82E2E2E0D0A00000030
:1037C0005446BFA8B9D2D4D8CAA7B0DC2120B4EDE2
:1037D000CEF3C2EB3A2025640D0A0000B4EDCEF31F
:1037E000D4ADD2F2A3BA313D5344494FC5E4D6C358
:1037F000B4EDCEF3207C20343D5446BFA8CBF0BBC3
:10380000B52FCEB4B2E5BAC30D0A0000B2CECAFDE0
:10381000B4EDCEF3A3BA66696C655F636F756E74C1
:10382000D6B8D5EBCEAABFD50D0A00005446BFA826
:10383000B9D2D4D8B3C9B9A6A3A10D0A000000001B
:10384000B4F2BFAA414D3239C4BFC2BCCAA7B0DC72
:103850002120B4EDCEF3C2EB3A202564A3ACB3A291
:10386000CAD4B4B4BDA8C4BFC2BC2E2E2E0D0A004B
:10387000B4B4BDA8414D3239C4BFC2BCCAA7B0DC84
:103880002120B4EDCEF3C2EB3A2025640D0A0000EE
:10389000414D3239C4BFC2BCB4B4BDA8B3C9B9A686
:1038A000A3ACD6D8D0C2B4F2BFAAC4BFC2BC2E2E1D
:1038B0002E0D0A00D6D8D0C2B4F2BFAA414D32397B
:1038C000C4BFC2BCCAA7B0DC2120B4EDCEF3C2EBAA
:1038D0003A2025640D0A00003D3D3D3D3D20414D0F
:1038E0003239C4BFC2BCCFC2B5C42E62696ECEC469
:1038F000BCFEC1D0B1EDA3A8C5C5B3FDD6D0CEC422
:10390000CEC4BCFEC3FBA3A9203D3D3D3D3D0D0AF9
:10391000000000002E62696E000000002E42494E39
:1039200000000000C5C5B3FDD6D0CEC4CEC4BCFED9
:10393000C3FB3A2025730D0A00000000CEC4BCFE74
:103940003A202573207C20B4F3D0A13A20256C7551
:1039500020D7D6BDDA0D0A003D3D3D3D3D20B9B230
:10396000D5D2B5BD20256420B8F6D3D0D0A7B5C434
:103970002E62696ECEC4BCFEA3A8D2D1C5C5B3FD6C
:10398000D6D0CEC4CEC4BCFEC3FBA3A9203D3D3DD2
:103990003D3D0D0A00000000414D3239C4BFC2BC9C
:1039A000CFC2CEB4D5D2B5BDD3D0D0A7B5C42E62C8
:1039B000696ECEC4BCFEA3A8CEDED6D0CEC4CEC423
:1039C000BCFEC3FBA3A90D0A000000002DE9F04FC7
:1039D000CDB000208DF8000182464FF4807168461A
:1039E000FCF7DBFB4FF00008E8A007F0B1F940A8B6
:1039F000FFF70EFE5FEA000934D09DF8000180B3A6
:103A0000C01DC008CDF804014FEACA60040E04F1DD
:103A10000800C6B29DF80001864200D90646301B58
:103A2000C7B24990B84501D34FF0000803F056FFE4
:103A30000025BD4229D2601900F0FF0B142144A8D3
:103A4000FCF7ABFB0BEB8B1109EB8101102244A8B7
:103A5000FCF7AEFB44ABD9A20121284609F0E0FBFC
:103A600018E0FFE7D6A007F073F903F037FFE1A2F3
:103A70000121002009F0D4FB0121E2A2084609F04F
:103A8000CFFB0121E3A20220BAE0E5A201212846F2
:103A900009F0C6FB6D1CEDB2082DCAD3B84518D28B
:103AA00004EB0800C5B2142144A8FCF776FB05EB33
:103AB000851109EB8101102244A8FCF779FB44AB86
:103AC000DCA20121404609F0ABFB0121404603F096
:103AD000F7FF04F009F8D8A007F03AF99DF80011B3
:103AE000E1A007F035F9ECA007F032F925460DE02A
:103AF000281B05EB8512401C09EB8202C1B2F1A024
:103B0000D2F8003107F024F96D1CEDB2B542EFD3C5
:103B1000EBA007F01DF9419801280BD902460AF1E4
:103B20000101EEA007F014F9F1A007F011F9F4A0DB
:103B300007F00EF9F6A007F00BF93946F94807F03F
:103B400007F900208DF80C016EE000BFB8F1000FFE
:103B500002D0A8F1010014E0BAF1000F3FF454AF15
:103B6000AAF1010000F0FF0A4FEACA60020E02F15A
:103B700008009DF80011C0B2884200D90846801A9A
:103B8000401EC0B21AE000BF03F0F6F958B14998E0
:103B9000C0B2401E804516DA08F10100F1E700BF0F
:103BA0000AF1010007E003F003FA48B1BAF1000F8F
:103BB000D4D0AAF1010000F0FF0A0020804623E7DC
:103BC00003F02EFA20B14198401E8245F7DAE7E76C
:103BD00003F00AFA78B104EB08009DF80011C0B2B6
:103BE0008842ECD200EB801109EB8101FF2268468C
:103BF000FCF7DEFA45E003F0A3F958B1CAA061E092
:103C000009F00EFBCCA20121072009F009FB03F00B
:103C10006BFF49E20023012243A9CB4803F070F86F
:103C200038B1142000F0CAFC03F016FA0028ABD01B
:103C30008CE79DF80C0120385E2806D84FF0FF3342
:103C4000012243A9C04803F0B3F89DF80C01A0F18C
:103C5000310107292CD83038C0B2B842AFD820443F
:103C6000401E9DF80011C0B28842A8D200EB80111E
:103C700009EB8101FF226846FCF79AFA90A007F051
:103C800067F86946B1A007F063F803F027FEB5A214
:103C90000121002009F0C4FA6C462046FCF794FA92
:103CA000C0B2102831D801212346B1A2084649E00C
:103CB000392812D0302819D0622802D042287FF447
:103CC0007EAFACA007F044F803F008FEAEA20121DD
:103CD000002009F0A5FAAFA2CCE14198401E824530
:103CE00002DA0AF1010006E0ADA00BE0BAF1000F24
:103CF00007D0AAF1010000F0FF0A4FF0000870A001
:103D000000E0ADA007F024F87EE6142143A8FCF7FC
:103D100044FA142148A8FCF740FA1022214643A88F
:103D2000FCF746FA102204F1100148A8FCF740FA0B
:103D3000012143AB8EA2084609F072FA48AB8CA26F
:103D40000121022009F06CFAA1A20121042009F04E
:103D500067FAA2A20121052009F062FAA2A20121BC
:103D6000062009F05DFAA4A20121072009F058FA03
:103D700003F0BAFEA3A006F0EBFF00208DF80801C7
:103D800000F02EFE044642F2107563E10D0A3D3D3F
:103D90003D3D3D20D5FDD4DAC9A8C3E8414D3239B7
:103DA000C4BFC2BCCFC2B5C42E62696ECEC4BCFE55
:103DB000203D3D3D3D3D0D0A0000000020257300E3
:103DC000414D3239C4BFC2BCCFC2C3BBD3D0D5D2A0
:103DD000B5BD2E62696ECEC4BCFEA3ACC7EBCFC826
:103DE000B7C5C8EBCEC4BCFED4D9B2D9D7F70D0A3B
:103DF000000000004E6F2042494E2066696C6573DA
:103E000000000000666F756E6420696E20414D32BF
:103E1000390000006469726563746F727900000094
:103E20002020202020202020202020202020202092
:103E3000000000003E2573000D0A3D3D3D3D3D3D27
:103E40003D3D3D3D3D3D3D3D3D3D3D3D3D3D3D3DA2
:103E50003D3D3D3D3D3D3D3D3D3D3D3D3D3D3D3D92
:103E60003D3D0D0A000000003D3D3D3D3D20C7EBBE
:103E7000D1A1D4F1D2AAD0B4C8EBB5C442494ECE38
:103E8000C4BCFE2028B9B22564B8F629203D3D3DCA
:103E90003D3D0D0A000000003D3D3D3D3D3D3D3DA9
:103EA0003D3D3D3D3D3D3D3D3D3D3D3D3D3D3D3D42
:103EB0003D3D3D3D3D3D3D3D3D3D3D3D3D3D3D3D32
:103EC0000D0A00002564202D2025732028256C75FF
:103ED00020D7D6BDDA290D0A00000000B5B1C7B061
:103EE000B5DA2025642F256420D2B30D0A00000026
:103EF00039202D20CFC2D2BBD2B30D0A0000000062
:103F000030202D20C9CFD2BBD2B30D0A0000000053
:103F100062202D20B7B5BBD8D6F7B2CBB5A50D0A18
:103F20000000000054FC0008D2D1B7B5BBD8D6F7CA
:103F3000B2CBB5A50D0A0000507265737320616E97
:103F400079206B65790000002C2300200D0AC4FA4B
:103F5000D1A1D4F1C1CBCEC4BCFEA3BA25730D0A46
:103F60000000000053656C65637465643A000000EE
:103F7000257300000D0AD2D1B7B5BBD8D6F7B2CBA6
:103F8000B5A50D0A0000000052657475726E2074AC
:103F90006F0000004D61696E204D656E7500000078
:103FA0000D0AD2D1BEADCAC7D7EEBAF3D2BBD2B3D7
:103FB000C1CBA3A10D0A00000D0AD2D1BEADCAC764
:103FC000B5DAD2BBD2B3C1CBA3A10D0A0000000069
:103FD0005072657373204F4B20746F00737461725D
:103FE0007420777269746500507265737320436141
:103FF0006E63656C00000000746F2061626F727404
:1040000000000000B0B44F4BBCFCBFAACABCD0B487
:10401000C8EBA3ACB0B4C8A1CFFBBCFCC8A1CFFB1C
:104020002E2E2E0D0A00000002F0DEFF28BB02F04B
:1040300087FFA0B90023012242A91E4802F060FEBA
:1040400028B99DF808010D2817D00A2815D032206C
:1040500000F0B4FA00F0C4FC001BA842E4D316A0A0
:1040600006F076FE03F03AFC17A20121002009F0C9
:10407000D7F818A201210846C2E5694618A006F043
:1040800067FE03F02BFC1FA20121002009F0C8F8F5
:104090006B46AFF224120121084609F0C1F803F083
:1040A00023FD6846FDF716FD002006F027FE4DB003
:1040B000BDE8F08F2C230020B2D9D7F7D2D1C8A108
:1040C000CFFB0D0A000000004F7065726174696FCC
:1040D0006E00000043616E63656C6C6564000000F7
:1040E0000D0A3D3D3D3D3D20BFAACABCD0B4C8EB42
:1040F000CEC4BCFE3A202573203D3D3D3D3D0D0A1A
:104100000000000057726974696E672E2E2E000041
:1041100010B501242102034800F050FC00B1002436
:10412000204610BD000801400146014802F0FCB9DC
:104130005022002010B5044802F008FA042801D0EB
:10414000012010BD002010BD5022002010B500F04D
:1041500015F8012801D0012010BD074802F00FFA20
:10416000040006D14FF40061034802F071F800B179
:104170000124204610BD00005022002008B5012077
:104180008DF80000FFF7C4FF10B900208DF8000083
:104190009DF8000008BD000038B5002400931346C8
:1041A0000A460146034802F0A1FA00B10124204664
:1041B00038BD00005022002038B50024009313467B
:1041C0000A460146034802F081FB00B10124204663
:1041D00038BD000050220020FEE7704772B6FEE7AF
:1041E000002200F001B8000030B50E4B054601205A
:1041F0005C7A012C15D8587A00241C54587A03EBA9
:10420000800045605D7A03F108002A54587A421C08
:104210005A72303008703A2048702F208870CC7065
:10422000002030BDC03E002010B5D1E9004344EA73
:1042300003230C89097B240444EA01610B43102AFF
:1042400003D0C16AC362002010BDC168C360FAE731
:1042500010B5D1E9004344EA03230C89097B240407
:1042600044EA01610B43102A03D0816A8362002073
:1042700010BD81688360FAE770B5D1E901231A4364
:10428000D1E9033633431A434B690D6889690B4CF6
:1042900042EA432242EA4131102D07D0026A22400D
:1042A000114341F008010162002070BD0268224004
:1042B000114341F008010160F6E700008101F0FFC1
:1042C00030B5B3F5804F05D06FF0704140F8221043
:1042D000002030BD8C690B688D6823434C68898948
:1042E000240144EA0524234343EA014150F82230E3
:1042F000014C23401943E9E70000F0CF10B50A68EC
:1043000050F8223023F0010340F822308C68082C4A
:1043100023D000234A682243CC681C430B69224304
:104320001A434B690E4C1A43CB691A430B6A1A4362
:104330004B6A1A438B6A1A43CB6A1A430B6B1A43B4
:104340008B6913434A6B09681A4350F82130A34321
:10435000134340F82130002010BD4023DAE700006D
:104360007FFF0F0030B5D1E9003443EA04138C68B5
:104370008D89240244EA054423430C8A074D00EB4F
:10438000820005EB045423430C7D6D0105EB0464AE
:10439000896923430B434360002030BD0000F0FFD8
:1043A00050F8212022F4805240F82120002070474C
:1043B00008B500208DF8000002F04EFE20B126A0C6
:1043C00006F0C6FC012008BD02F0D6FD20B126A0F3
:1043D00006F0BEFC022008BD02F0EAFD20B126A0D6
:1043E00006F0B6FC032008BD02F01AFE20B126A09C
:1043F00006F0AEFC042008BD02F0F6FD20B126A0B8
:1044000006F0A6FC052008BD02F09AFD20B127A009
:1044100006F09EFC062008BD0023012269462848BC
:1044200002F06EFC08B1002008BD9DF800002038A5
:104430005E280DD84FF0FF3301226946204802F074
:10444000B7FC9DF800000D2802D11EA006F080FCEC
:104450009DF8000008BD0000BCECB2E2B5BDA3BAF7
:10446000C9CFBCFC0D0A0000BCECB2E2B5BDA3BADA
:10447000CFC2BCFC0D0A0000BCECB2E2B5BDA3BAD1
:10448000D7F3BCFC0D0A0000BCECB2E2B5BDA3BA88
:10449000D3D2BCFC0D0A0000BCECB2E2B5BDA3BA9D
:1044A000C8B7C8CFBCFC0D0A00000000BCECB2E2EB
:1044B000B5BDA3BAC8A1CFFBBCFC0D0A000000002B
:1044C0002C2300200A00000038B5354C00208DF860
:1044D0000000A07820B9607803F0ACFB0120A07048
:1044E00002F0BAFD80B1607803280DD9012103F0F4
:1044F000E7FA60780121401EC0B2607003F0E0FA74
:10450000617828A006F024FC02F036FD80B16078C6
:1045100007280DD2012103F0D3FA60780121401C55
:10452000C0B2607003F0CCFA61781EA006F010FCF7
:1045300002F05AFD90B16078C01E05282DD2DFE848
:1045400000F0030507090B00012038BD022038BD2B
:10455000032038BD042038BD052038BD00230122CA
:104560006946154802F0CCFBB8B99DF80000A0F1EF
:104570003101042911D82E38C5B26078854207D0A0
:10458000012103F09DFA28466570012103F098FA95
:104590009DF800003038C0B238BD002038BD0000A2
:1045A000000000200D0AB5B1C7B0D1A1D4F1A3BA63
:1045B000D0D02025640D0A002C23002070B50446BD
:1045C00000F00EFA0546601C02D00448007804444E
:1045D00000F006FA401BA042FAD370BD9C000020F8
:1045E00070B586B000262248009601960296039682
:1045F0000168002939D1012101601E48416941F457
:10460000807141614069022400F4807004904FF68B
:10461000FC70CDE90004032569460395164800F0B7
:10462000D1F84FF23F00CDE90004694603951348E5
:1046300000F0C8F846F23F20CDE900046946039532
:104640000F4800F0BFF84FF6B370CDE900040D4CF1
:1046500069460395204600F0B5F84020CDE90006F4
:1046600069462046029600F0ADF806B070BD000025
:104670001C0000200010024000180140001C0140F6
:1046800000200140001401402DE9F0430023454F74
:104690000F2581E001229A400A407BD023F00304D9
:1046A000E619D6F808809C074FEA147C05FA0CF945
:1046B00009EA0804DFF8F080404502D14FF0000815
:1046C00024E0DFF8E880404502D14FF001081DE00A
:1046D000DFF8DC80404502D14FF0020816E0DFF839
:1046E000D480404502D14FF003080FE0DFF8C880C6
:1046F000404502D14FF0040808E0DFF8C080404593
:1047000002D14FF0050801E04FF0060808FA0CF856
:10471000A04522D12A4CD4F800C02CEA020CC4F8DF
:1047200000C0241DD4F800C02CEA020CC4F800C05C
:10473000234C0C34D4F800C02CEA020CC4F800C09E
:10474000241FD4F800C02CEA020CC4F800C0D6F82C
:1047500008C02CEA090CC6F808C0FF2A01D8064692
:1047600001E000F104064FEA830401D9A4F120041A
:10477000D6F800C005FA04F82CEA080C4FF004083B
:1047800008FA04F84CEA080CC6F800C0C46824EA29
:104790000204C46003F1010331FA03F27FF47AAF3B
:1047A000BDE8F0830000014000080140000C01401A
:1047B000001001400014014000180140001C01409D
:1047C000000401402DE9F84FDFF8C8910024A9F159
:1047D000040B23460F2709F1040AABF1040ED1E0C4
:1047E0000125A54006EA0502AA4276D1DFF8A8C154
:1047F0004E68A6EB0C0866452BD00DDC032E34D09A
:1048000005DC36B3012E19D0022E2FD11BE0112E5C
:1048100016D0122E2AD119E0B8F5881F19D006DC5F
:10482000B8F5803F15D0B8F5801F1FD111E0B8F55D
:10483000001F0ED0B8F5041F18D10AE0CB6815E0B0
:10484000CB681B1D12E0CB6808330FE0CB680C333C
:104850000CE08B682BB1012B4FF0080303D04561AE
:1048600004E0042302E0056100E00023FF2A01D8F0
:10487000064601E000F104064FEA840501D9A5F1DE
:104880002005D6F8008007FA05FC28EA0C0803FA90
:1048900005F548EA0508C6F800804D68ED0070D5BA
:1048A0003E4DAE6946F00106AE61AD6924F00306E7
:1048B00005F0010500953A4D06EB050CDCF80850B3
:1048C000A607360F07FA06F825EA0805DFF8D480B0
:1048D000404503D14FF0000825E052E0DFF8C880E2
:1048E000404502D14FF001081DE0DFF8C08040458F
:1048F00002D14FF0020816E0DFF8B480404502D143
:104900004FF003080FE0DFF8AC80404502D14FF0D4
:10491000040808E0DFF8A080404502D14FF0050808
:1049200001E04FF0060808FA06F848EA0508CCF856
:1049300008804D68D9F80060ED024D4601D5164358
:1049400000E096432E604D68DAF80060AD025546EF
:1049500001D5164300E096432E604D68DBF80060F9
:10496000AD035D4601D5164300E096432E604D68C9
:10497000DEF80060ED03754601D5164300E096436E
:104980002E60641C0A681646E2407FF429AFBDE839
:10499000F88F0000080401400000111000100240D0
:1049A0000000014000080140000C014000100140DF
:1049B0000014014000180140001C014080680840BC
:1049C00000D001207047C26821EA02030A4043EA8E
:1049D0000241016170470AB1016170470904FBE7B8
:1049E00001488068704700009C0000200148007862
:1049F000704700009C00002070B5040025D094F89A
:104A00003D00002520B984F83C50204600F0B8F85D
:104A1000242084F83D002068016821F00101016034
:104A20002068016841F4004101602068016821F4B8
:104A30000041016001F076F84D4A6168914201D869
:104A40004C4900E04C49884201D2012070BD4B49DD
:104A50002368B0FBF1F15E6826F03F060E435E600E
:104A60006368934206D94FF4967359434FF47A73AF
:104A7000B1FBF3F12368491C1E6A26F03F0631435F
:104A800019626168914210D84900401EB0FBF1F2F2
:104A9000521CC2F30B02042A01D2042022E0B0FB14
:104AA000F1F0401CC0F30B001CE0A268F2B301EB74
:104AB000C10303EB0116431EB3FBF6F35B1C43F487
:104AC00080431B0549D092B301EBC10202EB0111F7
:104AD000401EB0FBF1F0401CC0F30B0040F48040DE
:104AE00040F400402168CA694CF6FF739A431043B2
:104AF000C861D4E9071001432068026822F0C002AF
:104B000011430160D4E9030101432068826848F23F
:104B1000FF339A4311438160D4E9050108432168BA
:104B2000CA6822F0FF021043C86001E00EE016E000
:104B30002068016841F0010101602564202084F8AB
:104B40003D00256384F83E50002070BD01EB410616
:104B5000431EB3FBF6F35B1CB3E70120C2E701EB96
:104B60004101401EB0FBF1F0401CC0F30B00B7E761
:104B7000A086010080841E0000093D0040420F0015
:104B800010B586B000210091019102910391006857
:104B90000F4988421AD10F4CA06940F00800A0616B
:104BA000A069694600F008000490C020009012201F
:104BB0000190032003900848FFF704FEE06940F4E9
:104BC0000010E061E06900F40010049006B010BD30
:104BD0000054004000100240000C0140024881686F
:104BE00002781144816070479C000020074810B58E
:104BF000016841F010010160032000F055F90F2019
:104C000000F006F800F024F8002010BD002002405B
:104C100070B50D4D04464FF47A712878B1FBF0F071
:104C20000A490968B1FBF0F001F0BAFF48B9102C4D
:104C300007D200222146501E00F016F900206C60B9
:104C400070BD012070BD00009C000020AC00002061
:104C50000C4808B5816941F001018161816901F069
:104C600001010091C16941F08051C161C06900F04A
:104C7000805000900448416821F0E06141F00071EB
:104C8000416008BD001002400000014070B51546AB
:104C90000E46040003D094F8210010B107E0012073
:104CA00070BD002084F82000204600F020F8211D6F
:104CB0002068FFF7E1FAD4E900023146FFF7C8FAAD
:104CC000D4E900022946FFF7AFFA6068102820688F
:104CD00008D0016A41F004010162012084F821003A
:104CE000002070BD016841F004010160F5E7FFF7A5
:104CF00077BC00002DE9F0411746884604004FF0CC
:104D0000000504D094F84100002618B107E0012006
:104D1000BDE8F08184F84060204600F059F804F1C5
:104D200008012068FFF7EAFA4146A2682068FFF709
:104D300019FBD4E901023946236BFFF7C1FAA168D8
:104D4000206850F8212042F0010240F821201F4A3B
:104D50006169012011B3106084F84100A168F9B1C4
:104D6000022920D0042921D04FF0D840A36A03B3F0
:104D70001168982321B3012922D000F155010B803D
:104D8000BFF34F8F116801291DD013300088606474
:104D9000204600F01FF805462846B9E71660DBE715
:104DA0004FF0C040E2E74FF0C840DFE74FF0D0409F
:104DB000DCE72068FFF7F4FA042084F84100EBE711
:104DC00000F1AA01DBE72630E0E70000A8000020A0
:104DD000FFF706BC10B590F841200023022A24D02A
:104DE000042A01D0012A01D0012010BD90F8401002
:104DF00001291AD0012180F84010022180F84110C9
:104E00008168A1B1022915D0042916D04FF0D841EC
:104E1000446C022C14D0012C14D0012380F84120C2
:104E2000002180F84010184610BD022010BD4FF040
:104E3000C041EDE74FF0C841EAE74FF0D041E7E766
:104E4000F02400E0FF240C80BFF34F8FE6E700283A
:104E500009DB00F01F02012191404009800000F1B0
:104E6000E020C0F800117047F0B40E4B1B680C46F0
:104E7000C3F30223C3F10705042D00D90425191D2E
:104E8000072901D2002300E0DB1E012606FA05F106
:104E9000491E214099409E40761E16403143F0BC89
:104EA00005F094BF0CED00E0064900F00702086829
:104EB0004FF6FF03184040EA0220034A10430860FF
:104EC000704700000CED00E00000FA0510B50C067C
:104ED00007D501F0070101EB810100EBC1001030A3
:104EE00005E001EB810100EBC10000F5A87099B26B
:104EF00032B1012202730181190C4181002010BDE1
:104F000000220273C180F9E7704701EB810200EBD8
:104F1000C202D0F8D402526A04F087BD01EB8102CC
:104F200000EBC202D0F8D402D2F8642104F0E0BD54
:104F300070B504460B0601F0070000EB800104EB9E
:104F4000C1014FF001024FF0000502D54A74103143
:104F500003E081F8515101F5A871087094F89002AE
:104F6000012808D084F89022206805F01BFB84F803
:104F70009052002070BD022070BD70B5044601F053
:104F80000F002279904201D9012070BD0B0601F07B
:104F9000070000EB800104EBC1014FF001024FF06C
:104FA000000502D54A74103103E081F8515101F532
:104FB000A8718D70087094F89002012808D084F8C8
:104FC0009022206805F08BFB84F89052002070BD81
:104FD000022070BD2DE9F05F04685FEA424C0B7857
:104FE0008D69B4F850C04FF000064BF68F7948F247
:104FF000800A48F68F7B48F2C00E4FF480672AD5AE
:105000004FF0020808EBC308C44407EB4C07E45B0D
:10501000C4F30904A54203D32D1B8D6101D00BE01D
:105020008E61066836F8235005EA090585F40055B7
:1050300045EA0A0526F82350520609D50D7803687B
:1050400033F8252002EA0B0242EA0E0223F825205B
:1050500084B30A8929E04FF0060808EBC308C4446A
:1050600007EB4C07E45BC4F30904A54203D32D1BF3
:105070008D6101D00BE08E61066836F8235005EA99
:10508000090585F4005545EA0A0526F8235052061D
:1050900009D40B78056835F8232002EA0B0242EAAE
:1050A0000E0225F823202CB14A894969006823465D
:1050B00005F0F2FD2046BDE8F09F2DE9F05F0546C2
:1050C00000680C465FEA426C16468B692278B0F89D
:1050D00050C048F68F774CF280094FF4004B4FF6E2
:1050E000FF7E4FF4806A4FF0000172D54FF0020846
:1050F00008EBC208E0440AEB480C30F80C00C0F39F
:105100000900834211D91B1AA3610FD0730407D57C
:105110002E6836F822303B4043EA090326F8223055
:1051200094F82420012A47D052E1A161607810B19F
:10513000012813D01AE02868B0F85030184400EB6A
:105140000210B0F80424C2F30902A0F80424B0F855
:10515000042442F40042A0F8042407E02868B0F8D0
:105160005030184400EB0210A0F80414627828684C
:1051700012B1012A11D018E0B0F85010084421787B
:1051800000EB0110B0F80C14C1F30901A0F80C14E5
:10519000B0F80C1441F4004105E0B0F85020104480
:1051A000227800EB0210A0F80C1421782846FFF7B3
:1051B000ACFE700472D40BE1626902446261E26980
:1051C0000244E2612369226A9A4203D31846111A03
:1051D00004E03EE084F824100AB1104621626178B0
:1051E00011B1012929D031E02968B1F850201144CA
:1051F000227801EB0211B1F80424C2F30902A1F8EC
:10520000042401F204413E2807D94209C30600D113
:10521000521E0B884BEA822207E048B14208C307BE
:1052200000D0521C0B880EEA822213430B800DE043
:105230000A8842F400420A8008E02968B1F8502048
:105240001144227801EB0211A1F8040483B22289EF
:10525000BAE04FF0060808EBC208E0440AEB480C3D
:1052600030F80C00C0F30900834211D31B1AA3616C
:105270000FD0730407D42E6836F822303B4043EA3F
:10528000090326F8223094F82420012A51D09FE007
:10529000A161607818B1012814D01BE03FE02868B4
:1052A000B0F85030184400EB0210B0F80424C2F3F8
:1052B0000902A0F80424B0F8042442F40042A0F843
:1052C000042407E02868B0F85030184400EB0210BE
:1052D000A0F804146278286812B1012A11D018E0ED
:1052E000B0F850100844217800EB0110B0F80C140D
:1052F000C1F30901A0F80C14B0F80C1441F40041FA
:1053000005E0B0F850201044227800EB0210A0F81D
:105310000C1421782846FFF7F8FD700458D4227841
:10532000296831F82200384040EA090021F82200BB
:105330004EE0626902446261E2690244E26123690B
:10534000226A9A4203D31846111A216204E00AB174
:105350001046216284F824106278296812B1012A6B
:1053600028D02FE0B1F850201144227801EB02112F
:10537000B1F80C24C2F30902A1F80C2401F20C418B
:105380003E2807D94209C30600D1521E0B884BEABA
:10539000822207E048B14208C30700D0521C0B88A4
:1053A0000EEA822213430B800CE00A8842F400428A
:1053B0000A8007E0B1F850201144227801EB021175
:1053C000A1F80C04628983B26169286805F082FC47
:1053D0002278296831F8220048F6BF73184080F01F
:1053E000300048F28003184321F822000020BDE875
:1053F000F09F10B5044690F8900201280AD00120D1
:1054000084F89002080607D501F00701206805F02E
:1054100037FC04E0022010BD206805F02FFC0020BE
:1054200084F8900210BD01F0070101EB810100EB4F
:10543000C100D0F86C0170472DE9F04104460F0619
:1054400001F0070000EB800104EBC1014FF0010601
:105450004FF0000502D54E74103103E081F8515130
:1054600001F5A871022B08700A61CB7000D10D7193
:1054700094F89002012809D084F89062206804F022
:1054800041FF284684F89052BDE8F0810220FBE7F6
:1054900010B501F0070404EB840100EBC101C1E980
:1054A00059230022C1F86C2181F8512181F8504123
:1054B000006801F5A87105F067F9002010BD70B50E
:1054C00004460D4601F007002179884201D90120E8
:1054D00070BD29064FF000064FF0010206D500EB23
:1054E000800104EBC1014A74103107E005EB85012E
:1054F00004EBC10181F8516101F5A8718A7008704F
:1055000094F89002012807D084F89022206805F0D2
:1055100022F9680702D006E0022070BD04F526716A
:10552000206805F0DAF884F89062002070BD10B5AC
:1055300001F0070404EB840100EBC101C1E9092378
:10554000012281F834200B630023CB624A7401F8F6
:10555000104F006805F018F9002010BD1FB5044673
:10556000006805F095FB010403D5204602F022FCFB
:105570001FBD41050DD5206830F8441F21F480611E
:105580000180204600F000F90021204600F017F9C4
:105590001FBD410405D5206830F8441F21F4804127
:1055A00074E0810405D5206830F8441F21F40051CF
:1055B0006CE0C10414D5206830F8401F21F00401CC
:1055C0000180206830F8401F21F00801018020464A
:1055D00000F0EDF8206830F8441F21F4805155E0C8
:1055E000010540D5D4F800200020694632F820306B
:1055F00021F81030401CC0B20828F7D332F8400F11
:1056000040F001001080206830F8402F22F00102A5
:1056100002802068B0F844205205FBD530F8442FB2
:1056200022F4806202800020236831F8102023F8E1
:105630002020401CC0B20828F6D3206830F8401F54
:1056400041F008010180206830F8441F21F4006116
:105650000180206830F8401F41F00401018020469D
:1056600000F0E0F81FBD810509D5206830F8441F1F
:1056700021F400710180204600F09DF81FBDC00597
:10568000FCD5206830F8441F21F4807101801FBDD3
:105690002DE9F041040004D094F89102002518B1DE
:1056A00007E00120BDE8F08184F89052204600F028
:1056B0004DF8032084F891026571206805F006F822
:1056C00094E80F0004F06CFF022698BB00212068CC
:1056D00005F0F8FA70BB002001270BE000EB800119
:1056E00004EBC1014F740874CD740D624D62401C0F
:1056F000C0B28D6221798142F0D8002012E000BF53
:1057000000EB800104EBC10181F8515181F8500197
:1057100081F85351C1F86051C1F86451401CC0B2C6
:10572000C1F8685121798142EAD894E80F0004F069
:10573000C4FF10B184F89162B3E7657384F8917285
:10574000206804F0B8FF0020ACE7000008B500684E
:105750000B49884212D10B48C16941F40001C16173
:10576000C069002200F40000009011461420FFF7E9
:105770007BFBBDE808401420FFF769BB08BD0000B3
:10578000005C00400010024070B50446807901259D
:10579000022801D0FEF722FD2946D4F8D40204F0F5
:1057A0008FFAD4F8D402BDE8704004F04BBAD0F8B8
:1057B000D40204F06FBAD0F8D40204F075BA10B570
:1057C000044690F8900201280AD0012084F8900243
:1057D0006173206805F078FA002084F8900210BD0B
:1057E000022010BDD0F8D42200F52671104604F036
:1057F00073BA10B5044690F89002012810D0012029
:1058000084F89002206805F030FA01212046FFF765
:105810007BFB206804F04DFF002084F8900210BD4F
:10582000022010BD10B50446D0F8D40204F093FA5B
:10583000A07A002804D00348016841F00601016005
:1058400010BD000010ED00E0014901200862704722
:1058500000000E4210B501460020284C04292FD02C
:105860000BDC012930D0022929D100F06BF96168E5
:10587000C1F38131491C49001FE0082920D01029BB
:105880001DD161682268D20119D51D48C1F3834238
:10589000C903805C0AD56168194AC1F34041921E70
:1058A000515C184AB2FBF1F1484301E01649484304
:1058B0006168490203D440000321B0FBF1F010BD40
:1058C000BDE8104000F04EB9226AC2F3012101295F
:1058D00003D1920701D5C80310BD022905D1626A20
:1058E000920702D549F6404010BD0329FCD121683A
:1058F0008903F9D54FF2244010BD0000001002408A
:1059000056F9000800127A0000093D002DE9F8431D
:1059100005460078354CC00754D0E0690026C00029
:1059200008D4E06940F08050E061E069012600F0B1
:10593000805000902E480168C90512D40168804645
:1059400041F480710160FFF74BF8074605E000BFA6
:10595000FFF746F8C01B642823D8D8F80000C0051C
:10596000F6D5206A10F4407021D0A98801F4407166
:1059700081421CD0206A1F49012220F440700A6035
:1059800000220A602062C00711D0FFF729F80746FD
:1059900041F2883808E000BFFFF722F8C11B4145FB
:1059A00002D90320BDE8F883206A8007F4D5206A75
:1059B000696820F44070084320621EB1E06920F05D
:1059C0008050E0612878800705D56068A96820F4D8
:1059D0004040084360602878C00605D56068696962
:1059E00020F48000084360600020DBE700100240E4
:1059F00000700040400442422DE9F0470F46050088
:105A000061D0434E306800F00700B84209D23068D8
:105A100020F0070038433060306800F00700B842DB
:105A200051D128683B4C810712D5400703D56068E7
:105A300040F4E06060602878000703D5606840F4B7
:105A4000605060606068A96820F0F0000843606002
:105A50002878C00728D06868012810D0216802285B
:105A600010D0890700292EDA616821F00301014373
:105A70006160FEF7B5FF804641F288390DE021688C
:105A80008903EFE78901EDE7FEF7AAFFA0EB080124
:105A9000494502D90320BDE8F0876068696800F0D5
:105AA0000C00B0EB810FEFD1306800F00700B84276
:105AB0000BD9306820F0070038433060306800F0C0
:105AC0000700B84201D00120E5E72878400705D556
:105AD0006068E96820F4E0600843606028780007A7
