:020000040800F2
:10000000C87E002049010008CB830008B9780008A9
:10001000C9830008414C0008AFB800080000000088
:10002000000000000000000000000000A59E000885
:10003000434C0008000000004B8C0008B59F0008EE
:100040006301000863010008630100086301000800
:1000500063010008630100086301000863010008F0
:1000600063010008630100086301000863010008E0
:1000700063010008630100086301000863010008D0
:1000800063010008630100086301000863010008C0
:1000900039B8000863010008630100086301000823
:1000A00063010008630100086301000863010008A0
:1000B0006301000863010008630100086301000890
:1000C0006301000863010008630100086301000880
:1000D0006301000863010008630100086301000870
:1000E0006301000863010008630100086301000860
:1000F0006301000863010008630100086301000850
:10010000630100086301000863010008630100083F
:10011000630100086301000863010008630100082F
:10012000630100086301000863010008630100081F
:10013000DFF810D000F086FB004800478DDA000899
:10014000AFF30080C87E002006488047064800477D
:10015000FEE7FEE7FEE7FEE7FEE7FEE7FEE7FEE777
:10016000FEE7FEE731A00008310100082DE9F05F4D
:100170000546002092469B46884606468146402416
:100180001BE0284641464746224600F020F85346E9
:100190005A46C01A914110D311461846224600F023
:1001A0001BF92D1A67EB01084F462246012000215A
:1001B00000F012F917EB00094E41201EA4F10104D2
:1001C000DFDC484631462A464346BDE8F09F202AF8
:1001D00004DB203A21FA02F00021704721FA02F3F1
:1001E000D040C2F120029140084319467047D2B274
:1001F00001E000F8012B491EFBD270470022F6E710
:1002000010B513460A4604461946FFF7F0FF20468C
:1002100010BD10B5044604E00B7800F8013B03B1B3
:10022000491C521EF8D2204610BD421C10F8011B7A
:100230000029FBD1801A704710B5002200E0521C43
:10024000835C8C5CA34201D1002BF8D1D8B2E1B21F
:10025000401A10BD0022CBB20178994200D102466B
:10026000401C0029F8D11046704770B506460BF0C7
:10027000A9FB046805460A220021304600F0BBF8BD
:100280002C6070BD80EA010210B502F0004340000E
:1002900022D04A001FD0010E01EB1261C0F35600BC
:1002A000C2F3560240F4000042F40002A0FB022018
:1002B00000047F39140400D0401C50EA124001D4DD
:1002C0004000491EC2B20C0604EBD010401C40088E
:1002D000802A02D003E0002010BD20F00100002998
:1002E00000DA0020184310BD30B480EA010202F0A9
:1002F000004530F0004221F0004013D090B1C30D12
:10030000D40DC2F31601C0F31600E41A41F4000143
:1003100040F400027D34914201D3641C00E04900A6
:10032000002C02DA30BC002070474FF4000000239C
:10033000914201D3891A034340084FEA4101F7D1A2
:1003400051B1914202D14FF0004105E002D24FF08D
:10035000010101E06FF0010103EBC450284430BCFF
:1003600000F081B8420005D0C0F3C752524291421A
:1003700001DC0020704700EBC1507047962300223B
:10038000114600F079B800F0004230F000400AD089
:10039000C10D01F56071C0F3160042EA0151C208B7
:1003A00040071143704700200146704730B50B46A7
:1003B000014600202022012409E021FA02F59D4295
:1003C00005D303FA02F5491B04FA02F52844151E69
:1003D000A2F10102F1DC30BD202A04DB203A00FA50
:1003E00002F1002070479140C2F1200320FA03F38C
:1003F0001943904070472DE9F04791460F468046DB
:100400000446002614F8015B2DB100F03FFA0068A5
:10041000405DC007F6D12B2D02D02D2D18D0641EC3
:100420004A463946204600F035FA27B13968A142DC
:1004300001D1C7F8008071054FF002040BD540428E
:10044000002803DD0BF0BEFA0460A007BDE8F087CA
:1004500046F48066E4E70028F8DA0BF0B3FA0460AB
:100460006FF00040F2E70029A8BF7047401C490028
:1004700008BF20F00100704710B4B0FA80FC00FA09
:100480000CF050EA010404BF10BC704749B1CCF134
:10049000200421FA04F411FA0CF118BF01212143C0
:1004A0000843A3EB0C01CB1D4FEA00614FEA10207B
:1004B00042BF002010BC704700EBC350104400291D
:1004C000A4BF10BC7047401C490008BF20F00100C9
:1004D00010BC70472DE9FE4F804681EA0300C00F33
:1004E0000C46009021F0004123F00045B8EB0200DB
:1004F000A94105D24046214690461C460B4602467D
:1005000023F00040104347D0270DC7F30A00C3F380
:100510000A510290401A019040286BDAC3F313008D
:1005200040F4801B0098924620B10023D2EB030ACE
:1005300063EB0B0B01985946C0F140025046FFF7A0
:100540004BFF06460D4650465946019A00F08CF97D
:1005500010EB08006141002487EA115284EAE77336
:100560001A4340D0009A62B3019A012A4FEA075217
:1005700015DC001B61EB02014FF0004202EA07525A
:10058000CDE90042001C41F5801132462B4600F0B7
:10059000DFF903B0BDE8F08F40462146F9E7001BC4
:1005A00061EB0201001C41F5801300185B4120182B
:1005B000A2F5001747EB030140EAD570B6196D416B
:1005C00011E06D084FEA360645EAC0754FEA07525A
:1005D000001B61EB0201001C41F5801149084FEA44
:1005E00030000019514132462B4603B0BDE8F04FB0
:1005F00000F09FB90098012240000023D0EB0202D6
:1006000063EBE073009821464FEAE074B8EB00001A
:1006100061EB0401E9E783F000435BE781F000410F
:1006200058E72DE9FE4F81EA030404F0004421F06D
:10063000004100944FF0000B23F0004350EA010406
:100640005ED052EA03045BD0C3F30A54C1F30A55E7
:100650002C44A4F2F3340194A0FB0254C1F313011F
:1006600041F48011C3F3130343F4801301FB0244EC
:1006700000FB034E840A970A44EA815447EA8357F1
:10068000A4FB076802958D0A05FB07854FEA932CAA
:1006900004FB0C542705029D4FEA065847EA16371B
:1006A000B5EB08056EEB070C870E920E47EA811733
:1006B00042EA8312A7FB0201B6EB0B0164EB0004D4
:1006C0002B0D43EA0C335E1844EB1C50DA465146BE
:1006D000E7FB0201C5F313044FEA0B3343EA14535B
:1006E0004FEA0432019C43EA0603A4F10C0402948D
:1006F000009CCDE900B400F02BF903B0BDE8F08F09
:1007000000200146F9E72DE9F04D81EA030404F0E9
:10071000004B21F0004514464FF0000A23F0004141
:1007200050EA050220D054EA01021DD0C5F30A5751
:100730000246C5F31303C1F31300C1F30A5640F494
:10074000801543F48013A7EB0608101BD64608F269
:10075000FD3873EB050002D308F1010801E092189F
:100760005B41B8F1000F03DA00200146BDE8F08DCF
:1007700000204FF48011064684460EE0171B73EBF1
:10078000050705D3121B63EB050306434CEA010C76
:1007900049084FEA300092185B4150EA0107EDD159
:1007A00052EA030012D082EA040083EA05010843FA
:1007B00005D0101BAB4106D20122002306E0002227
:1007C0004FF0004302E06FF0010253101AEB0600F5
:1007D0004CEB085110EB0A0041EB0B01BDE8F04D6A
:1007E00000F0A7B8C1F30A52C1F3130140F2FF337E
:1007F00041F480119A4202DA00200146704740F22B
:1008000033439A42A2F2334202DC5242FFF7DFBC8A
:10081000FFF7E2BD30B5041E71F1000404DB4FF0B8
:100820000044404264EB0101141E73F1000405DB37
:100830001C464FF00043524263EB0403994208BF49
:10084000904230BD064C074D06E0E06840F00103E1
:1008500094E8070098471034AC42F6D3FFF76CFCDD
:10086000D8090108F8090108202A06DBCB17203A2D
:1008700041FA02F043EAE07306E041FA02F3D040A5
:10088000C2F1200291400843194670470048704762
:10089000AC0601082DE9F05F824600780027154676
:1008A0008B460AF10104B946302801D09DB113E00E
:1008B00014F8010B0127782803D0582801D045B13E
:1008C0000AE00DB1102D07D10027102514F8010BF7
:1008D00002E0082500E00A250026B0460EE005FBF0
:1008E000080005FB06F1012701EB10461FFA80F80E
:1008F000B6F5803F00D3B94614F8010B294600F045
:1009000075F80028EBDABBF1000F05D00FB1641EBB
:1009100000E05446CBF80040B9F1000F06D00BF0D0
:1009200051F802210160C81EBDE8F09F48EA064068
:10093000FAE710B5141E73F1000408DA401C41F107
:10094000000192185B411A4301D120F0010010BD53
:100950002DE9F04D92469B4611B1B1FA81F202E0C9
:10096000B0FA80F220329046FFF736FD04460F467B
:1009700040EA0A0041EA0B0153465A46084313D0A5
:10098000114653EA010019D0C8F140025046FFF762
:100990001EFC05460E46504659464246FFF71CFDD2
:1009A000084305D0012004E020463946BDE8F08D1B
:1009B0000020054346EAE0762C4337430A98630556
:1009C000E40AA0EB08000022FD0A44EA47540A307A
:1009D00002D500200146E9E7010510196941DDE96A
:1009E000084500196941BDE8F04DA2E73A2800D258
:1009F000303820F02002412A01D3A2F1370088428A
:100A000001D34FF0FF30704770B58C1810F8015BC0
:100A100015F0070301D110F8013B2A1106D110F897
:100A2000012B03E010F8016B01F8016B5B1EF9D19B
:100A30002B0705D40023521E0DD401F8013BFAE721
:100A400010F8013BCB1A921C03E013F8015B01F88C
:100A5000015B521EF9D5A142D8D3002070BD000021
:100A60002DE9FC5F904641B1C2070AD0014658A06B
:100A70000AF048FF0220BDE8FC9F5FA00AF042FF99
:100A8000F8E74A1C56084FEA500911F0010700EB3D
:100A9000010202D00123934300E000230024A34677
:100AA000A2460193B8F1000F06D00B46014659A0AB
:100AB000521E00960AF026FF00255DE009EB0500B6
:100AC000410001F1C041002F0B883BD0711E8D42C7
:100AD00038D1019939B1FF21B1EB132F4BD0641CF0
:100AE000012C1AD01EE0D94311F0FF0F43D0641C33
:100AF000012C04D14FF0C04101EB400B9A46B8F1F4
:100B0000000F38D00A2C36D8D9B200914FF0C0412E
:100B100001EB400221464EA011E04FF0C04101EB35
:100B2000400B9A46B8F1000F25D00A2C23D8190A99
:100B300000914FF0C04101EB4002214653A00AF062
:100B4000E1FE18E0A3F57F41FF3914D0641C012CAD
:100B500004D14FF0C04101EB400B9A46B8F1000FB1
:100B600009D00A2C07D84FF0C04101EB40022146C2
:100B700055A00AF0C7FE6D1CB5429FD3B8F1000F17
:100B800021D0002C1BD021465CA00AF0BBFE5246AF
:100B9000594662A00AF0B6FE0A2C03D9214669A084
:100BA0000AF0B0FE71A00AF0ADFE75A00AF0AAFE30
:100BB00080A00AF0A7FE8CA00AF0A4FE04E096A094
:100BC0000AF0A0FE02E00CB1012054E7002052E739
:100BD000BCECB2E9CAA7B0DCA3BAC6F0CABCB5D8AF
:100BE000D6B7307825303858B2BBCAC7C5BCB6D4E2
:100BF000C6EB0D0A00000000BCECB2E9CAA7B0DCED
:100C0000A3BABCECB2E9B3A4B6C8B2BBC4DCCEAAEA
:100C1000300D0A00D5FDD4DABCECB2E9D0BEC6ACCA
:100C2000C7F8D3F23A2030782530386C58207E202F
:100C300030782530386C582028B9B2256C75D7D655
:100C4000BDDA2C20256C75B0EBD7D6290D0A000033
:100C50002020B4EDCEF32023256C753A20B5D8D6EC
:100C6000B730782530386C5820CAFDBEDD30782585
:100C70003034582028B5CDD7D6BDDA30782530327B
:100C800058B7C730784646290D0A00002020B4ED39
:100C9000CEF32023256C753A20B5D8D6B730782509
:100CA00030386C5820CAFDBEDD30782530345820ED
:100CB00028B8DFD7D6BDDA307825303258B7C730FC
:100CC000784646290D0A00002020B4EDCEF32023FB
:100CD000256C753A20B5D8D6B730782530386C58A1
:100CE00020CAFDBEDD3078253034582028D3A6CE6A
:100CF000AA307846464646290D0A00000D0A3F3FB5
:100D00002020BCECB2E9B7A2CFD620256C7520B864
:100D1000F6B7C7BFD5B0D7B5D8D6B7002028CAD741
:100D2000B8F6B4EDCEF3A3BAB5D8D6B7307825303F
:100D3000386C5820CAFDBEDD307825303458290D76
:100D40000A00000020202028D6BBCFD4CABEC1CBC9
:100D5000C7B03130B8F6B4EDCEF3A3ACB9B2256C60
:100D600075B8F6B4EDCEF3290D0A00000D0ABFC91F
:100D7000C4DCB5C4D4ADD2F2A3BA0D0A00000000A1
:100D80002020312E20D0BEC6ACC9D0CEB4B2C1B363
:100D9000FD202D20BDA8D2E9CFC8D6B4D0D0D5FB38
:100DA000C6ACB2C1B3FDA3A8D1A1CFEE32A3A90DA9
:100DB0000A0000002020322E20D0BEC6ACD2D1D3F3
:100DC000D0D3D0D0A7CAFDBEDD202D20D6B1BDD353
:100DD000D0B4C8EBBFC9C4DCB5BCD6C2CAFDBEDD49
:100DE000CBF0BBB50D0A00002020332E20D3B2BCBF
:100DF000FEC1ACBDD3CECACCE2202D20BCECB2E902
:100E000046534D43C1ACBDD3BACDD0BEC6ACB9A9D3
:100E1000B5E70D0A000000003F20BCECB2E9CDA808
:100E2000B9FDA3BAD6B8B6A8C7F8D3F2C8ABB2BF5B
:100E3000CEAA3078464646460D0A0000F8B504466C
:100E4000012211020020FFF70BFE00287BD0002CAE
:100E500079D062A00AF056FD69A00AF053FD07F0B0
:100E6000B5FA75A2012100200CF0C4FF012175A282
:100E700008460CF0BFFF76A2012102200CF0BAFF59
:100E800076A2012103200CF0B5FF78A201210420F5
:100E90000CF0B0FF79A2012105200CF0ABFF7AA283
:100EA000012106200CF0A6FF7BA2012107200CF0F7
:100EB000A1FF07F091FB04F0C7FA04464FF4FA755E
:100EC000002742F2107629E006F0C2FD58B175A065
:100ED0000AF018FD07F07AFA7BA2012100200CF03D
:100EE00089FF7DA269E006F05FFD58B17CA00AF0A1
:100EF00009FD07F06BFA83A2012100200CF07AFFB4
:100F000084A242E08DF800700023012269468448E3
:100F100006F02AFCE0B1142004F084F804F094FAFE
:100F2000001BB042D0D37FA00AF0ECFC07F04EFAD1
:100F300084A2012100200CF05DFF012183A208465C
:100F40000CF058FF00E02CE0012183A202201EE0FB
:100F50009DF8000020385E2806D84FF0FF330122AC
:100F600069466F4806F058FC9DF80000592819D0D2
:100F7000792817D07BA00AF0C5FC07F027FA61A2F8
:100F8000012100200CF036FF80A2012108460CF060
:100F900031FF81A2012107200CF02CFF07F01CFB80
:100FA0000220F8BD80A00AF0ADFC07F00FFA46A2BF
:100FB000012100200CF01EFF84A2012108460CF044
:100FC00019FF84A2012102200CF014FF07F004FB9A
:100FD000284604F027F80020F8BD00000D0ABEAF37
:100FE000B8E6A3BAD0BEC6ACC6F0CABCC7F8D3F246
:100FF000B2BBCAC7BFD5B0D7B5C4A3A10D0A000004
:10100000CAC7B7F1C7BFD6C6BCCCD0F8D0B4C8EBFE
:10101000A3BF28B0B4205920BCFC20BBF2204F4B0A
:10102000BCFC20BCCCD0F8A3ACC6E4CBFBBCFCC859
:10103000A1CFFB293A2000005741524E494E47218B
:1010400000000000537461727420617265610000D9
:101050004E4F5420626C616E6B210000466F7263CC
:101060006520636F6E74696E75653F0050726573BD
:10107000732059206F72204F4B000000746F206363
:101080006F6E74696E7565005072657373206F744E
:101090006865727300000000746F2063616E6365A1
:1010A0006C0000000D0AD3C3BBA7B0B44F4BBCFC0F
:1010B000C8B7C8CFA3ACC7BFD6C6BCCCD0F8D0B4D5
:1010C000C8EB2E2E2E0D0A00436F6E6669726D6599
:1010D00064206279000000004F4B206B65790000AE
:1010E0000D0AD3C3BBA7B0B4C8A1CFFBBCFCA3AC53
:1010F000D0B4C8EBB2D9D7F7D2D1C8A1CFFB0D0A73
:101100000000000043616E63656C6C656420627969
:101110000000000043414E43454C206B65790000C0
:10112000282300200D0AB5C8B4FDB3ACCAB1A3ACE6
:10113000D0B4C8EBB2D9D7F7D2D1C8A1CFFB0D0A32
:101140000000000054696D656F7574004F70657222
:101150006174696F6E00000043616E63656C6C655D
:10116000640000000D0AD3C3BBA7CAE4C8EBC6E401
:10117000CBFBD7D6B7FBA3ACD0B4C8EBB2D9D7F76B
:10118000D2D1C8A1CFFB0D0A000000006F746865C2
:1011900072206B6579000000507265737320616E78
:1011A00079206B65790000000D0AD3C3BBA7CAE4A0
:1011B000C8EB59C8B7C8CFA3ACC7BFD6C6BCCCD044
:1011C000F8D0B4C8EB2E2E2E0D0A00002759272088
:1011D0006B657900436F6E74696E75652E2E2E00F7
:1011E00070B515000C46064615D0002C13D04FF0F4
:1011F000C041F0200880012003F014FF002308E024
:10120000F018400000F1C040008825F813005B1C76
:101210009BB2A342F4D370BD2DE9F04F97B008F014
:101220009BFE00201590139014901190024612908E
:1012300013A9F24805F0A7FB30B1F1A00AF062FB58
:10124000052017B0BDE8F08F002214A9EB4805F087
:1012500073FB13A914A80CF0A5FE01460A90EFA099
:101260000AF050FB0027169701F0A6F820B11428C9
:101270001AD84FF496711FE0F2A00AF043FB07F072
:10128000A5F8F4A2012100200CF0B4FD0121F5A283
:1012900008460CF0AFFDF8A2012107200CF0AAFDD2
:1012A00007F09AF96320CCE7A0F1150107292FD8A0
:1012B000491C4FF496725143894601F077F8860E27
:1012C0003ED0022E00D302264FEA500A010D5346AB
:1012D0003246EDA00AF016FB0020054604460890B1
:1012E000F4484FF0007B816941F020018161806901
:1012F0000DA900F02000009000200E9040200D90DD
:1013000001200F9002201090EB4803F08FFFE2E0E5
:10131000EAA00AF0F7FA07F059F8CEA2012100205E
:101320000CF068FD0121ECA208460CF063FDD2A28E
:10133000012107200CF05EFD07F04EF9622080E7E6
:101340000126C1E74FF0C041F0200880642003F07F
:1013500069FE611CE5A00AF0D5FAA00608F0C8FDF8
:10136000E64A4FF0AA08A2F800800BF041F9E449E0
:10137000552008800BF03CF9802010800BF038F9E4
:10138000A2F800800BF034F9552008800BF030F9FA
:1013900010201080142003F045FE4021C64804F0C0
:1013A00041F88046D7A00AF0ADFAB8F1000F1CD082
:1013B000DAA00AF0A7FA07F009F8A6A20121002096
:1013C0000CF018FD0121DDA208460CF013FD631C92
:1013D000DEA2012102200CF00DFDA7A201210720B1
:1013E0000CF008FD07F0F8F851E3DBA00AF08AFAE8
:1013F000002016904F4520D93946DFA00AF082FA26
:1014000006F0E4FF93A2012100200CF0F3FC01217F
:101410003B46DFA208460CF0EDFC97A20121072015
:101420000CF0E8FC07F0D8F84FF0C041F02008803D
:101430000A2003F0F7FD012003E740219E4803F056
:10144000F1FF8046012822D000223946D3A00AF0BD
:1014500059FA06F0BBFF3B46D6A2012100200CF052
:10146000C9FCB8F1010F14D000230121D4A2084611
:101470000CF0C0FC631CD5A20121022000960CF0E8
:10148000B9FC07F0A9F8B8F1010F04D036E0012249
:10149000DBE70123E9E74FF0C0400078C0F34011DB
:1014A0000791C0F38011C0F3C01801200C91009087
:1014B0000A464146C9A0079B0AF024FAB8F1000F7A
:1014C0001CD00C98C0B10798B0B1169803280FD360
:1014D0000120A41C1690B442FFF434AF002211A9DD
:1014E000464805F050FAA8B1C7A00AF00BFA39E057
:1014F000401CC0B2169001E0079848B14FF47A70D2
:1015000003F090FD0121C74803F091FF7F1C71E7B4
:10151000042096E6002212A9384805F00DFA11A918
:1015200012A80CF03FFD04460146BFA00AF0EAF9FC
:101530009DF844009DF846209DF845108DE8070071
:101540009DF84B109DF84A309DF84920C0A001F548
:10155000FA610AF0D7F90A98201A01461590CAA034
:101560000AF0D0F92946CFA0089A0AF0CBF9DBA0FF
:101570000AF0C8F94FF0C049F020A9F800000A208D
:1015800003F050FD5146E0A00AF0BCF9002436E219
:1015900004FB0BF000EB0B0380460246611CE4A049
:1015A0005B1E0AF0AFF9A00608F0A2FC002722E2B9
:1015B000780000F1C0400388A3F57F40FF380FD0CA
:1015C0000898401C0890089908EB0700C90307D148
:1015D0000899009109EB40013A46E5480AF092F972
:1015E0006D1CA80309D101218E4803F020FF601C67
:1015F000CDE9000652462946BCE1F9E1E42100208C
:10160000BBF1C8A1B2C1B3FDBFAACABCCAB1BCE498
:10161000CAA7B0DCA3A10D0A00000000B2C1B3FD4F
:10162000BFAACABCCAB1BCE4A3A8556E6978CAB146
:10163000BCE4B4C1A3A9A3BA256C7520C3EB0D0A01
:1016400000000000BBF1C8A1C8DDC1BFCAA7B0DC63
:101650000D0A00004572617365204661696C65641E
:1016600021000000476574204346492043617020F3
:101670004661696C00000000507265737320616EF2
:1016800079206B6579000000D0BEC6ACC8DDC1BF53
:101690003A202575204D422C20D7DCBFE9CAFD3AFF
:1016A0002025752C20D7DCB0EBD7D6CAFD3A2025F3
:1016B000750D0A000010024000140140D7EEB4F38B
:1016C000D6A7B3D63235364D4279746528533730B4
:1016D000474C3032290D0A004D61782073757070C7
:1016E0006F72743A3235364D000000000D0AB5DADB
:1016F00020257520BFE90D0A00000000AA0A00603D
:1017000054050060D5FDD4DABCECB2E9CAC7B7F124
:10171000BDF8C8EBB2C1B3FD0D0A000052592F420B
:10172000592320697320312C20B2C1B3FDD7B4CC2A
:10173000ACBDF8C8EBCAA7B0DC0D0A0052592F4265
:101740005923206E6F74203100000000426C6F63DB
:101750006B3A20257500000052592F425923206909
:101760007320302C20B3C9B9A6BDF8C8EBB2C1B301
:10177000FDD7B4CCAC0D0A00B2C1B3FDB3ACCAB155
:10178000212028436F756E743A202575290D0A00B3
:1017900054696D654F75743A25750000BCC6CAB1B1
:1017A0003A2564732C2052592F4259233A25640D4F
:1017B0000A00000045726173696E673A2564730020
:1017C00052592F4259233A2564000000426C6F633E
:1017D0006B3A2025752F257500000000B2C1B3FDBE
:1017E000D7B4CCAC3A2051373D25642C2051363D3E
:1017F00025642C2051353D25642C2052592F425907
:10180000233D25640D0A0000BBF1C8A1B2C1B3FDA0
:10181000BDE1CAF8CAB1BCE4CAA7B0DCA3A10D0AF5
:1018200000000000000C0140B2C1B3FDBDE1CAF8E8
:10183000CAB1BCE4A3A8556E6978CAB1BCE4B4C10E
:10184000A3A9A3BA256C7520C3EB0D0A0000000004
:10185000B2C1B3FDBDE1CAF8CAB1BCE4A3A8B1BE30
:10186000B5D8A3A9A3BA253034642D253032642D10
:101870002530326420253032643A253032643A25EE
:101880003032640D0A000000414D3239D0BEC6AC82
:10189000B2C1B3FDBAC4CAB1A3BA257520C3EB0D5A
:1018A0000A000000C8ABD0BEC6ACD1E9D6A4CDEAD0
:1018B000B3C9A3BAB9B2D0A3D1E9256C75B8F6B053
:1018C000EBD7D6207C20B7C7307846464646B5D8F9
:1018D000D6B7CAFDA3BA256C750D0A00B2C1B3FD17
:1018E000D1E9D6A4CDA8B9FDA3A1C8ABD0BEC6ACE2
:1018F000CBF9D3D0B5D8D6B7BEF9CEAA3078464604
:1019000046460D0A00000000BFAACABCC8ABD0BE44
:10191000C6ACB2C1B3FDD1E9D6A4A3ACD7DCD0A389
:10192000D1E9B0EBD7D6CAFDA3BA256C750D0A0074
:101930000D0A3D3D3D3D3D20D1E9D6A4B5DA202537
:101940006C7520BFE92028B0EBD7D6B5D8D6B7B78D
:10195000B6CEA73A2030782530386C58202D20306C
:10196000782530386C5829203D3D3D3D3D0D0A001D
:101970009807010847A0089B09F0C4FF06F026FD60
:1019800052A2012100200CF035FA4FF47A72A5FB27
:10199000021C0020034600FB02C005FB030C0846A6
:1019A000524600236146FEF7E1FB0A220023FEF7C0
:1019B000DDFB03460092012147A208460CF01AFA0B
:1019C000631CAFF2F8120121022000960CF012FA0B
:1019D0002B46AFF23C22012103200CF00BFA5346B8
:1019E000AFF24C22012104200CF004FA06F0F4FDC1
:1019F0007F1C5F4502D25545FFF4DAAD641CB4424A
:101A0000FFF4C6AD08F0A8FAF020A9F80000012004
:101A100003F008FB1698D8B106F0D8FC31A20121DA
:101A200000200CF0E7F9012132A20846159B0CF0CA
:101A3000E1F9AFF2BC32012107200CF0DBF906F02E
:101A4000CBFD15983C2801D90AF026FC00202AE499
:101A500006F0BCFC2AA2012100200CF0CBF90121E8
:101A60002BA208460CF0C6F92EA201210220089BE9
:101A70000CF0C0F9AFF20042012107200CF0BAF9D6
:101A800006F0AAFD15983C2801D90AF005FC0220B1
:101A900009E40000D1E9D6A4BDF8B6C8A3BA2575FB
:101AA0002F257520B0EBD7D6207C20B5B1C7B0B4B8
:101AB000EDCEF3CAFDA3BA2575207C20B5B1C7B021
:101AC000BFE93A2025752F25750D0A00426C616E1D
:101AD0006B20436865636B0025752E2575202525D1
:101AE0000000000045726173652053756363657380
:101AF0007300000054696D653A257573000000009D
:101B00004572617365204661696C65640000000080
:101B10004E6F742030784646464620436F756E748B
:101B20003A000000256C750010B53EA009F0EAFEF1
:101B300048A009F0E7FE51A009F0E4FE57A009F023
:101B4000E1FE06F043FC60A2012100200CF052F9F6
:101B5000012160A208460CF04DF961A2012102208A
:101B60000CF048F962A2012103200CF043F963A2B2
:101B7000012104200CF03EF963A2012105200CF0A4
:101B800039F964A2012106200CF034F965A2012183
:101B900007200CF02FF906F01FFD65A009F0B2FE3A
:101BA00047F2305009F084FE59280CD079280AD029
:101BB000052808D000281AD06AA009F0A3FE06F074
:101BC00005FC6CA219E06EA009F09CFE06F0FEFB7D
:101BD00073A2012100200CF00DF9012173A2084627
:101BE0000CF008F906F0F8FCFFF716FB15E072A000
:101BF00009F088FE06F0EAFB76A2012100200CF035
:101C0000F9F8012175A208460CF0F4F876A201213A
:101C100007200CF0EFF806F0DFFCBDE810400020D4
:101C200009F046BE0D0A3D3D3D3D3D3D3D3D3D3D3E
:101C30003D3D3D3D3D3D3D3D3D3D3D3D3D3D3D3DD4
:101C40003D3D3D3D3D3D3D3D3D3D3D3D3D3D0D0A27
:101C50000000000020202020BEAFB8E6A3BABCB42C
:101C6000BDABD6B4D0D0D5FBD0BEC6ACB2C1B3FDEF
:101C7000B2D9D7F7A3A10D0A000000002020202030
:101C8000B2C1B3FDBAF3CBF9D3D0CAFDBEDDBDAB53
:101C9000B6AACAA7A3A10D0A000000003D3D3D3D24
:101CA0003D3D3D3D3D3D3D3D3D3D3D3D3D3D3D3D64
:101CB0003D3D3D3D3D3D3D3D3D3D3D3D3D3D3D3D54
:101CC0003D3D3D3D0D0A00005741524E494E4721D2
:101CD0000000000043686970204572617365000070
:101CE000416C6C20646174612077696C6C00000049
:101CF0006265206C6F737421000000005072657380
:101D000073204F4B00000000746F20636F6E746986
:101D10006E7565005072657373206F7468657273B9
:101D200000000000746F2063616E63656C0000004A
:101D3000C7EBCAE4C8EB205920C8B7C8CFB2C1B3BB
:101D4000FDA3ACBBF2B0B4C8B7C8CFBCFCBCCCD010
:101D5000F8A3ACC6E4CBFBBCFCC8A1CFFBA3BA0D77
:101D60000A0000000D0AB2D9D7F7D2D1C8A1CFFB23
:101D70000D0A00004F7065726174696F6E0000009B
:101D80000D0AD3C3BBA7D2D1C8B7C8CFA3ACBFAAD3
:101D9000CABCB2C1B3FDD0BEC6AC2E2E2E0D0A00F9
:101DA00045726173696E672E2E2E0000506C65615E
:101DB00073652077616974000D0AB5C8B4FDB3ACD2
:101DC000CAB1A3ACB2D9D7F7D2D1C8A1CFFB0D0A03
:101DD0000000000054696D656F75740043616E63A7
:101DE000656C6C6564000000507265737320616EF1
:101DF00079206B65790000002DE9F04186B0002064
:101E00000290039002AA06210490FFF7E9F900F07E
:101E1000FFFA8046014638A009F074FD00F0CCFAC4
:101E2000064600F0C3FA0446314638A009F06AFDC0
:101E30002CB1A20A21463DA009F064FD02E043A0B6
:101E400009F060FD46A009F05DFD00250DF10807D1
:101E500048A037F8151009F055FD6D1C062DF7DB6D
:101E60003EA009F04FFD06F0B1FA434643A201211E
:101E700000200BF0BFFF0121334644A208460BF0BF
:101E8000B9FF234644A2012102200BF0B3FFA30AAD
:101E900044A2012103200BF0ADFF45A20121042043
:101EA0000BF0A8FFBDF80C10BDF80A00CDE9000149
:101EB000BDF8083041A2012105200BF09BFFBDF8C1
:101EC0001210BDF81000CDE90001BDF80E303BA2A4
:101ED000012106200BF08EFF3DA2012107200BF00F
:101EE00089FF06F079FB3EA009F00CFD002009F007
:101EF000DFFC06B0BDE8F081414D32392049443A5B
:101F0000203078253038580D0A000000414D323914
:101F100020434649C8DDC1BFD4ADCABCD6B53A20BE
:101F20003078253034580D0A00000000414D323918
:101F3000C8DDC1BF3A202575204279746573202819
:101F40002575204B42797465290D0A00BBF1C8A1A3
:101F5000414D3239C8DDC1BFB4EDCEF30D0A0000EA
:101F6000307830307E3078304220446174613A20DD
:101F7000000000003078253034582000414D3239BF
:101F80002049443A20307825303858004346493AB1
:101F900020307825303458002575204279746573D7
:101FA000000000002575204B427974657300000025
:101FB000307830302D307830423A0000307825309B
:101FC0003458202530345820253034580000000083
:101FD000507265737320616E79206B657900000023
:101FE0000D0AB2D9D7F7CDEAB3C9A3AC00000000FF
:101FF0002DE9F0410546ADF58D6D5AA75AA64FF46F
:1020000002515B48FEF7FAF85A4C0020002D207070
:1020100011D0287058A009F075FC0122394688A813
:102020000AF0BAFE010008D05DA009F06BFC63A0C5
:1020300009F068FC25E06DA0FAE774A009F062FCE5
:10204000314668460AF0ACFF01001FD074A009F0C9
:1020500059FC30460AF0EEFD010001D07CA009E0F9
:1020600083A009F04FFC314668460AF099FF010051
:102070000CD088A009F046FC0122394600200AF065
:102080008BFE00200DF58D6DBDE8F0818AA009F072
:1020900039FC0DF25946207820284FD20DF58A617F
:1020A00068460BF08DF8002848D19DF859040028A7
:1020B00044D09DF85804C006EDD42E213046FEF7DA
:1020C000C9F85FEA0008E6D08AA1FEF7B5F828B1A2
:1020D0008AA14046FEF7B0F80028DCD13046FEF772
:1020E000A4F8C1B200200DF58A620AE013185B7AE9
:1020F0007F2B04D9314683A009F004FCCBE7401CB8
:10210000C0B28842F2D32078DFF8648000EB8011FF
:1021100008EB8100FF223146FEF77BF82078DDF8DE
:10212000502400EB801108EB81017CA0C1F8002154
:1021300009F0E8FB2078401C2070ACE768460AF004
:1021400024FC0122394600200AF026FE217829705D
:1021500021B179A009F0D6FB054893E786A009F0E4
:10216000D1FBF9E7303A0000303A2F414D323900C7
:1021700064010020000000205344494FCDE2C9E82B
:10218000B3F5CABCBBAFB3C9B9A6A3ACBFAACABC9E
:10219000B9D2D4D85446BFA82E2E2E0D0A00000066
:1021A0005446BFA8B9D2D4D8CAA7B0DC2120B4ED18
:1021B000CEF3C2EB3A2025640D0A0000B4EDCEF355
:1021C000D4ADD2F2A3BA313D5344494FC5E4D6C38E
:1021D000B4EDCEF3207C20343D5446BFA8CBF0BBF9
:1021E000B52FCEB4B2E5BAC30D0A0000B2CECAFD17
:1021F000B4EDCEF3A3BA66696C655F636F756E74F8
:10220000D6B8D5EBCEAABFD50D0A00005446BFA85C
:10221000B9D2D4D8B3C9B9A6A3A10D0A0000000051
:10222000B4F2BFAA414D3239C4BFC2BCCAA7B0DCA8
:102230002120B4EDCEF3C2EB3A202564A3ACB3A2C7
:10224000CAD4B4B4BDA8C4BFC2BC2E2E2E0D0A0081
:10225000B4B4BDA8414D3239C4BFC2BCCAA7B0DCBA
:102260002120B4EDCEF3C2EB3A2025640D0A000024
:10227000414D3239C4BFC2BCB4B4BDA8B3C9B9A6BC
:10228000A3ACD6D8D0C2B4F2BFAAC4BFC2BC2E2E53
:102290002E0D0A00D6D8D0C2B4F2BFAA414D3239B1
:1022A000C4BFC2BCCAA7B0DC2120B4EDCEF3C2EBE0
:1022B0003A2025640D0A00003D3D3D3D3D20414D45
:1022C0003239C4BFC2BCCFC2B5C42E62696ECEC49F
:1022D000BCFEC1D0B1EDA3A8C5C5B3FDD6D0CEC458
:1022E000CEC4BCFEC3FBA3A9203D3D3D3D3D0D0A30
:1022F000000000002E62696E000000002E42494E70
:1023000000000000C5C5B3FDD6D0CEC4CEC4BCFE0F
:10231000C3FB3A2025730D0A00000000CEC4BCFEAA
:102320003A202573207C20B4F3D0A13A20256C7587
:1023300020D7D6BDDA0D0A003D3D3D3D3D20B9B266
:10234000D5D2B5BD20256420B8F6D3D0D0A7B5C46A
:102350002E62696ECEC4BCFEA3A8D2D1C5C5B3FDA2
:10236000D6D0CEC4CEC4BCFEC3FBA3A9203D3D3D08
:102370003D3D0D0A00000000414D3239C4BFC2BCD2
:10238000CFC2CEB4D5D2B5BDD3D0D0A7B5C42E62FE
:10239000696ECEC4BCFEA3A8CEDED6D0CEC4CEC459
:1023A000BCFEC3FBA3A90D0A00000000002802D058
:1023B000012101FA00F0704770B54FF0C045F026DA
:1023C0002E80012002F02EFE9820A5F8AA000AF027
:1023D0000FF9B5F84E400AF00BF92E80012002F0FB
:1023E00021FEFF2C09D0A4F57060FF3805D0A4F5BC
:1023F0007F40FF3801D0204670BD02A009F082FA6C
:10240000002070BDD2ECB3A3C8DDC1BF0000000046
:1024100070B54FF0C044F0262680012002F002FE85
:102420000E49AA2008800AF0E3F80D4A55201080D2
:102430000AF0DEF8902008800AF0DAF8094D2088CA
:10244000E88060882881A08868812680012002F0C9
:10245000E9FD2889E98840EA014070BDAA0A0060C8
:1024600054050060000000202DE9F04FADF6F41D8A
:10247000F2A00FF2CC39CDF8D4094FF482710DF2ED
:102480005C60FDF7BBFE0024CDF8A449CDF8A84957
:10249000CDF8E0490127A046A246CDF8DC49CDF8A9
:1024A000CC49EAA0CDF8D04909F02CFAFFF784FF17
:1024B000E0B11C2832D9F0A009F024FA05F086FF1B
:1024C000F4A2012100200BF095FC0121F5A20846A1
:1024D0000BF090FCF8A2012107200BF08BFC06F01A
:1024E0007BF862200DF6F41DBDE8F08FF6A009F030
:1024F00009FA05F06BFFE7A2012100200BF07AFC3E
:102500000121F7A208460BF075FCEBA20121072080
:102510000BF070FC06F060F86320E3E7FFF746FF7E
:102520000646020D0146F3A009F0ECF9F9A009F006
:10253000E9F901220DF5EC60DDF8D4190AF02CFC64
:10254000010017D0F7A009F0DDF905F03FFFD1A297
:10255000012100200BF04EFC0121F9A208460BF0EE
:1025600049FCD5A2012107200BF044FC06F034F809
:102570000220B7E7494604A80AF012FD002836D029
:10258000F3A009F0BFF948460AF054FB010022D03D
:10259000F7A009F0B7F905F019FFBEA2012100204C
:1025A0000BF028FC0121FAA208460BF023FCFDA247
:1025B000012102200BF01EFCBFA2012107200BF01D
:1025C00019FC06F009F801220020DDF8D4190AF000
:1025D000E3FB032086E7F5A009F094F9F8A009F0E1
:1025E00091F9494604A80AF0DBFC28B155E004A89B
:1025F0000AF0CBF9F9A0EFE700250DF6B91700BFF7
:102600000DF51B6104A80AF0DBFDE0BB9DF8B909DC
:10261000C8B39DF8B809C006F2D43846FDF705FEE8
:10262000C0B20C28ECD12E213846FDF713FE5FEA2C
:10263000000BE5D0EEA1FDF7FFFD28B1EEA1584655
:10264000FDF7FAFD0028DBD100200DF51B610A180B
:10265000527A303A0A2AD3D2401C0828F7DBCDF848
:10266000E489CDF8E889082239460DF6E410CDF862
:10267000EC89FDF7CEFD0DF6E410FDF7F6FDA8425E
:10268000BED90546BCE7FFE704A80AF07EF96F1C37
:102690003A462946DAA009F035F93B464A46E3A115
:1026A0000DF25C6009F03EF90DF25C61E3A009F007
:1026B00029F906220DF25C610DF586600AF09AFB9D
:1026C00005002BD00146E2A009F01CF905F07EFEC2
:1026D00070A2012100200BF08DFB0121E3A208462E
:1026E0000BF088FB0DF25C63E5A2012102200BF0E8
:1026F00081FB2B46E3A2012103200BF07BFB6EA2A2
:10270000012107200BF076FB05F066FF0122002077
:10271000DDF8D4190AF040FB0420E3E600220DF6B0
:10272000DC11DA4804F02FF9F8B900220DF51E612A
:10273000D64804F001F90DF6DC11081D0BF032FC4F
:10274000CDF8A8099DF8DC099DF8DE299DF8DD1972
:102750008DE807009DF8E3199DF8E2399DF8E1291D
:10276000CBA001F5FA6109F0CDF8D5A009F0CAF8BF
:10277000B70E01D0002529E2012700254FEA856820
:102780004FF0000B691CD8A009F0BCF8404607F0D8
:10279000AFFB17E204F500704FF40079B04201D9A5
:1027A000A6EB04094FEA59034FEA5B0800208CAA04
:1027B0000FE000BF08EB0001490001F1C0410988AA
:1027C0004FEA112C02F810C002EB400C401C8CF8B0
:1027D00001109842EED30DF6A4134A468CA90DF5CC
:1027E00086600AF072FD5FEA000803D1DDF8A419E3
:1027F000494522D04146C4A009F084F805F0E6FD21
:1028000024A2012100200BF0F5FA0121C5A20846FF
:102810000BF0F0FA0DF25C6399A2012102200BF09B
:10282000E9FA434697A2012103200BF0E3FA22A222
:10283000012107200BF0DEFA7CE189E1303A00004B
:10284000303A2F414D323952000000000D0A3D3D13
:102850003D3D3D20BFAACABCB6C1C8A1414D3239D9
:10286000D0BEC6ACC4DAC8DDB5BD5446BFA8203D55
:102870003D3D3D3D0D0A0000D7EEB4F3D6BBD6A7D3
:10288000B3D6533730474C3032203235364D0D0AEF
:102890000000000052656164204661696C65642136
:1028A000000000004D617820737570706F72743A8B
:1028B0003235364D00000000507265737320616E32
:1028C00079206B6579000000BBF1C8A1414D323918
:1028D000C8DDC1BFCAA7B0DCA3A10D0A000000007B
:1028E0004765742043464920436170204661696C06
:1028F00000000000414D3239C8DDC1BF3A20256CCF
:10290000752042797465732028256C75204D422905
:102910000D0A0000B9D2D4D85446BFA82E2E2E0DD1
:102920000A0000005446BFA8B9D2D4D8CAA7B0DC68
:102930002120B4EDCEF3C2EB3A2025640D0A00004D
:102940005446204E4F5420466F756E6400000000C0
:10295000414D323952C4BFC2BCB2BBB4E6D4DAA3D3
:10296000ACB3A2CAD4B4B4BDA82E2E2E0D0A00005A
:10297000B4B4BDA8414D323952C4BFC2BCCAA7B01D
:10298000DC2120B4EDCEF3C2EB3A2025640D0A0021
:1029900043726561746520414D3239522044697239
:1029A000000000004661696C65642100414D3239C8
:1029B00052C4BFC2BCB4B4BDA8B3C9B9A60D0A0005
:1029C000C9A8C3E8414D323952C4BFC2BCD6D0B544
:1029D000C4CEC4BCFE2E2E2E0D0A0000414D32394D
:1029E00052C4BFC2BCD2D1B4E6D4DA0D0A00000092
:1029F0002E62696E000000002E42494E0000000069
:102A0000D7EEB4F3CEC4BCFEB1E0BAC53A2025304F
:102A1000386C752C20CFC2D2BBB8F6B1E0BAC53A3B
:102A2000202530386C750D0A0000000025732F2515
:102A300030386C752E62696E00000000D7BCB1B8EA
:102A4000B4B4BDA8CEC4BCFE3A2025730D0A000064
:102A5000B4B4BDA8CEC4BCFECAA7B0DC2120B4ED7E
:102A6000CEF3C2EB3A2025640D0A00004372656183
:102A700074652046696C65204661696C6564000078
:102A800025730000436F64653A256400E42100204B
:102A9000B6C1C8A1BFAACABCCAB1BCE4A3BA25309A
:102AA00034642D253032642D2530326420253032B7
:102AB000643A253032643A253032640D0A00000051
:102AC000BFAACABCB6C1C8A1D0BEC6ACC4DAC8DDF4
:102AD000A3A8B7D636344D42BFE9B4A6C0EDA3A92A
:102AE0002E2E2E0D0A0000000D0A3D3D3D3D3D20DD
:102AF000B4A6C0EDB5DA20256C7520BFE920203DD5
:102B00003D3D3D3D0D0A0000CEC4BCFED0B4C8EB37
:102B1000CAA7B0DC2120B4EDCEF3C2EB3A20256485
:102B20000D0A000046696C6520777269746520663D
:102B300061696C0005F050FD0DF5866009F010FF2D
:102B400001220020DDF8D4190AF026F90520C9E495
:102B50004C44CB44E00301D0B44230D13046FDF7C1
:102B60000DFC80462046FDF709FC4146FDF7BCFB05
:102B70005149FDF787FBFDF706FC6A1CCDE90227EA
:102B800089468046324621464CA0CDE9008908F0AE
:102B9000B9FE05F01BFC56A201210020CDE90089F9
:102BA0000BF028F901216B1C55A2084600970BF089
:102BB00021F905F011FD0121554802F038FCBBF167
:102BC000806F02D2B442FFF4E5AD6D1CBD42FFF44C
:102BD000D5AD00220DF6CC114E4803F0D4FE28BB33
:102BE00000220DF51D614B4803F0A6FE0DF6CC1139
:102BF000081D0BF0D7F9DDF8A8199DF8CE29A0EB38
:102C0000010A9DF8CC099DF8CD198DE807009DF8C3
:102C1000D3199DF8D2399DF8D1293FA001F5FA6169
:102C200008F070FE514648A008F06CFE0DF5866075
:102C300009F096FE01220020DDF8D4190AF0ACF864
:102C400007F08AF94FF0C041F0200880012002F01F
:102C5000E9F90DF25C6140A008F054FE214649A05C
:102C600008F050FE05F0B2FB4BA2012100200BF052
:102C7000C1F8012153464CA208460BF0BBF80DF2F7
:102C80005C63AFF20422012102200BF0B3F8A30A27
:102C900047A2012103200BF0ADF8AFF2E43201218D
:102CA00007200BF0A7F805F097FCBAF13C0F01D90B
:102CB00009F0F2FA002015E40000C842B6C1C8A12C
:102CC000BDF8B6C8A3BA256C752F256C7520D7D66C
:102CD000BDDA2028252E3166252529207C20B5B196
:102CE000C7B0BFE93A2025752F25750D0A000000F1
:102CF000526561643A20252E3166252500000000CA
:102D0000426C6F636B3A2025752F2575000000001B
:102D1000000C0140E4210020B6C1C8A1BDE1CAF801
:102D2000CAB1BCE4A3BA253034642D253032642DF9
:102D30002530326420253032643A253032643A2519
:102D40003032640D0A000000D7DCBAC4CAB1A3BA9D
:102D5000257520C3EB0D0A000D0A3D3D3D3D3D208C
:102D6000B6C1C8A1CDEAB3C9A3A1CEC4BCFED2D11D
:102D7000B1A3B4E6CEAAA3BA2573203D3D3D3D3DA7
:102D80000D0A0000CEC4BCFEB4F3D0A1A3BA2575D1
:102D900020D7D6BDDA0D0A005265616420537563F1
:102DA0006365737321000000257520530000000047
:102DB00025754B4279746573000000002DE9F04FD2
:102DC000CDB000208DF8000182464FF48071684636
:102DD000FDF714FA4FF00008E8A008F093FD40A8B2
:102DE000FFF706F95FEA000934D09DF8000180B3CF
:102DF000C01DC008CDF804014FEACA60040E04F1FA
:102E00000800C6B29DF80001864200D90646301B74
:102E1000C7B24990B84501D34FF0000805F0D6FA83
:102E20000025BD4229D2601900F0FF0B142144A8EF
:102E3000FDF7E4F90BEB8B1109EB8101102244A89B
:102E4000FDF7E7F944ABD9A2012128460AF0D2FFE9
:102E500018E0FFE7D6A008F055FD05F0B7FAE1A2AB
:102E6000012100200AF0C6FF0121E2A208460AF073
:102E7000C1FF0121E3A20220BAE0E5A20121284618
:102E80000AF0B8FF6D1CEDB2082DCAD3B84518D2B0
:102E900004EB0800C5B2142144A8FDF7AFF905EB17
:102EA000851009EB8001102244A8FDF7B2F944AB6C
:102EB000DCA2012140460AF09DFF0121404605F0B9
:102EC00077FB05F089FBD8A008F01CFD9DF80011E8
:102ED000E1A008F017FDECA008F014FD25460DE078
:102EE000281B05EB8512401C09EB8202C1B2F1A040
:102EF000D2F8003108F006FD6D1CEDB2B542EFD3FB
:102F0000EBA008F0FFFC419801280BD902460AF11A
:102F10000101EEA008F0F6FCF1A008F0F3FCF4A02B
:102F200008F0F0FCF6A008F0EDFC3946F94808F08E
:102F3000E9FC00208DF80C016EE000BFB8F1000F35
:102F400002D0A8F1010014E0BAF1000F3FF454AF31
:102F5000AAF1010000F0FF0A4FEACA60010E01F178
:102F60000800C2B29DF80001824200D90246501A00
:102F7000401EC0B21AE000BF04F032FD58B14998BB
:102F8000C0B2401E804516DA08F10100F1E700BF2B
:102F90000AF1010007E004F03FFD48B1BAF1000F6B
:102FA000D4D0AAF1010000F0FF0A0020804623E7F8
:102FB00004F06AFD20B14198401E8245F7DAE7E748
:102FC00004F046FD78B104EB08009DF80011C0B292
:102FD0008842ECD200EB801109EB8101FF226846A8
:102FE000FDF717F945E004F0DFFC58B1CAA061E035
:102FF0000AF000FFCCA2012107200AF0FBFE05F039
:10300000EBFA4CE20023012243A9CB4804F0ACFBCD
:1030100038B1142002F006F804F052FD0028ABD0BD
:103020008CE79DF80C0120385E2806D84FF0FF335E
:10303000012243A9C04804F0EFFB9DF80C01A0F168
:10304000310107292CD83038C0B2B842AFD820445B
:10305000401E9DF80011C0B28842A8D200EB80113A
:1030600009EB8101FF226846FDF7D3F890A008F034
:1030700049FC6946B1A008F045FC05F0A7F9B5A2E6
:10308000012100200AF0B6FE6C462046FDF7CDF87F
:10309000C0B2102831D801212346B1A2084649E028
:1030A000392812D0302819D0622802D042287FF463
:1030B0007EAFACA008F026FC05F088F9AEA2012195
:1030C00000200AF097FEAFA2CFE14198401E824552
:1030D00002DA0AF1010006E0ADA00BE0BAF1000F40
:1030E00007D0AAF1010000F0FF0A4FF0000870A01D
:1030F00000E0ADA008F006FC7EE6142143A8FDF731
:103100007DF8142148A8FDF779F81022214643A83C
:10311000FDF77FF8102204F1100148A8FDF779F8B7
:10312000012143AB8EA208460AF064FE48AB8CA294
:10313000012102200AF05EFEA1A2012104200AF072
:1031400059FEA2A2012105200AF054FEA2A20121EB
:1031500006200AF04FFEA4A2012107200AF04AFE31
:1031600005F03AFAA3A008F0CDFB00208DF8080185
:1031700002F06AF9044642F210755FE10D0A3D3D26
:103180003D3D3D20D5FDD4DAC9A8C3E8414D3239D3
:10319000C4BFC2BCCFC2B5C42E62696ECEC4BCFE71
:1031A000203D3D3D3D3D0D0A0000000020257300FF
:1031B000414D3239C4BFC2BCCFC2C3BBD3D0D5D2BC
:1031C000B5BD2E62696ECEC4BCFEA3ACC7EBCFC842
:1031D000B7C5C8EBCEC4BCFED4D9B2D9D7F70D0A57
:1031E000000000004E6F2042494E2066696C6573F6
:1031F00000000000666F756E6420696E20414D32DC
:10320000390000006469726563746F7279000000B0
:1032100020202020202020202020202020202020AE
:10322000000000003E2573000D0A3D3D3D3D3D3D43
:103230003D3D3D3D3D3D3D3D3D3D3D3D3D3D3D3DBE
:103240003D3D3D3D3D3D3D3D3D3D3D3D3D3D3D3DAE
:103250003D3D0D0A000000003D3D3D3D3D20C7EBDA
:10326000D1A1D4F1D2AAD0B4C8EBB5C442494ECE54
:10327000C4BCFE2028B9B22564B8F629203D3D3DE6
:103280003D3D0D0A000000003D3D3D3D3D3D3D3DC5
:103290003D3D3D3D3D3D3D3D3D3D3D3D3D3D3D3D5E
:1032A0003D3D3D3D3D3D3D3D3D3D3D3D3D3D3D3D4E
:1032B0000D0A00002564202D2025732028256C751B
:1032C00020D7D6BDDA290D0A00000000B5B1C7B07D
:1032D000B5DA2025642F256420D2B30D0A00000042
:1032E00039202D20CFC2D2BBD2B30D0A000000007E
:1032F00030202D20C9CFD2BBD2B30D0A0000000070
:1033000062202D20B7B5BBD8D6F7B2CBB5A50D0A34
:103310000000000094090108D2D1B7B5BBD8D6F798
:10332000B2CBB5A50D0A0000507265737320616EB3
:1033300079206B6579000000282300200D0AC4FA6B
:10334000D1A1D4F1C1CBCEC4BCFEA3BA25730D0A62
:103350000000000053656C65637465643A0000000A
:10336000257300000D0AD2D1B7B5BBD8D6F7B2CBC2
:10337000B5A50D0A0000000052657475726E2074C8
:103380006F0000004D61696E204D656E7500000094
:103390000D0AD2D1BEADCAC7D7EEBAF3D2BBD2B3F3
:1033A000C1CBA3A10D0A00000D0AD2D1BEADCAC780
:1033B000B5DAD2BBD2B3C1CBA3A10D0A0000000085
:1033C0005072657373204F4B20746F007374617279
:1033D000742077726974650050726573732043615D
:1033E0006E63656C00000000746F2061626F727420
:1033F0000000000055415254C9CFB0B479BCFCBFA5
:10340000AACABCD0B4C8EBA3ACB0B4C8CED2E2BC9C
:10341000FCC8A1CFFB2E2E2E0D0A000004F018FBD5
:1034200030BB04F0C1FAA8B90023012242A91F4809
:1034300004F09AF940B1322001F0F4FD02F004F8F2
:10344000001BA842EAD305E09DF8080159280FD0D7
:1034500079280DD016A008F055FA04F0B7FF18A28D
:10346000012100200AF0C6FC18A201210846BFE590
:10347000694619A008F046FA04F0A8FF1FA201212E
:1034800000200AF0B7FC6B46AFF22C12012108466F
:103490000AF0B0FC05F0A0F8684600F035F800200E
:1034A00008F006FA4DB0BDE8F08F00002823002098
:1034B000B2D9D7F7D2D1C8A1CFFB0D0A00000000C6
:1034C0004F7065726174696F6E00000043616E63D6
:1034D000656C6C65640000000D0A3D3D3D3D3D207E
:1034E000BFAACABCD0B4C8EBCEC4BCFE3A20257378
:1034F000203D3D3D3D3D0D0A0000000057726974BE
:10350000696E672E2E2E00002DE9F14FADF5205D7E
:10351000F6A042F2B0456D44A7904FF48271284660
:10352000FCF76CFE0024A994AA94A246A346A89492
:10353000A4942746A594FEF73FFF5FEA00091AD03E
:10354000B9F11C0F2AD904F041FFE9A201210020A2
:103550000AF050FCEBA2012107200AF04BFC05F019
:103560003BF8ECA008F0CEF962200DF6040D0DF545
:10357000005DBDE8F08FECA008F0C4F904F026FF70
:10358000EDA2012100200AF035FCDEA20121072076
:103590000AF030FC05F020F86320E6E7FEF706FFAE
:1035A0008046860E41D0022E00D902264FEA1852DC
:1035B00001463346E5A0089208F0A4F90120FDF782
:1035C0003DFC022833D00DF50050D0F8000800284B
:1035D00034D00DF50050D0F80008FCF726FE002886
:1035E0002CD00DF50050E4A1D0F80028284608F0B2
:1035F00099F942F2B45001226844A79909F0CCFB32
:1036000001002DD0DFA008F07DF904F0DFFEE7A275
:10361000012100200AF0EEFBBAA2012107200AF0E6
:10362000E9FB04F0D9FF02209FE70126BEE7012253
:103630000020A79909F0B0FB0A2096E7DFA008F068
:1036400061F904F0C3FEAAA2012100200AF0D2FB16
:10365000ACA2012107200AF0CDFB04F0BDFFB0E0D1
:103660000122294609A809F0C5FB05002BD0024616
:103670000DF50050D0F80018D7A008F043F904F079
:10368000A5FEDFA2012100200AF0B4FB0DF50050D9
:103690000121D0F80038BAA208460AF0ABFB2B464D
:1036A000DBA2012102200AF0A5FB96A2012107203E
:1036B0000AF0A0FB04F090FF01220020A79909F076
:1036C0006BFB032051E70DF500508C9DD0F80018DE
:1036D0002A46D2A008F016F94046454533D902469D
:1036E0002946D7A008F00EF904F070FEE2A20121ED
:1036F00000200AF07FFB0121E3A208460AF07AFBD2
:103700004FEA9823E3A2012102200AF073FBE3A20F
:10371000012103200AF06EFBAB0ADEA20121042086
:103720000AF068FB77A2012107200AF063FB04F08E
:1037300053FF09A809F014F901220020A79909F004
:103740002BFB042011E71DB3D7A008F0DBF84FF0E6
:10375000C041F0200880642001F064FC0022A9A987
:10376000D94803F010F900282DD0D8A008F0CAF8E5
:1037700004F02CFEDCA2012100200AF03BFB61A238
:10378000012107200AF036FB04F026FF0520ECE6B5
:10379000D9A008F0B7F804F019FEDDA2012100203D
:1037A0000AF028FB57A2012107200AF023FB04F0AE
:1037B00013FF09A809F0D4F801220020A79909F005
:1037C000EBFA0120D1E60DF52A7800224146BE48E9
:1037D00003F0B2F8A9A940460AF0E4FB01469B9029
:1037E000CFA008F08FF89DF8A4029DF8A6229DF8BE
:1037F000A5128DE807009DF8AB129DF8AA329DF83E
:10380000A922D1A001F5FA6108F07CF8DCA008F04B
:1038100079F842F2B0204FF400716844FCF7EEFCF6
:1038200000209E90B9F11C0F01D0A390F4E3012079
:10383000A390DD4808F066F8EEE3B8066FF07C412F
:1038400043184FF0000902469890791CCDF8649215
:10385000D6A008F057F8989806F04AFBFDE3A39825
:10386000002840D098984FEA590848440790C9F377
:1038700008000028019037D0A5EB0A00029001460D
:10388000D9A0019A08F03EF8DDE901100844009043
:10389000C007009801D0401C009042080146DEA0FD
:1038A00008F030F84FF40071ABA8FCF7A7FCFF223A
:1038B000ABA80099FCF79BFCAAEB09010DF12409C8
:1038C000484609F075F80020039003ABABA94846C1
:1038D000009A09F0AFFB010003D1039A00988242DD
:1038E00003D0DAA06FE252E33BE2BFE1303A0000DE
:1038F0004D617820537570706F72743A3235364D61
:1039000000000000507265737320616E79206B6552
:1039100079000000D7EEB4F3D6BBD6A7B3D65337A1
:1039200030474C30320D0A00BBF1C8A1C8DDC1BF21
:10393000CAA7B0DC0D0A00004765742073697A6578
:10394000206661696C65642E00000000414D3239CB
:10395000C8DDC1BF3A20256C75204279746573209B
:1039600028256C75204D42292C20D7DCBFE9CAFDE3
:103970003A2025750D0A0000303A2F414D32392F7B
:1039800025730000D0B4C8EBCAA7B0DCA3BA544674
:10399000BFA8B9D2D4D8CAA7B0DCA3ACB4EDCEF3DB
:1039A000C2EBA3BA25640D0A000000005446204E65
:1039B0004F542070726573656E740000D0B4C8EB0C
:1039C000CAA7B0DCA3BACEC4BCFEC3FBB2CECAFD4C
:1039D000CEAABFD50D0A0000D0B4C8EBCAA7B0DC90
:1039E000A3BAB4F2BFAACEC4BCFE2573CAA7B0DC8A
:1039F000A3ACB4EDCEF3C2EBA3BA25640D0A00006C
:103A00004661696C20746F206F70656E0000000065
:103A1000636F64653A20256400000000B4F2BFAA19
:103A2000CEC4BCFEB3C9B9A6A3BA2573207C20B40A
:103A3000F3D0A1A3BA257520D7D6BDDA0D0A0000B0
:103A4000D0B4C8EBCAA7B0DCA3BACEC4BCFEB4F3F2
:103A5000D0A1282575D7D6BDDA29B3ACB9FDD0BE23
:103A6000C6ACD7EEB4F3C8DDC1BF282575D7D6BD27
:103A7000DA290D0A0000000046696C65206F766542
:103A8000722073697A650000436869702073697AEF
:103A9000653A00002564204B4200000046696C65D1
:103AA0002073697A653A0000D0BEC6ACB3F5CABCD3
:103AB000BBAFA3A8BDF6B8B4CEBBD2BBB4CEA3A94E
:103AC0002E2E2E0D0A000000E4210020BBF1C8A11B
:103AD000D0B4C8EBBFAACABCCAB1BCE4CAA7B0DCA8
:103AE000A3A10D0A00000000476574205254432032
:103AF0004661696C65640000D0B4C8EBCAA7B0DC4D
:103B0000A3BACEC4BCFECEAABFD50D0A00000000E9
:103B100046696C652053697A652030427974650086
:103B2000D0B4C8EBBFAACABCCAB1BCE4A3A8556E46
:103B30006978CAB1BCE4B4C1A3A9A3BA256C752045
:103B4000C3EB0D0A00000000D0B4C8EBBFAACABC8A
:103B5000CAB1BCE4A3A8B1BEB5D8A3A9A3BA253005
:103B600034642D253032642D2530326420253032E6
:103B7000643A253032643A253032640D0A00000080
:103B8000BFAACABCD0B4C8EBCEC4BCFEB5BDD0BEC3
:103B9000C6ACA3A8B7D636344D42BFE9B4A6C0ED33
:103BA000A3A92E2E2E0D0A003C0801080D0A3D3D4A
:103BB0003D3D3D20B4A6C0EDB5DA20256C7520BF93
:103BC000E92028B5D8D6B7B7B6CEA73A20307825A1
:103BD00030386C58202D2030782530386C5829200A
:103BE0003D3D3D3D3D0D0A00CEC4BCFECEB2B2BF50
:103BF000A3BACAA3D3E0256C75D7D6BDDAA3ACB5FA
:103C0000B1C7B0BFE9C4DAC6ABD2C6256C75D7D68A
:103C1000BDDA0D0A00000000B1BEB4CE4275666682
:103C200065722050726F6772616D6D696E67D7DC67
:103C3000B4F3D0A1A3BA256C75D7D6BDDA20282558
:103C40006C75B8F6B0EBD7D6290D0A00B6C1C8A17D
:103C5000BFE9CAFDBEDDCAA7B0DCA3ACB4EDCEF3AC
:103C6000C2EBA3BA25640D0A000000009898002258
:103C70004FEA90694FF40041FD4801F0E0FBC9F3C1
:103C800040020821FB4801F0DAFBFB49AA2008802A
:103C900008F0AEFCF9495520088008F0A9FC989876
:103CA00006F026F94FEA480000F1C04025210690B1
:103CB0000490018008F09CFC00984FF0FF3101EB6C
:103CC00050001FFA80F94A4609F101031146ECA0A1
:103CD00007F018FE0498A0F8009008F089FC002175
:103CE0000DF52B790EE000BF09EB010021F0010377
:103CF000008803EB480202F1C04240BA108008F08D
:103D000077FC891C00988142EED30699292008800F
:103D100008F06EFCDFF89083DFF8909307E000BFB7
:103D200008F066FCA8F101005FEA000808D0402115
:103D3000484601F077FB0028F2D0002C7DD104E04A
:103D4000DBA0079907F0DEFD6CE1029999988A449F
:103D500000990844999002980A1ADFA007F0D2FD52
:103D6000C5E24FF40071C9F18060A5EB0A028842F8
:103D700000D201468A4200D21146002002919A9058
:103D8000B1F5007F06D2C1F5007002469A90E1A01D
:103D900007F0B8FD42F2B020FF224FF400716844F2
:103DA000FCF725FA029888B1024642F2B0219EAB98
:103DB000694409A809F03EF918B99E9A02998A4205
:103DC00004D00146DDA007F09DFD2FE19898002268
:103DD000800E00904FF40041A54801F030FB0098A0
:103DE0000821C0F34002A34801F029FBA249AA2000
:103DF000088008F0FDFBA1495520088008F0F8FB79
:103E0000989806F075F84FEA480000F1C040252167
:103E100001900246018008F0EBFBFF21118008F0C1
:103E2000E7FB002142F2B0206844084421F001037E
:103E3000008803EB480240BA00E0F8E002F1C0421B
:103E4000108008F0D5FB891CB1F5007FEAD30198FA
:103E50002921018008F0CCFBDFF84C8207E000BF8D
:103E600008F0C6FBA8F101005FEA00087AD0402103
:103E70008E4801F0D7FA0028F2D0029999988A4426
:103E8000084499909A98894420B19A9999988944BC
:103E9000084499905FEA8A3001D0AA4576D1002083
:103EA000AB90A29002460DF5227801904146AB48B6
:103EB00002F069FDF0B301F0C7FA4FF47A71B0FB7C
:103EC000F1F09B99BAF1000FA0EB010814D0B8F102
:103ED000000F11D02846FCF751FA01905046FCF72C
:103EE0004DFA0199FCF700FA01904046FCF746FABA
:103EF0000199FCF7F9F901900198FCF744FA9D91BA
:103F00009A90CDE902012846FCF738FA0190504614
:103F1000FCF734FA0199FCF7E7F99149FCF7B2F99B
:103F2000FCF731FACDE9A0010246DDE90203CDE953
:103F3000060300E020E010467B1C8DE84B012A467A
:103F40005146884807F0DEFC04F040FADDE9A001A4
:103F5000CDE9000184A20121002009F04BFF434676
:103F60008AE1FFE752A0079907F0CCFCF0214FF05F
:103F7000C0400524018080E70022ABA9774802F009
:103F8000DBFC4146ABA80AF00DF89AE76EE0002092
:103F90009E90AB909EAB0222ABA909A809F04AF80B
:103FA000010001D074A00EE79E9800285DD0BDF8F6
:103FB000AC024FEA590190FA90F84FF0C04000EB84
:103FC0004100CDE900102C49AA20088008F010FB20
:103FD0002A4A5520108008F00BFBA020088008F02A
:103FE00007FB0099490001F1C041A1F8008008F0E9
:103FF000FFFA4FF47A7806E008F0FAFAA8F1010027
:104000005FEA000809D04021284801F00BFA002897
:10401000F2D0002C0BD10BE06FE1DDE9002161A0B3
:1040200007F070FC4FF0C040F0210180052467E1EB
:104030009E98999982448144084499905FEACA30D5
:1040400001D0AA4512D10020CDF8AC04804602462A
:10405000AC900DF2AC41414800E038E102F093FC35
:10406000002804D001F0F0F9B2E033E12CE133E1B3
:1040700000200140000C0140AA0A006054050060C5
:10408000576F726420436F756E743A20257520282F
:1040900030782530345829A3ACB9B22575B8F6B0BC
:1040A000EBD7D60D0A00000080969800001401405E
:1040B0004275666665722050726F6772616D6D69D8
:1040C0006E67B3ACCAB1A3BAB5D8D6B730782530CD
:1040D000386C580D0A000000CEC4BCFECEB2B2BF90
:1040E000B4A6C0EDCDEAB3C9A3BACAB5BCCAB1E0A3
:1040F000B3CC256C75D7D6BDDAA3A8BAAC256C7540
:10410000D7D6BDDACCEEB3E4CAFDBEDDA3A90D0A55
:1041100000000000CAA3D3E0256C75D7D6BDDAB283
:10412000BBD7E3353132A3ACCCEEB3E4256C75D705
:10413000D6BDDA3078464646460D0A00B6C1C8A15B
:10414000CEC4BCFECAFDBEDDCAA7B0DCA3ACB4EDD4
:10415000CEF3C2EBA3BA25640D0A0000E4210020CF
:104160000000C842DC08010857726974696E673A3A
:1041700020252E3166252500D0B4C8EBCAA7B0DCB7
:10418000A3BAB6C1C8A1CEC4BCFECAFDBEDDCAA7D3
:10419000B0DCA3ACB4EDCEF3C2EBA3BA25640D0A38
:1041A00000000000D0B4C8EBB3ACCAB1A3BAB5D814
:1041B000D6B73078253038582028BFE9C4DAB0EBBC
:1041C000D7D6C6ABD2C6307825303658290D0A006E
:1041D0004FF47A71B0FBF1F09B99401AA190BAF1BB
:1041E000000F13D0A19888B12846FCF7C7F8804685
:1041F0005046FCF7C3F84146FCF776F88046A19894
:10420000FCF7BCF84146FCF76FF880464046FCF7E7
:10421000BAF803469A909D91CDE901132846FCF720
:10422000ADF880465046FCF7A9F84146FCF75CF82B
:10423000FE49FCF727F8FCF7A6F80A46A091DDE94D
:104240000131CDE906138046A1990090049101A89F
:104250007B1C80E84C002A465146F54807F052FB8B
:1042600004F0B4F8AFF20012A0990020CDE900816B
:10427000012109F0BFFDA19B0121EEA2084609F032
:10428000B9FD9D999A98CDE90001EDA20121022086
:1042900009F0B0FD7B1CEDA201210320009609F07E
:1042A000A9FD4FEA9A23EDA20121042009F0A2FD05
:1042B000AB0AEDA20121052009F09CFD04F08CF968
:1042C0000121EC4801F0B3F8B9F1806F02D2AA45A0
:1042D000FFF4C5AAA4B90AE00022ACA9E64802F09E
:1042E0002BFB0DF2AC41ACA809F05CFE74E7791C25
:1042F000E2A0999A07F006FB7F1CB742FFF49DAA43
:1043000005F02AFE4FF0C041F0200880012000F0A7
:1043100089FE002C7ED1E3A007F0F4FA002109A861
:1043200008F046FB002099904FF40051ACA8FBF731
:1043300065FF00209A9001F087F8A1903246E6A030
:10434000089907F0DFFA00200FE100BF4FF080610D
:104350004FEA8860721E9D914FF000099890904539
:1043600006D1C8F1000005EB8060884200D29D9024
:1043700098999D980A460B1808F10101E2485B1EC6
:1043800007F0C0FA989805F0B3FDDFE02F1A4FF45C
:104390000050874200D90746A1EB0900B84200D27D
:1043A00007469AAB3A46ACA909A808F043FE10B9F3
:1043B0009A98B84207D0DDE999133A46D34807F0F6
:1043C000A1FA0624D5E000272CE0ACAA7B1CD15D25
:1043D000834202D2D019407800E0002040EA012355
:1043E00009EB070E4FEA5E00400000F1C040008874
:1043F000984216D00BF101018B460A2906D94FF4D9
:104400007A72B1FBF2FC02FB1CB151B99899494494
:10441000394400E031E2CDE9000B7246BC4807F0B8
:1044200071FABF1C9A988742CFD39999814401446D
:10443000999101F009F807469998800302D099985C
:10444000A8427DD12846FBF799FF02909998FBF787
:1044500095FF03900299FBF747FF7449FBF712FFA2
:104460000290A1984FF47A71381AB0FBF1F1002054
:10447000AB9151B10846FBF781FF01460398FBF76A
:1044800033FF6FF00901FBF76DFFFBF77CFF074679
:1044900001910298FBF777FFCDE99F010B46AB999D
:1044A0000891019902AACDE9067108F1010101956F
:1044B00082E84208999902469648009107F022FA4C
:1044C00003F084FFDDE99F01CDE9000192A2012103
:1044D000002009F08FFC012108F101035BA20846CE
:1044E000009609F087FC642109FB01F09D998FA2D9
:1044F000B0FBF1F30121022009F07CFCBBF10000CC
:1045000009D003468CA20121032009F073FC00228C
:10451000022158480EE08BA20121032009F06AFC19
:10452000544F0121384600F07DFF00285ED0002264
:104530000121384600F083FF012185A2042000E01C
:1045400004E0AB9B09F056FC04F046F89D998945C0
:1045500003D29998A842FFF419AF4A4608F1010125
:104560007EA007F0CFF908F101008046B042FFF4C9
:10457000EDAE00F069FFA199401A4FF47A71B0FBDB
:10458000F1F682A007F0BEF933465A4687A0999902
:1045900007F0B8F9BBF100002AD00146062491A02B
:1045A00007F0B0F903F012FF98A20121002009F0F2
:1045B00021FC01215B4660A2084609F01BFC334642
:1045C00063A20121022009F015FCAFF6C8420121C7
:1045D000072009F00FFC03F0FFFF264D0022022107
:1045E000284600F02CFF0122114643E101229FE7FB
:1045F0008AA007F087F903F0E9FE92A201210020CA
:1046000009F0F8FB0121334651A2084609F0F2FBFC
:10461000AB0A90A20121022009F0ECFBAFF61C527C
:104620000121072009F0E6FB1AE100000000C84262
:10463000DC0801085573653A202575530000000019
:104640004573743A20252E3166530000426C6F6327
:104650006B3A2025752F257500000000577269748C
:10466000653A2025754B0000546F74616C3A202523
:10467000754B0000000C0140E4210020B5DA202534
:104680006C7520BFE9D0B4C8EBCDEAB3C9A3ACB90F
:10469000B2D0B4C8EB20256C7520D7D6BDDA0D0A90
:1046A00000000000BFAACABCC8ABC1BFD6F0576F9C
:1046B0007264D1E9D6A4A3A8CEC4BCFE5653D0BE22
:1046C000C6ACA3ACB7D636344D42BFE9B4A6C0EDF4
:1046D000A3A92E2E2E0D0A00D0BEC6ACC8DDC1BFC8
:1046E0003A20256C754D422C2046534D43BFE9B40A
:1046F000F3D0A13A2036344D422C20D7DCBFE9CA92
:10470000FD3A2025750D0A00FC06010894080108F1
:1047100040070108300901085665726966696E67CD
:104720003A20252E3166252500000000426C6F637B
:104730006B3A2025752525004572726F72733A20F9
:10474000256C75004E6F204572726F727300000009
:1047500054696D653A20257573000000B5DA20258F
:104760006C7520BFE9202836344D422920D1E9D686
:10477000A4CDEAB3C9A3ACB1BEBFE9D1E9D6A420A8
:10478000256C7520D7D6BDDA0D0A00000D0A3D3D17
:104790003D3D3D20C8ABC1BFD1E9D6A4CDEAB3C9E8
:1047A000203D3D3D3D3D0D0A00000000D7DCD1E934
:1047B000D6A4D7D6BDDACAFDA3BA256C75207C2055
:1047C000B2BBD2BBD6C2576F7264CAFDA3BA256C06
:1047D00075207C20D7DCD3C3CAB1A3BA257520C30A
:1047E000EB0D0A00D1E9D6A4CAA7B0DCA3A1B7A2F9
:1047F000CFD620256C7520B8F6576F7264CAFDBEFF
:10480000DDB2BBD2BBD6C20D0A000000566572698C
:104810006679204661696C6564210000C8ABC1BF40
:10482000D6F0576F7264D0A3D1E9CDA8B9FDA3A18A
:10483000CBF9D3D0CAFDBEDDCDEAC8ABD2BBD6C260
:104840000D0A0000566572696679205375636365C9
:104850007373210053697A653A2025754B42000035
:1048600003F0BAFE674D00220121284600F0E7FD63
:1048700001220221284600F0E2FD09A808F070F8A4
:1048800001220020A79908F087FA05F065FB4FF098
:10489000C041F0200880012000F0C4FB6CB3062C5E
:1048A0007ED00DF50050D0F8001857A007F02AF878
:1048B00003F08CFD5AA20121002009F09BFA0DF5AE
:1048C00000500121D0F8003859A2084609F092FAA8
:1048D00023465AA20121022009F08CFAAFF6DC72BD
:1048E0000121072009F086FA03F076FE20460DF636
:1048F000040D0DF5005DBDE8F08FA4AD0022294642
:10490000524802F040F818B151A006F0FBFF28E031
:10491000A5AC002221464D4802F00EF8294620465B
:1049200009F040FB0446014650A006F0EBFF9DF85D
:1049300090029DF892229DF891128DE807009DF853
:1049400097129DF896329DF8952252A001F5FA61D2
:1049500006F0D8FF9B98201A0146A8905BA006F0AD
:10496000D1FF0DF500505246D0F800185EA006F0B9
:10497000C9FF03F02BFD66A20121002009F03AFADD
:10498000AFF2503201210846A89B09F033FA4FEAF2
:104990009A23AFF240120121022009F02BFA00E025
:1049A0000DE05F4A0121072009F024FA03F014FE0C
:1049B000A8983C2801D907F06FFC002097E70DF577
:1049C00000505A46D0F8001856A006F09BFF03F09E
:1049D000FDFC61A20121002009F00CFA0DF5005048
:1049E0000121D0F8003812A2084609F003FA5EA2AD
:1049F0000121022009F0FEF901215B465DA203209E
:104A00006AE70000000C0140CEC4BCFE2573D0B4A0
:104A1000C8EBD0BEC6ACCAA7B0DCA3A10D0A00008B
:104A20005772697465204661696C65640000000016
:104A300046696C653A202573000000004572726F6C
:104A400072436F64653A202575000000E421002060
:104A5000BBF1C8A1D0B4C8EBBDE1CAF8CAB1BCE48F
:104A6000CAA7B0DCA3A10D0A00000000D0B4C8EBB7
:104A7000BDE1CAF8CAB1BCE4A3A8556E6978CAB151
:104A8000BCE4B4C1A3A9A3BA256C7520C3EB0D0A7D
:104A900000000000D0B4C8EBBDE1CAF8CAB1BCE464
:104AA000A3A8B1BEB5D8A3A9A3BA253034642D25D7
:104AB0003032642D2530326420253032643A25307E
:104AC00032643A253032640D0A000000414D32391B
:104AD000D0BEC6ACD0B4C8EBBAC4CAB1A3BA2575AF
:104AE00020C3EB0D0A000000CEC4BCFE2573D0B479
:104AF000C8EBD0BEC6ACB3C9B9A6A3A1D7DCD0B4AD
:104B0000C8EBD7D6BDDAA3BA25750D0A00000000A0
:104B10005772697465205375636365737300000091
:104B200004390008CEC4BCFE2573D0B4C8EBD0BE97
:104B3000C6ACCAA7B0DCA3A1D1E9D6A4B7A2CFD690
:104B400020257520B8F6576F7264CAFDBEDDB2BB72
:104B5000D2BBD6C20D0A000056657269667920463E
:104B600061696C65640000004572726F72436F7515
:104B70006E743A002575000010B501242102034827
:104B800000F050FC00B10024204610BD0008014098
:104B90000146014802F0FCB94C22002010B504483F
:104BA00002F008FA042801D0012010BD002010BD39
:104BB0004C22002010B500F015F8012801D001208A
:104BC00010BD074802F00FFA040006D14FF400614F
:104BD000034802F071F800B10124204610BD000026
:104BE0004C22002008B501208DF80000FFF7C4FF1B
:104BF00010B900208DF800009DF8000008BD0000ED
:104C000038B50024009313460A460146034802F0D3
:104C1000A1FA00B10124204638BD00004C2200203A
:104C200038B50024009313460A460146034802F0B3
:104C300081FB00B10124204638BD00004C22002039
:104C4000FEE7704772B6FEE7002200F001B80000F0
:104C500030B50E4B054601205C7A012C15D8587AE8
:104C600000241C54587A03EB800045605D7A03F100
:104C700008002A54587A421C5A72303008703A2080
:104C800048702F208870CC70002030BDBC3E0020C2
:104C900010B5D1E9004344EA03230C89097B2404BD
:104CA00044EA01610B43102A03D0C16AC3620020A9
:104CB00010BDC168C360FAE710B5D1E9004344EA0A
:104CC00003230C89097B240444EA01610B43102A65
:104CD00003D0816A8362002010BD81688360FAE797
:104CE00070B5D1E901231A43D1E9033633431A439E
:104CF0004B690D6889690B4C42EA432242EA413113
:104D0000102D07D0026A2240114341F008010162D0
:104D1000002070BD02682240114341F0080101608B
:104D2000F6E700008101F0FF30B5B3F5804F05D004
:104D30006FF0704140F82210002030BD8C690B6884
:104D40008D6823434C688989240144EA0524234360
:104D500043EA014150F82230014C23401943E9E76E
:104D60000000F0CF10B50A6850F8223023F001039C
:104D700040F822308C68082C23D000234A68224354
:104D8000CC681C430B6922431A434B690E4C1A43EF
:104D9000CB691A430B6A1A434B6A1A438B6A1A434C
:104DA000CB6A1A430B6B1A438B6913434A6B09682E
:104DB0001A4350F82130A343134340F82130002018
:104DC00010BD4023DAE700007FFF0F0030B5D1E9C6
:104DD000003443EA04138C688D89240244EA0544B4
:104DE00023430C8A074D00EB820005EB0454234358
:104DF0000C7D6D0105EB0464896923430B4343601B
:104E0000002030BD0000F0FF50F8212022F4805235
:104E100040F821200020704708B500208DF80000E0
:104E200002F04EFE20B126A006F06CFD012008BD68
:104E300002F0D6FD20B126A006F064FD022008BDD8
:104E400002F0EAFD20B126A006F05CFD032008BDBB
:104E500002F01AFE20B126A006F054FD042008BD81
:104E600002F0F6FD20B126A006F04CFD052008BD9D
:104E700002F09AFD20B127A006F044FD062008BDEF
:104E8000002301226946284802F06EFC08B1002088
:104E900008BD9DF8000020385E280DD84FF0FF3384
:104EA00001226946204802F0B7FC9DF800000D2859
:104EB00002D11EA006F026FD9DF8000008BD0000EE
:104EC000BCECB2E2B5BDA3BAC9CFBCFC0D0A000070
:104ED000BCECB2E2B5BDA3BACFC2BCFC0D0A000067
:104EE000BCECB2E2B5BDA3BAD7F3BCFC0D0A00001E
:104EF000BCECB2E2B5BDA3BAD3D2BCFC0D0A000033
:104F0000BCECB2E2B5BDA3BAC8B7C8CFBCFC0D0AB1
:104F100000000000BCECB2E2B5BDA3BAC8A1CFFB53
:104F2000BCFC0D0A00000000282300200A0000003D
:104F300038B5354C00208DF80000A07820B9607895
:104F400003F0F0FB0120A07002F0BAFD80B16078A0
:104F500003280DD9012103F02BFB60780121401EAD
:104F6000C0B2607003F024FB617828A006F0CAFC90
:104F700002F036FD80B1607807280DD2012103F0E0
:104F800017FB60780121401CC0B2607003F010FB79
:104F900061781EA006F0B6FC02F05AFD90B1607870
:104FA000C01E05282DD2DFE800F0030507090B001D
:104FB000012038BD022038BD032038BD042038BD93
:104FC000052038BD002301226946154802F0CCFBBC
:104FD000B8B99DF80000A0F13101042911D82E388C
:104FE000C5B26078854207D0012103F0E1FA284676
:104FF0006570012103F0DCFA9DF800003038C0B282
:1050000038BD002038BD0000000000200D0AB5B1F9
:10501000C7B0D1A1D4F1A3BAD0D02025640D0A0025
:105020002823002070B5044600F00EFA0546601CE7
:1050300002D004480078044400F006FA401BA04265
:10504000FAD370BD9800002070B586B000262248C3
:1050500000960196029603960168002939D1012134
:1050600001601E48416941F4807141614069022438
:1050700000F4807004904FF6FC70CDE90004032525
:1050800069460395164800F0D1F84FF23F00CDE98C
:10509000000469460395134800F0C8F842F23F2027
:1050A000CDE90004694603950F4800F0BFF84FF6BC
:1050B000B370CDE900040D4C69460395204600F01D
:1050C000B5F84020CDE9000669462046029600F07A
:1050D000ADF806B070BD00001800002000100240BE
:1050E00000180140001C0140002001400014014054
:1050F0002DE9F0430023454F0F2581E001229A401E
:105100000A407BD023F00304E619D6F808809C07F8
:105110004FEA147C05FA0CF909EA0804DFF8F0807C
:10512000404502D14FF0000824E0DFF8E880404518
:1051300002D14FF001081DE0DFF8DC80404502D1CC
:105140004FF0020816E0DFF8D480404502D14FF05E
:1051500003080FE0DFF8C880404502D14FF0040893
:1051600008E0DFF8C080404502D14FF0050801E0BB
:105170004FF0060808FA0CF8A04522D12A4CD4F8C2
:1051800000C02CEA020CC4F800C0241DD4F800C0F2
:105190002CEA020CC4F800C0234C0C34D4F800C034
:1051A0002CEA020CC4F800C0241FD4F800C02CEA7A
:1051B000020CC4F800C0D6F808C02CEA090CC6F8E6
:1051C00008C0FF2A01D8064601E000F104064FEAB4
:1051D000830401D9A4F12004D6F800C005FA04F82C
:1051E0002CEA080C4FF0040808FA04F84CEA080C02
:1051F000C6F800C0C46824EA0204C46003F10103D5
:1052000031FA03F27FF47AAFBDE8F0830000014089
:1052100000080140000C0140001001400014014052
:1052200000180140001C0140000401402DE9F84F26
:10523000DFF8C8910024A9F1040B23460F2709F1D8
:10524000040AABF1040ED1E00125A54006EA0502EF
:10525000AA4276D1DFF8A8C14E68A6EB0C086645D5
:105260002BD00DDC032E34D005DC36B3012E19D043
:10527000022E2FD11BE0112E16D0122E2AD119E0AA
:10528000B8F5881F19D006DCB8F5803F15D0B8F501
:10529000801F1FD111E0B8F5001F0ED0B8F5041F14
:1052A00018D10AE0CB6815E0CB681B1D12E0CB6873
:1052B00008330FE0CB680C330CE08B682BB1012B6B
:1052C0004FF0080303D0456104E0042302E00561C8
:1052D00000E00023FF2A01D8064601E000F10406A1
:1052E0004FEA840501D9A5F12005D6F8008007FA18
:1052F00005FC28EA0C0803FA05F548EA0508C6F893
:1053000000804D68ED0070D53E4DAE6946F0010657
:10531000AE61AD6924F0030605F0010500953A4D34
:1053200006EB050CDCF80850A607360F07FA06F85E
:1053300025EA0805DFF8D480404503D14FF0000886
:1053400025E052E0DFF8C880404502D14FF0010867
:105350001DE0DFF8C080404502D14FF0020816E0A2
:10536000DFF8B480404502D14FF003080FE0DFF8CA
:10537000AC80404502D14FF0040808E0DFF8A0807F
:10538000404502D14FF0050801E04FF0060808FA49
:1053900006F848EA0508CCF808804D68D9F800609E
:1053A000ED024D4601D5164300E096432E604D6850
:1053B000DAF80060AD02554601D5164300E0964389
:1053C0002E604D68DBF80060AD035D4601D51643E5
:1053D00000E096432E604D68DEF80060ED037546F0
:1053E00001D5164300E096432E60641C0A681646F9
:1053F000E2407FF429AFBDE8F88F000008040140C7
:10540000000011100010024000000140000801409F
:10541000000C014000100140001401400018014040
:10542000001C01408068084000D001207047C2681D
:1054300021EA02030A4043EA0241016170470AB1CE
:10544000016170470904FBE701488068704700006C
:105450009800002001480078704700009800002064
:1054600070B5040025D094F83D00002520B984F8DB
:105470003C50204600F0B8F8242084F83D00206815
:10548000016821F0010101602068016841F40041D8
:1054900001602068016821F40041016001F076F8A4
:1054A0004D4A6168914201D84C4900E04C4988421C
:1054B00001D2012070BD4B492368B0FBF1F15E6859
:1054C00026F03F060E435E606368934206D94FF4B0
:1054D000967359434FF47A73B1FBF3F12368491C77
:1054E0001E6A26F03F06314319626168914210D866
:1054F0004900401EB0FBF1F2521CC2F30B02042A19
:1055000001D2042022E0B0FBF1F0401CC0F30B00FC
:105510001CE0A268F2B301EBC10303EB0116431ECA
:10552000B3FBF6F35B1C43F480431B0549D092B3F5
:1055300001EBC10202EB0111401EB0FBF1F0401C77
:10554000C0F30B0040F4804040F400402168CA6979
:105550004CF6FF739A431043C861D4E90710014326
:105560002068026822F0C00211430160D4E90301FF
:1055700001432068826848F2FF339A4311438160F7
:10558000D4E9050108432168CA6822F0FF021043EC
:10559000C86001E00EE016E02068016841F00101FA
:1055A00001602564202084F83D00256384F83E5086
:1055B000002070BD01EB4106431EB3FBF6F35B1CFC
:1055C000B3E70120C2E701EB4101401EB0FBF1F05F
:1055D000401CC0F30B00B7E7A086010080841E00CA
:1055E00000093D0040420F0010B586B00021009137
:1055F00001910291039100680F4988421AD10F4C22
:10560000A06940F00800A061A069694600F00800A8
:105610000490C020009012200190032003900848BD
:10562000FFF704FEE06940F40010E061E06900F477
:105630000010049006B010BD00540040001002405D
:10564000000C014002488168027811448160704773
:1056500098000020074810B5016841F01001016072
:10566000032000F055F90F2000F006F800F024F8B0
:10567000002010BD0020024070B50D4D04464FF4CF
:105680007A712878B1FBF0F00A490968B1FBF0F0B3
:1056900001F0BAFF48B9102C07D200222146501E53
:1056A00000F016F900206C6070BD012070BD000094
:1056B00098000020A80000200C4808B5816941F03E
:1056C00001018161816901F001010091C16941F02D
:1056D0008051C161C06900F0805000900448416869
:1056E00021F0E06141F00071416008BD001002400E
:1056F0000000014070B515460E46040003D094F832
:10570000210010B107E0012070BD002084F82000C6
:10571000204600F020F8211D2068FFF7E1FAD4E9C7
:1057200000023146FFF7C8FAD4E900022946FFF724
:10573000AFFA60681028206808D0016A41F00401BF
:105740000162012084F82100002070BD016841F051
:1057500004010160F5E7FFF777BC00002DE9F04197
:105760001746884604004FF0000504D094F8410025
:10577000002618B107E00120BDE8F08184F8406000
:10578000204600F059F804F108012068FFF7EAFA12
:105790004146A2682068FFF719FBD4E901023946A7
:1057A000236BFFF7C1FAA168206850F8212042F06E
:1057B000010240F821201F4A6169012011B31060E5
:1057C00084F84100A168F9B1022920D0042921D030
:1057D0004FF0D840A36A03B31168982321B301297D
:1057E00022D000F155010B80BFF34F8F11680129C2
:1057F0001DD0133000886064204600F01FF8054675
:105800002846B9E71660DBE74FF0C040E2E74FF00B
:10581000C840DFE74FF0D040DCE72068FFF7F4FA3C
:10582000042084F84100EBE700F1AA01DBE7263011
:10583000E0E70000A4000020FFF706BC10B590F8D8
:1058400041200023022A24D0042A01D0012A01D0B9
:10585000012010BD90F8401001291AD0012180F8D4
:105860004010022180F841108168A1B1022915D0B1
:10587000042916D04FF0D841446C022C14D0012CCE
:1058800014D0012380F84120002180F840101846F0
:1058900010BD022010BD4FF0C041EDE74FF0C841F0
:1058A000EAE74FF0D041E7E7F02400E0FF240C8066
:1058B000BFF34F8FE6E7002809DB00F01F0201214C
:1058C00091404009800000F1E020C0F800117047CD
:1058D000F0B40E4B1B680C46C3F30223C3F107055B
:1058E000042D00D90425191D072901D2002300E049
:1058F000DB1E012606FA05F1491E214099409E4013
:10590000761E16403143F0BC06F03AB80CED00E0CC
:10591000064900F0070208684FF6FF03184040EA06
:105920000220034A10430860704700000CED00E0BD
:105930000000FA0510B50C0607D501F0070101EBD0
:10594000810100EBC100103005E001EB810100EBAB
:10595000C10000F5A87099B232B101220273018131
:10596000190C4181002010BD00220273C180F9E7AB
:10597000704701EB810200EBC202D0F8D402526AF8
:1059800004F02DBE01EB810200EBC202D0F8D4027C
:10599000D2F8642104F086BE70B504460B0601F00F
:1059A000070000EB800104EBC1014FF001024FF052
:1059B000000502D54A74103103E081F8515101F518
:1059C000A871087094F89002012808D084F89022F9
:1059D000206805F0C1FB84F89052002070BD0220C1
:1059E00070BD70B5044601F00F002279904201D9D4
:1059F000012070BD0B0601F0070000EB800104EBF5
:105A0000C1014FF001024FF0000502D54A74103178
:105A100003E081F8515101F5A8718D70087094F878
:105A20009002012808D084F89022206805F031FC0B
:105A300084F89052002070BD022070BD2DE9F05F07
:105A400004685FEA424C0B788D69B4F850C04FF09F
:105A500000064BF68F7948F2800A48F68F7B48F2B1
:105A6000C00E4FF480672AD54FF0020808EBC30838
:105A7000C44407EB4C07E45BC4F30904A54203D319
:105A80002D1B8D6101D00BE08E61066836F8235026
:105A900005EA090585F4005545EA0A0526F823506C
:105AA000520609D50D78036833F8252002EA0B0267
:105AB00042EA0E0223F8252084B30A8929E04FF038
:105AC000060808EBC308C44407EB4C07E45BC4F3C7
:105AD0000904A54203D32D1B8D6101D00BE08E611B
