:020000040800F2
:10000000C87E002049010008377E000829730008D7
:10001000357E0008B146000803B300080000000068
:10002000000000000000000000000000119900081E
:10003000B346000800000000B7860008099A0008CF
:100040006301000863010008630100086301000800
:1000500063010008630100086301000863010008F0
:1000600063010008630100086301000863010008E0
:1000700063010008630100086301000863010008D0
:1000800063010008630100086301000863010008C0
:100090008DB20008630100086301000863010008D5
:1000A00063010008630100086301000863010008A0
:1000B0006301000863010008630100086301000890
:1000C0006301000863010008630100086301000880
:1000D0006301000863010008630100086301000870
:1000E0006301000863010008630100086301000860
:1000F0006301000863010008630100086301000850
:10010000630100086301000863010008630100083F
:10011000630100086301000863010008630100082F
:10012000630100086301000863010008630100081F
:10013000DFF810D000F086FB00480047C5D4000867
:10014000AFF30080C87E002006488047064800477D
:10015000FEE7FEE7FEE7FEE7FEE7FEE7FEE7FEE777
:10016000FEE7FEE7859A0008310100082DE9F05FFF
:100170000546002092469B46884606468146402416
:100180001BE0284641464746224600F020F85346E9
:100190005A46C01A914110D311461846224600F023
:1001A0001BF92D1A67EB01084F462246012000215A
:1001B00000F012F917EB00094E41201EA4F10104D2
:1001C000DFDC484631462A464346BDE8F09F202AF8
:1001D00004DB203A21FA02F00021704721FA02F3F1
:1001E000D040C2F120029140084319467047D2B274
:1001F00001E000F8012B491EFBD270470022F6E710
:1002000010B513460A4604461946FFF7F0FF20468C
:1002100010BD10B5044604E00B7800F8013B03B1B3
:10022000491C521EF8D2204610BD421C10F8011B7A
:100230000029FBD1801A704710B5002200E0521C43
:10024000835C8C5CA34201D1002BF8D1D8B2E1B21F
:10025000401A10BD0022CBB20178994200D102466B
:10026000401C0029F8D11046704770B506460BF0C7
:10027000D3F8046805460A220021304600F0BBF896
:100280002C6070BD80EA010210B502F0004340000E
:1002900022D04A001FD0010E01EB1261C0F35600BC
:1002A000C2F3560240F4000042F40002A0FB022018
:1002B00000047F39140400D0401C50EA124001D4DD
:1002C0004000491EC2B20C0604EBD010401C40088E
:1002D000802A02D003E0002010BD20F00100002998
:1002E00000DA0020184310BD30B480EA010202F0A9
:1002F000004530F0004221F0004013D090B1C30D12
:10030000D40DC2F31601C0F31600E41A41F4000143
:1003100040F400027D34914201D3641C00E04900A6
:10032000002C02DA30BC002070474FF4000000239C
:10033000914201D3891A034340084FEA4101F7D1A2
:1003400051B1914202D14FF0004105E002D24FF08D
:10035000010101E06FF0010103EBC450284430BCFF
:1003600000F081B8420005D0C0F3C752524291421A
:1003700001DC0020704700EBC1507047962300223B
:10038000114600F079B800F0004230F000400AD089
:10039000C10D01F56071C0F3160042EA0151C208B7
:1003A00040071143704700200146704730B50B46A7
:1003B000014600202022012409E021FA02F59D4295
:1003C00005D303FA02F5491B04FA02F52844151E69
:1003D000A2F10102F1DC30BD202A04DB203A00FA50
:1003E00002F1002070479140C2F1200320FA03F38C
:1003F0001943904070472DE9F04791460F468046DB
:100400000446002614F8015B2DB100F03FFA0068A5
:10041000405DC007F6D12B2D02D02D2D18D0641EC3
:100420004A463946204600F035FA27B13968A142DC
:1004300001D1C7F8008071054FF002040BD540428E
:10044000002803DD0AF0E8FF0460A007BDE8F0879C
:1004500046F48066E4E70028F8DA0AF0DDFF04607D
:100460006FF00040F2E70029A8BF7047401C490028
:1004700008BF20F00100704710B4B0FA80FC00FA09
:100480000CF050EA010404BF10BC704749B1CCF134
:10049000200421FA04F411FA0CF118BF01212143C0
:1004A0000843A3EB0C01CB1D4FEA00614FEA10207B
:1004B00042BF002010BC704700EBC350104400291D
:1004C000A4BF10BC7047401C490008BF20F00100C9
:1004D00010BC70472DE9FE4F804681EA0300C00F33
:1004E0000C46009021F0004123F00045B8EB0200DB
:1004F000A94105D24046214690461C460B4602467D
:1005000023F00040104347D0270DC7F30A00C3F380
:100510000A510290401A019040286BDAC3F313008D
:1005200040F4801B0098924620B10023D2EB030ACE
:1005300063EB0B0B01985946C0F140025046FFF7A0
:100540004BFF06460D4650465946019A00F08CF97D
:1005500010EB08006141002487EA115284EAE77336
:100560001A4340D0009A62B3019A012A4FEA075217
:1005700015DC001B61EB02014FF0004202EA07525A
:10058000CDE90042001C41F5801132462B4600F0B7
:10059000DFF903B0BDE8F08F40462146F9E7001BC4
:1005A00061EB0201001C41F5801300185B4120182B
:1005B000A2F5001747EB030140EAD570B6196D416B
:1005C00011E06D084FEA360645EAC0754FEA07525A
:1005D000001B61EB0201001C41F5801149084FEA44
:1005E00030000019514132462B4603B0BDE8F04FB0
:1005F00000F09FB90098012240000023D0EB0202D6
:1006000063EBE073009821464FEAE074B8EB00001A
:1006100061EB0401E9E783F000435BE781F000410F
:1006200058E72DE9FE4F81EA030404F0004421F06D
:10063000004100944FF0000B23F0004350EA010406
:100640005ED052EA03045BD0C3F30A54C1F30A55E7
:100650002C44A4F2F3340194A0FB0254C1F313011F
:1006600041F48011C3F3130343F4801301FB0244EC
:1006700000FB034E840A970A44EA815447EA8357F1
:10068000A4FB076802958D0A05FB07854FEA932CAA
:1006900004FB0C542705029D4FEA065847EA16371B
:1006A000B5EB08056EEB070C870E920E47EA811733
:1006B00042EA8312A7FB0201B6EB0B0164EB0004D4
:1006C0002B0D43EA0C335E1844EB1C50DA465146BE
:1006D000E7FB0201C5F313044FEA0B3343EA14535B
:1006E0004FEA0432019C43EA0603A4F10C0402948D
:1006F000009CCDE900B400F02BF903B0BDE8F08F09
:1007000000200146F9E72DE9F04D81EA030404F0E9
:10071000004B21F0004514464FF0000A23F0004141
:1007200050EA050220D054EA01021DD0C5F30A5751
:100730000246C5F31303C1F31300C1F30A5640F494
:10074000801543F48013A7EB0608101BD64608F269
:10075000FD3873EB050002D308F1010801E092189F
:100760005B41B8F1000F03DA00200146BDE8F08DCF
:1007700000204FF48011064684460EE0171B73EBF1
:10078000050705D3121B63EB050306434CEA010C76
:1007900049084FEA300092185B4150EA0107EDD159
:1007A00052EA030012D082EA040083EA05010843FA
:1007B00005D0101BAB4106D20122002306E0002227
:1007C0004FF0004302E06FF0010253101AEB0600F5
:1007D0004CEB085110EB0A0041EB0B01BDE8F04D6A
:1007E00000F0A7B8C1F30A52C1F3130140F2FF337E
:1007F00041F480119A4202DA00200146704740F22B
:1008000033439A42A2F2334202DC5242FFF7DFBC8A
:10081000FFF7E2BD30B5041E71F1000404DB4FF0B8
:100820000044404264EB0101141E73F1000405DB37
:100830001C464FF00043524263EB0403994208BF49
:10084000904230BD064C074D06E0E06840F00103E1
:1008500094E8070098471034AC42F6D3FFF76CFCDD
:10086000B4030108D4030108202A06DBCB17203A81
:1008700041FA02F043EAE07306E041FA02F3D040A5
:10088000C2F1200291400843194670470048704762
:10089000E00001082DE9F05F824600780027154648
:1008A0008B460AF10104B946302801D09DB113E00E
:1008B00014F8010B0127782803D0582801D045B13E
:1008C0000AE00DB1102D07D10027102514F8010BF7
:1008D00002E0082500E00A250026B0460EE005FBF0
:1008E000080005FB06F1012701EB10461FFA80F80E
:1008F000B6F5803F00D3B94614F8010B294600F045
:1009000075F80028EBDABBF1000F05D00FB1641EBB
:1009100000E05446CBF80040B9F1000F06D00AF0D1
:100920007BFD02210160C81EBDE8F09F48EA064039
:10093000FAE710B5141E73F1000408DA401C41F107
:10094000000192185B411A4301D120F0010010BD53
:100950002DE9F04D92469B4611B1B1FA81F202E0C9
:10096000B0FA80F220329046FFF736FD04460F467B
:1009700040EA0A0041EA0B0153465A46084313D0A5
:10098000114653EA010019D0C8F140025046FFF762
:100990001EFC05460E46504659464246FFF71CFDD2
:1009A000084305D0012004E020463946BDE8F08D1B
:1009B0000020054346EAE0762C4337430A98630556
:1009C000E40AA0EB08000022FD0A44EA47540A307A
:1009D00002D500200146E9E7010510196941DDE96A
:1009E000084500196941BDE8F04DA2E73A2800D258
:1009F000303820F02002412A01D3A2F1370088428A
:100A000001D34FF0FF30704770B58C1810F8015BC0
:100A100015F0070301D110F8013B2A1106D110F897
:100A2000012B03E010F8016B01F8016B5B1EF9D19B
:100A30002B0705D40023521E0DD401F8013BFAE721
:100A400010F8013BCB1A921C03E013F8015B01F88C
:100A5000015B521EF9D5A142D8D3002070BD000021
:100A60002DE9FC5F904641B1C2070AD0014658A06B
:100A70000AF072FC0220BDE8FC9F5FA00AF06CFC4B
:100A8000F8E74A1C56084FEA500911F0010700EB3D
:100A9000010202D00123934300E000230024A34677
:100AA000A2460193B8F1000F06D00B46014659A0AB
:100AB000521E00960AF050FC00255DE009EB05008F
:100AC000410001F1C041002F0B883BD0711E8D42C7
:100AD00038D1019939B1FF21B1EB132F4BD0641CF0
:100AE000012C1AD01EE0D94311F0FF0F43D0641C33
:100AF000012C04D14FF0C04101EB400B9A46B8F1F4
:100B0000000F38D00A2C36D8D9B200914FF0C0412E
:100B100001EB400221464EA011E04FF0C04101EB35
:100B2000400B9A46B8F1000F25D00A2C23D8190A99
:100B300000914FF0C04101EB4002214653A00AF062
:100B40000BFC18E0A3F57F41FF3914D0641C012C85
:100B500004D14FF0C04101EB400B9A46B8F1000FB1
:100B600009D00A2C07D84FF0C04101EB40022146C2
:100B700055A00AF0F1FB6D1CB5429FD3B8F1000FF0
:100B800021D0002C1BD021465CA00AF0E5FB524688
:100B9000594662A00AF0E0FB0A2C03D9214669A05D
:100BA0000AF0DAFB71A00AF0D7FB75A00AF0D4FBBB
:100BB00080A00AF0D1FB8CA00AF0CEFB04E096A046
:100BC0000AF0CAFB02E00CB1012054E7002052E712
:100BD000BCECB2E9CAA7B0DCA3BAC6F0CABCB5D8AF
:100BE000D6B7307825303858B2BBCAC7C5BCB6D4E2
:100BF000C6EB0D0A00000000BCECB2E9CAA7B0DCED
:100C0000A3BABCECB2E9B3A4B6C8B2BBC4DCCEAAEA
:100C1000300D0A00D5FDD4DABCECB2E9D0BEC6ACCA
:100C2000C7F8D3F23A2030782530386C58207E202F
:100C300030782530386C582028B9B2256C75D7D655
:100C4000BDDA2C20256C75B0EBD7D6290D0A000033
:100C50002020B4EDCEF32023256C753A20B5D8D6EC
:100C6000B730782530386C5820CAFDBEDD30782585
:100C70003034582028B5CDD7D6BDDA30782530327B
:100C800058B7C730784646290D0A00002020B4ED39
:100C9000CEF32023256C753A20B5D8D6B730782509
:100CA00030386C5820CAFDBEDD30782530345820ED
:100CB00028B8DFD7D6BDDA307825303258B7C730FC
:100CC000784646290D0A00002020B4EDCEF32023FB
:100CD000256C753A20B5D8D6B730782530386C58A1
:100CE00020CAFDBEDD3078253034582028D3A6CE6A
:100CF000AA307846464646290D0A00000D0A3F3FB5
:100D00002020BCECB2E9B7A2CFD620256C7520B864
:100D1000F6B7C7BFD5B0D7B5D8D6B7002028CAD741
:100D2000B8F6B4EDCEF3A3BAB5D8D6B7307825303F
:100D3000386C5820CAFDBEDD307825303458290D76
:100D40000A00000020202028D6BBCFD4CABEC1CBC9
:100D5000C7B03130B8F6B4EDCEF3A3ACB9B2256C60
:100D600075B8F6B4EDCEF3290D0A00000D0ABFC91F
:100D7000C4DCB5C4D4ADD2F2A3BA0D0A00000000A1
:100D80002020312E20D0BEC6ACC9D0CEB4B2C1B363
:100D9000FD202D20BDA8D2E9CFC8D6B4D0D0D5FB38
:100DA000C6ACB2C1B3FDA3A8D1A1CFEE32A3A90DA9
:100DB0000A0000002020322E20D0BEC6ACD2D1D3F3
:100DC000D0D3D0D0A7CAFDBEDD202D20D6B1BDD353
:100DD000D0B4C8EBBFC9C4DCB5BCD6C2CAFDBEDD49
:100DE000CBF0BBB50D0A00002020332E20D3B2BCBF
:100DF000FEC1ACBDD3CECACCE2202D20BCECB2E902
:100E000046534D43C1ACBDD3BACDD0BEC6ACB9A9D3
:100E1000B5E70D0A000000003F20BCECB2E9CDA808
:100E2000B9FDA3BAD6B8B6A8C7F8D3F2C8ABB2BF5B
:100E3000CEAA3078464646460D0A0000F8B504466C
:100E4000012211020020FFF70BFE00287BD0002CAE
:100E500079D062A00AF080FA69A00AF07DFA06F063
:100E6000EBFF75A2012100200CF0DEFC012175A230
:100E700008460CF0D9FC76A2012102200CF0D4FC2B
:100E800076A2012103200CF0CFFC78A201210420DE
:100E90000CF0CAFC79A2012105200CF0C5FC7AA255
:100EA000012106200CF0C0FC7BA2012107200CF0E0
:100EB000BBFC07F0C7F803F0FFFF04464FF4FA75D8
:100EC000002742F2107629E006F0FAFA58B175A030
:100ED0000AF042FA06F0B0FF7BA2012100200CF0DC
:100EE000A3FC7DA269E006F097FA58B17CA00AF055
:100EF00033FA06F0A1FF83A2012100200CF094FC3C
:100F000084A242E08DF800700023012269468448E3
:100F100006F062F9E0B1142003F0BCFD03F0CCFF51
:100F2000001BB042D0D37FA00AF016FA06F084FF6F
:100F300084A2012100200CF077FC012183A2084645
:100F40000CF072FC00E02CE0012183A202201EE0E4
:100F50009DF8000020385E2806D84FF0FF330122AC
:100F600069466F4806F090F99DF80000592819D09D
:100F7000792817D07BA00AF0EFF906F05DFF61A297
:100F8000012100200CF050FC80A2012108460CF049
:100F90004BFC81A2012107200CF046FC07F052F81F
:100FA0000220F8BD80A00AF0D7F906F045FF46A25E
:100FB000012100200CF038FC84A2012108460CF02D
:100FC00033FC84A2012102200CF02EFC07F03AF839
:100FD000284603F05FFD0020F8BD00000D0ABEAFFB
:100FE000B8E6A3BAD0BEC6ACC6F0CABCC7F8D3F246
:100FF000B2BBCAC7BFD5B0D7B5C4A3A10D0A000004
:10100000CAC7B7F1C7BFD6C6BCCCD0F8D0B4C8EBFE
:10101000A3BF28B0B4205920BCFC20BBF2204F4B0A
:10102000BCFC20BCCCD0F8A3ACC6E4CBFBBCFCC859
:10103000A1CFFB293A2000005741524E494E47218B
:1010400000000000537461727420617265610000D9
:101050004E4F5420626C616E6B210000466F7263CC
:101060006520636F6E74696E75653F0050726573BD
:10107000732059206F72204F4B000000746F206363
:101080006F6E74696E7565005072657373206F744E
:101090006865727300000000746F2063616E6365A1
:1010A0006C0000000D0AD3C3BBA7B0B44F4BBCFC0F
:1010B000C8B7C8CFA3ACC7BFD6C6BCCCD0F8D0B4D5
:1010C000C8EB2E2E2E0D0A00436F6E6669726D6599
:1010D00064206279000000004F4B206B65790000AE
:1010E0000D0AD3C3BBA7B0B4C8A1CFFBBCFCA3AC53
:1010F000D0B4C8EBB2D9D7F7D2D1C8A1CFFB0D0A73
:101100000000000043616E63656C6C656420627969
:101110000000000043414E43454C206B65790000C0
:10112000282300200D0AB5C8B4FDB3ACCAB1A3ACE6
:10113000D0B4C8EBB2D9D7F7D2D1C8A1CFFB0D0A32
:101140000000000054696D656F7574004F70657222
:101150006174696F6E00000043616E63656C6C655D
:10116000640000000D0AD3C3BBA7CAE4C8EBC6E401
:10117000CBFBD7D6B7FBA3ACD0B4C8EBB2D9D7F76B
:10118000D2D1C8A1CFFB0D0A000000006F746865C2
:1011900072206B6579000000507265737320616E78
:1011A00079206B65790000000D0AD3C3BBA7CAE4A0
:1011B000C8EB59C8B7C8CFA3ACC7BFD6C6BCCCD044
:1011C000F8D0B4C8EB2E2E2E0D0A00002759272088
:1011D0006B657900436F6E74696E75652E2E2E00F7
:1011E00070B515000C46064615D0002C13D04FF0F4
:1011F000C041F0200880012003F04CFC002308E0EF
:10120000F018400000F1C040008825F813005B1C76
:101210009BB2A342F4D370BD2DE9F04F97B008F014
:10122000CBFB002015901390149011900246129061
:1012300013A9ED4805F0DFF830B1ECA00AF08CF806
:10124000052017B0BDE8F08F002214A9E64805F08C
:10125000ABF813A914A80CF0BFFB01460A90EAA052
:101260000AF07AF80027169701F092F820B11428B6
:101270001AD84FF496711FE0EDA00AF06DF806F051
:10128000DBFDEFA2012100200CF0CEFA0121F0A23B
:1012900008460CF0C9FAF3A2012107200CF0C4FAA9
:1012A00006F0D0FE6320CCE7A0F11501072909D88C
:1012B000491C4FF496725143894601F063F8860E3B
:1012C00018D018E0EBA00AF047F806F0B5FDDCA254
:1012D000012100200CF0A8FA0121EDA208460CF033
:1012E000A3FAE0A2012107200CF09EFA06F0AAFE64
:1012F0006220A6E701264FEA500A010D5346324606
:10130000E8A00AF029F80020054604460890F048B5
:101310004FF0007B816941F02001816180690DA956
:1013200000F02000009000200E9040200D90012041
:101330000F9002201090E74803F0B0FCBFE04FF0A0
:10134000C041F0200880642003F0A4FB611CE2A0EF
:101350000AF002F8A00608F001FBDFF88C83AA214E
:10136000A8F800100AF060FEE04A552111800AF04A
:101370005BFE8023A8F800300AF056FEAA20A8F8E9
:1013800000000AF051FE11800AF04EFE1021A8F86C
:101390000010142003F07EFB4021CE4803F07AFDBC
:1013A0008046D3A009F0D8FFB8F1000F11D0D6A025
:1013B00009F0D2FF06F040FDA1A2012100200CF0AF
:1013C00033FA0121D8A208460CF02EFA631CDAA2E7
:1013D0003EE3DCA009F0C0FF002016904F4520D965
:1013E0003946E0A009F0B8FF06F026FD94A20121DD
:1013F00000200CF019FA01213B46E0A208460CF04F
:1014000013FA98A2012107200CF00EFA06F01AFE3A
:101410004FF0C041F02008800A2003F03BFB012080
:101420000FE74021AB4803F035FD8046012822D06C
:1014300000223946D4A009F08FFF06F0FDFC3B46A0
:10144000D7A2012100200CF0EFF9B8F1010F14D060
:1014500000230121D5A208460CF0E6F9631CD6A2B0
:101460000121022000960CF0DFF906F0EBFDB8F147
:10147000010F04D036E00122DBE70123E9E74FF05A
:10148000C0400078C0F340110791C0F38011C0F351
:10149000C01801200C9100900A464146CAA0079B43
:1014A00009F05AFFB8F1000F1CD00C98C0B1079892
:1014B000B0B1169803280FD30120A41C1690B44293
:1014C000FFF43DAF002211A9474804F094FFA8B1F2
:1014D000C8A009F041FF39E0401CC0B2169001E0FD
:1014E000079848B14FF47A7003F0D4FA0121C84844
:1014F00003F0D5FC7F1C71E70420A2E6002212A9AC
:10150000394804F051FF11A912A80CF065FA0446FD
:101510000146C0A009F020FF9DF844009DF8462038
:101520009DF845108DE807009DF84B109DF84A3056
:101530009DF84920C1A001F5FA6109F00DFF0A9854
:10154000201A01461590CBA009F006FF2946D0A02D
:10155000089A09F001FFDCA009F0FEFE4FF0C0413F
:10156000F02008800A2003F095FA5146E1A009F026
:10157000F3FE002439E200BF04FB0BF000EB0B0389
:1015800081460246611CE5A05B1E09F0E5FEA0064F
:1015900008F0E4F9002724E2780000F1C040038855
:1015A000A3F57F40FF3811D00898401C0890089997
:1015B00009EB0700C90309D1089900914FF0C04118
:1015C00001EB40013A46E54809F0C6FE6D1CA80350
:1015D00009D101218E4803F062FC601CCDE90006B0
:1015E00052462946BCE1F9E1E4210020BBF1C8A143
:1015F000B2C1B3FDBFAACABCCAB1BCE4CAA7B0DCC1
:10160000A3A10D0A00000000B2C1B3FDBFAACABC6D
:10161000CAB1BCE4A3A8556E6978CAB1BCE4B4C130
:10162000A3A9A3BA256C7520C3EB0D0A0000000026
:10163000BBF1C8A1C8DDC1BFCAA7B0DC0D0A00005C
:101640004572617365204661696C65642100000024
:101650004765742043464920436170204661696CA8
:1016600000000000507265737320616E79206B6515
:1016700079000000D7EEB4F3D6A7B3D63235364D95
:101680004279746528533730474C3032290D0A00AF
:101690004D617820737570706F72743A3235364DC3
:1016A00000000000D0BEC6ACC8DDC1BF3A20257521
:1016B000204D422C20D7DCBFE9CAFD3A2025752CED
:1016C00020D7DCB0EBD7D6CAFD3A2025750D0A002D
:1016D00000100240001401400D0AB5DA20257520E3
:1016E000BFE90D0A00000000AA0A0060540500606E
:1016F000D5FDD4DABCECB2E9CAC7B7F1BDF8C8EB86
:10170000B2C1B3FD0D0A000052592F42592320697E
:101710007320312C20B2C1B3FDD7B4CCACBDF8C816
:10172000EBCAA7B0DC0D0A0052592F425923206E94
:101730006F74203100000000426C6F636B3A20250B
:101740007500000052592F42592320697320302C14
:1017500020B3C9B9A6BDF8C8EBB2C1B3FDD7B4CCAC
:10176000AC0D0A00B2C1B3FDB3ACCAB1212028430D
:101770006F756E743A202575290D0A0054696D65E0
:101780004F75743A25750000BCC6CAB13A2564731A
:101790002C2052592F4259233A25640D0A0000008B
:1017A00045726173696E673A2564730052592F421E
:1017B00059233A2564000000426C6F636B3A202580
:1017C000752F257500000000B2C1B3FDD7B4CCACB5
:1017D0003A2051373D25642C2051363D25642C207C
:1017E00051353D25642C2052592F4259233D256403
:1017F0000D0A0000BBF1C8A1B2C1B3FDBDE1CAF83A
:10180000CAB1BCE4CAA7B0DCA3A10D0A0000000065
:10181000000C0140B2C1B3FDBDE1CAF8CAB1BCE4DD
:10182000A3A8556E6978CAB1BCE4B4C1A3A9A3BA90
:10183000256C7520C3EB0D0A00000000B2C1B3FD9A
:10184000BDE1CAF8CAB1BCE4A3A8B1BEB5D8A3A98A
:10185000A3BA253034642D253032642D253032640E
:1018600020253032643A253032643A253032640D16
:101870000A000000414D3239D0BEC6ACB2C1B3FD42
:10188000BAC4CAB1A3BA257520C3EB0D0A00000083
:10189000C8ABD0BEC6ACD1E9D6A4CDEAB3C9A3BA11
:1018A000B9B2D0A3D1E9256C75B8F6B0EBD7D62084
:1018B0007C20B7C7307846464646B5D8D6B7CAFD6D
:1018C000A3BA256C750D0A00B2C1B3FDD1E9D6A447
:1018D000CDA8B9FDA3A1C8ABD0BEC6ACCBF9D3D0BF
:1018E000B5D8D6B7BEF9CEAA3078464646460D0AD8
:1018F00000000000BFAACABCC8ABD0BEC6ACB2C113
:10190000B3FDD1E9D6A4A3ACD7DCD0A3D1E9B0EB29
:10191000D7D6CAFDA3BA256C750D0A000D0A3D3D48
:101920003D3D3D20D1E9D6A4B5DA20256C7520BF18
:10193000E92028B0EBD7D6B5D8D6B7B7B6CEA73AF8
:101940002030782530386C58202D203078253038DC
:101950006C5829203D3D3D3D3D0D0A00CC0101085C
:1019600042A0089B09F0F8FC06F066FA4DA201219E
:1019700000200BF059FF4FF47A73A5FB03180020E9
:10198000844600FB038005FB0C0C084652460023EE
:101990006146FEF7EBFB0A220023FEF7E7FB034656
:1019A0000092012142A208460BF03EFF631CAFF2F9
:1019B000F8120121022000960BF036FF2B46AFF201
:1019C0003C22012103200BF02FFF5346AFF24C22A3
:1019D000012104200BF028FF06F034FB7F1C5F453B
:1019E00002D25545FFF4D8AD641CB442FFF4C4AD37
:1019F00007F0E2FF4FF0C041F0200880012003F023
:101A000049F81698B0B106F017FA2CA2012100206F
:101A10000BF00AFF01212DA20846159B0BF004FFD5
:101A2000AFF2C032012107200BF0FEFE06F00AFBE8
:101A3000002006E406F000FA27A2012100200BF0A6
:101A4000F3FE012128A208460BF0EEFE089B2BA214
:101A5000012102200BF0E8FEAFF2F832012107204D
:101A60000BF0E2FE06F0EEFA02201CE4D1E9D6A467
:101A7000BDF8B6C8A3BA25752F257520B0EBD7D60B
:101A8000207C20B5B1C7B0B4EDCEF3CAFDA3BA2512
:101A900075207C20B5B1C7B0BFE93A2025752F2548
:101AA000750D0A00426C616E6B20436865636B00C4
:101AB00025752E25752025250000000045726173CF
:101AC00065205375636365737300000054696D6529
:101AD0003A25757300000000457261736520466108
:101AE000696C6564000000004E6F742030784646D3
:101AF000464620436F756E743A000000256C7500F1
:101B000010B53EA009F028FC48A009F025FC51A022
:101B100009F022FC57A009F01FFC06F08DF960A225
:101B2000012100200BF080FE012160A208460BF08D
:101B30007BFE61A2012102200BF076FE62A2012150
:101B400003200BF071FE63A2012104200BF06CFE58
:101B500063A2012105200BF067FE64A2012106208B
:101B60000BF062FE65A2012107200BF05DFE06F07E
:101B700069FA65A009F0F0FB47F2305009F0C2FBAA
:101B800059280CD079280AD0052808D000281AD066
:101B90006AA009F0E1FB06F04FF96CA219E06EA013
:101BA00009F0DAFB06F048F973A2012100200BF0DE
:101BB0003BFE012173A208460BF036FE06F042FA06
:101BC000FFF72AFB15E072A009F0C6FB06F034F916
:101BD00076A2012100200BF027FE012175A2084604
:101BE0000BF022FE76A2012107200BF01DFE06F06D
:101BF00029FABDE81040002009F084BB0D0A3D3DE4
:101C00003D3D3D3D3D3D3D3D3D3D3D3D3D3D3D3D04
:101C10003D3D3D3D3D3D3D3D3D3D3D3D3D3D3D3DF4
:101C20003D3D3D3D3D3D0D0A0000000020202020AF
:101C3000BEAFB8E6A3BABCB4BDABD6B4D0D0D5FB6A
:101C4000D0BEC6ACB2C1B3FDB2D9D7F7A3A10D0ABD
:101C50000000000020202020B2C1B3FDBAF3CBF970
:101C6000D3D0CAFDBEDDBDABB6AACAA7A3A10D0ADB
:101C7000000000003D3D3D3D3D3D3D3D3D3D3D3D88
:101C80003D3D3D3D3D3D3D3D3D3D3D3D3D3D3D3D84
:101C90003D3D3D3D3D3D3D3D3D3D3D3D0D0A000051
:101CA0005741524E494E4721000000004368697079
:101CB0002045726173650000416C6C206461746141
:101CC0002077696C6C0000006265206C6F73742172
:101CD000000000005072657373204F4B000000003D
:101CE000746F20636F6E74696E75650050726573F2
:101CF00073206F746865727300000000746F206356
:101D0000616E63656C000000C7EBCAE4C8EB205944
:101D100020C8B7C8CFB2C1B3FDA3ACBBF2B0B4C842
:101D2000B7C8CFBCFCBCCCD0F8A3ACC6E4CBFBBCE2
:101D3000FCC8A1CFFBA3BA0D0A0000000D0AB2D95E
:101D4000D7F7D2D1C8A1CFFB0D0A00004F70657242
:101D50006174696F6E0000000D0AD3C3BBA7D2D1B6
:101D6000C8B7C8CFA3ACBFAACABCB2C1B3FDD0BE6E
:101D7000C6AC2E2E2E0D0A0045726173696E672E59
:101D80002E2E0000506C65617365207761697400C8
:101D90000D0AB5C8B4FDB3ACCAB1A3ACB2D9D7F77C
:101DA000D2D1C8A1CFFB0D0A0000000054696D65B7
:101DB0006F75740043616E63656C6C656400000050
:101DC000507265737320616E79206B657900000035
:101DD0002DE9F04186B000200290039002AA06216E
:101DE0000490FFF7FDF900F0FFFA8046014638A0A5
:101DF00009F0B2FA00F0CCFA064600F0C3FA044645
:101E0000314638A009F0A8FA2CB1A20A21463DA01B
:101E100009F0A2FA02E043A009F09EFA46A009F0F8
:101E20009BFA00250DF1080748A037F8151009F0B6
:101E300093FA6D1C062DF7DB3EA009F08DFA05F034
:101E4000FBFF434643A2012100200BF0EDFC0121E2
:101E5000334644A208460BF0E7FC234644A2012186
:101E600002200BF0E1FCA30A44A2012103200BF0A5
:101E7000DBFC45A2012104200BF0D6FCBDF80C10C0
:101E8000BDF80A00CDE90001BDF8083041A20121EA
:101E900005200BF0C9FCBDF81210BDF81000CDE90B
:101EA0000001BDF80E303BA2012106200BF0BCFC66
:101EB0003DA2012107200BF0B7FC06F0C3F83EA0BD
:101EC00009F04AFA002009F01DFA06B0BDE8F081D9
:101ED000414D32392049443A203078253038580D68
:101EE0000A000000414D323920434649C8DDC1BFD8
:101EF000D4ADCABCD6B53A203078253034580D0A56
:101F000000000000414D3239C8DDC1BF3A202575BF
:101F100020427974657320282575204B42797465B9
:101F2000290D0A00BBF1C8A1414D3239C8DDC1BF3E
:101F3000B4EDCEF30D0A0000307830307E307830CA
:101F40004220446174613A2000000000307825305E
:101F500034582000414D32392049443A2030782508
:101F6000303858004346493A2030782530345800FC
:101F70002575204279746573000000002575204B9B
:101F80004279746573000000307830302D3078303D
:101F9000423A00003078253034582025303458201B
:101FA0002530345800000000507265737320616E54
:101FB00079206B65790000000D0AB2D9D7F7CDEA18
:101FC000B3C9A3AC000000002DE9F0410546ADF512
:101FD0008D6D5AA75AA64FF402515B48FEF70EF9D1
:101FE0005A4C0020002D207011D0287058A009F004
:101FF000B3F90122394688A80AF0EAFB010008D0AB
:102000005DA009F0A9F963A009F0A6F925E06DA08B
:10201000FAE774A009F0A0F9314668460AF0DCFC42
:1020200001001FD074A009F097F930460AF01EFB9A
:10203000010001D07CA009E083A009F08DF93146B0
:1020400068460AF0C9FC01000CD088A009F084F9A8
:102050000122394600200AF0BBFB00200DF58D6DF2
:10206000BDE8F0818AA009F077F90DF25946207891
:1020700020284FD20DF58A6168460AF0BDFD002880
:1020800048D19DF85904002844D09DF85804C00652
:10209000EDD42E213046FEF7DDF85FEA0008E6D0E9
:1020A0008AA1FEF7C9F828B18AA14046FEF7C4F814
:1020B0000028DCD13046FEF7B8F8C1B200200DF59B
:1020C0008A620AE013185B7A7F2B04D9314683A019
:1020D00009F042F9CBE7401CC0B28842F2D3207825
:1020E000DFF8648000EB801108EB8100FF223146AD
:1020F000FEF78FF82078DDF8502400EB801108EB14
:1021000081017CA0C1F8002109F026F92078401C4B
:102110002070ACE768460AF054F9012239460020E5
:102120000AF056FB2178297021B179A009F014F941
:10213000054893E786A009F00FF9F9E7303A000067
:10214000303A2F414D323900640100200000002058
:102150005344494FCDE2C9E8B3F5CABCBBAFB3C9DC
:10216000B9A6A3ACBFAACABCB9D2D4D85446BFA89A
:102170002E2E2E0D0A0000005446BFA8B9D2D4D886
:10218000CAA7B0DC2120B4EDCEF3C2EB3A2025641F
:102190000D0A0000B4EDCEF3D4ADD2F2A3BA313DB6
:1021A0005344494FC5E4D6C3B4EDCEF3207C20346C
:1021B0003D5446BFA8CBF0BBB52FCEB4B2E5BAC3F1
:1021C0000D0A0000B2CECAFDB4EDCEF3A3BA666923
:1021D0006C655F636F756E74D6B8D5EBCEAABFD54C
:1021E0000D0A00005446BFA8B9D2D4D8B3C9B9A6C5
:1021F000A3A10D0A00000000B4F2BFAA414D32397C
:10220000C4BFC2BCCAA7B0DC2120B4EDCEF3C2EB80
:102210003A202564A3ACB3A2CAD4B4B4BDA8C4BF49
:10222000C2BC2E2E2E0D0A00B4B4BDA8414D3239C9
:10223000C4BFC2BCCAA7B0DC2120B4EDCEF3C2EB50
:102240003A2025640D0A0000414D3239C4BFC2BC9A
:10225000B4B4BDA8B3C9B9A6A3ACD6D8D0C2B4F2A1
:10226000BFAAC4BFC2BC2E2E2E0D0A00D6D8D0C223
:10227000B4F2BFAA414D3239C4BFC2BCCAA7B0DC58
:102280002120B4EDCEF3C2EB3A2025640D0A000004
:102290003D3D3D3D3D20414D3239C4BFC2BCCFC262
:1022A000B5C42E62696ECEC4BCFEC1D0B1EDA3A888
:1022B000C5C5B3FDD6D0CEC4CEC4BCFEC3FBA3A956
:1022C000203D3D3D3D3D0D0A000000002E62696E3F
:1022D000000000002E42494E00000000C5C5B3FDBD
:1022E000D6D0CEC4CEC4BCFEC3FB3A2025730D0AA3
:1022F00000000000CEC4BCFE3A202573207C20B430
:10230000F3D0A13A20256C7520D7D6BDDA0D0A008E
:102310003D3D3D3D3D20B9B2D5D2B5BD202564201F
:10232000B8F6D3D0D0A7B5C42E62696ECEC4BCFEB9
:10233000A3A8D2D1C5C5B3FDD6D0CEC4CEC4BCFEF1
:10234000C3FBA3A9203D3D3D3D3D0D0A000000001B
:10235000414D3239C4BFC2BCCFC2CEB4D5D2B5BD57
:10236000D3D0D0A7B5C42E62696ECEC4BCFEA3A8DC
:10237000CEDED6D0CEC4CEC4BCFEC3FBA3A90D0A0C
:1023800000000000002802D0012101FA00F070478F
:1023900070B54FF0C045F0262E80012002F07AFB88
:1023A0009820A5F8AA0009F03FFEB5F84E4009F0C4
:1023B0003BFE2E80012002F06DFBFF2C09D0A4F51E
:1023C0007060FF3805D0A4F57F40FF3801D020466B
:1023D00070BD02A008F0C0FF002070BDD2ECB3A316
:1023E000C8DDC1BF0000000070B54FF0C044F0264A
:1023F0002680012002F04EFB0E49AA20088009F039
:1024000013FE0D4A5520108009F00EFE9020088022
:1024100009F00AFE094D2088E88060882881A0889C
:1024200068812680012002F035FB2889E98840EA8E
:10243000014070BDAA0A0060540500600000002041
:102440002DE9F04FADF6F41DF2A00FF2CC39CDF826
:10245000D4094FF482710DF25C60FDF7CFFE0024C9
:10246000CDF8A449CDF8A849CDF8E0490127A04608
:10247000A346CDF8DC49CDF8CC49EAA0CDF8D04947
:1024800008F06AFFFFF784FFE0B11C2832D9F0A002
:1024900008F062FF05F0D0FCF4A2012100200BF04F
:1024A000C3F90121F5A208460BF0BEF9F8A20121FB
:1024B00007200BF0B9F905F0C5FD62200DF6F41DFB
:1024C000BDE8F08FF6A008F047FF05F0B5FCE7A2E5
:1024D000012100200BF0A8F90121F7A208460BF01A
:1024E000A3F9EBA2012107200BF09EF905F0AAFD4C
:1024F0006320E3E7FFF746FF0646020D0146F3A01F
:1025000008F02AFFF9A008F027FF01220DF5EC6082
:10251000DDF8D4190AF05CF9010017D0F7A008F033
:102520001BFF05F089FCD1A2012100200BF07CF9F2
:102530000121F9A208460BF077F9D5A20121072065
:102540000BF072F905F07EFD0220B7E7494604A8BA
:102550000AF042FA002836D0F3A008F0FDFE484603
:102560000AF084F8010022D0F7A008F0F5FE05F08B
:1025700063FCBEA2012100200BF056F90121FAA252
:1025800008460BF051F9FDA2012102200BF04CF995
:10259000BFA2012107200BF047F905F053FD0122EE
:1025A0000020DDF8D4190AF013F9032086E7F5A01E
:1025B00008F0D2FEF8A008F0CFFE494604A80AF0C1
:1025C0000BFA28B155E004A809F0FBFEF9A0EFE7EB
:1025D00000250DF6B91700BF0DF51B6104A80AF020
:1025E0000BFBE0BB9DF8B909C8B39DF8B809C0065C
:1025F000F2D43846FDF719FEC0B20C28ECD12E21DA
:102600003846FDF727FE5FEA000AE5D0EEA1FDF7A8
:1026100013FE28B1EEA15046FDF70EFE0028DBD1D7
:1026200000200DF51B610A18527A303A0A2AD3D2DB
:10263000401C0828F7DBCDF8E489CDF8E8890822AA
:1026400039460DF6E410CDF8EC89FDF7E2FD0DF604
:10265000E410FDF70AFEA842BED90546BCE7FFE735
:1026600004A809F0AEFE6F1C3A462946DAA008F02D
:1026700073FE3B464A46E3A10DF25C6008F07CFE27
:102680000DF25C61E3A008F067FE06220DF25C61CA
:102690000DF586600AF0CAF805002BD00146E2A0CD
:1026A00008F05AFE05F0C8FB70A2012100200BF0D3
:1026B000BBF80121E3A208460BF0B6F80DF25C630B
:1026C000E5A2012102200BF0AFF82B46E3A2012185
:1026D00003200BF0A9F86EA2012107200BF0A4F84B
:1026E00005F0B0FC01220020DDF8D4190AF070F8E2
:1026F0000420E3E600220DF6DC11DA4803F07BFE4D
:10270000F8B900220DF51E61D64803F04DFE0DF616
:10271000DC11081D0BF060F9CDF8A8099DF8DC0963
:102720009DF8DE299DF8DD198DE807009DF8E31975
:102730009DF8E2399DF8E129CBA001F5FA6108F096
:102740000BFED5A008F008FEB70E01D0002529E247
:10275000012700254FEA85684FF0000A691CD8A0C0
:1027600008F0FAFD404607F0F9F817E204F50070AA
:102770004FF40079B04201D9A6EB04094FEA59039E
:102780004FEA5A0800208CAA0FE000BF08EB0001B6
:10279000490001F1C04109884FEA112C02F810C02C
:1027A00002EB400C401C8CF801109842EED30DF661
:1027B000A4134A468CA90DF586600AF0A2FA5FEAD6
:1027C000000803D1DDF8A419494522D04146C4A030
:1027D00008F0C2FD05F030FB24A2012100200BF01F
:1027E00023F80121C5A208460BF01EF80DF25C6328
:1027F00099A2012102200BF017F8434697A201216C
:1028000003200BF011F822A2012107200BF00CF895
:102810007CE189E1303A0000303A2F414D323952A3
:10282000000000000D0A3D3D3D3D3D20BFAACABC51
:10283000B6C1C8A1414D3239D0BEC6ACC4DAC8DD7C
:10284000B5BD5446BFA8203D3D3D3D3D0D0A0000AD
:10285000D7EEB4F3D6BBD6A7B3D6533730474C30F8
:1028600032203235364D0D0A000000005265616499
:10287000204661696C656421000000004D6178208C
:10288000737570706F72743A3235364D0000000007
:10289000507265737320616E79206B65790000005A
:1028A000BBF1C8A1414D3239C8DDC1BFCAA7B0DCF8
:1028B000A3A10D0A0000000047657420434649208B
:1028C000436170204661696C00000000414D32395F
:1028D000C8DDC1BF3A20256C75204279746573202C
:1028E00028256C75204D42290D0A0000B9D2D4D894
:1028F0005446BFA82E2E2E0D0A0000005446BFA835
:10290000B9D2D4D8CAA7B0DC2120B4EDCEF3C2EB43
:102910003A2025640D0A00005446204E4F542046AC
:102920006F756E6400000000414D323952C4BFC261
:10293000BCB2BBB4E6D4DAA3ACB3A2CAD4B4B4BDBF
:10294000A82E2E2E0D0A0000B4B4BDA8414D323978
:1029500052C4BFC2BCCAA7B0DC2120B4EDCEF3C2C2
:10296000EB3A2025640D0A004372656174652041CD
:102970004D32395220446972000000004661696C92
:1029800065642100414D323952C4BFC2BCB4B4BDEC
:10299000A8B3C9B9A60D0A00C9A8C3E8414D323988
:1029A00052C4BFC2BCD6D0B5C4CEC4BCFE2E2E2EDF
:1029B0000D0A0000414D323952C4BFC2BCD2D1B45D
:1029C000E6D4DA0D0A0000002E62696E00000000F5
:1029D0002E42494E00000000D7EEB4F3CEC4BCFE38
:1029E000B1E0BAC53A202530386C752C20CFC2D260
:1029F000BBB8F6B1E0BAC53A202530386C750D0A7F
:102A00000000000025732F2530386C752E62696E2A
:102A100000000000D7BCB1B8B4B4BDA8CEC4BCFEA1
:102A20003A2025730D0A0000B4B4BDA8CEC4BCFE84
:102A3000CAA7B0DC2120B4EDCEF3C2EB3A20256466
:102A40000D0A00004372656174652046696C65205B
:102A50004661696C6564000025730000436F64651E
:102A60003A256400E4210020B6C1C8A1BFAACABCAF
:102A7000CAB1BCE4A3BA253034642D253032642DAC
:102A80002530326420253032643A253032643A25CC
:102A90003032640D0A000000BFAACABCB6C1C8A18A
:102AA000D0BEC6ACC4DAC8DDA3A8B7D636344D4212
:102AB000BFE9B4A6C0EDA3A92E2E2E0D0A0000007A
:102AC0000D0A3D3D3D3D3D20B4A6C0EDB5DA2025C3
:102AD0006C7520BFE920203D3D3D3D3D0D0A0000C5
:102AE000CEC4BCFED0B4C8EBCAA7B0DC2120B4ED84
:102AF000CEF3C2EB3A2025640D0A000046696C65EE
:102B0000207772697465206661696C0005F09AFA35
:102B10000DF5866009F040FC01220020DDF8D41993
:102B200009F056FE0520C9E44C44CA44E00301D034
:102B3000B44230D13046FDF721FC80462046FDF7F7
:102B40001DFC4146FDF7D0FB4F49FDF79BFBFDF710
:102B50001AFC6A1CCDE90227894680463246214686
:102B60004AA0CDE9008908F0F7FB05F065F954A209
:102B700001210020CDE900890AF056FE01216B1CDD
:102B800053A2084600970AF04FFE05F05BFA0121B8
:102B9000534802F084F9BAF1806F02D2B442FFF4D4
:102BA000E5AD6D1CBD42FFF4D5AD00220DF6CC1194
:102BB0004C4803F020FC28BB00220DF51D6149485C
:102BC00003F0F2FB0DF6CC11081D0AF005FFDDF84D
:102BD000A8199DF8CE29A0EB010B9DF8CC099DF812
:102BE000CD198DE807009DF8D3199DF8D2399DF8CD
:102BF000D1293DA001F5FA6108F0AEFB594646A087
:102C000008F0AAFB0DF5866009F0C6FB0122002042
:102C1000DDF8D41909F0DCFD06F0CEFE4FF0C0411E
:102C2000F0200880012001F035FF0DF25C613EA02C
:102C300008F092FB214647A008F08EFB05F0FCF857
:102C400049A2012100200AF0EFFD01215B464AA2C2
:102C500008460AF0E9FD0DF25C63AFF2042201219F
:102C600002200AF0E1FDA30A45A2012103200AF097
:102C7000DBFDAFF2E432012107200AF0D5FD05F0BB
:102C8000E1F900201AE400000000C842B6C1C8A162
:102C9000BDF8B6C8A3BA256C752F256C7520D7D69C
:102CA000BDDA2028252E3166252529207C20B5B1C6
:102CB000C7B0BFE93A2025752F25750D0A00000021
:102CC000526561643A20252E3166252500000000FA
:102CD000426C6F636B3A2025752F2575000000004C
:102CE000000C0140E4210020B6C1C8A1BDE1CAF832
:102CF000CAB1BCE4A3BA253034642D253032642D2A
:102D00002530326420253032643A253032643A2549
:102D10003032640D0A000000D7DCBAC4CAB1A3BACD
:102D2000257520C3EB0D0A000D0A3D3D3D3D3D20BC
:102D3000B6C1C8A1CDEAB3C9A3A1CEC4BCFED2D14D
:102D4000B1A3B4E6CEAAA3BA2573203D3D3D3D3DD7
:102D50000D0A0000CEC4BCFEB4F3D0A1A3BA257501
:102D600020D7D6BDDA0D0A00526561642053756321
:102D70006365737321000000257520530000000077
:102D800025754B4279746573000000002DE9F04F02
:102D9000CDB000208DF8000182464FF48071684666
:102DA000FDF72CFA4FF00008E8A008F0D5FA40A88B
:102DB000FFF70AF95FEA000934D09DF8000180B3FB
:102DC000C01DC008CDF804014FEACA60040E04F12A
:102DD0000800C6B29DF80001864200D90646301BA5
:102DE000C7B24990B84501D34FF0000805F024F868
:102DF0000025BD4229D2601900F0FF0B142144A820
:102E0000FDF7FCF90BEB8B1109EB8101102244A8B3
:102E1000FDF7FFF944ABD9A2012128460AF004FDD1
:102E200018E0FFE7D6A008F097FA05F005F8E1A250
:102E3000012100200AF0F8FC0121E2A208460AF074
:102E4000F3FC0121E3A20220BAE0E5A20121284619
:102E50000AF0EAFC6D1CEDB2082DCAD3B84518D2B1
:102E600004EB0800C5B2142144A8FDF7C7F905EB2F
:102E7000851009EB8001102244A8FDF7CAF944AB84
:102E8000DCA2012140460AF0CFFC0121404605F0BA
:102E9000C5F805F0D7F8D8A008F05EFA9DF8001143
:102EA000E1A008F059FAECA008F056FA25460DE02A
:102EB000281B05EB8512401C09EB8202C1B2F1A070
:102EC000D2F8003108F048FA6D1CEDB2B542EFD3EC
:102ED000EBA008F041FA419801280BD902460AF10B
:102EE0000101EEA008F038FAF1A008F035FAF4A0DC
:102EF00008F032FAF6A008F02FFA3946F94808F03F
:102F00002BFA00208DF80C016EE000BFB8F1000F25
:102F100002D0A8F1010014E0BAF1000F3FF454AF61
:102F2000AAF1010000F0FF0A4FEACA60010E01F1A8
:102F30000800C2B29DF80001824200D90246501A30
:102F4000401EC0B21AE000BF04F082FA58B149989E
:102F5000C0B2401E804516DA08F10100F1E700BF5B
:102F60000AF1010007E004F08FFA48B1BAF1000F4E
:102F7000D4D0AAF1010000F0FF0A0020804623E728
:102F800004F0BAFA20B14198401E8245F7DAE7E72B
:102F900004F096FA78B104EB08009DF80011C0B275
:102FA0008842ECD200EB801109EB8101FF226846D8
:102FB000FDF72FF945E004F02FFA58B1CAA061E0FF
:102FC0000AF032FCCCA2012107200AF02DFC05F00A
:102FD00039F84CE20023012243A9CB4804F0FCF865
:102FE00038B1142001F056FD04F0A2FA0028ABD04D
:102FF0008CE79DF80C0120385E2806D84FF0FF338F
:10300000012243A9C04804F03FF99DF80C01A0F14A
:10301000310107292CD83038C0B2B842AFD820448B
:10302000401E9DF80011C0B28842A8D200EB80116A
:1030300009EB8101FF226846FDF7EBF890A008F04C
:103040008BF96946B1A008F087F904F0F5FEB5A246
:10305000012100200AF0E8FB6C462046FDF7E5F868
:10306000C0B2102831D801212346B1A2084649E058
:10307000392812D0302819D0622802D042287FF493
:103080007EAFACA008F068F904F0D6FEAEA2012134
:1030900000200AF0C9FBAFA2CFE14198401E824553
:1030A00002DA0AF1010006E0ADA00BE0BAF1000F70
:1030B00007D0AAF1010000F0FF0A4FF0000870A04D
:1030C00000E0ADA008F048F97EE6142143A8FDF722
:1030D00095F8142148A8FDF791F81022214643A83D
:1030E000FDF797F8102204F1100148A8FDF791F8B8
:1030F000012143AB8EA208460AF096FB48AB8CA296
:10310000012102200AF090FBA1A2012104200AF073
:103110008BFBA2A2012105200AF086FBA2A20121BD
:1031200006200AF081FBA4A2012107200AF07CFB03
:1031300004F088FFA3A008F00FF900208DF8080123
:1031400001F0BAFE044642F210755FE10D0A3D3D02
:103150003D3D3D20D5FDD4DAC9A8C3E8414D323903
:10316000C4BFC2BCCFC2B5C42E62696ECEC4BCFEA1
:10317000203D3D3D3D3D0D0A00000000202573002F
:10318000414D3239C4BFC2BCCFC2C3BBD3D0D5D2EC
:10319000B5BD2E62696ECEC4BCFEA3ACC7EBCFC872
:1031A000B7C5C8EBCEC4BCFED4D9B2D9D7F70D0A87
:1031B000000000004E6F2042494E2066696C657326
:1031C00000000000666F756E6420696E20414D320C
:1031D000390000006469726563746F7279000000E1
:1031E00020202020202020202020202020202020DF
:1031F000000000003E2573000D0A3D3D3D3D3D3D74
:103200003D3D3D3D3D3D3D3D3D3D3D3D3D3D3D3DEE
:103210003D3D3D3D3D3D3D3D3D3D3D3D3D3D3D3DDE
:103220003D3D0D0A000000003D3D3D3D3D20C7EB0A
:10323000D1A1D4F1D2AAD0B4C8EBB5C442494ECE84
:10324000C4BCFE2028B9B22564B8F629203D3D3D16
:103250003D3D0D0A000000003D3D3D3D3D3D3D3DF5
:103260003D3D3D3D3D3D3D3D3D3D3D3D3D3D3D3D8E
:103270003D3D3D3D3D3D3D3D3D3D3D3D3D3D3D3D7E
:103280000D0A00002564202D2025732028256C754B
:1032900020D7D6BDDA290D0A00000000B5B1C7B0AD
:1032A000B5DA2025642F256420D2B30D0A00000072
:1032B00039202D20CFC2D2BBD2B30D0A00000000AE
:1032C00030202D20C9CFD2BBD2B30D0A00000000A0
:1032D00062202D20B7B5BBD8D6F7B2CBB5A50D0A65
:1032E0000000000070030108D2D1B7B5BBD8D6F7F3
:1032F000B2CBB5A50D0A0000507265737320616EE4
:1033000079206B6579000000282300200D0AC4FA9B
:10331000D1A1D4F1C1CBCEC4BCFEA3BA25730D0A92
:103320000000000053656C65637465643A0000003A
:10333000257300000D0AD2D1B7B5BBD8D6F7B2CBF2
:10334000B5A50D0A0000000052657475726E2074F8
:103350006F0000004D61696E204D656E75000000C4
:103360000D0AD2D1BEADCAC7D7EEBAF3D2BBD2B323
:10337000C1CBA3A10D0A00000D0AD2D1BEADCAC7B0
:10338000B5DAD2BBD2B3C1CBA3A10D0A00000000B5
:103390005072657373204F4B20746F0073746172A9
:1033A000742077726974650050726573732043618D
:1033B0006E63656C00000000746F2061626F727450
:1033C0000000000055415254C9CFB0B479BCFCBFD5
:1033D000AACABCD0B4C8EBA3ACB0B4C8CED2E2BCCD
:1033E000FCC8A1CFFB2E2E2E0D0A000004F068F8B9
:1033F00030BB04F011F8A8B90023012242A91F48EC
:1034000003F0EAFE40B1322001F044FB01F054FD2C
:10341000001BA842EAD305E09DF8080159280FD007
:1034200079280DD016A007F097FF04F005FD18A22B
:10343000012100200AF0F8F918A201210846BFE591
:10344000694619A007F088FF04F0F6FC1FA20121CD
:1034500000200AF0E9F96B46AFF22C120121084670
:103460000AF0E2F904F0EEFD684600F035F80020BD
:1034700007F048FF4DB0BDE8F08F00002823002082
:10348000B2D9D7F7D2D1C8A1CFFB0D0A00000000F6
:103490004F7065726174696F6E00000043616E6306
:1034A000656C6C65640000000D0A3D3D3D3D3D20AE
:1034B000BFAACABCD0B4C8EBCEC4BCFE3A202573A8
:1034C000203D3D3D3D3D0D0A0000000057726974EE
:1034D000696E672E2E2E00002DE9F14FADF5185DB7
:1034E000FEA042F2B4256D44A7904FF482712846A5
:1034F000FCF784FE0026AA96B346B146B246A896CB
:10350000A996A5963446A696FEF742FFC8B11C2898
:103510002AD904F091FCF2A2012100200AF084F9DA
:10352000F4A2012107200AF07FF904F08BFDF5A039
:1035300007F012FF62200DF2046D0DF5005DBDE88D
:10354000F08FF5A007F008FF04F076FCF6A2012149
:1035500000200AF069F9E7A2012107200AF064F9C6
:1035600004F070FD6320E6E7FEF70CFF870E80464F
:10357000089700D1012701464FEA18523B46EFA0B9
:1035800007F0EAFE0120FDF759FC022831D00DF5C5
:103590000050D0F80006002832D00DF50050D0F8C9
:1035A0000006FCF742FE00282AD00DF50050EEA1DF
:1035B000D0F80026284607F0DFFE42F2B83001229C
:1035C0006844A79909F004F901002BD0E9A007F09D
:1035D000C3FE04F031FCF1A2012100200AF024F91D
:1035E000C4A2012107200AF01FF904F02BFD0220DC
:1035F000A1E701220020A79909F0EAF80A209AE73A
:10360000EAA007F0A9FE04F017FCB5A201210020F2
:103610000AF00AF9B7A2012107200AF005F904F01F
:1036200011FDB0E00122294609A809F0FFF80500C4
:103630002BD002460DF50050D0F80016E2A007F09E
:103640008BFE04F0F9FBEAA2012100200AF0ECF85D
:103650000DF500500121D0F80036C5A208460AF049
:10366000E3F82B46E6A2012102200AF0DDF8A1A230
:10367000012107200AF0D8F804F0E4FC0122002020
:10368000A79909F0A5F8032055E70DF500508C9D8A
:10369000D0F800162A46DDA007F05EFE40464545FC
:1036A00033D902462946E2A007F056FE04F0C4FBD7
:1036B000EDA2012100200AF0B7F80121EEA2084690
:1036C0000AF0B2F84FEA9823EEA2012102200AF094
:1036D000ABF8EEA2012103200AF0A6F8AB0AE9A29A
:1036E000012104200AF0A0F882A2012107200AF09B
:1036F0009BF804F0A7FC09A808F04EFE0122002068
:10370000A79909F065F8042015E71DB3E2A007F0BA
:1037100023FE4FF0C041F0200880642001F0BAF988
:103720000022A9A9E44802F066FE00282DD0E3A0FB
:1037300007F012FE04F080FBE7A2012100200AF04E
:1037400073F86CA2012107200AF06EF804F07AFCED
:103750000520F0E6E4A007F0FFFD04F06DFBE8A211
:10376000012100200AF060F862A2012107200AF07E
:103770005BF804F067FC09A808F00EFE01220020A7
:10378000A79909F025F80120D5E60DF52A78002241
:103790004146C94802F008FEA9A940460AF01CF9B2
:1037A00001469C90DAA007F0D7FD9DF8A4029DF891
:1037B000A6229DF8A5128DE807009DF8AB129DF892
:1037C000AA329DF8A922DCA001F5FA6107F0C4FD38
:1037D000E7A007F0C1FDCDF8ACA2CDF880A299E238
:1037E0004FEA846800206FF07C41959008EB01035C
:1037F00097904246611CE8A007F0AEFD404606F0F7
:10380000ADF87EE2CDF880A2A0AB0222ABA909A858
:10381000CDF8ACA209F02AF9010003D0EDA007F021
:103820009BFD8FE2A098002854D0BDF8AC024FF069
:10383000C04190FA90F895984008009001EB400044
:10384000EF490190AA20088008F0EEFBED4A5520D0
:10385000108008F0E9FBA020088008F0E5FB009844
:10386000400000F1C040A0F8008008F0DDFB4FF4FC
:103870007A7806E008F0D8FBA8F101005FEA0008BA
:1038800029D04021E04801F005FB0028F2D0A098A3
:1038900095998344014495919799084497905FEADC
:1038A000CB3001D0AB4517D10020CDF884A2024621
:1038B0000DF5217801904146CDF88CA27E4802F0AA
:1038C0009AFD002809D001F0F7FA4FF47A71B0FBA5
:1038D000F1F09BE118E22CE20FE235E2303A000011
:1038E0004D617820537570706F72743A3235364D71
:1038F00000000000507265737320616E79206B6563
:1039000079000000D7EEB4F3D6BBD6A7B3D65337B1
:1039100030474C30320D0A00BBF1C8A1C8DDC1BF31
:10392000CAA7B0DC0D0A00004765742073697A6588
:10393000206661696C65642E00000000414D3239DB
:10394000C8DDC1BF3A20256C7520427974657320AB
:1039500028256C75204D42292C20D7DCBFE9CAFDF3
:103960003A2025750D0A0000303A2F414D32392F8B
:1039700025730000D0B4C8EBCAA7B0DCA3BA544684
:10398000BFA8B9D2D4D8CAA7B0DCA3ACB4EDCEF3EB
:10399000C2EBA3BA25640D0A000000005446204E75
:1039A0004F542070726573656E740000D0B4C8EB1C
:1039B000CAA7B0DCA3BACEC4BCFEC3FBB2CECAFD5C
:1039C000CEAABFD50D0A0000D0B4C8EBCAA7B0DCA0
:1039D000A3BAB4F2BFAACEC4BCFE2573CAA7B0DC9A
:1039E000A3ACB4EDCEF3C2EBA3BA25640D0A00007C
:1039F0004661696C20746F206F70656E0000000076
:103A0000636F64653A20256400000000B4F2BFAA29
:103A1000CEC4BCFEB3C9B9A6A3BA2573207C20B41A
:103A2000F3D0A1A3BA257520D7D6BDDA0D0A0000C0
:103A3000D0B4C8EBCAA7B0DCA3BACEC4BCFEB4F302
:103A4000D0A1282575D7D6BDDA29B3ACB9FDD0BE33
:103A5000C6ACD7EEB4F3C8DDC1BF282575D7D6BD37
:103A6000DA290D0A0000000046696C65206F766552
:103A7000722073697A650000436869702073697AFF
:103A8000653A00002564204B4200000046696C65E1
:103A90002073697A653A0000D0BEC6ACB3F5CABCE3
:103AA000BBAFA3A8BDF6B8B4CEBBD2BBB4CEA3A95E
:103AB0002E2E2E0D0A000000E4210020BBF1C8A12B
:103AC000D0B4C8EBBFAACABCCAB1BCE4CAA7B0DCB8
:103AD000A3A10D0A00000000476574205254432042
:103AE0004661696C65640000D0B4C8EBCAA7B0DC5D
:103AF000A3BACEC4BCFECEAABFD50D0A00000000FA
:103B000046696C652053697A652030427974650096
:103B1000D0B4C8EBBFAACABCCAB1BCE4A3A8556E56
:103B20006978CAB1BCE4B4C1A3A9A3BA256C752055
:103B3000C3EB0D0A00000000D0B4C8EBBFAACABC9A
:103B4000CAB1BCE4A3A8B1BEB5D8A3A9A3BA253015
:103B500034642D253032642D2530326420253032F6
:103B6000643A253032643A253032640D0A00000090
:103B7000BFAACABCD0B4C8EBCEC4BCFEB5BDD0BED3
:103B8000C6ACA3A8B7D636344D42BFE9B4A6C0ED43
:103B9000A3A92E2E2E0D0A000D0A3D3D3D3D3D20D0
:103BA000B4A6C0EDB5DA20256C7520BFE92028B594
:103BB000D8D6B7B7B6CEA73A2030782530386C586B
:103BC000202D2030782530386C5829203D3D3D3D52
:103BD0003D0D0A00D0B4C8EBCAA7B0DCA3BAB6C189
:103BE000C8A1CEC4BCFECAFDBEDDCAA7B0DCA3AC72
:103BF000B4EDCEF3C2EBA3BA25640D0A00000000B9
:103C0000AA0A006054050060001401409C99BBF1B1
:103C1000000FA0EB010814D0B8F1000F11D0284616
:103C2000FCF7ACFB01905846FCF7A8FB0199FCF7A8
:103C30005BFB01904046FCF7A1FB0199FCF754FBAC
:103C400001900198FCF79FFBCDE99E01CDE90201AF
:103C50002846FCF793FB01905846FCF78FFB01992F
:103C6000FCF742FBFE49FCF70DFBFCF78CFB9D913A
:103C700003469890DDE90202CDE9060202AA601C23
:103C800082E88101CDE900312A465946F54807F01E
:103C900063FB04F0D1F89D999898CDE90001F2A258
:103CA0000121002009F0C0FD01214346F2A208468F
:103CB00009F0BAFDDDE99E01CDE90001F1A2012183
:103CC000022009F0B1FD631CF1A20121032000973D
:103CD00009F0AAFD4FEA9B23F1A20121042009F07B
:103CE000A3FDAB0AF1A20121052009F09DFD04F01E
:103CF000A9F90121F04801F0D2F89598B0F1806F50
:103D000002D2AB45FFF47EAD611CECA0979A07F0A0
:103D100023FB641CBC42FFF463AD00BF05F04CFE06
:103D20004FF0C041F0200880012000F0B3FEAEB19A
:103D3000E1E2DDE90021EBA007F00EFB4FF0C0400F
:103D4000F02101800526E9E70022A3A9F04802F04E
:103D50002BFB4146A3A809F03FFEBAE5EDA007F012
:103D6000FBFA002109A808F03FFB002096904FF4D1
:103D70000051ADA8FCF742FACDF85CA201F09CF826
:103D8000DDF820A0A1905FEA0A0001D14FF0010AFE
:103D90005146EDA007F0E0FA002408E1A006989053
:103DA0004FF08061AAF101004FF000089B9184421E
:103DB00005D1604205EB8060884200D29B909898C4
:103DC0009B9902464318611CEB485B1E07F0C4FA3E
:103DD000989805F0C3FDDDE0281A4FF40057B8426B
:103DE00000D80746A1EB0800B84200D2074697ABBF
:103DF0003A46ADA909A808F039FE10B99798B8421B
:103E000007D0DDE996133A46DC4807F0A5FA062606
:103E1000D0E000272AE0ADA97B1CCA5D834202D214
:103E2000C819407800E0002040EA022308EB070EA2
:103E30004FEA5E00400000F1C0400088984214D074
:103E400009F1010189460A2906D94FF47A72B1FBBA
:103E5000F2FC02FB1C9141B99899CDE9000941445B
:103E600039447246C64807F077FABF1C97988742D4
:103E7000D1D3969980440144969101F01DF80746EC
:103E80009698800302D09698A8427AD12846FCF7EB
:103E900075FA01909698FCF771FA03900199FCF776
:103EA00023FA6F49FCF7EEF90490A198391A4FF400
:103EB0007A70B1FBF0F10020AC9151B10846FCF7EB
:103EC0005DFA01460398FCF70FFA6FF00901FCF761
:103ED00049FAFCF758FACDE900010498FCF753FAC7
:103EE000AC9A0892DDE90023CDE906239F9104F105
:103EF000010CCDE9015CCDE903A90746969A009231
:103F00003A460B469F4807F027FA03F095FF9F9922
:103F10009DA2CDE900710121002009F085FC01215D
:103F2000631C5BA20846CDF800A009F07DFC64216B
:103F300008FB01F09B9999A2B0FBF1F3012102204B
:103F400009F072FCB9F1000009D0034696A20121E4
:103F5000032009F069FC0022022157480EE095A2D7
:103F60000121032009F060FC534F0121384600F085
:103F700091FF00285BD000220121384600F097FF16
:103F800000E007E08EA201210420AC9B09F04CFC6C
:103F900004F058F89B99884503D29698A842FFF4FC
:103FA0001BAF4246611C89A007F0D6F9641C54453A
:103FB000FFF4F4AE00F080FFA199411A4FF47A703B
:103FC000B1FBF0F48DA007F0C7F923464A4693A051
:103FD000969907F0C1F9B9F100002AD001460626EA
:103FE0009CA007F0B9F903F027FFA4A2012100204B
:103FF00009F01AFC01214B466BA2084609F014FC9B
:1040000023466FA20121022009F00EFCAFF21C72C0
:104010000121072009F008FC04F014F8264C0022C6
:104020000221204600F043FF0122114660E10122F7
:10403000A2E796A007F090F903F0FEFE9DA20121F1
:10404000002009F0F1FB012123465DA2084609F09A
:10405000EBFBAB0A9BA20121022009F0E5FB37E153
:104060000000C842B802010857726974696E673A65
:1040700020252E31662525005573653A2025755378
:10408000000000004573743A20252E31665300006D
:10409000426C6F636B3A2025752F25750000000078
:1040A00057726974653A2025754B0000546F74612E
:1040B0006C3A2025754B0000000C0140B5DA202534
:1040C0006C7520BFE9D0B4C8EBCDEAB3C9A3ACB9D5
:1040D000B2D0B4C8EB20256C7520D7D6BDDA0D0A56
:1040E00000000000D0B4C8EBB3ACCAB1A3BAB5D8D5
:1040F000D6B73078253038582028BFE9C4DAB0EB7D
:10410000D7D6C6ABD2C6307825303658290D0A002E
:10411000E4210020BFAACABCC8ABC1BFD6F0576F0C
:104120007264D1E9D6A4A3A8CEC4BCFE5653D0BEB7
:10413000C6ACA3ACB7D636344D42BFE9B4A6C0ED89
:10414000A3A92E2E2E0D0A00D0BEC6ACC8DDC1BF5D
:104150003A20344D422C2046534D43BFE9B4F3D0AE
:10416000A13A2036344D422C20D7DCBFE9CAFD3AB3
:104170002025750D0A0000003001010870020108B9
:10418000740101080C0301085665726966696E675F
:104190003A20252E3166252500000000426C6F6311
:1041A0006B3A2025752525004572726F72733A208F
:1041B000256C75004E6F204572726F72730000009F
:1041C00054696D653A20257573000000B5DA202525
:1041D0006C7520BFE9202836344D422920D1E9D61C
:1041E000A4CDEAB3C9A3ACB1BEBFE9D1E9D6A4203E
:1041F000256C7520D7D6BDDA0D0A00000D0A3D3DAD
:104200003D3D3D20C8ABC1BFD1E9D6A4CDEAB3C97D
:10421000203D3D3D3D3D0D0A00000000D7DCD1E9C9
:10422000D6A4D7D6BDDACAFDA3BA256C75207C20EA
:10423000B2BBD2BBD6C2576F7264CAFDA3BA256C9B
:1042400075207C20D7DCD3C3CAB1A3BA257520C39F
:10425000EB0D0A00D1E9D6A4CAA7B0DCA3A1B7A28E
:10426000CFD620256C7520B8F6576F7264CAFDBE94
:10427000DDB2BBD2BBD6C20D0A0000005665726922
:104280006679204661696C6564210000C8ABC1BFD6
:10429000D6F0576F7264D0A3D1E9CDA8B9FDA3A120
:1042A000CBF9D3D0CAFDBEDDCDEAC8ABD2BBD6C2F6
:1042B0000D0A00005665726966792053756363655F
:1042C0007373210053697A653A2025754B420000CB
:1042D000AFF6E0120121072009F0A6FA03F0B2FEC2
:1042E000654C00220121204600F0E1FD012202215F
:1042F000204600F0DCFD09A808F04EF8012200205D
:10430000A79908F065FA05F057FB4FF0C041F0207F
:104310000880012000F0BEFB6EB3062E7ED00DF5A6
:104320000050D0F8001655A007F016F803F084FDF1
:1043300058A20121002009F077FA0DF50050012163
:10434000D0F8003657A2084609F06EFA334658A254
:104350000121022009F068FAAFF668220121072046
:1043600009F062FA03F06EFE30460DF2046D0DF5B1
:10437000005DBDE8F08FA5AD00222946504802F04F
:104380003AF818B14FA006F0E7FF28E0A6AC0022EB
:1043900021464B4802F008F82946204609F01CFB4C
:1043A000044601464EA006F0D7FF9DF894029DF802
:1043B00096229DF895128DE807009DF89B129DF8B6
:1043C0009A329DF8992250A001F5FA6106F0C4FFD7
:1043D0009C98201A0146A89059A006F0BDFF0DF543
:1043E00000505A46D0F800165CA006F0B5FF03F066
:1043F00023FD64A20121002009F016FAAFF28832F1
:1044000001210846A89B09F00FFA4FEA9B23AFF25F
:104410004C120121022009F007FA00E009E0AFF692
:104420002C320121072009F0FFF903F00BFE0020D8
:104430009BE70DF500504A46D0F8001655A006F04F
:104440008BFF03F0F9FC60A20121002009F0ECF9D8
:104450000DF500500121D0F8003612A2084609F0EF
:10446000E3F95DA20121022009F0DEF901214B46AA
:104470005CA203206EE70000000C0140CEC4BCFE2D
:104480002573D0B4C8EBD0BEC6ACCAA7B0DCA3A11C
:104490000D0A00005772697465204661696C656495
:1044A0000000000046696C653A202573000000009A
:1044B0004572726F72436F64653A20257500000083
:1044C000E4210020BBF1C8A1D0B4C8EBBDE1CAF81B
:1044D000CAB1BCE4CAA7B0DCA3A10D0A0000000069
:1044E000D0B4C8EBBDE1CAF8CAB1BCE4A3A8556E0C
:1044F0006978CAB1BCE4B4C1A3A9A3BA256C75207C
:10450000C3EB0D0A00000000D0B4C8EBBDE1CAF84F
:10451000CAB1BCE4A3A8B1BEB5D8A3A9A3BA25303B
:1045200034642D253032642D25303264202530321C
:10453000643A253032643A253032640D0A000000B6
:10454000414D3239D0BEC6ACD0B4C8EBBAC4CAB142
:10455000A3BA257520C3EB0D0A000000CEC4BCFE33
:104560002573D0B4C8EBD0BEC6ACB3C9B9A6A3A15D
:10457000D7DCD0B4C8EBD7D6BDDAA3BA25750D0AFF
:10458000000000005772697465205375636365739A
:1045900073000000CEC4BCFE2573D0B4C8EBD0BEFF
:1045A000C6ACCAA7B0DCA3A1D1E9D6A4B7A2CFD626
:1045B00020257520B8F6576F7264CAFDBEDDB2BB08
:1045C000D2BBD6C20D0A00005665726966792046D4
:1045D00061696C65640000004572726F72436F75AB
:1045E0006E743A002575000010B5012421020348BD
:1045F00000F050FC00B10024204610BD000801402E
:104600000146014802F0FCB94C22002010B50448D4
:1046100002F008FA042801D0012010BD002010BDCE
:104620004C22002010B500F015F8012801D001201F
:1046300010BD074802F00FFA040006D14FF40061E4
:10464000034802F071F800B10124204610BD0000BB
:104650004C22002008B501208DF80000FFF7C4FFB0
:1046600010B900208DF800009DF8000008BD000082
:1046700038B50024009313460A460146034802F069
:10468000A1FA00B10124204638BD00004C220020D0
:1046900038B50024009313460A460146034802F049
:1046A00081FB00B10124204638BD00004C220020CF
:1046B000FEE7704772B6FEE7002200F001B8000086
:1046C00030B50E4B054601205C7A012C15D8587A7E
:1046D00000241C54587A03EB800045605D7A03F196
:1046E00008002A54587A421C5A72303008703A2016
:1046F00048702F208870CC70002030BDBC3E002058
:1047000010B5D1E9004344EA03230C89097B240452
:1047100044EA01610B43102A03D0C16AC36200203E
:1047200010BDC168C360FAE710B5D1E9004344EA9F
:1047300003230C89097B240444EA01610B43102AFA
:1047400003D0816A8362002010BD81688360FAE72C
:1047500070B5D1E901231A43D1E9033633431A4333
:104760004B690D6889690B4C42EA432242EA4131A8
:10477000102D07D0026A2240114341F00801016266
:10478000002070BD02682240114341F00801016021
:10479000F6E700008101F0FF30B5B3F5804F05D09A
:1047A0006FF0704140F82210002030BD8C690B681A
:1047B0008D6823434C688989240144EA05242343F6
:1047C00043EA014150F82230014C23401943E9E704
:1047D0000000F0CF10B50A6850F8223023F0010332
:1047E00040F822308C68082C23D000234A682243EA
:1047F000CC681C430B6922431A434B690E4C1A4385
:10480000CB691A430B6A1A434B6A1A438B6A1A43E1
:10481000CB6A1A430B6B1A438B6913434A6B0968C3
:104820001A4350F82130A343134340F821300020AD
:1048300010BD4023DAE700007FFF0F0030B5D1E95B
:10484000003443EA04138C688D89240244EA054449
:1048500023430C8A074D00EB820005EB04542343ED
:104860000C7D6D0105EB0464896923430B434360B0
:10487000002030BD0000F0FF50F8212022F48052CB
:1048800040F821200020704708B500208DF8000076
:1048900002F04EFE20B126A006F05EFD012008BD0C
:1048A00002F0D6FD20B126A006F056FD022008BD7C
:1048B00002F0EAFD20B126A006F04EFD032008BD5F
:1048C00002F01AFE20B126A006F046FD042008BD25
:1048D00002F0F6FD20B126A006F03EFD052008BD41
:1048E00002F09AFD20B127A006F036FD062008BD93
:1048F000002301226946284802F06EFC08B100201E
:1049000008BD9DF8000020385E280DD84FF0FF3319
:1049100001226946204802F0B7FC9DF800000D28EE
:1049200002D11EA006F018FD9DF8000008BD000091
:10493000BCECB2E2B5BDA3BAC9CFBCFC0D0A000005
:10494000BCECB2E2B5BDA3BACFC2BCFC0D0A0000FC
:10495000BCECB2E2B5BDA3BAD7F3BCFC0D0A0000B3
:10496000BCECB2E2B5BDA3BAD3D2BCFC0D0A0000C8
:10497000BCECB2E2B5BDA3BAC8B7C8CFBCFC0D0A47
:1049800000000000BCECB2E2B5BDA3BAC8A1CFFBE9
:10499000BCFC0D0A00000000282300200A000000D3
:1049A00038B5354C00208DF80000A07820B960782B
:1049B00003F0EEFB0120A07002F0BAFD80B1607838
:1049C00003280DD9012103F029FB60780121401E45
:1049D000C0B2607003F022FB617828A006F0BCFC36
:1049E00002F036FD80B1607807280DD2012103F076
:1049F00015FB60780121401CC0B2607003F00EFB13
:104A000061781EA006F0A8FC02F05AFD90B1607813
:104A1000C01E05282DD2DFE800F0030507090B00B2
:104A2000012038BD022038BD032038BD042038BD28
:104A3000052038BD002301226946154802F0CCFB51
:104A4000B8B99DF80000A0F13101042911D82E3821
:104A5000C5B26078854207D0012103F0DFFA28460D
:104A60006570012103F0DAFA9DF800003038C0B219
:104A700038BD002038BD0000000000200D0AB5B18F
:104A8000C7B0D1A1D4F1A3BAD0D02025640D0A00BB
:104A90002823002070B5044600F00EFA0546601C7D
:104AA00002D004480078044400F006FA401BA042FB
:104AB000FAD370BD9800002070B586B00026224859
:104AC00000960196029603960168002939D10121CA
:104AD00001601E48416941F48071416140690224CE
:104AE00000F4807004904FF6FC70CDE900040325BB
:104AF00069460395164800F0D1F84FF23F00CDE922
:104B0000000469460395134800F0C8F846F23F20B8
:104B1000CDE90004694603950F4800F0BFF84FF651
:104B2000B370CDE900040D4C69460395204600F0B2
:104B3000B5F84020CDE9000669462046029600F00F
:104B4000ADF806B070BD0000180000200010024053
:104B500000180140001C01400020014000140140E9
:104B60002DE9F0430023454F0F2581E001229A40B3
:104B70000A407BD023F00304E619D6F808809C078E
:104B80004FEA147C05FA0CF909EA0804DFF8F08012
:104B9000404502D14FF0000824E0DFF8E8804045AE
:104BA00002D14FF001081DE0DFF8DC80404502D162
:104BB0004FF0020816E0DFF8D480404502D14FF0F4
:104BC00003080FE0DFF8C880404502D14FF0040829
:104BD00008E0DFF8C080404502D14FF0050801E051
:104BE0004FF0060808FA0CF8A04522D12A4CD4F858
:104BF00000C02CEA020CC4F800C0241DD4F800C088
:104C00002CEA020CC4F800C0234C0C34D4F800C0C9
:104C10002CEA020CC4F800C0241FD4F800C02CEA0F
:104C2000020CC4F800C0D6F808C02CEA090CC6F87B
:104C300008C0FF2A01D8064601E000F104064FEA49
:104C4000830401D9A4F12004D6F800C005FA04F8C1
:104C50002CEA080C4FF0040808FA04F84CEA080C97
:104C6000C6F800C0C46824EA0204C46003F101036A
:104C700031FA03F27FF47AAFBDE8F083000001401F
:104C800000080140000C01400010014000140140E8
:104C900000180140001C0140000401402DE9F84FBC
:104CA000DFF8C8910024A9F1040B23460F2709F16E
:104CB000040AABF1040ED1E00125A54006EA050285
:104CC000AA4276D1DFF8A8C14E68A6EB0C0866456B
:104CD0002BD00DDC032E34D005DC36B3012E19D0D9
:104CE000022E2FD11BE0112E16D0122E2AD119E040
:104CF000B8F5881F19D006DCB8F5803F15D0B8F597
:104D0000801F1FD111E0B8F5001F0ED0B8F5041FA9
:104D100018D10AE0CB6815E0CB681B1D12E0CB6808
:104D200008330FE0CB680C330CE08B682BB1012B00
:104D30004FF0080303D0456104E0042302E005615D
:104D400000E00023FF2A01D8064601E000F1040636
:104D50004FEA840501D9A5F12005D6F8008007FAAD
:104D600005FC28EA0C0803FA05F548EA0508C6F828
:104D700000804D68ED0070D53E4DAE6946F00106ED
:104D8000AE61AD6924F0030605F0010500953A4DCA
:104D900006EB050CDCF80850A607360F07FA06F8F4
:104DA00025EA0805DFF8D480404503D14FF000081C
:104DB00025E052E0DFF8C880404502D14FF00108FD
:104DC0001DE0DFF8C080404502D14FF0020816E038
:104DD000DFF8B480404502D14FF003080FE0DFF860
:104DE000AC80404502D14FF0040808E0DFF8A08015
:104DF000404502D14FF0050801E04FF0060808FADF
:104E000006F848EA0508CCF808804D68D9F8006033
:104E1000ED024D4601D5164300E096432E604D68E5
:104E2000DAF80060AD02554601D5164300E096431E
:104E30002E604D68DBF80060AD035D4601D516437A
:104E400000E096432E604D68DEF80060ED03754685
:104E500001D5164300E096432E60641C0A6816468E
:104E6000E2407FF429AFBDE8F88F0000080401405C
:104E70000000111000100240000001400008014035
:104E8000000C0140001001400014014000180140D6
:104E9000001C01408068084000D001207047C268B3
:104EA00021EA02030A4043EA0241016170470AB164
:104EB000016170470904FBE7014880687047000002
:104EC00098000020014800787047000098000020FA
:104ED00070B5040025D094F83D00002520B984F871
:104EE0003C50204600F0B8F8242084F83D002068AB
:104EF000016821F0010101602068016841F400416E
:104F000001602068016821F40041016001F076F839
:104F10004D4A6168914201D84C4900E04C498842B1
:104F200001D2012070BD4B492368B0FBF1F15E68EE
:104F300026F03F060E435E606368934206D94FF445
:104F4000967359434FF47A73B1FBF3F12368491C0C
:104F50001E6A26F03F06314319626168914210D8FB
:104F60004900401EB0FBF1F2521CC2F30B02042AAE
:104F700001D2042022E0B0FBF1F0401CC0F30B0092
:104F80001CE0A268F2B301EBC10303EB0116431E60
:104F9000B3FBF6F35B1C43F480431B0549D092B38B
:104FA00001EBC10202EB0111401EB0FBF1F0401C0D
:104FB000C0F30B0040F4804040F400402168CA690F
:104FC0004CF6FF739A431043C861D4E907100143BC
:104FD0002068026822F0C00211430160D4E9030195
:104FE00001432068826848F2FF339A43114381608D
:104FF000D4E9050108432168CA6822F0FF02104382
:10500000C86001E00EE016E02068016841F001018F
:1050100001602564202084F83D00256384F83E501B
:10502000002070BD01EB4106431EB3FBF6F35B1C91
:10503000B3E70120C2E701EB4101401EB0FBF1F0F4
:10504000401CC0F30B00B7E7A086010080841E005F
:1050500000093D0040420F0010B586B000210091CC
:1050600001910291039100680F4988421AD10F4CB7
:10507000A06940F00800A061A069694600F008003E
:105080000490C02000901220019003200390084853
:10509000FFF704FEE06940F40010E061E06900F40D
:1050A0000010049006B010BD0054004000100240F3
:1050B000000C014002488168027811448160704709
:1050C00098000020074810B5016841F01001016008
:1050D000032000F055F90F2000F006F800F024F846
:1050E000002010BD0020024070B50D4D04464FF465
:1050F0007A712878B1FBF0F00A490968B1FBF0F049
:1051000001F0BAFF48B9102C07D200222146501EE8
:1051100000F016F900206C6070BD012070BD000029
:1051200098000020A80000200C4808B5816941F0D3
:1051300001018161816901F001010091C16941F0C2
:105140008051C161C06900F08050009004484168FE
:1051500021F0E06141F00071416008BD00100240A3
:105160000000014070B515460E46040003D094F8C7
:10517000210010B107E0012070BD002084F820005C
:10518000204600F020F8211D2068FFF7E1FAD4E95D
:1051900000023146FFF7C8FAD4E900022946FFF7BA
:1051A000AFFA60681028206808D0016A41F0040155
:1051B0000162012084F82100002070BD016841F0E7
:1051C00004010160F5E7FFF777BC00002DE9F0412D
:1051D0001746884604004FF0000504D094F84100BB
:1051E000002618B107E00120BDE8F08184F8406096
:1051F000204600F059F804F108012068FFF7EAFAA8
:105200004146A2682068FFF719FBD4E9010239463C
:10521000236BFFF7C1FAA168206850F8212042F003
:10522000010240F821201F4A6169012011B310607A
:1052300084F84100A168F9B1022920D0042921D0C5
:105240004FF0D840A36A03B31168982321B3012912
:1052500022D000F155010B80BFF34F8F1168012957
:105260001DD0133000886064204600F01FF805460A
:105270002846B9E71660DBE74FF0C040E2E74FF0A1
:10528000C840DFE74FF0D040DCE72068FFF7F4FAD2
:10529000042084F84100EBE700F1AA01DBE72630A7
:1052A000E0E70000A4000020FFF706BC10B590F86E
:1052B00041200023022A24D0042A01D0012A01D04F
:1052C000012010BD90F8401001291AD0012180F86A
:1052D0004010022180F841108168A1B1022915D047
:1052E000042916D04FF0D841446C022C14D0012C64
:1052F00014D0012380F84120002180F84010184686
:1053000010BD022010BD4FF0C041EDE74FF0C84185
:10531000EAE74FF0D041E7E7F02400E0FF240C80FB
:10532000BFF34F8FE6E7002809DB00F01F020121E1
:1053300091404009800000F1E020C0F80011704762
:10534000F0B40E4B1B680C46C3F30223C3F10705F0
:10535000042D00D90425191D072901D2002300E0DE
:10536000DB1E012606FA05F1491E214099409E40A8
:10537000761E16403143F0BC06F02CB80CED00E070
:10538000064900F0070208684FF6FF03184040EA9C
:105390000220034A10430860704700000CED00E053
:1053A0000000FA0510B50C0607D501F0070101EB66
:1053B000810100EBC100103005E001EB810100EB41
:1053C000C10000F5A87099B232B1012202730181C7
:1053D000190C4181002010BD00220273C180F9E741
:1053E000704701EB810200EBC202D0F8D402526A8E
:1053F00004F01FBE01EB810200EBC202D0F8D40220
:10540000D2F8642104F078BE70B504460B0601F0B2
:10541000070000EB800104EBC1014FF001024FF0E7
:10542000000502D54A74103103E081F8515101F5AD
:10543000A871087094F89002012808D084F890228E
:10544000206805F0B3FB84F89052002070BD022064
:1054500070BD70B5044601F00F002279904201D969
:10546000012070BD0B0601F0070000EB800104EB8A
:10547000C1014FF001024FF0000502D54A7410310E
:1054800003E081F8515101F5A8718D70087094F80E
:105490009002012808D084F89022206805F023FCAF
:1054A00084F89052002070BD022070BD2DE9F05F9D
:1054B00004685FEA424C0B788D69B4F850C04FF035
:1054C00000064BF68F7948F2800A48F68F7B48F247
:1054D000C00E4FF480672AD54FF0020808EBC308CE
:1054E000C44407EB4C07E45BC4F30904A54203D3AF
:1054F0002D1B8D6101D00BE08E61066836F82350BC
:1055000005EA090585F4005545EA0A0526F8235001
:10551000520609D50D78036833F8252002EA0B02FC
:1055200042EA0E0223F8252084B30A8929E04FF0CD
:10553000060808EBC308C44407EB4C07E45BC4F35C
:105540000904A54203D32D1B8D6101D00BE08E61B0
:10555000066836F8235005EA090585F4005545EA42
:105560000A0526F82350520609D40B78056835F849
:10557000232002EA0B0242EA0E0225F823202CB176
:105580004A8949690068234605F08AFE2046BDE83D
:10559000F09F2DE9F05F054600680C465FEA426C1B
:1055A00016468B692278B0F850C048F68F774CF2D7
:1055B00080094FF4004B4FF6FF7E4FF4806A4FF0A6
:1055C000000172D54FF0020808EBC208E0440AEB74
:1055D000480C30F80C00C0F30900834211D91B1AA3
:1055E000A3610FD0730407D52E6836F822303B40F4
:1055F00043EA090326F8223094F82420012A47D0F0
:1056000052E1A161607810B1012813D01AE0286836
:10561000B0F85030184400EB0210B0F80424C2F384
:105620000902A0F80424B0F8042442F40042A0F8CF
:10563000042407E02868B0F85030184400EB02104A
:10564000A0F804146278286812B1012A11D018E079
:10565000B0F850100844217800EB0110B0F80C1499
:10566000C1F30901A0F80C14B0F80C1441F4004186
:1056700005E0B0F850201044227800EB0210A0F8AA
:105680000C1421782846FFF7ACFE700472D40BE1AD
:10569000626902446261E2690244E2612369226A4A
:1056A0009A4203D31846111A04E03EE084F824100D
:1056B0000AB110462162617811B1012929D031E087
:1056C0002968B1F850201144227801EB0211B1F899
:1056D0000424C2F30902A1F8042401F204413E2883
:1056E00007D94209C30600D1521E0B884BEA822219
:1056F00007E048B14208C30700D0521C0B880EEAED
:10570000822213430B800DE00A8842F400420A8093
:1057100008E02968B1F850201144227801EB021109
:10572000A1F8040483B22289BAE04FF0060808EB1E
:10573000C208E0440AEB480C30F80C00C0F3090042
:10574000834211D31B1AA3610FD0730407D42E68B0
:1057500036F822303B4043EA090326F8223094F819
:105760002420012A51D09FE0A161607818B101285E
:1057700014D01BE03FE02868B0F85030184400EB2C
:105780000210B0F80424C2F30902A0F80424B0F80F
:10579000042442F40042A0F8042407E02868B0F88A
:1057A0005030184400EB0210A0F804146278286806
:1057B00012B1012A11D018E0B0F850100844217835
:1057C00000EB0110B0F80C14C1F30901A0F80C149F
:1057D000B0F80C1441F4004105E0B0F8502010443A
:1057E000227800EB0210A0F80C1421782846FFF76D
:1057F000F8FD700458D42278296831F82200384026
:1058000040EA090021F822004EE062690244626128
:10581000E2690244E2612369226A9A4203D318468C
:10582000111A216204E00AB11046216284F82410A2
:105830006278296812B1012A28D02FE0B1F85020EF
:105840001144227801EB0211B1F80C24C2F30902D1
:10585000A1F80C2401F20C413E2807D94209C306E5
:1058600000D1521E0B884BEA822207E048B1420861
:10587000C30700D0521C0B880EEA822213430B8010
:105880000CE00A8842F400420A8007E0B1F8502098
:105890001144227801EB0211A1F80C04628983B251
:1058A0006169286805F01AFD2278296831F822001C
:1058B00048F6BF73184080F0300048F28003184368
:1058C00021F822000020BDE8F09F10B5044690F8B2
:1058D000900201280AD0012084F89002080607D51A
:1058E00001F00701206805F0CFFC04E0022010BDA4
:1058F000206805F0C7FC002084F8900210BD01F07C
:10590000070101EB810100EBC100D0F86C01704789
:105910002DE9F04104460F0601F0070000EB80017D
:1059200004EBC1014FF001064FF0000502D54E74A3
:10593000103103E081F8515101F5A871022B087074
:105940000A61CB7000D10D7194F89002012809D042
:1059500084F89062206804F0D9FF284684F89052B9
:10596000BDE8F0810220FBE710B501F0070404EB6D
:10597000840100EBC101C1E959230022C1F86C2167
:1059800081F8512181F85041006801F5A87105F0B6
:10599000FFF9002010BD70B504460D4601F0070068
:1059A0002179884201D9012070BD29064FF00006F7
:1059B0004FF0010206D500EB800104EBC1014A74EF
:1059C000103107E005EB850104EBC10181F851615D
:1059D00001F5A8718A70087094F89002012807D028
:1059E00084F89022206805F0BAF9680702D006E032
:1059F000022070BD04F52671206805F072F984F864
:105A00009062002070BD10B501F0070404EB840122
:105A100000EBC101C1E90923012281F834200B63A5
:105A20000023CB624A7401F8104F006805F0B0F90A
:105A3000002010BD1FB50446006805F02DFC0104D0
:105A400003D5204602F064FC1FBD41050DD520683A
:105A500030F8441F21F480610180204600F000F9F5
:105A60000021204600F017F91FBD410405D520682C
:105A700030F8441F21F4804174E0810405D520688A
:105A800030F8441F21F400516CE0C10414D52068A3
:105A900030F8401F21F004010180206830F8401FD9
:105AA00021F008010180204600F0EDF8206830F870
:105AB000441F21F4805155E0010540D5D4F8002061
:105AC0000020694632F8203021F81030401CC0B266
:105AD0000828F7D332F8400F40F00100108020680A
